{"contracts/ChallengeContract.sol":{"ChallengeContract":{"abi":[{"inputs":[{"internalType":"address","name":"_tokenAddress","type":"address"}],"stateMutability":"nonpayable","type":"constructor"},{"anonymous":false,"inputs":[{"indexed":false,"internalType":"uint256","name":"challengeId","type":"uint256"},{"indexed":false,"internalType":"uint256","name":"closureDate","type":"uint256"}],"name":"ChallengeClosureScheduled","type":"event"},{"anonymous":false,"inputs":[{"indexed":false,"internalType":"uint256","name":"challengeId","type":"uint256"}],"name":"ChallengeCompleted","type":"event"},{"anonymous":false,"inputs":[{"indexed":false,"internalType":"uint256","name":"challengeId","type":"uint256"},{"indexed":false,"internalType":"string","name":"challengeName","type":"string"},{"indexed":false,"internalType":"uint256","name":"entryAmount","type":"uint256"},{"indexed":false,"internalType":"address","name":"creator","type":"address"}],"name":"ChallengeCreated","type":"event"},{"anonymous":false,"inputs":[{"indexed":false,"internalType":"uint256","name":"challengeId","type":"uint256"},{"indexed":false,"internalType":"address","name":"participant","type":"address"}],"name":"ChallengeJoined","type":"event"},{"anonymous":false,"inputs":[{"indexed":false,"internalType":"uint256","name":"challengeId","type":"uint256"},{"indexed":false,"internalType":"address","name":"participant","type":"address"}],"name":"ChallengeRewardClaimed","type":"event"},{"inputs":[],"name":"admin","outputs":[{"internalType":"address","name":"","type":"address"}],"stateMutability":"view","type":"function"},{"inputs":[{"internalType":"uint256","name":"","type":"uint256"}],"name":"challenges","outputs":[{"internalType":"address","name":"creator","type":"address"},{"internalType":"string","name":"challengeName","type":"string"},{"internalType":"uint256","name":"entryAmount","type":"uint256"},{"internalType":"uint256","name":"totalAmount","type":"uint256"},{"internalType":"uint256","name":"creationTime","type":"uint256"},{"internalType":"uint256","name":"applicationDeadline","type":"uint256"},{"internalType":"uint256","name":"duration","type":"uint256"},{"internalType":"bool","name":"canApplication","type":"bool"},{"internalType":"bool","name":"completed","type":"bool"},{"internalType":"uint256","name":"numOfWakeUpCheckToWin","type":"uint256"},{"internalType":"uint256","name":"numOfWinners","type":"uint256"}],"stateMutability":"view","type":"function"},{"inputs":[{"internalType":"uint256","name":"_challengeId","type":"uint256"}],"name":"claimRewards","outputs":[],"stateMutability":"nonpayable","type":"function"},{"inputs":[{"internalType":"uint256","name":"_challengeId","type":"uint256"}],"name":"closeChallenge","outputs":[],"stateMutability":"nonpayable","type":"function"},{"inputs":[{"internalType":"string","name":"_challengeName","type":"string"},{"internalType":"uint256","name":"_duration","type":"uint256"},{"internalType":"uint256","name":"_entryAmount","type":"uint256"}],"name":"createChallenge","outputs":[],"stateMutability":"nonpayable","type":"function"},{"inputs":[],"name":"getChallengeCount","outputs":[{"internalType":"uint256","name":"","type":"uint256"}],"stateMutability":"view","type":"function"},{"inputs":[],"name":"getCurrentChallenges","outputs":[{"components":[{"internalType":"uint256","name":"id","type":"uint256"},{"internalType":"string","name":"challengeName","type":"string"},{"internalType":"uint256","name":"entryAmount","type":"uint256"},{"internalType":"uint256","name":"currentTotalAmount","type":"uint256"},{"internalType":"uint256[4]","name":"appDeadline","type":"uint256[4]"},{"internalType":"uint256[4]","name":"dueDate","type":"uint256[4]"}],"internalType":"struct ChallengeStorage.OngoingChallenge[]","name":"","type":"tuple[]"}],"stateMutability":"view","type":"function"},{"inputs":[{"internalType":"uint256","name":"_challengeId","type":"uint256"}],"name":"joinChallenge","outputs":[],"stateMutability":"nonpayable","type":"function"},{"inputs":[{"internalType":"uint256","name":"_challengeId","type":"uint256"}],"name":"runChallenge","outputs":[],"stateMutability":"nonpayable","type":"function"},{"inputs":[{"internalType":"address","name":"_newTokenAddress","type":"address"}],"name":"setTokenAddress","outputs":[],"stateMutability":"nonpayable","type":"function"},{"inputs":[],"name":"token","outputs":[{"internalType":"contract IERC20","name":"","type":"address"}],"stateMutability":"view","type":"function"},{"inputs":[{"internalType":"uint256","name":"_challengeId","type":"uint256"}],"name":"wakeUpCheck","outputs":[],"stateMutability":"nonpayable","type":"function"},{"inputs":[{"internalType":"uint256","name":"_challengeId","type":"uint256"}],"name":"withdrawalReward","outputs":[],"stateMutability":"nonpayable","type":"function"}],"evm":{"bytecode":{"linkReferences":{},"object":"60806040523480156200001157600080fd5b50604051620043e9380380620043e9833981810160405281019062000037919062000129565b80600160006101000a81548173ffffffffffffffffffffffffffffffffffffffff021916908373ffffffffffffffffffffffffffffffffffffffff160217905550336000806101000a81548173ffffffffffffffffffffffffffffffffffffffff021916908373ffffffffffffffffffffffffffffffffffffffff160217905550506200015b565b600080fd5b600073ffffffffffffffffffffffffffffffffffffffff82169050919050565b6000620000f182620000c4565b9050919050565b6200010381620000e4565b81146200010f57600080fd5b50565b6000815190506200012381620000f8565b92915050565b600060208284031215620001425762000141620000bf565b5b6000620001528482850162000112565b91505092915050565b61427e806200016b6000396000f3fe608060405234801561001057600080fd5b50600436106100cf5760003560e01c8063497ddc631161008c5780638f1d3776116100665780638f1d3776146101d4578063e448ee261461020e578063f851a4401461022a578063fc0c546a14610248576100cf565b8063497ddc63146101805780634a4ae32b1461019c57806359808a97146101b8576100cf565b80630933f467146100d45780630962ef79146100f257806318d95b761461010e5780631aaaac931461012c57806326a4e8d214610148578063335eff3e14610164575b600080fd5b6100dc610266565b6040516100e991906129fe565b60405180910390f35b61010c60048036038101906101079190612a59565b610273565b005b610116610747565b6040516101239190612d0e565b60405180910390f35b61014660048036038101906101419190612e65565b610ab0565b005b610162600480360381019061015d9190612f32565b610ef7565b005b61017e60048036038101906101799190612a59565b611038565b005b61019a60048036038101906101959190612a59565b611490565b005b6101b660048036038101906101b19190612a59565b611648565b005b6101d260048036038101906101cd9190612a59565b6116eb565b005b6101ee60048036038101906101e99190612a59565b61181d565b6040516102059b9a99989796959493929190612fd3565b60405180910390f35b61022860048036038101906102239190612a59565b611949565b005b610232611f95565b60405161023f9190613085565b60405180910390f35b610250611fb9565b60405161025d91906130ff565b60405180910390f35b6000600280549050905090565b8060028054905081106102bb576040517f08c379a00000000000000000000000000000000000000000000000000000000081526004016102b290613166565b60405180910390fd5b600282815481106102cf576102ce613186565b5b90600052602060002090600e020160070160019054906101000a900460ff1661032d576040517f08c379a000000000000000000000000000000000000000000000000000000000815260040161032490613201565b60405180910390fd5b6002828154811061034157610340613186565b5b90600052602060002090600e0201600c0160003373ffffffffffffffffffffffffffffffffffffffff1673ffffffffffffffffffffffffffffffffffffffff16815260200190815260200160002060009054906101000a900460ff166103dc576040517f08c379a00000000000000000000000000000000000000000000000000000000081526004016103d390613293565b60405180910390fd5b600282815481106103f0576103ef613186565b5b90600052602060002090600e0201600d0160003373ffffffffffffffffffffffffffffffffffffffff1673ffffffffffffffffffffffffffffffffffffffff16815260200190815260200160002060009054906101000a900460ff161561048c576040517f08c379a0000000000000000000000000000000000000000000000000000000008152600401610483906132ff565b60405180910390fd5b600282815481106104a05761049f613186565b5b90600052602060002090600e020160080154600283815481106104c6576104c5613186565b5b90600052602060002090600e0201600a0160003373ffffffffffffffffffffffffffffffffffffffff1673ffffffffffffffffffffffffffffffffffffffff1681526020019081526020016000205414610555576040517f08c379a000000000000000000000000000000000000000000000000000000000815260040161054c9061336b565b60405180910390fd5b60006002838154811061056b5761056a613186565b5b90600052602060002090600e0201600901546002848154811061059157610590613186565b5b90600052602060002090600e0201600301546105ad91906133e9565b9050600160009054906101000a900473ffffffffffffffffffffffffffffffffffffffff1673ffffffffffffffffffffffffffffffffffffffff1663a9059cbb33836040518363ffffffff1660e01b815260040161060c92919061341a565b6020604051808303816000875af115801561062b573d6000803e3d6000fd5b505050506040513d601f19601f8201168201806040525081019061064f919061346f565b61068e576040517f08c379a0000000000000000000000000000000000000000000000000000000008152600401610685906134e8565b60405180910390fd5b6001600284815481106106a4576106a3613186565b5b90600052602060002090600e0201600d0160003373ffffffffffffffffffffffffffffffffffffffff1673ffffffffffffffffffffffffffffffffffffffff16815260200190815260200160002060006101000a81548160ff0219169083151502179055507fcc543a67f8dfe04cfbe3cdcf9eacffa678f7b557e40f7d0051fcf17e8165d5e3833360405161073a929190613508565b60405180910390a1505050565b60606000805b6002805490508110156107b3576002818154811061076e5761076d613186565b5b90600052602060002090600e020160070160019054906101000a900460ff166107a057818061079c90613531565b9250505b80806107ab90613531565b91505061074d565b5060008167ffffffffffffffff8111156107d0576107cf612d3a565b5b60405190808252806020026020018201604052801561080957816020015b6107f6612981565b8152602001906001900390816107ee5790505b5090506000805b600280549050811015610aa6576002818154811061083157610830613186565b5b90600052602060002090600e020160070160019054906101000a900460ff16610a935760008060006108b7600285815481106108705761086f613186565b5b90600052602060002090600e0201600601546002868154811061089657610895613186565b5b90600052602060002090600e0201600501546108b29190613579565b611fdf565b505092509250925060008060006108f2600288815481106108db576108da613186565b5b90600052602060002090600e020160050154611fdf565b50509250925092506040518060c001604052808881526020016002898154811061091f5761091e613186565b5b90600052602060002090600e0201600101805461093b906135dc565b80601f0160208091040260200160405190810160405280929190818152602001828054610967906135dc565b80156109b45780601f10610989576101008083540402835291602001916109b4565b820191906000526020600020905b81548152906001019060200180831161099757829003601f168201915b50505050508152602001600289815481106109d2576109d1613186565b5b90600052602060002090600e0201600201548152602001600289815481106109fd576109fc613186565b5b90600052602060002090600e020160030154815260200160405180608001604052808681526020018581526020018481526020016015815250815260200160405180608001604052808981526020018881526020018781526020016015815250815250898981518110610a7357610a72613186565b5b60200260200101819052508780610a8990613531565b9850505050505050505b8080610a9e90613531565b915050610810565b5081935050505090565b60008111610af3576040517f08c379a0000000000000000000000000000000000000000000000000000000008152600401610aea9061367f565b60405180910390fd5b600160009054906101000a900473ffffffffffffffffffffffffffffffffffffffff1673ffffffffffffffffffffffffffffffffffffffff1663095ea7b330836040518363ffffffff1660e01b8152600401610b5092919061341a565b6020604051808303816000875af1158015610b6f573d6000803e3d6000fd5b505050506040513d601f19601f82011682018060405250810190610b93919061346f565b610bd2576040517f08c379a0000000000000000000000000000000000000000000000000000000008152600401610bc990613711565b60405180910390fd5b600160009054906101000a900473ffffffffffffffffffffffffffffffffffffffff1673ffffffffffffffffffffffffffffffffffffffff166323b872dd3330846040518463ffffffff1660e01b8152600401610c3193929190613731565b6020604051808303816000875af1158015610c50573d6000803e3d6000fd5b505050506040513d601f19601f82011682018060405250810190610c74919061346f565b610cb3576040517f08c379a0000000000000000000000000000000000000000000000000000000008152600401610caa906137b4565b60405180910390fd5b600260018160018154018082558091505003906000526020600020905050600060026001600280549050610ce791906137d4565b81548110610cf857610cf7613186565b5b90600052602060002090600e02019050338160000160006101000a81548173ffffffffffffffffffffffffffffffffffffffff021916908373ffffffffffffffffffffffffffffffffffffffff16021790555083816001019081610d5c91906139aa565b5081816002018190555081816003016000828254610d7a9190613579565b925050819055504281600401819055506201518042610d999190613579565b816005018190555082816006018190555060018160070160006101000a81548160ff02191690831515021790555060008160070160016101000a81548160ff0219169083151502179055506201518083610df391906133e9565b8160080181905550600181600c0160003373ffffffffffffffffffffffffffffffffffffffff1673ffffffffffffffffffffffffffffffffffffffff16815260200190815260200160002060006101000a81548160ff02191690831515021790555060006001600280549050610e6991906137d4565b90507f46ea7ee0990cde33902e77e2d7200322990cb03186c32d68f2966739d28fb36681868533604051610ea09493929190613a7c565b60405180910390a17f79db182af3410c60080d8e7c7ed50f1977b0df228f066bbea532e7d75af80d2c81858460050154610eda9190613579565b604051610ee8929190613ac8565b60405180910390a15050505050565b60008054906101000a900473ffffffffffffffffffffffffffffffffffffffff1673ffffffffffffffffffffffffffffffffffffffff163373ffffffffffffffffffffffffffffffffffffffff1614610f85576040517f08c379a0000000000000000000000000000000000000000000000000000000008152600401610f7c90613b63565b60405180910390fd5b600073ffffffffffffffffffffffffffffffffffffffff168173ffffffffffffffffffffffffffffffffffffffff1603610ff4576040517f08c379a0000000000000000000000000000000000000000000000000000000008152600401610feb90613bcf565b60405180910390fd5b80600160006101000a81548173ffffffffffffffffffffffffffffffffffffffff021916908373ffffffffffffffffffffffffffffffffffffffff16021790555050565b806002805490508110611080576040517f08c379a000000000000000000000000000000000000000000000000000000000815260040161107790613166565b60405180910390fd5b6002818154811061109457611093613186565b5b90600052602060002090600e020160070160019054906101000a900460ff16156110f3576040517f08c379a00000000000000000000000000000000000000000000000000000000081526004016110ea90613c3b565b60405180910390fd5b6002828154811061110757611106613186565b5b90600052602060002090600e0201600c0160003373ffffffffffffffffffffffffffffffffffffffff1673ffffffffffffffffffffffffffffffffffffffff16815260200190815260200160002060009054906101000a900460ff166111a2576040517f08c379a000000000000000000000000000000000000000000000000000000000815260040161119990613293565b60405180910390fd5b6000806000611212600286815481106111be576111bd613186565b5b90600052602060002090600e0201600b0160003373ffffffffffffffffffffffffffffffffffffffff1673ffffffffffffffffffffffffffffffffffffffff16815260200190815260200160002054611fdf565b5050925092509250600080600080600061122b42611fdf565b945094509450945094508785118061124257508684115b8061124c57508583115b61128b576040517f08c379a000000000000000000000000000000000000000000000000000000000815260040161128290613ca7565b60405180910390fd5b60068214801561129c575060058111155b6112db576040517f08c379a00000000000000000000000000000000000000000000000000000000081526004016112d290613d13565b60405180910390fd5b60028a815481106112ef576112ee613186565b5b90600052602060002090600e0201600a0160003373ffffffffffffffffffffffffffffffffffffffff1673ffffffffffffffffffffffffffffffffffffffff168152602001908152602001600020600081548092919061134e90613531565b91905055504260028b8154811061136857611367613186565b5b90600052602060002090600e0201600b0160003373ffffffffffffffffffffffffffffffffffffffff1673ffffffffffffffffffffffffffffffffffffffff1681526020019081526020016000208190555060028a815481106113ce576113cd613186565b5b90600052602060002090600e02016008015460028b815481106113f4576113f3613186565b5b90600052602060002090600e0201600a0160003373ffffffffffffffffffffffffffffffffffffffff1673ffffffffffffffffffffffffffffffffffffffff16815260200190815260200160002054036114845760028a8154811061145c5761145b613186565b5b90600052602060002090600e0201600901600081548092919061147e90613531565b91905055505b50505050505050505050565b60008054906101000a900473ffffffffffffffffffffffffffffffffffffffff1673ffffffffffffffffffffffffffffffffffffffff163373ffffffffffffffffffffffffffffffffffffffff161461151e576040517f08c379a000000000000000000000000000000000000000000000000000000000815260040161151590613b63565b60405180910390fd5b60008060006115516002858154811061153a57611539613186565b5b90600052602060002090600e020160050154611fdf565b505092509250925060008060008061156842611fdf565b5093509350935093508684118061157e57508583115b8061158857508482115b806115935750601581115b6115d2576040517f08c379a00000000000000000000000000000000000000000000000000000000081526004016115c990613da5565b60405180910390fd5b6000600289815481106115e8576115e7613186565b5b90600052602060002090600e020160070160006101000a81548160ff02191690831515021790555061163e6002898154811061162757611626613186565b5b90600052602060002090600e02016003015461228c565b5050505050505050565b6002818154811061165c5761165b613186565b5b90600052602060002090600e020160070160019054906101000a900460ff166116ba576040517f08c379a00000000000000000000000000000000000000000000000000000000081526004016116b190613e11565b60405180910390fd5b6116e8600282815481106116d1576116d0613186565b5b90600052602060002090600e02016003015461244b565b50565b60008054906101000a900473ffffffffffffffffffffffffffffffffffffffff1673ffffffffffffffffffffffffffffffffffffffff163373ffffffffffffffffffffffffffffffffffffffff1614611779576040517f08c379a000000000000000000000000000000000000000000000000000000000815260040161177090613b63565b60405180910390fd5b6002818154811061178d5761178c613186565b5b90600052602060002090600e020160060154600282815481106117b3576117b2613186565b5b90600052602060002090600e0201600501546117cf9190613579565b421015611811576040517f08c379a000000000000000000000000000000000000000000000000000000000815260040161180890613e7d565b60405180910390fd5b61181a816125b6565b50565b6002818154811061182d57600080fd5b90600052602060002090600e02016000915090508060000160009054906101000a900473ffffffffffffffffffffffffffffffffffffffff1690806001018054611876906135dc565b80601f01602080910402602001604051908101604052809291908181526020018280546118a2906135dc565b80156118ef5780601f106118c4576101008083540402835291602001916118ef565b820191906000526020600020905b8154815290600101906020018083116118d257829003601f168201915b5050505050908060020154908060030154908060040154908060050154908060060154908060070160009054906101000a900460ff16908060070160019054906101000a900460ff1690806008015490806009015490508b565b806002805490508110611991576040517f08c379a000000000000000000000000000000000000000000000000000000000815260040161198890613166565b60405180910390fd5b600281815481106119a5576119a4613186565b5b90600052602060002090600e020160070160019054906101000a900460ff1615611a04576040517f08c379a00000000000000000000000000000000000000000000000000000000081526004016119fb90613c3b565b60405180910390fd5b6000806000611a3760028681548110611a2057611a1f613186565b5b90600052602060002090600e020160050154611fdf565b5050925092509250600080600080611a4e42611fdf565b50935093509350935086841080611a6457508583105b80611a6e57508482105b80611a795750601581105b611ab8576040517f08c379a0000000000000000000000000000000000000000000000000000000008152600401611aaf90613da5565b60405180910390fd5b60028981548110611acc57611acb613186565b5b90600052602060002090600e0201600c0160003373ffffffffffffffffffffffffffffffffffffffff1673ffffffffffffffffffffffffffffffffffffffff16815260200190815260200160002060009054906101000a900460ff1615611b68576040517f08c379a0000000000000000000000000000000000000000000000000000000008152600401611b5f90613ee9565b60405180910390fd5b60028981548110611b7c57611b7b613186565b5b90600052602060002090600e020160020154600160009054906101000a900473ffffffffffffffffffffffffffffffffffffffff1673ffffffffffffffffffffffffffffffffffffffff166370a08231336040518263ffffffff1660e01b8152600401611be99190613085565b602060405180830381865afa158015611c06573d6000803e3d6000fd5b505050506040513d601f19601f82011682018060405250810190611c2a9190613f1e565b1015611c6b576040517f08c379a0000000000000000000000000000000000000000000000000000000008152600401611c6290613f97565b60405180910390fd5b600160009054906101000a900473ffffffffffffffffffffffffffffffffffffffff1673ffffffffffffffffffffffffffffffffffffffff1663095ea7b33060028c81548110611cbe57611cbd613186565b5b90600052602060002090600e0201600201546040518363ffffffff1660e01b8152600401611ced92919061341a565b6020604051808303816000875af1158015611d0c573d6000803e3d6000fd5b505050506040513d601f19601f82011682018060405250810190611d30919061346f565b611d6f576040517f08c379a0000000000000000000000000000000000000000000000000000000008152600401611d6690613711565b60405180910390fd5b600160009054906101000a900473ffffffffffffffffffffffffffffffffffffffff1673ffffffffffffffffffffffffffffffffffffffff166323b872dd333060028d81548110611dc357611dc2613186565b5b90600052602060002090600e0201600201546040518463ffffffff1660e01b8152600401611df393929190613731565b6020604051808303816000875af1158015611e12573d6000803e3d6000fd5b505050506040513d601f19601f82011682018060405250810190611e36919061346f565b611e75576040517f08c379a0000000000000000000000000000000000000000000000000000000008152600401611e6c906137b4565b60405180910390fd5b7f690ecbabe96222b39728b512682860cc6460002a670ff94954038286bea0ba698933604051611ea6929190613508565b60405180910390a1600160028a81548110611ec457611ec3613186565b5b90600052602060002090600e0201600c0160003373ffffffffffffffffffffffffffffffffffffffff1673ffffffffffffffffffffffffffffffffffffffff16815260200190815260200160002060006101000a81548160ff02191690831515021790555060028981548110611f3d57611f3c613186565b5b90600052602060002090600e02016002015460028a81548110611f6357611f62613186565b5b90600052602060002090600e02016003016000828254611f839190613579565b92505081905550505050505050505050565b60008054906101000a900473ffffffffffffffffffffffffffffffffffffffff1681565b600160009054906101000a900473ffffffffffffffffffffffffffffffffffffffff1681565b600080600080600080617e90905060008188611ffb9190613579565b9050600062015180905060006301e13380905060006301e28500905060006107b290506000805b86858361202f9190613579565b116120bd5760006004846120439190613fb7565b1480156120755750600060648461205a9190613fb7565b14158061207457506000610190846120729190613fb7565b145b5b1561209b5783826120869190613579565b9150808061209390613531565b9150506120aa565b84826120a79190613579565b91505b82806120b590613531565b935050612022565b829c506000604051806101800160405280601f60ff1660ff168152602001601c60ff1660ff168152602001601f60ff1660ff168152602001601e60ff1660ff168152602001601f60ff1660ff168152602001601e60ff1660ff168152602001601f60ff1660ff168152602001601f60ff1660ff168152602001601e60ff1660ff168152602001601f60ff1660ff168152602001601e60ff1660ff168152602001601f60ff1660ff16815250905060005b6001156121f2576000600c820361218457506121f2565b888383600c811061219857612197613186565b5b602002015160ff166121aa9190613fe8565b816121b59190613579565b905080856121c39190613579565b8a10156121d057506121f2565b80856121dc9190613579565b945081806121e990613531565b9250505061216d565b6001816121ff9190613579565b9d50600188858b61221091906137d4565b61221a91906133e9565b6122249190613579565b9c50600088858b61223591906137d4565b61223f9190613579565b9050610e1089826122509190613fb7565b61225a91906133e9565b9c50603c610e108261226c9190613fb7565b61227691906133e9565b9b50505050505050505050505091939590929450565b600073e86fcf5213c785acf9a8bffeedefa9a2199f7da690506000730e1ef78939f9d3340e63a7a1077d50999cc6b64f731f4aef3a04372cf9d738d5459f31950a53969ca36040516020016122e292919061402a565b604051602081830303815290604052905060007368c1f9620aec7f2913430ad6dac1bb16d8444f0073ffffffffffffffffffffffffffffffffffffffff16838584604051602401612335939291906140a8565b6040516020818303038152906040527fd8146e75000000000000000000000000000000000000000000000000000000007bffffffffffffffffffffffffffffffffffffffffffffffffffffffff19166020820180517bffffffffffffffffffffffffffffffffffffffffffffffffffffffff83818316178352505050506040516123bf9190614122565b6000604051808303816000865af19150503d80600081146123fc576040519150601f19603f3d011682016040523d82523d6000602084013e612401565b606091505b5050905080612445576040517f08c379a000000000000000000000000000000000000000000000000000000000815260040161243c90614185565b60405180910390fd5b50505050565b6000730e1ef78939f9d3340e63a7a1077d50999cc6b64f73ffffffffffffffffffffffffffffffffffffffff16731f4aef3a04372cf9d738d5459f31950a53969ca38360016040516024016124a2939291906141a5565b6040516020818303038152906040527f53d3ce5f000000000000000000000000000000000000000000000000000000007bffffffffffffffffffffffffffffffffffffffffffffffffffffffff19166020820180517bffffffffffffffffffffffffffffffffffffffffffffffffffffffff838183161783525050505060405161252c9190614122565b6000604051808303816000865af19150503d8060008114612569576040519150601f19603f3d011682016040523d82523d6000602084013e61256e565b606091505b50509050806125b2576040517f08c379a00000000000000000000000000000000000000000000000000000000081526004016125a990614185565b60405180910390fd5b5050565b8060028054905081106125fe576040517f08c379a00000000000000000000000000000000000000000000000000000000081526004016125f590613166565b60405180910390fd5b6002818154811061261257612611613186565b5b90600052602060002090600e020160070160019054906101000a900460ff1615612671576040517f08c379a000000000000000000000000000000000000000000000000000000000815260040161266890613c3b565b60405180910390fd5b60006002838154811061268757612686613186565b5b90600052602060002090600e020160060154600284815481106126ad576126ac613186565b5b90600052602060002090600e0201600501546126c99190613579565b90506000806000806126da42611fdf565b50935093509350935060008060006126f188611fdf565b50509250925092508287118061270657508186115b8061271057508085115b8061271c575060158410155b61275b576040517f08c379a000000000000000000000000000000000000000000000000000000000815260040161275290614228565b60405180910390fd5b612798633b9aca0060028c8154811061277757612776613186565b5b90600052602060002090600e0201600301546127939190613fe8565b612819565b600160028b815481106127ae576127ad613186565b5b90600052602060002090600e020160070160016101000a81548160ff0219169083151502179055507fc61ef8151923bbd8dc5f723ba25f26bb805ef4f9a52c5811df7242872edd2e0b8a60405161280591906129fe565b60405180910390a150505050505050505050565b6000730e1ef78939f9d3340e63a7a1077d50999cc6b64f73ffffffffffffffffffffffffffffffffffffffff16731f4aef3a04372cf9d738d5459f31950a53969ca38360405160240161286d92919061341a565b6040516020818303038152906040527fd8b11821000000000000000000000000000000000000000000000000000000007bffffffffffffffffffffffffffffffffffffffffffffffffffffffff19166020820180517bffffffffffffffffffffffffffffffffffffffffffffffffffffffff83818316178352505050506040516128f79190614122565b6000604051808303816000865af19150503d8060008114612934576040519150601f19603f3d011682016040523d82523d6000602084013e612939565b606091505b505090508061297d576040517f08c379a000000000000000000000000000000000000000000000000000000000815260040161297490614185565b60405180910390fd5b5050565b6040518060c00160405280600081526020016060815260200160008152602001600081526020016129b06129c3565b81526020016129bd6129c3565b81525090565b6040518060800160405280600490602082028036833780820191505090505090565b6000819050919050565b6129f8816129e5565b82525050565b6000602082019050612a1360008301846129ef565b92915050565b6000604051905090565b600080fd5b600080fd5b612a36816129e5565b8114612a4157600080fd5b50565b600081359050612a5381612a2d565b92915050565b600060208284031215612a6f57612a6e612a23565b5b6000612a7d84828501612a44565b91505092915050565b600081519050919050565b600082825260208201905092915050565b6000819050602082019050919050565b612abb816129e5565b82525050565b600081519050919050565b600082825260208201905092915050565b60005b83811015612afb578082015181840152602081019050612ae0565b60008484015250505050565b6000601f19601f8301169050919050565b6000612b2382612ac1565b612b2d8185612acc565b9350612b3d818560208601612add565b612b4681612b07565b840191505092915050565b600060049050919050565b600081905092915050565b6000819050919050565b6000612b7d8383612ab2565b60208301905092915050565b6000602082019050919050565b612b9f81612b51565b612ba98184612b5c565b9250612bb482612b67565b8060005b83811015612be5578151612bcc8782612b71565b9650612bd783612b89565b925050600181019050612bb8565b505050505050565b600061018083016000830151612c066000860182612ab2565b5060208301518482036020860152612c1e8282612b18565b9150506040830151612c336040860182612ab2565b506060830151612c466060860182612ab2565b506080830151612c596080860182612b96565b5060a0830151612c6d610100860182612b96565b508091505092915050565b6000612c848383612bed565b905092915050565b6000602082019050919050565b6000612ca482612a86565b612cae8185612a91565b935083602082028501612cc085612aa2565b8060005b85811015612cfc5784840389528151612cdd8582612c78565b9450612ce883612c8c565b925060208a01995050600181019050612cc4565b50829750879550505050505092915050565b60006020820190508181036000830152612d288184612c99565b905092915050565b600080fd5b600080fd5b7f4e487b7100000000000000000000000000000000000000000000000000000000600052604160045260246000fd5b612d7282612b07565b810181811067ffffffffffffffff82111715612d9157612d90612d3a565b5b80604052505050565b6000612da4612a19565b9050612db08282612d69565b919050565b600067ffffffffffffffff821115612dd057612dcf612d3a565b5b612dd982612b07565b9050602081019050919050565b82818337600083830152505050565b6000612e08612e0384612db5565b612d9a565b905082815260208101848484011115612e2457612e23612d35565b5b612e2f848285612de6565b509392505050565b600082601f830112612e4c57612e4b612d30565b5b8135612e5c848260208601612df5565b91505092915050565b600080600060608486031215612e7e57612e7d612a23565b5b600084013567ffffffffffffffff811115612e9c57612e9b612a28565b5b612ea886828701612e37565b9350506020612eb986828701612a44565b9250506040612eca86828701612a44565b9150509250925092565b600073ffffffffffffffffffffffffffffffffffffffff82169050919050565b6000612eff82612ed4565b9050919050565b612f0f81612ef4565b8114612f1a57600080fd5b50565b600081359050612f2c81612f06565b92915050565b600060208284031215612f4857612f47612a23565b5b6000612f5684828501612f1d565b91505092915050565b612f6881612ef4565b82525050565b600082825260208201905092915050565b6000612f8a82612ac1565b612f948185612f6e565b9350612fa4818560208601612add565b612fad81612b07565b840191505092915050565b60008115159050919050565b612fcd81612fb8565b82525050565b600061016082019050612fe9600083018e612f5f565b8181036020830152612ffb818d612f7f565b905061300a604083018c6129ef565b613017606083018b6129ef565b613024608083018a6129ef565b61303160a08301896129ef565b61303e60c08301886129ef565b61304b60e0830187612fc4565b613059610100830186612fc4565b6130676101208301856129ef565b6130756101408301846129ef565b9c9b505050505050505050505050565b600060208201905061309a6000830184612f5f565b92915050565b6000819050919050565b60006130c56130c06130bb84612ed4565b6130a0565b612ed4565b9050919050565b60006130d7826130aa565b9050919050565b60006130e9826130cc565b9050919050565b6130f9816130de565b82525050565b600060208201905061311460008301846130f0565b92915050565b7f496e76616c6964206368616c6c656e6765204944000000000000000000000000600082015250565b6000613150601483612f6e565b915061315b8261311a565b602082019050919050565b6000602082019050818103600083015261317f81613143565b9050919050565b7f4e487b7100000000000000000000000000000000000000000000000000000000600052603260045260246000fd5b7f4368616c6c656e67652069736e277420636f6d706c65746564207965742e0000600082015250565b60006131eb601e83612f6e565b91506131f6826131b5565b602082019050919050565b6000602082019050818103600083015261321a816131de565b9050919050565b7f596f75277265206e6f742061207061727469636970616e74206f66207468697360008201527f206368616c6c656e67652e000000000000000000000000000000000000000000602082015250565b600061327d602b83612f6e565b915061328882613221565b604082019050919050565b600060208201905081810360008301526132ac81613270565b9050919050565b7f416c726561647920636c61696d65640000000000000000000000000000000000600082015250565b60006132e9600f83612f6e565b91506132f4826132b3565b602082019050919050565b60006020820190508181036000830152613318816132dc565b9050919050565b7f596f75206469646e27742077696e2074686973206368616c6c656e67652e0000600082015250565b6000613355601e83612f6e565b91506133608261331f565b602082019050919050565b6000602082019050818103600083015261338481613348565b9050919050565b7f4e487b7100000000000000000000000000000000000000000000000000000000600052601260045260246000fd5b7f4e487b7100000000000000000000000000000000000000000000000000000000600052601160045260246000fd5b60006133f4826129e5565b91506133ff836129e5565b92508261340f5761340e61338b565b5b828204905092915050565b600060408201905061342f6000830185612f5f565b61343c60208301846129ef565b9392505050565b61344c81612fb8565b811461345757600080fd5b50565b60008151905061346981613443565b92915050565b60006020828403121561348557613484612a23565b5b60006134938482850161345a565b91505092915050565b7f52657761726420636c61696d206661696c65642e000000000000000000000000600082015250565b60006134d2601483612f6e565b91506134dd8261349c565b602082019050919050565b60006020820190508181036000830152613501816134c5565b9050919050565b600060408201905061351d60008301856129ef565b61352a6020830184612f5f565b9392505050565b600061353c826129e5565b91507fffffffffffffffffffffffffffffffffffffffffffffffffffffffffffffffff820361356e5761356d6133ba565b5b600182019050919050565b6000613584826129e5565b915061358f836129e5565b92508282019050808211156135a7576135a66133ba565b5b92915050565b7f4e487b7100000000000000000000000000000000000000000000000000000000600052602260045260246000fd5b600060028204905060018216806135f457607f821691505b602082108103613607576136066135ad565b5b50919050565b7f456e74727920616d6f756e742073686f756c642062652067726561746572207460008201527f68616e2030000000000000000000000000000000000000000000000000000000602082015250565b6000613669602583612f6e565b91506136748261360d565b604082019050919050565b600060208201905081810360008301526136988161365c565b9050919050565b7f4661696c656420746f20617070726f766520746f6b656e7320666f722074726160008201527f6e73666572000000000000000000000000000000000000000000000000000000602082015250565b60006136fb602583612f6e565b91506137068261369f565b604082019050919050565b6000602082019050818103600083015261372a816136ee565b9050919050565b60006060820190506137466000830186612f5f565b6137536020830185612f5f565b61376060408301846129ef565b949350505050565b7f4661696c656420746f207472616e7366657220746f6b656e7300000000000000600082015250565b600061379e601983612f6e565b91506137a982613768565b602082019050919050565b600060208201905081810360008301526137cd81613791565b9050919050565b60006137df826129e5565b91506137ea836129e5565b9250828203905081811115613802576138016133ba565b5b92915050565b60008190508160005260206000209050919050565b60006020601f8301049050919050565b600082821b905092915050565b60006008830261386a7fffffffffffffffffffffffffffffffffffffffffffffffffffffffffffffffff8261382d565b613874868361382d565b95508019841693508086168417925050509392505050565b60006138a76138a261389d846129e5565b6130a0565b6129e5565b9050919050565b6000819050919050565b6138c18361388c565b6138d56138cd826138ae565b84845461383a565b825550505050565b600090565b6138ea6138dd565b6138f58184846138b8565b505050565b5b818110156139195761390e6000826138e2565b6001810190506138fb565b5050565b601f82111561395e5761392f81613808565b6139388461381d565b81016020851015613947578190505b61395b6139538561381d565b8301826138fa565b50505b505050565b600082821c905092915050565b600061398160001984600802613963565b1980831691505092915050565b600061399a8383613970565b9150826002028217905092915050565b6139b382612ac1565b67ffffffffffffffff8111156139cc576139cb612d3a565b5b6139d682546135dc565b6139e182828561391d565b600060209050601f831160018114613a145760008415613a02578287015190505b613a0c858261398e565b865550613a74565b601f198416613a2286613808565b60005b82811015613a4a57848901518255600182019150602085019450602081019050613a25565b86831015613a675784890151613a63601f891682613970565b8355505b6001600288020188555050505b505050505050565b6000608082019050613a9160008301876129ef565b8181036020830152613aa38186612f7f565b9050613ab260408301856129ef565b613abf6060830184612f5f565b95945050505050565b6000604082019050613add60008301856129ef565b613aea60208301846129ef565b9392505050565b7f4f6e6c79207468652061646d696e2063616e2063616c6c20746869732066756e60008201527f6374696f6e2e0000000000000000000000000000000000000000000000000000602082015250565b6000613b4d602683612f6e565b9150613b5882613af1565b604082019050919050565b60006020820190508181036000830152613b7c81613b40565b9050919050565b7f496e76616c696420616464726573732e00000000000000000000000000000000600082015250565b6000613bb9601083612f6e565b9150613bc482613b83565b602082019050919050565b60006020820190508181036000830152613be881613bac565b9050919050565b7f4368616c6c656e676520616c726561647920636f6d706c657465640000000000600082015250565b6000613c25601b83612f6e565b9150613c3082613bef565b602082019050919050565b60006020820190508181036000830152613c5481613c18565b9050919050565b7f596f7527766520616c726561647920636865636b656420746f6461792e000000600082015250565b6000613c91601d83612f6e565b9150613c9c82613c5b565b602082019050919050565b60006020820190508181036000830152613cc081613c84565b9050919050565b7f596f75277665206661696c656420746f6461792773206d697373696f6e2e0000600082015250565b6000613cfd601e83612f6e565b9150613d0882613cc7565b602082019050919050565b60006020820190508181036000830152613d2c81613cf0565b9050919050565b7f546865206170706c69636174696f6e20706572696f642068617320657870697260008201527f65642e0000000000000000000000000000000000000000000000000000000000602082015250565b6000613d8f602383612f6e565b9150613d9a82613d33565b604082019050919050565b60006020820190508181036000830152613dbe81613d82565b9050919050565b7f6368616c6c656e67652069736e277420636f6d706c6574656400000000000000600082015250565b6000613dfb601983612f6e565b9150613e0682613dc5565b602082019050919050565b60006020820190508181036000830152613e2a81613dee565b9050919050565b7f4368616c6c656e6765206475726174696f6e206e6f74206f7665722079657400600082015250565b6000613e67601f83612f6e565b9150613e7282613e31565b602082019050919050565b60006020820190508181036000830152613e9681613e5a565b9050919050565b7f596f7527766520616c7265616479206a6f696e65642e00000000000000000000600082015250565b6000613ed3601683612f6e565b9150613ede82613e9d565b602082019050919050565b60006020820190508181036000830152613f0281613ec6565b9050919050565b600081519050613f1881612a2d565b92915050565b600060208284031215613f3457613f33612a23565b5b6000613f4284828501613f09565b91505092915050565b7f496e73756666696369656e7420656e74727920616d6f756e7400000000000000600082015250565b6000613f81601983612f6e565b9150613f8c82613f4b565b602082019050919050565b60006020820190508181036000830152613fb081613f74565b9050919050565b6000613fc2826129e5565b9150613fcd836129e5565b925082613fdd57613fdc61338b565b5b828206905092915050565b6000613ff3826129e5565b9150613ffe836129e5565b925082820261400c816129e5565b91508282048414831517614023576140226133ba565b5b5092915050565b600060408201905061403f6000830185612f5f565b61404c6020830184612f5f565b9392505050565b600081519050919050565b600082825260208201905092915050565b600061407a82614053565b614084818561405e565b9350614094818560208601612add565b61409d81612b07565b840191505092915050565b60006060820190506140bd6000830186612f5f565b6140ca60208301856129ef565b81810360408301526140dc818461406f565b9050949350505050565b600081905092915050565b60006140fc82614053565b61410681856140e6565b9350614116818560208601612add565b80840191505092915050565b600061412e82846140f1565b915081905092915050565b7f45787465726e616c2063616c6c206661696c6564000000000000000000000000600082015250565b600061416f601483612f6e565b915061417a82614139565b602082019050919050565b6000602082019050818103600083015261419e81614162565b9050919050565b60006060820190506141ba6000830186612f5f565b6141c760208301856129ef565b6141d46040830184612fc4565b949350505050565b7f4368616c6c656e6765206475726174696f6e206e6f74206f766572207965742e600082015250565b6000614212602083612f6e565b915061421d826141dc565b602082019050919050565b6000602082019050818103600083015261424181614205565b905091905056fea2646970667358221220423384dd4f71983c87b5de85d074350b93bc675afeccc9cd105e721b256900f164736f6c63430008140033","opcodes":"PUSH1 0x80 PUSH1 0x40 MSTORE CALLVALUE DUP1 ISZERO PUSH3 0x11 JUMPI PUSH1 0x0 DUP1 REVERT JUMPDEST POP PUSH1 0x40 MLOAD PUSH3 0x43E9 CODESIZE SUB DUP1 PUSH3 0x43E9 DUP4 CODECOPY DUP2 DUP2 ADD PUSH1 0x40 MSTORE DUP2 ADD SWAP1 PUSH3 0x37 SWAP2 SWAP1 PUSH3 0x129 JUMP JUMPDEST DUP1 PUSH1 0x1 PUSH1 0x0 PUSH2 0x100 EXP DUP2 SLOAD DUP2 PUSH20 0xFFFFFFFFFFFFFFFFFFFFFFFFFFFFFFFFFFFFFFFF MUL NOT AND SWAP1 DUP4 PUSH20 0xFFFFFFFFFFFFFFFFFFFFFFFFFFFFFFFFFFFFFFFF AND MUL OR SWAP1 SSTORE POP CALLER PUSH1 0x0 DUP1 PUSH2 0x100 EXP DUP2 SLOAD DUP2 PUSH20 0xFFFFFFFFFFFFFFFFFFFFFFFFFFFFFFFFFFFFFFFF MUL NOT AND SWAP1 DUP4 PUSH20 0xFFFFFFFFFFFFFFFFFFFFFFFFFFFFFFFFFFFFFFFF AND MUL OR SWAP1 SSTORE POP POP PUSH3 0x15B JUMP JUMPDEST PUSH1 0x0 DUP1 REVERT JUMPDEST PUSH1 0x0 PUSH20 0xFFFFFFFFFFFFFFFFFFFFFFFFFFFFFFFFFFFFFFFF DUP3 AND SWAP1 POP SWAP2 SWAP1 POP JUMP JUMPDEST PUSH1 0x0 PUSH3 0xF1 DUP3 PUSH3 0xC4 JUMP JUMPDEST SWAP1 POP SWAP2 SWAP1 POP JUMP JUMPDEST PUSH3 0x103 DUP2 PUSH3 0xE4 JUMP JUMPDEST DUP2 EQ PUSH3 0x10F JUMPI PUSH1 0x0 DUP1 REVERT JUMPDEST POP JUMP JUMPDEST PUSH1 0x0 DUP2 MLOAD SWAP1 POP PUSH3 0x123 DUP2 PUSH3 0xF8 JUMP JUMPDEST SWAP3 SWAP2 POP POP JUMP JUMPDEST PUSH1 0x0 PUSH1 0x20 DUP3 DUP5 SUB SLT ISZERO PUSH3 0x142 JUMPI PUSH3 0x141 PUSH3 0xBF JUMP JUMPDEST JUMPDEST PUSH1 0x0 PUSH3 0x152 DUP5 DUP3 DUP6 ADD PUSH3 0x112 JUMP JUMPDEST SWAP2 POP POP SWAP3 SWAP2 POP POP JUMP JUMPDEST PUSH2 0x427E DUP1 PUSH3 0x16B PUSH1 0x0 CODECOPY PUSH1 0x0 RETURN INVALID PUSH1 0x80 PUSH1 0x40 MSTORE CALLVALUE DUP1 ISZERO PUSH2 0x10 JUMPI PUSH1 0x0 DUP1 REVERT JUMPDEST POP PUSH1 0x4 CALLDATASIZE LT PUSH2 0xCF JUMPI PUSH1 0x0 CALLDATALOAD PUSH1 0xE0 SHR DUP1 PUSH4 0x497DDC63 GT PUSH2 0x8C JUMPI DUP1 PUSH4 0x8F1D3776 GT PUSH2 0x66 JUMPI DUP1 PUSH4 0x8F1D3776 EQ PUSH2 0x1D4 JUMPI DUP1 PUSH4 0xE448EE26 EQ PUSH2 0x20E JUMPI DUP1 PUSH4 0xF851A440 EQ PUSH2 0x22A JUMPI DUP1 PUSH4 0xFC0C546A EQ PUSH2 0x248 JUMPI PUSH2 0xCF JUMP JUMPDEST DUP1 PUSH4 0x497DDC63 EQ PUSH2 0x180 JUMPI DUP1 PUSH4 0x4A4AE32B EQ PUSH2 0x19C JUMPI DUP1 PUSH4 0x59808A97 EQ PUSH2 0x1B8 JUMPI PUSH2 0xCF JUMP JUMPDEST DUP1 PUSH4 0x933F467 EQ PUSH2 0xD4 JUMPI DUP1 PUSH4 0x962EF79 EQ PUSH2 0xF2 JUMPI DUP1 PUSH4 0x18D95B76 EQ PUSH2 0x10E JUMPI DUP1 PUSH4 0x1AAAAC93 EQ PUSH2 0x12C JUMPI DUP1 PUSH4 0x26A4E8D2 EQ PUSH2 0x148 JUMPI DUP1 PUSH4 0x335EFF3E EQ PUSH2 0x164 JUMPI JUMPDEST PUSH1 0x0 DUP1 REVERT JUMPDEST PUSH2 0xDC PUSH2 0x266 JUMP JUMPDEST PUSH1 0x40 MLOAD PUSH2 0xE9 SWAP2 SWAP1 PUSH2 0x29FE JUMP JUMPDEST PUSH1 0x40 MLOAD DUP1 SWAP2 SUB SWAP1 RETURN JUMPDEST PUSH2 0x10C PUSH1 0x4 DUP1 CALLDATASIZE SUB DUP2 ADD SWAP1 PUSH2 0x107 SWAP2 SWAP1 PUSH2 0x2A59 JUMP JUMPDEST PUSH2 0x273 JUMP JUMPDEST STOP JUMPDEST PUSH2 0x116 PUSH2 0x747 JUMP JUMPDEST PUSH1 0x40 MLOAD PUSH2 0x123 SWAP2 SWAP1 PUSH2 0x2D0E JUMP JUMPDEST PUSH1 0x40 MLOAD DUP1 SWAP2 SUB SWAP1 RETURN JUMPDEST PUSH2 0x146 PUSH1 0x4 DUP1 CALLDATASIZE SUB DUP2 ADD SWAP1 PUSH2 0x141 SWAP2 SWAP1 PUSH2 0x2E65 JUMP JUMPDEST PUSH2 0xAB0 JUMP JUMPDEST STOP JUMPDEST PUSH2 0x162 PUSH1 0x4 DUP1 CALLDATASIZE SUB DUP2 ADD SWAP1 PUSH2 0x15D SWAP2 SWAP1 PUSH2 0x2F32 JUMP JUMPDEST PUSH2 0xEF7 JUMP JUMPDEST STOP JUMPDEST PUSH2 0x17E PUSH1 0x4 DUP1 CALLDATASIZE SUB DUP2 ADD SWAP1 PUSH2 0x179 SWAP2 SWAP1 PUSH2 0x2A59 JUMP JUMPDEST PUSH2 0x1038 JUMP JUMPDEST STOP JUMPDEST PUSH2 0x19A PUSH1 0x4 DUP1 CALLDATASIZE SUB DUP2 ADD SWAP1 PUSH2 0x195 SWAP2 SWAP1 PUSH2 0x2A59 JUMP JUMPDEST PUSH2 0x1490 JUMP JUMPDEST STOP JUMPDEST PUSH2 0x1B6 PUSH1 0x4 DUP1 CALLDATASIZE SUB DUP2 ADD SWAP1 PUSH2 0x1B1 SWAP2 SWAP1 PUSH2 0x2A59 JUMP JUMPDEST PUSH2 0x1648 JUMP JUMPDEST STOP JUMPDEST PUSH2 0x1D2 PUSH1 0x4 DUP1 CALLDATASIZE SUB DUP2 ADD SWAP1 PUSH2 0x1CD SWAP2 SWAP1 PUSH2 0x2A59 JUMP JUMPDEST PUSH2 0x16EB JUMP JUMPDEST STOP JUMPDEST PUSH2 0x1EE PUSH1 0x4 DUP1 CALLDATASIZE SUB DUP2 ADD SWAP1 PUSH2 0x1E9 SWAP2 SWAP1 PUSH2 0x2A59 JUMP JUMPDEST PUSH2 0x181D JUMP JUMPDEST PUSH1 0x40 MLOAD PUSH2 0x205 SWAP12 SWAP11 SWAP10 SWAP9 SWAP8 SWAP7 SWAP6 SWAP5 SWAP4 SWAP3 SWAP2 SWAP1 PUSH2 0x2FD3 JUMP JUMPDEST PUSH1 0x40 MLOAD DUP1 SWAP2 SUB SWAP1 RETURN JUMPDEST PUSH2 0x228 PUSH1 0x4 DUP1 CALLDATASIZE SUB DUP2 ADD SWAP1 PUSH2 0x223 SWAP2 SWAP1 PUSH2 0x2A59 JUMP JUMPDEST PUSH2 0x1949 JUMP JUMPDEST STOP JUMPDEST PUSH2 0x232 PUSH2 0x1F95 JUMP JUMPDEST PUSH1 0x40 MLOAD PUSH2 0x23F SWAP2 SWAP1 PUSH2 0x3085 JUMP JUMPDEST PUSH1 0x40 MLOAD DUP1 SWAP2 SUB SWAP1 RETURN JUMPDEST PUSH2 0x250 PUSH2 0x1FB9 JUMP JUMPDEST PUSH1 0x40 MLOAD PUSH2 0x25D SWAP2 SWAP1 PUSH2 0x30FF JUMP JUMPDEST PUSH1 0x40 MLOAD DUP1 SWAP2 SUB SWAP1 RETURN JUMPDEST PUSH1 0x0 PUSH1 0x2 DUP1 SLOAD SWAP1 POP SWAP1 POP SWAP1 JUMP JUMPDEST DUP1 PUSH1 0x2 DUP1 SLOAD SWAP1 POP DUP2 LT PUSH2 0x2BB JUMPI PUSH1 0x40 MLOAD PUSH32 0x8C379A000000000000000000000000000000000000000000000000000000000 DUP2 MSTORE PUSH1 0x4 ADD PUSH2 0x2B2 SWAP1 PUSH2 0x3166 JUMP JUMPDEST PUSH1 0x40 MLOAD DUP1 SWAP2 SUB SWAP1 REVERT JUMPDEST PUSH1 0x2 DUP3 DUP2 SLOAD DUP2 LT PUSH2 0x2CF JUMPI PUSH2 0x2CE PUSH2 0x3186 JUMP JUMPDEST JUMPDEST SWAP1 PUSH1 0x0 MSTORE PUSH1 0x20 PUSH1 0x0 KECCAK256 SWAP1 PUSH1 0xE MUL ADD PUSH1 0x7 ADD PUSH1 0x1 SWAP1 SLOAD SWAP1 PUSH2 0x100 EXP SWAP1 DIV PUSH1 0xFF AND PUSH2 0x32D JUMPI PUSH1 0x40 MLOAD PUSH32 0x8C379A000000000000000000000000000000000000000000000000000000000 DUP2 MSTORE PUSH1 0x4 ADD PUSH2 0x324 SWAP1 PUSH2 0x3201 JUMP JUMPDEST PUSH1 0x40 MLOAD DUP1 SWAP2 SUB SWAP1 REVERT JUMPDEST PUSH1 0x2 DUP3 DUP2 SLOAD DUP2 LT PUSH2 0x341 JUMPI PUSH2 0x340 PUSH2 0x3186 JUMP JUMPDEST JUMPDEST SWAP1 PUSH1 0x0 MSTORE PUSH1 0x20 PUSH1 0x0 KECCAK256 SWAP1 PUSH1 0xE MUL ADD PUSH1 0xC ADD PUSH1 0x0 CALLER PUSH20 0xFFFFFFFFFFFFFFFFFFFFFFFFFFFFFFFFFFFFFFFF AND PUSH20 0xFFFFFFFFFFFFFFFFFFFFFFFFFFFFFFFFFFFFFFFF AND DUP2 MSTORE PUSH1 0x20 ADD SWAP1 DUP2 MSTORE PUSH1 0x20 ADD PUSH1 0x0 KECCAK256 PUSH1 0x0 SWAP1 SLOAD SWAP1 PUSH2 0x100 EXP SWAP1 DIV PUSH1 0xFF AND PUSH2 0x3DC JUMPI PUSH1 0x40 MLOAD PUSH32 0x8C379A000000000000000000000000000000000000000000000000000000000 DUP2 MSTORE PUSH1 0x4 ADD PUSH2 0x3D3 SWAP1 PUSH2 0x3293 JUMP JUMPDEST PUSH1 0x40 MLOAD DUP1 SWAP2 SUB SWAP1 REVERT JUMPDEST PUSH1 0x2 DUP3 DUP2 SLOAD DUP2 LT PUSH2 0x3F0 JUMPI PUSH2 0x3EF PUSH2 0x3186 JUMP JUMPDEST JUMPDEST SWAP1 PUSH1 0x0 MSTORE PUSH1 0x20 PUSH1 0x0 KECCAK256 SWAP1 PUSH1 0xE MUL ADD PUSH1 0xD ADD PUSH1 0x0 CALLER PUSH20 0xFFFFFFFFFFFFFFFFFFFFFFFFFFFFFFFFFFFFFFFF AND PUSH20 0xFFFFFFFFFFFFFFFFFFFFFFFFFFFFFFFFFFFFFFFF AND DUP2 MSTORE PUSH1 0x20 ADD SWAP1 DUP2 MSTORE PUSH1 0x20 ADD PUSH1 0x0 KECCAK256 PUSH1 0x0 SWAP1 SLOAD SWAP1 PUSH2 0x100 EXP SWAP1 DIV PUSH1 0xFF AND ISZERO PUSH2 0x48C JUMPI PUSH1 0x40 MLOAD PUSH32 0x8C379A000000000000000000000000000000000000000000000000000000000 DUP2 MSTORE PUSH1 0x4 ADD PUSH2 0x483 SWAP1 PUSH2 0x32FF JUMP JUMPDEST PUSH1 0x40 MLOAD DUP1 SWAP2 SUB SWAP1 REVERT JUMPDEST PUSH1 0x2 DUP3 DUP2 SLOAD DUP2 LT PUSH2 0x4A0 JUMPI PUSH2 0x49F PUSH2 0x3186 JUMP JUMPDEST JUMPDEST SWAP1 PUSH1 0x0 MSTORE PUSH1 0x20 PUSH1 0x0 KECCAK256 SWAP1 PUSH1 0xE MUL ADD PUSH1 0x8 ADD SLOAD PUSH1 0x2 DUP4 DUP2 SLOAD DUP2 LT PUSH2 0x4C6 JUMPI PUSH2 0x4C5 PUSH2 0x3186 JUMP JUMPDEST JUMPDEST SWAP1 PUSH1 0x0 MSTORE PUSH1 0x20 PUSH1 0x0 KECCAK256 SWAP1 PUSH1 0xE MUL ADD PUSH1 0xA ADD PUSH1 0x0 CALLER PUSH20 0xFFFFFFFFFFFFFFFFFFFFFFFFFFFFFFFFFFFFFFFF AND PUSH20 0xFFFFFFFFFFFFFFFFFFFFFFFFFFFFFFFFFFFFFFFF AND DUP2 MSTORE PUSH1 0x20 ADD SWAP1 DUP2 MSTORE PUSH1 0x20 ADD PUSH1 0x0 KECCAK256 SLOAD EQ PUSH2 0x555 JUMPI PUSH1 0x40 MLOAD PUSH32 0x8C379A000000000000000000000000000000000000000000000000000000000 DUP2 MSTORE PUSH1 0x4 ADD PUSH2 0x54C SWAP1 PUSH2 0x336B JUMP JUMPDEST PUSH1 0x40 MLOAD DUP1 SWAP2 SUB SWAP1 REVERT JUMPDEST PUSH1 0x0 PUSH1 0x2 DUP4 DUP2 SLOAD DUP2 LT PUSH2 0x56B JUMPI PUSH2 0x56A PUSH2 0x3186 JUMP JUMPDEST JUMPDEST SWAP1 PUSH1 0x0 MSTORE PUSH1 0x20 PUSH1 0x0 KECCAK256 SWAP1 PUSH1 0xE MUL ADD PUSH1 0x9 ADD SLOAD PUSH1 0x2 DUP5 DUP2 SLOAD DUP2 LT PUSH2 0x591 JUMPI PUSH2 0x590 PUSH2 0x3186 JUMP JUMPDEST JUMPDEST SWAP1 PUSH1 0x0 MSTORE PUSH1 0x20 PUSH1 0x0 KECCAK256 SWAP1 PUSH1 0xE MUL ADD PUSH1 0x3 ADD SLOAD PUSH2 0x5AD SWAP2 SWAP1 PUSH2 0x33E9 JUMP JUMPDEST SWAP1 POP PUSH1 0x1 PUSH1 0x0 SWAP1 SLOAD SWAP1 PUSH2 0x100 EXP SWAP1 DIV PUSH20 0xFFFFFFFFFFFFFFFFFFFFFFFFFFFFFFFFFFFFFFFF AND PUSH20 0xFFFFFFFFFFFFFFFFFFFFFFFFFFFFFFFFFFFFFFFF AND PUSH4 0xA9059CBB CALLER DUP4 PUSH1 0x40 MLOAD DUP4 PUSH4 0xFFFFFFFF AND PUSH1 0xE0 SHL DUP2 MSTORE PUSH1 0x4 ADD PUSH2 0x60C SWAP3 SWAP2 SWAP1 PUSH2 0x341A JUMP JUMPDEST PUSH1 0x20 PUSH1 0x40 MLOAD DUP1 DUP4 SUB DUP2 PUSH1 0x0 DUP8 GAS CALL ISZERO DUP1 ISZERO PUSH2 0x62B JUMPI RETURNDATASIZE PUSH1 0x0 DUP1 RETURNDATACOPY RETURNDATASIZE PUSH1 0x0 REVERT JUMPDEST POP POP POP POP PUSH1 0x40 MLOAD RETURNDATASIZE PUSH1 0x1F NOT PUSH1 0x1F DUP3 ADD AND DUP3 ADD DUP1 PUSH1 0x40 MSTORE POP DUP2 ADD SWAP1 PUSH2 0x64F SWAP2 SWAP1 PUSH2 0x346F JUMP JUMPDEST PUSH2 0x68E JUMPI PUSH1 0x40 MLOAD PUSH32 0x8C379A000000000000000000000000000000000000000000000000000000000 DUP2 MSTORE PUSH1 0x4 ADD PUSH2 0x685 SWAP1 PUSH2 0x34E8 JUMP JUMPDEST PUSH1 0x40 MLOAD DUP1 SWAP2 SUB SWAP1 REVERT JUMPDEST PUSH1 0x1 PUSH1 0x2 DUP5 DUP2 SLOAD DUP2 LT PUSH2 0x6A4 JUMPI PUSH2 0x6A3 PUSH2 0x3186 JUMP JUMPDEST JUMPDEST SWAP1 PUSH1 0x0 MSTORE PUSH1 0x20 PUSH1 0x0 KECCAK256 SWAP1 PUSH1 0xE MUL ADD PUSH1 0xD ADD PUSH1 0x0 CALLER PUSH20 0xFFFFFFFFFFFFFFFFFFFFFFFFFFFFFFFFFFFFFFFF AND PUSH20 0xFFFFFFFFFFFFFFFFFFFFFFFFFFFFFFFFFFFFFFFF AND DUP2 MSTORE PUSH1 0x20 ADD SWAP1 DUP2 MSTORE PUSH1 0x20 ADD PUSH1 0x0 KECCAK256 PUSH1 0x0 PUSH2 0x100 EXP DUP2 SLOAD DUP2 PUSH1 0xFF MUL NOT AND SWAP1 DUP4 ISZERO ISZERO MUL OR SWAP1 SSTORE POP PUSH32 0xCC543A67F8DFE04CFBE3CDCF9EACFFA678F7B557E40F7D0051FCF17E8165D5E3 DUP4 CALLER PUSH1 0x40 MLOAD PUSH2 0x73A SWAP3 SWAP2 SWAP1 PUSH2 0x3508 JUMP JUMPDEST PUSH1 0x40 MLOAD DUP1 SWAP2 SUB SWAP1 LOG1 POP POP POP JUMP JUMPDEST PUSH1 0x60 PUSH1 0x0 DUP1 JUMPDEST PUSH1 0x2 DUP1 SLOAD SWAP1 POP DUP2 LT ISZERO PUSH2 0x7B3 JUMPI PUSH1 0x2 DUP2 DUP2 SLOAD DUP2 LT PUSH2 0x76E JUMPI PUSH2 0x76D PUSH2 0x3186 JUMP JUMPDEST JUMPDEST SWAP1 PUSH1 0x0 MSTORE PUSH1 0x20 PUSH1 0x0 KECCAK256 SWAP1 PUSH1 0xE MUL ADD PUSH1 0x7 ADD PUSH1 0x1 SWAP1 SLOAD SWAP1 PUSH2 0x100 EXP SWAP1 DIV PUSH1 0xFF AND PUSH2 0x7A0 JUMPI DUP2 DUP1 PUSH2 0x79C SWAP1 PUSH2 0x3531 JUMP JUMPDEST SWAP3 POP POP JUMPDEST DUP1 DUP1 PUSH2 0x7AB SWAP1 PUSH2 0x3531 JUMP JUMPDEST SWAP2 POP POP PUSH2 0x74D JUMP JUMPDEST POP PUSH1 0x0 DUP2 PUSH8 0xFFFFFFFFFFFFFFFF DUP2 GT ISZERO PUSH2 0x7D0 JUMPI PUSH2 0x7CF PUSH2 0x2D3A JUMP JUMPDEST JUMPDEST PUSH1 0x40 MLOAD SWAP1 DUP1 DUP3 MSTORE DUP1 PUSH1 0x20 MUL PUSH1 0x20 ADD DUP3 ADD PUSH1 0x40 MSTORE DUP1 ISZERO PUSH2 0x809 JUMPI DUP2 PUSH1 0x20 ADD JUMPDEST PUSH2 0x7F6 PUSH2 0x2981 JUMP JUMPDEST DUP2 MSTORE PUSH1 0x20 ADD SWAP1 PUSH1 0x1 SWAP1 SUB SWAP1 DUP2 PUSH2 0x7EE JUMPI SWAP1 POP JUMPDEST POP SWAP1 POP PUSH1 0x0 DUP1 JUMPDEST PUSH1 0x2 DUP1 SLOAD SWAP1 POP DUP2 LT ISZERO PUSH2 0xAA6 JUMPI PUSH1 0x2 DUP2 DUP2 SLOAD DUP2 LT PUSH2 0x831 JUMPI PUSH2 0x830 PUSH2 0x3186 JUMP JUMPDEST JUMPDEST SWAP1 PUSH1 0x0 MSTORE PUSH1 0x20 PUSH1 0x0 KECCAK256 SWAP1 PUSH1 0xE MUL ADD PUSH1 0x7 ADD PUSH1 0x1 SWAP1 SLOAD SWAP1 PUSH2 0x100 EXP SWAP1 DIV PUSH1 0xFF AND PUSH2 0xA93 JUMPI PUSH1 0x0 DUP1 PUSH1 0x0 PUSH2 0x8B7 PUSH1 0x2 DUP6 DUP2 SLOAD DUP2 LT PUSH2 0x870 JUMPI PUSH2 0x86F PUSH2 0x3186 JUMP JUMPDEST JUMPDEST SWAP1 PUSH1 0x0 MSTORE PUSH1 0x20 PUSH1 0x0 KECCAK256 SWAP1 PUSH1 0xE MUL ADD PUSH1 0x6 ADD SLOAD PUSH1 0x2 DUP7 DUP2 SLOAD DUP2 LT PUSH2 0x896 JUMPI PUSH2 0x895 PUSH2 0x3186 JUMP JUMPDEST JUMPDEST SWAP1 PUSH1 0x0 MSTORE PUSH1 0x20 PUSH1 0x0 KECCAK256 SWAP1 PUSH1 0xE MUL ADD PUSH1 0x5 ADD SLOAD PUSH2 0x8B2 SWAP2 SWAP1 PUSH2 0x3579 JUMP JUMPDEST PUSH2 0x1FDF JUMP JUMPDEST POP POP SWAP3 POP SWAP3 POP SWAP3 POP PUSH1 0x0 DUP1 PUSH1 0x0 PUSH2 0x8F2 PUSH1 0x2 DUP9 DUP2 SLOAD DUP2 LT PUSH2 0x8DB JUMPI PUSH2 0x8DA PUSH2 0x3186 JUMP JUMPDEST JUMPDEST SWAP1 PUSH1 0x0 MSTORE PUSH1 0x20 PUSH1 0x0 KECCAK256 SWAP1 PUSH1 0xE MUL ADD PUSH1 0x5 ADD SLOAD PUSH2 0x1FDF JUMP JUMPDEST POP POP SWAP3 POP SWAP3 POP SWAP3 POP PUSH1 0x40 MLOAD DUP1 PUSH1 0xC0 ADD PUSH1 0x40 MSTORE DUP1 DUP9 DUP2 MSTORE PUSH1 0x20 ADD PUSH1 0x2 DUP10 DUP2 SLOAD DUP2 LT PUSH2 0x91F JUMPI PUSH2 0x91E PUSH2 0x3186 JUMP JUMPDEST JUMPDEST SWAP1 PUSH1 0x0 MSTORE PUSH1 0x20 PUSH1 0x0 KECCAK256 SWAP1 PUSH1 0xE MUL ADD PUSH1 0x1 ADD DUP1 SLOAD PUSH2 0x93B SWAP1 PUSH2 0x35DC JUMP JUMPDEST DUP1 PUSH1 0x1F ADD PUSH1 0x20 DUP1 SWAP2 DIV MUL PUSH1 0x20 ADD PUSH1 0x40 MLOAD SWAP1 DUP2 ADD PUSH1 0x40 MSTORE DUP1 SWAP3 SWAP2 SWAP1 DUP2 DUP2 MSTORE PUSH1 0x20 ADD DUP3 DUP1 SLOAD PUSH2 0x967 SWAP1 PUSH2 0x35DC JUMP JUMPDEST DUP1 ISZERO PUSH2 0x9B4 JUMPI DUP1 PUSH1 0x1F LT PUSH2 0x989 JUMPI PUSH2 0x100 DUP1 DUP4 SLOAD DIV MUL DUP4 MSTORE SWAP2 PUSH1 0x20 ADD SWAP2 PUSH2 0x9B4 JUMP JUMPDEST DUP3 ADD SWAP2 SWAP1 PUSH1 0x0 MSTORE PUSH1 0x20 PUSH1 0x0 KECCAK256 SWAP1 JUMPDEST DUP2 SLOAD DUP2 MSTORE SWAP1 PUSH1 0x1 ADD SWAP1 PUSH1 0x20 ADD DUP1 DUP4 GT PUSH2 0x997 JUMPI DUP3 SWAP1 SUB PUSH1 0x1F AND DUP3 ADD SWAP2 JUMPDEST POP POP POP POP POP DUP2 MSTORE PUSH1 0x20 ADD PUSH1 0x2 DUP10 DUP2 SLOAD DUP2 LT PUSH2 0x9D2 JUMPI PUSH2 0x9D1 PUSH2 0x3186 JUMP JUMPDEST JUMPDEST SWAP1 PUSH1 0x0 MSTORE PUSH1 0x20 PUSH1 0x0 KECCAK256 SWAP1 PUSH1 0xE MUL ADD PUSH1 0x2 ADD SLOAD DUP2 MSTORE PUSH1 0x20 ADD PUSH1 0x2 DUP10 DUP2 SLOAD DUP2 LT PUSH2 0x9FD JUMPI PUSH2 0x9FC PUSH2 0x3186 JUMP JUMPDEST JUMPDEST SWAP1 PUSH1 0x0 MSTORE PUSH1 0x20 PUSH1 0x0 KECCAK256 SWAP1 PUSH1 0xE MUL ADD PUSH1 0x3 ADD SLOAD DUP2 MSTORE PUSH1 0x20 ADD PUSH1 0x40 MLOAD DUP1 PUSH1 0x80 ADD PUSH1 0x40 MSTORE DUP1 DUP7 DUP2 MSTORE PUSH1 0x20 ADD DUP6 DUP2 MSTORE PUSH1 0x20 ADD DUP5 DUP2 MSTORE PUSH1 0x20 ADD PUSH1 0x15 DUP2 MSTORE POP DUP2 MSTORE PUSH1 0x20 ADD PUSH1 0x40 MLOAD DUP1 PUSH1 0x80 ADD PUSH1 0x40 MSTORE DUP1 DUP10 DUP2 MSTORE PUSH1 0x20 ADD DUP9 DUP2 MSTORE PUSH1 0x20 ADD DUP8 DUP2 MSTORE PUSH1 0x20 ADD PUSH1 0x15 DUP2 MSTORE POP DUP2 MSTORE POP DUP10 DUP10 DUP2 MLOAD DUP2 LT PUSH2 0xA73 JUMPI PUSH2 0xA72 PUSH2 0x3186 JUMP JUMPDEST JUMPDEST PUSH1 0x20 MUL PUSH1 0x20 ADD ADD DUP2 SWAP1 MSTORE POP DUP8 DUP1 PUSH2 0xA89 SWAP1 PUSH2 0x3531 JUMP JUMPDEST SWAP9 POP POP POP POP POP POP POP POP JUMPDEST DUP1 DUP1 PUSH2 0xA9E SWAP1 PUSH2 0x3531 JUMP JUMPDEST SWAP2 POP POP PUSH2 0x810 JUMP JUMPDEST POP DUP2 SWAP4 POP POP POP POP SWAP1 JUMP JUMPDEST PUSH1 0x0 DUP2 GT PUSH2 0xAF3 JUMPI PUSH1 0x40 MLOAD PUSH32 0x8C379A000000000000000000000000000000000000000000000000000000000 DUP2 MSTORE PUSH1 0x4 ADD PUSH2 0xAEA SWAP1 PUSH2 0x367F JUMP JUMPDEST PUSH1 0x40 MLOAD DUP1 SWAP2 SUB SWAP1 REVERT JUMPDEST PUSH1 0x1 PUSH1 0x0 SWAP1 SLOAD SWAP1 PUSH2 0x100 EXP SWAP1 DIV PUSH20 0xFFFFFFFFFFFFFFFFFFFFFFFFFFFFFFFFFFFFFFFF AND PUSH20 0xFFFFFFFFFFFFFFFFFFFFFFFFFFFFFFFFFFFFFFFF AND PUSH4 0x95EA7B3 ADDRESS DUP4 PUSH1 0x40 MLOAD DUP4 PUSH4 0xFFFFFFFF AND PUSH1 0xE0 SHL DUP2 MSTORE PUSH1 0x4 ADD PUSH2 0xB50 SWAP3 SWAP2 SWAP1 PUSH2 0x341A JUMP JUMPDEST PUSH1 0x20 PUSH1 0x40 MLOAD DUP1 DUP4 SUB DUP2 PUSH1 0x0 DUP8 GAS CALL ISZERO DUP1 ISZERO PUSH2 0xB6F JUMPI RETURNDATASIZE PUSH1 0x0 DUP1 RETURNDATACOPY RETURNDATASIZE PUSH1 0x0 REVERT JUMPDEST POP POP POP POP PUSH1 0x40 MLOAD RETURNDATASIZE PUSH1 0x1F NOT PUSH1 0x1F DUP3 ADD AND DUP3 ADD DUP1 PUSH1 0x40 MSTORE POP DUP2 ADD SWAP1 PUSH2 0xB93 SWAP2 SWAP1 PUSH2 0x346F JUMP JUMPDEST PUSH2 0xBD2 JUMPI PUSH1 0x40 MLOAD PUSH32 0x8C379A000000000000000000000000000000000000000000000000000000000 DUP2 MSTORE PUSH1 0x4 ADD PUSH2 0xBC9 SWAP1 PUSH2 0x3711 JUMP JUMPDEST PUSH1 0x40 MLOAD DUP1 SWAP2 SUB SWAP1 REVERT JUMPDEST PUSH1 0x1 PUSH1 0x0 SWAP1 SLOAD SWAP1 PUSH2 0x100 EXP SWAP1 DIV PUSH20 0xFFFFFFFFFFFFFFFFFFFFFFFFFFFFFFFFFFFFFFFF AND PUSH20 0xFFFFFFFFFFFFFFFFFFFFFFFFFFFFFFFFFFFFFFFF AND PUSH4 0x23B872DD CALLER ADDRESS DUP5 PUSH1 0x40 MLOAD DUP5 PUSH4 0xFFFFFFFF AND PUSH1 0xE0 SHL DUP2 MSTORE PUSH1 0x4 ADD PUSH2 0xC31 SWAP4 SWAP3 SWAP2 SWAP1 PUSH2 0x3731 JUMP JUMPDEST PUSH1 0x20 PUSH1 0x40 MLOAD DUP1 DUP4 SUB DUP2 PUSH1 0x0 DUP8 GAS CALL ISZERO DUP1 ISZERO PUSH2 0xC50 JUMPI RETURNDATASIZE PUSH1 0x0 DUP1 RETURNDATACOPY RETURNDATASIZE PUSH1 0x0 REVERT JUMPDEST POP POP POP POP PUSH1 0x40 MLOAD RETURNDATASIZE PUSH1 0x1F NOT PUSH1 0x1F DUP3 ADD AND DUP3 ADD DUP1 PUSH1 0x40 MSTORE POP DUP2 ADD SWAP1 PUSH2 0xC74 SWAP2 SWAP1 PUSH2 0x346F JUMP JUMPDEST PUSH2 0xCB3 JUMPI PUSH1 0x40 MLOAD PUSH32 0x8C379A000000000000000000000000000000000000000000000000000000000 DUP2 MSTORE PUSH1 0x4 ADD PUSH2 0xCAA SWAP1 PUSH2 0x37B4 JUMP JUMPDEST PUSH1 0x40 MLOAD DUP1 SWAP2 SUB SWAP1 REVERT JUMPDEST PUSH1 0x2 PUSH1 0x1 DUP2 PUSH1 0x1 DUP2 SLOAD ADD DUP1 DUP3 SSTORE DUP1 SWAP2 POP POP SUB SWAP1 PUSH1 0x0 MSTORE PUSH1 0x20 PUSH1 0x0 KECCAK256 SWAP1 POP POP PUSH1 0x0 PUSH1 0x2 PUSH1 0x1 PUSH1 0x2 DUP1 SLOAD SWAP1 POP PUSH2 0xCE7 SWAP2 SWAP1 PUSH2 0x37D4 JUMP JUMPDEST DUP2 SLOAD DUP2 LT PUSH2 0xCF8 JUMPI PUSH2 0xCF7 PUSH2 0x3186 JUMP JUMPDEST JUMPDEST SWAP1 PUSH1 0x0 MSTORE PUSH1 0x20 PUSH1 0x0 KECCAK256 SWAP1 PUSH1 0xE MUL ADD SWAP1 POP CALLER DUP2 PUSH1 0x0 ADD PUSH1 0x0 PUSH2 0x100 EXP DUP2 SLOAD DUP2 PUSH20 0xFFFFFFFFFFFFFFFFFFFFFFFFFFFFFFFFFFFFFFFF MUL NOT AND SWAP1 DUP4 PUSH20 0xFFFFFFFFFFFFFFFFFFFFFFFFFFFFFFFFFFFFFFFF AND MUL OR SWAP1 SSTORE POP DUP4 DUP2 PUSH1 0x1 ADD SWAP1 DUP2 PUSH2 0xD5C SWAP2 SWAP1 PUSH2 0x39AA JUMP JUMPDEST POP DUP2 DUP2 PUSH1 0x2 ADD DUP2 SWAP1 SSTORE POP DUP2 DUP2 PUSH1 0x3 ADD PUSH1 0x0 DUP3 DUP3 SLOAD PUSH2 0xD7A SWAP2 SWAP1 PUSH2 0x3579 JUMP JUMPDEST SWAP3 POP POP DUP2 SWAP1 SSTORE POP TIMESTAMP DUP2 PUSH1 0x4 ADD DUP2 SWAP1 SSTORE POP PUSH3 0x15180 TIMESTAMP PUSH2 0xD99 SWAP2 SWAP1 PUSH2 0x3579 JUMP JUMPDEST DUP2 PUSH1 0x5 ADD DUP2 SWAP1 SSTORE POP DUP3 DUP2 PUSH1 0x6 ADD DUP2 SWAP1 SSTORE POP PUSH1 0x1 DUP2 PUSH1 0x7 ADD PUSH1 0x0 PUSH2 0x100 EXP DUP2 SLOAD DUP2 PUSH1 0xFF MUL NOT AND SWAP1 DUP4 ISZERO ISZERO MUL OR SWAP1 SSTORE POP PUSH1 0x0 DUP2 PUSH1 0x7 ADD PUSH1 0x1 PUSH2 0x100 EXP DUP2 SLOAD DUP2 PUSH1 0xFF MUL NOT AND SWAP1 DUP4 ISZERO ISZERO MUL OR SWAP1 SSTORE POP PUSH3 0x15180 DUP4 PUSH2 0xDF3 SWAP2 SWAP1 PUSH2 0x33E9 JUMP JUMPDEST DUP2 PUSH1 0x8 ADD DUP2 SWAP1 SSTORE POP PUSH1 0x1 DUP2 PUSH1 0xC ADD PUSH1 0x0 CALLER PUSH20 0xFFFFFFFFFFFFFFFFFFFFFFFFFFFFFFFFFFFFFFFF AND PUSH20 0xFFFFFFFFFFFFFFFFFFFFFFFFFFFFFFFFFFFFFFFF AND DUP2 MSTORE PUSH1 0x20 ADD SWAP1 DUP2 MSTORE PUSH1 0x20 ADD PUSH1 0x0 KECCAK256 PUSH1 0x0 PUSH2 0x100 EXP DUP2 SLOAD DUP2 PUSH1 0xFF MUL NOT AND SWAP1 DUP4 ISZERO ISZERO MUL OR SWAP1 SSTORE POP PUSH1 0x0 PUSH1 0x1 PUSH1 0x2 DUP1 SLOAD SWAP1 POP PUSH2 0xE69 SWAP2 SWAP1 PUSH2 0x37D4 JUMP JUMPDEST SWAP1 POP PUSH32 0x46EA7EE0990CDE33902E77E2D7200322990CB03186C32D68F2966739D28FB366 DUP2 DUP7 DUP6 CALLER PUSH1 0x40 MLOAD PUSH2 0xEA0 SWAP5 SWAP4 SWAP3 SWAP2 SWAP1 PUSH2 0x3A7C JUMP JUMPDEST PUSH1 0x40 MLOAD DUP1 SWAP2 SUB SWAP1 LOG1 PUSH32 0x79DB182AF3410C60080D8E7C7ED50F1977B0DF228F066BBEA532E7D75AF80D2C DUP2 DUP6 DUP5 PUSH1 0x5 ADD SLOAD PUSH2 0xEDA SWAP2 SWAP1 PUSH2 0x3579 JUMP JUMPDEST PUSH1 0x40 MLOAD PUSH2 0xEE8 SWAP3 SWAP2 SWAP1 PUSH2 0x3AC8 JUMP JUMPDEST PUSH1 0x40 MLOAD DUP1 SWAP2 SUB SWAP1 LOG1 POP POP POP POP POP JUMP JUMPDEST PUSH1 0x0 DUP1 SLOAD SWAP1 PUSH2 0x100 EXP SWAP1 DIV PUSH20 0xFFFFFFFFFFFFFFFFFFFFFFFFFFFFFFFFFFFFFFFF AND PUSH20 0xFFFFFFFFFFFFFFFFFFFFFFFFFFFFFFFFFFFFFFFF AND CALLER PUSH20 0xFFFFFFFFFFFFFFFFFFFFFFFFFFFFFFFFFFFFFFFF AND EQ PUSH2 0xF85 JUMPI PUSH1 0x40 MLOAD PUSH32 0x8C379A000000000000000000000000000000000000000000000000000000000 DUP2 MSTORE PUSH1 0x4 ADD PUSH2 0xF7C SWAP1 PUSH2 0x3B63 JUMP JUMPDEST PUSH1 0x40 MLOAD DUP1 SWAP2 SUB SWAP1 REVERT JUMPDEST PUSH1 0x0 PUSH20 0xFFFFFFFFFFFFFFFFFFFFFFFFFFFFFFFFFFFFFFFF AND DUP2 PUSH20 0xFFFFFFFFFFFFFFFFFFFFFFFFFFFFFFFFFFFFFFFF AND SUB PUSH2 0xFF4 JUMPI PUSH1 0x40 MLOAD PUSH32 0x8C379A000000000000000000000000000000000000000000000000000000000 DUP2 MSTORE PUSH1 0x4 ADD PUSH2 0xFEB SWAP1 PUSH2 0x3BCF JUMP JUMPDEST PUSH1 0x40 MLOAD DUP1 SWAP2 SUB SWAP1 REVERT JUMPDEST DUP1 PUSH1 0x1 PUSH1 0x0 PUSH2 0x100 EXP DUP2 SLOAD DUP2 PUSH20 0xFFFFFFFFFFFFFFFFFFFFFFFFFFFFFFFFFFFFFFFF MUL NOT AND SWAP1 DUP4 PUSH20 0xFFFFFFFFFFFFFFFFFFFFFFFFFFFFFFFFFFFFFFFF AND MUL OR SWAP1 SSTORE POP POP JUMP JUMPDEST DUP1 PUSH1 0x2 DUP1 SLOAD SWAP1 POP DUP2 LT PUSH2 0x1080 JUMPI PUSH1 0x40 MLOAD PUSH32 0x8C379A000000000000000000000000000000000000000000000000000000000 DUP2 MSTORE PUSH1 0x4 ADD PUSH2 0x1077 SWAP1 PUSH2 0x3166 JUMP JUMPDEST PUSH1 0x40 MLOAD DUP1 SWAP2 SUB SWAP1 REVERT JUMPDEST PUSH1 0x2 DUP2 DUP2 SLOAD DUP2 LT PUSH2 0x1094 JUMPI PUSH2 0x1093 PUSH2 0x3186 JUMP JUMPDEST JUMPDEST SWAP1 PUSH1 0x0 MSTORE PUSH1 0x20 PUSH1 0x0 KECCAK256 SWAP1 PUSH1 0xE MUL ADD PUSH1 0x7 ADD PUSH1 0x1 SWAP1 SLOAD SWAP1 PUSH2 0x100 EXP SWAP1 DIV PUSH1 0xFF AND ISZERO PUSH2 0x10F3 JUMPI PUSH1 0x40 MLOAD PUSH32 0x8C379A000000000000000000000000000000000000000000000000000000000 DUP2 MSTORE PUSH1 0x4 ADD PUSH2 0x10EA SWAP1 PUSH2 0x3C3B JUMP JUMPDEST PUSH1 0x40 MLOAD DUP1 SWAP2 SUB SWAP1 REVERT JUMPDEST PUSH1 0x2 DUP3 DUP2 SLOAD DUP2 LT PUSH2 0x1107 JUMPI PUSH2 0x1106 PUSH2 0x3186 JUMP JUMPDEST JUMPDEST SWAP1 PUSH1 0x0 MSTORE PUSH1 0x20 PUSH1 0x0 KECCAK256 SWAP1 PUSH1 0xE MUL ADD PUSH1 0xC ADD PUSH1 0x0 CALLER PUSH20 0xFFFFFFFFFFFFFFFFFFFFFFFFFFFFFFFFFFFFFFFF AND PUSH20 0xFFFFFFFFFFFFFFFFFFFFFFFFFFFFFFFFFFFFFFFF AND DUP2 MSTORE PUSH1 0x20 ADD SWAP1 DUP2 MSTORE PUSH1 0x20 ADD PUSH1 0x0 KECCAK256 PUSH1 0x0 SWAP1 SLOAD SWAP1 PUSH2 0x100 EXP SWAP1 DIV PUSH1 0xFF AND PUSH2 0x11A2 JUMPI PUSH1 0x40 MLOAD PUSH32 0x8C379A000000000000000000000000000000000000000000000000000000000 DUP2 MSTORE PUSH1 0x4 ADD PUSH2 0x1199 SWAP1 PUSH2 0x3293 JUMP JUMPDEST PUSH1 0x40 MLOAD DUP1 SWAP2 SUB SWAP1 REVERT JUMPDEST PUSH1 0x0 DUP1 PUSH1 0x0 PUSH2 0x1212 PUSH1 0x2 DUP7 DUP2 SLOAD DUP2 LT PUSH2 0x11BE JUMPI PUSH2 0x11BD PUSH2 0x3186 JUMP JUMPDEST JUMPDEST SWAP1 PUSH1 0x0 MSTORE PUSH1 0x20 PUSH1 0x0 KECCAK256 SWAP1 PUSH1 0xE MUL ADD PUSH1 0xB ADD PUSH1 0x0 CALLER PUSH20 0xFFFFFFFFFFFFFFFFFFFFFFFFFFFFFFFFFFFFFFFF AND PUSH20 0xFFFFFFFFFFFFFFFFFFFFFFFFFFFFFFFFFFFFFFFF AND DUP2 MSTORE PUSH1 0x20 ADD SWAP1 DUP2 MSTORE PUSH1 0x20 ADD PUSH1 0x0 KECCAK256 SLOAD PUSH2 0x1FDF JUMP JUMPDEST POP POP SWAP3 POP SWAP3 POP SWAP3 POP PUSH1 0x0 DUP1 PUSH1 0x0 DUP1 PUSH1 0x0 PUSH2 0x122B TIMESTAMP PUSH2 0x1FDF JUMP JUMPDEST SWAP5 POP SWAP5 POP SWAP5 POP SWAP5 POP SWAP5 POP DUP8 DUP6 GT DUP1 PUSH2 0x1242 JUMPI POP DUP7 DUP5 GT JUMPDEST DUP1 PUSH2 0x124C JUMPI POP DUP6 DUP4 GT JUMPDEST PUSH2 0x128B JUMPI PUSH1 0x40 MLOAD PUSH32 0x8C379A000000000000000000000000000000000000000000000000000000000 DUP2 MSTORE PUSH1 0x4 ADD PUSH2 0x1282 SWAP1 PUSH2 0x3CA7 JUMP JUMPDEST PUSH1 0x40 MLOAD DUP1 SWAP2 SUB SWAP1 REVERT JUMPDEST PUSH1 0x6 DUP3 EQ DUP1 ISZERO PUSH2 0x129C JUMPI POP PUSH1 0x5 DUP2 GT ISZERO JUMPDEST PUSH2 0x12DB JUMPI PUSH1 0x40 MLOAD PUSH32 0x8C379A000000000000000000000000000000000000000000000000000000000 DUP2 MSTORE PUSH1 0x4 ADD PUSH2 0x12D2 SWAP1 PUSH2 0x3D13 JUMP JUMPDEST PUSH1 0x40 MLOAD DUP1 SWAP2 SUB SWAP1 REVERT JUMPDEST PUSH1 0x2 DUP11 DUP2 SLOAD DUP2 LT PUSH2 0x12EF JUMPI PUSH2 0x12EE PUSH2 0x3186 JUMP JUMPDEST JUMPDEST SWAP1 PUSH1 0x0 MSTORE PUSH1 0x20 PUSH1 0x0 KECCAK256 SWAP1 PUSH1 0xE MUL ADD PUSH1 0xA ADD PUSH1 0x0 CALLER PUSH20 0xFFFFFFFFFFFFFFFFFFFFFFFFFFFFFFFFFFFFFFFF AND PUSH20 0xFFFFFFFFFFFFFFFFFFFFFFFFFFFFFFFFFFFFFFFF AND DUP2 MSTORE PUSH1 0x20 ADD SWAP1 DUP2 MSTORE PUSH1 0x20 ADD PUSH1 0x0 KECCAK256 PUSH1 0x0 DUP2 SLOAD DUP1 SWAP3 SWAP2 SWAP1 PUSH2 0x134E SWAP1 PUSH2 0x3531 JUMP JUMPDEST SWAP2 SWAP1 POP SSTORE POP TIMESTAMP PUSH1 0x2 DUP12 DUP2 SLOAD DUP2 LT PUSH2 0x1368 JUMPI PUSH2 0x1367 PUSH2 0x3186 JUMP JUMPDEST JUMPDEST SWAP1 PUSH1 0x0 MSTORE PUSH1 0x20 PUSH1 0x0 KECCAK256 SWAP1 PUSH1 0xE MUL ADD PUSH1 0xB ADD PUSH1 0x0 CALLER PUSH20 0xFFFFFFFFFFFFFFFFFFFFFFFFFFFFFFFFFFFFFFFF AND PUSH20 0xFFFFFFFFFFFFFFFFFFFFFFFFFFFFFFFFFFFFFFFF AND DUP2 MSTORE PUSH1 0x20 ADD SWAP1 DUP2 MSTORE PUSH1 0x20 ADD PUSH1 0x0 KECCAK256 DUP2 SWAP1 SSTORE POP PUSH1 0x2 DUP11 DUP2 SLOAD DUP2 LT PUSH2 0x13CE JUMPI PUSH2 0x13CD PUSH2 0x3186 JUMP JUMPDEST JUMPDEST SWAP1 PUSH1 0x0 MSTORE PUSH1 0x20 PUSH1 0x0 KECCAK256 SWAP1 PUSH1 0xE MUL ADD PUSH1 0x8 ADD SLOAD PUSH1 0x2 DUP12 DUP2 SLOAD DUP2 LT PUSH2 0x13F4 JUMPI PUSH2 0x13F3 PUSH2 0x3186 JUMP JUMPDEST JUMPDEST SWAP1 PUSH1 0x0 MSTORE PUSH1 0x20 PUSH1 0x0 KECCAK256 SWAP1 PUSH1 0xE MUL ADD PUSH1 0xA ADD PUSH1 0x0 CALLER PUSH20 0xFFFFFFFFFFFFFFFFFFFFFFFFFFFFFFFFFFFFFFFF AND PUSH20 0xFFFFFFFFFFFFFFFFFFFFFFFFFFFFFFFFFFFFFFFF AND DUP2 MSTORE PUSH1 0x20 ADD SWAP1 DUP2 MSTORE PUSH1 0x20 ADD PUSH1 0x0 KECCAK256 SLOAD SUB PUSH2 0x1484 JUMPI PUSH1 0x2 DUP11 DUP2 SLOAD DUP2 LT PUSH2 0x145C JUMPI PUSH2 0x145B PUSH2 0x3186 JUMP JUMPDEST JUMPDEST SWAP1 PUSH1 0x0 MSTORE PUSH1 0x20 PUSH1 0x0 KECCAK256 SWAP1 PUSH1 0xE MUL ADD PUSH1 0x9 ADD PUSH1 0x0 DUP2 SLOAD DUP1 SWAP3 SWAP2 SWAP1 PUSH2 0x147E SWAP1 PUSH2 0x3531 JUMP JUMPDEST SWAP2 SWAP1 POP SSTORE POP JUMPDEST POP POP POP POP POP POP POP POP POP POP JUMP JUMPDEST PUSH1 0x0 DUP1 SLOAD SWAP1 PUSH2 0x100 EXP SWAP1 DIV PUSH20 0xFFFFFFFFFFFFFFFFFFFFFFFFFFFFFFFFFFFFFFFF AND PUSH20 0xFFFFFFFFFFFFFFFFFFFFFFFFFFFFFFFFFFFFFFFF AND CALLER PUSH20 0xFFFFFFFFFFFFFFFFFFFFFFFFFFFFFFFFFFFFFFFF AND EQ PUSH2 0x151E JUMPI PUSH1 0x40 MLOAD PUSH32 0x8C379A000000000000000000000000000000000000000000000000000000000 DUP2 MSTORE PUSH1 0x4 ADD PUSH2 0x1515 SWAP1 PUSH2 0x3B63 JUMP JUMPDEST PUSH1 0x40 MLOAD DUP1 SWAP2 SUB SWAP1 REVERT JUMPDEST PUSH1 0x0 DUP1 PUSH1 0x0 PUSH2 0x1551 PUSH1 0x2 DUP6 DUP2 SLOAD DUP2 LT PUSH2 0x153A JUMPI PUSH2 0x1539 PUSH2 0x3186 JUMP JUMPDEST JUMPDEST SWAP1 PUSH1 0x0 MSTORE PUSH1 0x20 PUSH1 0x0 KECCAK256 SWAP1 PUSH1 0xE MUL ADD PUSH1 0x5 ADD SLOAD PUSH2 0x1FDF JUMP JUMPDEST POP POP SWAP3 POP SWAP3 POP SWAP3 POP PUSH1 0x0 DUP1 PUSH1 0x0 DUP1 PUSH2 0x1568 TIMESTAMP PUSH2 0x1FDF JUMP JUMPDEST POP SWAP4 POP SWAP4 POP SWAP4 POP SWAP4 POP DUP7 DUP5 GT DUP1 PUSH2 0x157E JUMPI POP DUP6 DUP4 GT JUMPDEST DUP1 PUSH2 0x1588 JUMPI POP DUP5 DUP3 GT JUMPDEST DUP1 PUSH2 0x1593 JUMPI POP PUSH1 0x15 DUP2 GT JUMPDEST PUSH2 0x15D2 JUMPI PUSH1 0x40 MLOAD PUSH32 0x8C379A000000000000000000000000000000000000000000000000000000000 DUP2 MSTORE PUSH1 0x4 ADD PUSH2 0x15C9 SWAP1 PUSH2 0x3DA5 JUMP JUMPDEST PUSH1 0x40 MLOAD DUP1 SWAP2 SUB SWAP1 REVERT JUMPDEST PUSH1 0x0 PUSH1 0x2 DUP10 DUP2 SLOAD DUP2 LT PUSH2 0x15E8 JUMPI PUSH2 0x15E7 PUSH2 0x3186 JUMP JUMPDEST JUMPDEST SWAP1 PUSH1 0x0 MSTORE PUSH1 0x20 PUSH1 0x0 KECCAK256 SWAP1 PUSH1 0xE MUL ADD PUSH1 0x7 ADD PUSH1 0x0 PUSH2 0x100 EXP DUP2 SLOAD DUP2 PUSH1 0xFF MUL NOT AND SWAP1 DUP4 ISZERO ISZERO MUL OR SWAP1 SSTORE POP PUSH2 0x163E PUSH1 0x2 DUP10 DUP2 SLOAD DUP2 LT PUSH2 0x1627 JUMPI PUSH2 0x1626 PUSH2 0x3186 JUMP JUMPDEST JUMPDEST SWAP1 PUSH1 0x0 MSTORE PUSH1 0x20 PUSH1 0x0 KECCAK256 SWAP1 PUSH1 0xE MUL ADD PUSH1 0x3 ADD SLOAD PUSH2 0x228C JUMP JUMPDEST POP POP POP POP POP POP POP POP JUMP JUMPDEST PUSH1 0x2 DUP2 DUP2 SLOAD DUP2 LT PUSH2 0x165C JUMPI PUSH2 0x165B PUSH2 0x3186 JUMP JUMPDEST JUMPDEST SWAP1 PUSH1 0x0 MSTORE PUSH1 0x20 PUSH1 0x0 KECCAK256 SWAP1 PUSH1 0xE MUL ADD PUSH1 0x7 ADD PUSH1 0x1 SWAP1 SLOAD SWAP1 PUSH2 0x100 EXP SWAP1 DIV PUSH1 0xFF AND PUSH2 0x16BA JUMPI PUSH1 0x40 MLOAD PUSH32 0x8C379A000000000000000000000000000000000000000000000000000000000 DUP2 MSTORE PUSH1 0x4 ADD PUSH2 0x16B1 SWAP1 PUSH2 0x3E11 JUMP JUMPDEST PUSH1 0x40 MLOAD DUP1 SWAP2 SUB SWAP1 REVERT JUMPDEST PUSH2 0x16E8 PUSH1 0x2 DUP3 DUP2 SLOAD DUP2 LT PUSH2 0x16D1 JUMPI PUSH2 0x16D0 PUSH2 0x3186 JUMP JUMPDEST JUMPDEST SWAP1 PUSH1 0x0 MSTORE PUSH1 0x20 PUSH1 0x0 KECCAK256 SWAP1 PUSH1 0xE MUL ADD PUSH1 0x3 ADD SLOAD PUSH2 0x244B JUMP JUMPDEST POP JUMP JUMPDEST PUSH1 0x0 DUP1 SLOAD SWAP1 PUSH2 0x100 EXP SWAP1 DIV PUSH20 0xFFFFFFFFFFFFFFFFFFFFFFFFFFFFFFFFFFFFFFFF AND PUSH20 0xFFFFFFFFFFFFFFFFFFFFFFFFFFFFFFFFFFFFFFFF AND CALLER PUSH20 0xFFFFFFFFFFFFFFFFFFFFFFFFFFFFFFFFFFFFFFFF AND EQ PUSH2 0x1779 JUMPI PUSH1 0x40 MLOAD PUSH32 0x8C379A000000000000000000000000000000000000000000000000000000000 DUP2 MSTORE PUSH1 0x4 ADD PUSH2 0x1770 SWAP1 PUSH2 0x3B63 JUMP JUMPDEST PUSH1 0x40 MLOAD DUP1 SWAP2 SUB SWAP1 REVERT JUMPDEST PUSH1 0x2 DUP2 DUP2 SLOAD DUP2 LT PUSH2 0x178D JUMPI PUSH2 0x178C PUSH2 0x3186 JUMP JUMPDEST JUMPDEST SWAP1 PUSH1 0x0 MSTORE PUSH1 0x20 PUSH1 0x0 KECCAK256 SWAP1 PUSH1 0xE MUL ADD PUSH1 0x6 ADD SLOAD PUSH1 0x2 DUP3 DUP2 SLOAD DUP2 LT PUSH2 0x17B3 JUMPI PUSH2 0x17B2 PUSH2 0x3186 JUMP JUMPDEST JUMPDEST SWAP1 PUSH1 0x0 MSTORE PUSH1 0x20 PUSH1 0x0 KECCAK256 SWAP1 PUSH1 0xE MUL ADD PUSH1 0x5 ADD SLOAD PUSH2 0x17CF SWAP2 SWAP1 PUSH2 0x3579 JUMP JUMPDEST TIMESTAMP LT ISZERO PUSH2 0x1811 JUMPI PUSH1 0x40 MLOAD PUSH32 0x8C379A000000000000000000000000000000000000000000000000000000000 DUP2 MSTORE PUSH1 0x4 ADD PUSH2 0x1808 SWAP1 PUSH2 0x3E7D JUMP JUMPDEST PUSH1 0x40 MLOAD DUP1 SWAP2 SUB SWAP1 REVERT JUMPDEST PUSH2 0x181A DUP2 PUSH2 0x25B6 JUMP JUMPDEST POP JUMP JUMPDEST PUSH1 0x2 DUP2 DUP2 SLOAD DUP2 LT PUSH2 0x182D JUMPI PUSH1 0x0 DUP1 REVERT JUMPDEST SWAP1 PUSH1 0x0 MSTORE PUSH1 0x20 PUSH1 0x0 KECCAK256 SWAP1 PUSH1 0xE MUL ADD PUSH1 0x0 SWAP2 POP SWAP1 POP DUP1 PUSH1 0x0 ADD PUSH1 0x0 SWAP1 SLOAD SWAP1 PUSH2 0x100 EXP SWAP1 DIV PUSH20 0xFFFFFFFFFFFFFFFFFFFFFFFFFFFFFFFFFFFFFFFF AND SWAP1 DUP1 PUSH1 0x1 ADD DUP1 SLOAD PUSH2 0x1876 SWAP1 PUSH2 0x35DC JUMP JUMPDEST DUP1 PUSH1 0x1F ADD PUSH1 0x20 DUP1 SWAP2 DIV MUL PUSH1 0x20 ADD PUSH1 0x40 MLOAD SWAP1 DUP2 ADD PUSH1 0x40 MSTORE DUP1 SWAP3 SWAP2 SWAP1 DUP2 DUP2 MSTORE PUSH1 0x20 ADD DUP3 DUP1 SLOAD PUSH2 0x18A2 SWAP1 PUSH2 0x35DC JUMP JUMPDEST DUP1 ISZERO PUSH2 0x18EF JUMPI DUP1 PUSH1 0x1F LT PUSH2 0x18C4 JUMPI PUSH2 0x100 DUP1 DUP4 SLOAD DIV MUL DUP4 MSTORE SWAP2 PUSH1 0x20 ADD SWAP2 PUSH2 0x18EF JUMP JUMPDEST DUP3 ADD SWAP2 SWAP1 PUSH1 0x0 MSTORE PUSH1 0x20 PUSH1 0x0 KECCAK256 SWAP1 JUMPDEST DUP2 SLOAD DUP2 MSTORE SWAP1 PUSH1 0x1 ADD SWAP1 PUSH1 0x20 ADD DUP1 DUP4 GT PUSH2 0x18D2 JUMPI DUP3 SWAP1 SUB PUSH1 0x1F AND DUP3 ADD SWAP2 JUMPDEST POP POP POP POP POP SWAP1 DUP1 PUSH1 0x2 ADD SLOAD SWAP1 DUP1 PUSH1 0x3 ADD SLOAD SWAP1 DUP1 PUSH1 0x4 ADD SLOAD SWAP1 DUP1 PUSH1 0x5 ADD SLOAD SWAP1 DUP1 PUSH1 0x6 ADD SLOAD SWAP1 DUP1 PUSH1 0x7 ADD PUSH1 0x0 SWAP1 SLOAD SWAP1 PUSH2 0x100 EXP SWAP1 DIV PUSH1 0xFF AND SWAP1 DUP1 PUSH1 0x7 ADD PUSH1 0x1 SWAP1 SLOAD SWAP1 PUSH2 0x100 EXP SWAP1 DIV PUSH1 0xFF AND SWAP1 DUP1 PUSH1 0x8 ADD SLOAD SWAP1 DUP1 PUSH1 0x9 ADD SLOAD SWAP1 POP DUP12 JUMP JUMPDEST DUP1 PUSH1 0x2 DUP1 SLOAD SWAP1 POP DUP2 LT PUSH2 0x1991 JUMPI PUSH1 0x40 MLOAD PUSH32 0x8C379A000000000000000000000000000000000000000000000000000000000 DUP2 MSTORE PUSH1 0x4 ADD PUSH2 0x1988 SWAP1 PUSH2 0x3166 JUMP JUMPDEST PUSH1 0x40 MLOAD DUP1 SWAP2 SUB SWAP1 REVERT JUMPDEST PUSH1 0x2 DUP2 DUP2 SLOAD DUP2 LT PUSH2 0x19A5 JUMPI PUSH2 0x19A4 PUSH2 0x3186 JUMP JUMPDEST JUMPDEST SWAP1 PUSH1 0x0 MSTORE PUSH1 0x20 PUSH1 0x0 KECCAK256 SWAP1 PUSH1 0xE MUL ADD PUSH1 0x7 ADD PUSH1 0x1 SWAP1 SLOAD SWAP1 PUSH2 0x100 EXP SWAP1 DIV PUSH1 0xFF AND ISZERO PUSH2 0x1A04 JUMPI PUSH1 0x40 MLOAD PUSH32 0x8C379A000000000000000000000000000000000000000000000000000000000 DUP2 MSTORE PUSH1 0x4 ADD PUSH2 0x19FB SWAP1 PUSH2 0x3C3B JUMP JUMPDEST PUSH1 0x40 MLOAD DUP1 SWAP2 SUB SWAP1 REVERT JUMPDEST PUSH1 0x0 DUP1 PUSH1 0x0 PUSH2 0x1A37 PUSH1 0x2 DUP7 DUP2 SLOAD DUP2 LT PUSH2 0x1A20 JUMPI PUSH2 0x1A1F PUSH2 0x3186 JUMP JUMPDEST JUMPDEST SWAP1 PUSH1 0x0 MSTORE PUSH1 0x20 PUSH1 0x0 KECCAK256 SWAP1 PUSH1 0xE MUL ADD PUSH1 0x5 ADD SLOAD PUSH2 0x1FDF JUMP JUMPDEST POP POP SWAP3 POP SWAP3 POP SWAP3 POP PUSH1 0x0 DUP1 PUSH1 0x0 DUP1 PUSH2 0x1A4E TIMESTAMP PUSH2 0x1FDF JUMP JUMPDEST POP SWAP4 POP SWAP4 POP SWAP4 POP SWAP4 POP DUP7 DUP5 LT DUP1 PUSH2 0x1A64 JUMPI POP DUP6 DUP4 LT JUMPDEST DUP1 PUSH2 0x1A6E JUMPI POP DUP5 DUP3 LT JUMPDEST DUP1 PUSH2 0x1A79 JUMPI POP PUSH1 0x15 DUP2 LT JUMPDEST PUSH2 0x1AB8 JUMPI PUSH1 0x40 MLOAD PUSH32 0x8C379A000000000000000000000000000000000000000000000000000000000 DUP2 MSTORE PUSH1 0x4 ADD PUSH2 0x1AAF SWAP1 PUSH2 0x3DA5 JUMP JUMPDEST PUSH1 0x40 MLOAD DUP1 SWAP2 SUB SWAP1 REVERT JUMPDEST PUSH1 0x2 DUP10 DUP2 SLOAD DUP2 LT PUSH2 0x1ACC JUMPI PUSH2 0x1ACB PUSH2 0x3186 JUMP JUMPDEST JUMPDEST SWAP1 PUSH1 0x0 MSTORE PUSH1 0x20 PUSH1 0x0 KECCAK256 SWAP1 PUSH1 0xE MUL ADD PUSH1 0xC ADD PUSH1 0x0 CALLER PUSH20 0xFFFFFFFFFFFFFFFFFFFFFFFFFFFFFFFFFFFFFFFF AND PUSH20 0xFFFFFFFFFFFFFFFFFFFFFFFFFFFFFFFFFFFFFFFF AND DUP2 MSTORE PUSH1 0x20 ADD SWAP1 DUP2 MSTORE PUSH1 0x20 ADD PUSH1 0x0 KECCAK256 PUSH1 0x0 SWAP1 SLOAD SWAP1 PUSH2 0x100 EXP SWAP1 DIV PUSH1 0xFF AND ISZERO PUSH2 0x1B68 JUMPI PUSH1 0x40 MLOAD PUSH32 0x8C379A000000000000000000000000000000000000000000000000000000000 DUP2 MSTORE PUSH1 0x4 ADD PUSH2 0x1B5F SWAP1 PUSH2 0x3EE9 JUMP JUMPDEST PUSH1 0x40 MLOAD DUP1 SWAP2 SUB SWAP1 REVERT JUMPDEST PUSH1 0x2 DUP10 DUP2 SLOAD DUP2 LT PUSH2 0x1B7C JUMPI PUSH2 0x1B7B PUSH2 0x3186 JUMP JUMPDEST JUMPDEST SWAP1 PUSH1 0x0 MSTORE PUSH1 0x20 PUSH1 0x0 KECCAK256 SWAP1 PUSH1 0xE MUL ADD PUSH1 0x2 ADD SLOAD PUSH1 0x1 PUSH1 0x0 SWAP1 SLOAD SWAP1 PUSH2 0x100 EXP SWAP1 DIV PUSH20 0xFFFFFFFFFFFFFFFFFFFFFFFFFFFFFFFFFFFFFFFF AND PUSH20 0xFFFFFFFFFFFFFFFFFFFFFFFFFFFFFFFFFFFFFFFF AND PUSH4 0x70A08231 CALLER PUSH1 0x40 MLOAD DUP3 PUSH4 0xFFFFFFFF AND PUSH1 0xE0 SHL DUP2 MSTORE PUSH1 0x4 ADD PUSH2 0x1BE9 SWAP2 SWAP1 PUSH2 0x3085 JUMP JUMPDEST PUSH1 0x20 PUSH1 0x40 MLOAD DUP1 DUP4 SUB DUP2 DUP7 GAS STATICCALL ISZERO DUP1 ISZERO PUSH2 0x1C06 JUMPI RETURNDATASIZE PUSH1 0x0 DUP1 RETURNDATACOPY RETURNDATASIZE PUSH1 0x0 REVERT JUMPDEST POP POP POP POP PUSH1 0x40 MLOAD RETURNDATASIZE PUSH1 0x1F NOT PUSH1 0x1F DUP3 ADD AND DUP3 ADD DUP1 PUSH1 0x40 MSTORE POP DUP2 ADD SWAP1 PUSH2 0x1C2A SWAP2 SWAP1 PUSH2 0x3F1E JUMP JUMPDEST LT ISZERO PUSH2 0x1C6B JUMPI PUSH1 0x40 MLOAD PUSH32 0x8C379A000000000000000000000000000000000000000000000000000000000 DUP2 MSTORE PUSH1 0x4 ADD PUSH2 0x1C62 SWAP1 PUSH2 0x3F97 JUMP JUMPDEST PUSH1 0x40 MLOAD DUP1 SWAP2 SUB SWAP1 REVERT JUMPDEST PUSH1 0x1 PUSH1 0x0 SWAP1 SLOAD SWAP1 PUSH2 0x100 EXP SWAP1 DIV PUSH20 0xFFFFFFFFFFFFFFFFFFFFFFFFFFFFFFFFFFFFFFFF AND PUSH20 0xFFFFFFFFFFFFFFFFFFFFFFFFFFFFFFFFFFFFFFFF AND PUSH4 0x95EA7B3 ADDRESS PUSH1 0x2 DUP13 DUP2 SLOAD DUP2 LT PUSH2 0x1CBE JUMPI PUSH2 0x1CBD PUSH2 0x3186 JUMP JUMPDEST JUMPDEST SWAP1 PUSH1 0x0 MSTORE PUSH1 0x20 PUSH1 0x0 KECCAK256 SWAP1 PUSH1 0xE MUL ADD PUSH1 0x2 ADD SLOAD PUSH1 0x40 MLOAD DUP4 PUSH4 0xFFFFFFFF AND PUSH1 0xE0 SHL DUP2 MSTORE PUSH1 0x4 ADD PUSH2 0x1CED SWAP3 SWAP2 SWAP1 PUSH2 0x341A JUMP JUMPDEST PUSH1 0x20 PUSH1 0x40 MLOAD DUP1 DUP4 SUB DUP2 PUSH1 0x0 DUP8 GAS CALL ISZERO DUP1 ISZERO PUSH2 0x1D0C JUMPI RETURNDATASIZE PUSH1 0x0 DUP1 RETURNDATACOPY RETURNDATASIZE PUSH1 0x0 REVERT JUMPDEST POP POP POP POP PUSH1 0x40 MLOAD RETURNDATASIZE PUSH1 0x1F NOT PUSH1 0x1F DUP3 ADD AND DUP3 ADD DUP1 PUSH1 0x40 MSTORE POP DUP2 ADD SWAP1 PUSH2 0x1D30 SWAP2 SWAP1 PUSH2 0x346F JUMP JUMPDEST PUSH2 0x1D6F JUMPI PUSH1 0x40 MLOAD PUSH32 0x8C379A000000000000000000000000000000000000000000000000000000000 DUP2 MSTORE PUSH1 0x4 ADD PUSH2 0x1D66 SWAP1 PUSH2 0x3711 JUMP JUMPDEST PUSH1 0x40 MLOAD DUP1 SWAP2 SUB SWAP1 REVERT JUMPDEST PUSH1 0x1 PUSH1 0x0 SWAP1 SLOAD SWAP1 PUSH2 0x100 EXP SWAP1 DIV PUSH20 0xFFFFFFFFFFFFFFFFFFFFFFFFFFFFFFFFFFFFFFFF AND PUSH20 0xFFFFFFFFFFFFFFFFFFFFFFFFFFFFFFFFFFFFFFFF AND PUSH4 0x23B872DD CALLER ADDRESS PUSH1 0x2 DUP14 DUP2 SLOAD DUP2 LT PUSH2 0x1DC3 JUMPI PUSH2 0x1DC2 PUSH2 0x3186 JUMP JUMPDEST JUMPDEST SWAP1 PUSH1 0x0 MSTORE PUSH1 0x20 PUSH1 0x0 KECCAK256 SWAP1 PUSH1 0xE MUL ADD PUSH1 0x2 ADD SLOAD PUSH1 0x40 MLOAD DUP5 PUSH4 0xFFFFFFFF AND PUSH1 0xE0 SHL DUP2 MSTORE PUSH1 0x4 ADD PUSH2 0x1DF3 SWAP4 SWAP3 SWAP2 SWAP1 PUSH2 0x3731 JUMP JUMPDEST PUSH1 0x20 PUSH1 0x40 MLOAD DUP1 DUP4 SUB DUP2 PUSH1 0x0 DUP8 GAS CALL ISZERO DUP1 ISZERO PUSH2 0x1E12 JUMPI RETURNDATASIZE PUSH1 0x0 DUP1 RETURNDATACOPY RETURNDATASIZE PUSH1 0x0 REVERT JUMPDEST POP POP POP POP PUSH1 0x40 MLOAD RETURNDATASIZE PUSH1 0x1F NOT PUSH1 0x1F DUP3 ADD AND DUP3 ADD DUP1 PUSH1 0x40 MSTORE POP DUP2 ADD SWAP1 PUSH2 0x1E36 SWAP2 SWAP1 PUSH2 0x346F JUMP JUMPDEST PUSH2 0x1E75 JUMPI PUSH1 0x40 MLOAD PUSH32 0x8C379A000000000000000000000000000000000000000000000000000000000 DUP2 MSTORE PUSH1 0x4 ADD PUSH2 0x1E6C SWAP1 PUSH2 0x37B4 JUMP JUMPDEST PUSH1 0x40 MLOAD DUP1 SWAP2 SUB SWAP1 REVERT JUMPDEST PUSH32 0x690ECBABE96222B39728B512682860CC6460002A670FF94954038286BEA0BA69 DUP10 CALLER PUSH1 0x40 MLOAD PUSH2 0x1EA6 SWAP3 SWAP2 SWAP1 PUSH2 0x3508 JUMP JUMPDEST PUSH1 0x40 MLOAD DUP1 SWAP2 SUB SWAP1 LOG1 PUSH1 0x1 PUSH1 0x2 DUP11 DUP2 SLOAD DUP2 LT PUSH2 0x1EC4 JUMPI PUSH2 0x1EC3 PUSH2 0x3186 JUMP JUMPDEST JUMPDEST SWAP1 PUSH1 0x0 MSTORE PUSH1 0x20 PUSH1 0x0 KECCAK256 SWAP1 PUSH1 0xE MUL ADD PUSH1 0xC ADD PUSH1 0x0 CALLER PUSH20 0xFFFFFFFFFFFFFFFFFFFFFFFFFFFFFFFFFFFFFFFF AND PUSH20 0xFFFFFFFFFFFFFFFFFFFFFFFFFFFFFFFFFFFFFFFF AND DUP2 MSTORE PUSH1 0x20 ADD SWAP1 DUP2 MSTORE PUSH1 0x20 ADD PUSH1 0x0 KECCAK256 PUSH1 0x0 PUSH2 0x100 EXP DUP2 SLOAD DUP2 PUSH1 0xFF MUL NOT AND SWAP1 DUP4 ISZERO ISZERO MUL OR SWAP1 SSTORE POP PUSH1 0x2 DUP10 DUP2 SLOAD DUP2 LT PUSH2 0x1F3D JUMPI PUSH2 0x1F3C PUSH2 0x3186 JUMP JUMPDEST JUMPDEST SWAP1 PUSH1 0x0 MSTORE PUSH1 0x20 PUSH1 0x0 KECCAK256 SWAP1 PUSH1 0xE MUL ADD PUSH1 0x2 ADD SLOAD PUSH1 0x2 DUP11 DUP2 SLOAD DUP2 LT PUSH2 0x1F63 JUMPI PUSH2 0x1F62 PUSH2 0x3186 JUMP JUMPDEST JUMPDEST SWAP1 PUSH1 0x0 MSTORE PUSH1 0x20 PUSH1 0x0 KECCAK256 SWAP1 PUSH1 0xE MUL ADD PUSH1 0x3 ADD PUSH1 0x0 DUP3 DUP3 SLOAD PUSH2 0x1F83 SWAP2 SWAP1 PUSH2 0x3579 JUMP JUMPDEST SWAP3 POP POP DUP2 SWAP1 SSTORE POP POP POP POP POP POP POP POP POP POP JUMP JUMPDEST PUSH1 0x0 DUP1 SLOAD SWAP1 PUSH2 0x100 EXP SWAP1 DIV PUSH20 0xFFFFFFFFFFFFFFFFFFFFFFFFFFFFFFFFFFFFFFFF AND DUP2 JUMP JUMPDEST PUSH1 0x1 PUSH1 0x0 SWAP1 SLOAD SWAP1 PUSH2 0x100 EXP SWAP1 DIV PUSH20 0xFFFFFFFFFFFFFFFFFFFFFFFFFFFFFFFFFFFFFFFF AND DUP2 JUMP JUMPDEST PUSH1 0x0 DUP1 PUSH1 0x0 DUP1 PUSH1 0x0 DUP1 PUSH2 0x7E90 SWAP1 POP PUSH1 0x0 DUP2 DUP9 PUSH2 0x1FFB SWAP2 SWAP1 PUSH2 0x3579 JUMP JUMPDEST SWAP1 POP PUSH1 0x0 PUSH3 0x15180 SWAP1 POP PUSH1 0x0 PUSH4 0x1E13380 SWAP1 POP PUSH1 0x0 PUSH4 0x1E28500 SWAP1 POP PUSH1 0x0 PUSH2 0x7B2 SWAP1 POP PUSH1 0x0 DUP1 JUMPDEST DUP7 DUP6 DUP4 PUSH2 0x202F SWAP2 SWAP1 PUSH2 0x3579 JUMP JUMPDEST GT PUSH2 0x20BD JUMPI PUSH1 0x0 PUSH1 0x4 DUP5 PUSH2 0x2043 SWAP2 SWAP1 PUSH2 0x3FB7 JUMP JUMPDEST EQ DUP1 ISZERO PUSH2 0x2075 JUMPI POP PUSH1 0x0 PUSH1 0x64 DUP5 PUSH2 0x205A SWAP2 SWAP1 PUSH2 0x3FB7 JUMP JUMPDEST EQ ISZERO DUP1 PUSH2 0x2074 JUMPI POP PUSH1 0x0 PUSH2 0x190 DUP5 PUSH2 0x2072 SWAP2 SWAP1 PUSH2 0x3FB7 JUMP JUMPDEST EQ JUMPDEST JUMPDEST ISZERO PUSH2 0x209B JUMPI DUP4 DUP3 PUSH2 0x2086 SWAP2 SWAP1 PUSH2 0x3579 JUMP JUMPDEST SWAP2 POP DUP1 DUP1 PUSH2 0x2093 SWAP1 PUSH2 0x3531 JUMP JUMPDEST SWAP2 POP POP PUSH2 0x20AA JUMP JUMPDEST DUP5 DUP3 PUSH2 0x20A7 SWAP2 SWAP1 PUSH2 0x3579 JUMP JUMPDEST SWAP2 POP JUMPDEST DUP3 DUP1 PUSH2 0x20B5 SWAP1 PUSH2 0x3531 JUMP JUMPDEST SWAP4 POP POP PUSH2 0x2022 JUMP JUMPDEST DUP3 SWAP13 POP PUSH1 0x0 PUSH1 0x40 MLOAD DUP1 PUSH2 0x180 ADD PUSH1 0x40 MSTORE DUP1 PUSH1 0x1F PUSH1 0xFF AND PUSH1 0xFF AND DUP2 MSTORE PUSH1 0x20 ADD PUSH1 0x1C PUSH1 0xFF AND PUSH1 0xFF AND DUP2 MSTORE PUSH1 0x20 ADD PUSH1 0x1F PUSH1 0xFF AND PUSH1 0xFF AND DUP2 MSTORE PUSH1 0x20 ADD PUSH1 0x1E PUSH1 0xFF AND PUSH1 0xFF AND DUP2 MSTORE PUSH1 0x20 ADD PUSH1 0x1F PUSH1 0xFF AND PUSH1 0xFF AND DUP2 MSTORE PUSH1 0x20 ADD PUSH1 0x1E PUSH1 0xFF AND PUSH1 0xFF AND DUP2 MSTORE PUSH1 0x20 ADD PUSH1 0x1F PUSH1 0xFF AND PUSH1 0xFF AND DUP2 MSTORE PUSH1 0x20 ADD PUSH1 0x1F PUSH1 0xFF AND PUSH1 0xFF AND DUP2 MSTORE PUSH1 0x20 ADD PUSH1 0x1E PUSH1 0xFF AND PUSH1 0xFF AND DUP2 MSTORE PUSH1 0x20 ADD PUSH1 0x1F PUSH1 0xFF AND PUSH1 0xFF AND DUP2 MSTORE PUSH1 0x20 ADD PUSH1 0x1E PUSH1 0xFF AND PUSH1 0xFF AND DUP2 MSTORE PUSH1 0x20 ADD PUSH1 0x1F PUSH1 0xFF AND PUSH1 0xFF AND DUP2 MSTORE POP SWAP1 POP PUSH1 0x0 JUMPDEST PUSH1 0x1 ISZERO PUSH2 0x21F2 JUMPI PUSH1 0x0 PUSH1 0xC DUP3 SUB PUSH2 0x2184 JUMPI POP PUSH2 0x21F2 JUMP JUMPDEST DUP9 DUP4 DUP4 PUSH1 0xC DUP2 LT PUSH2 0x2198 JUMPI PUSH2 0x2197 PUSH2 0x3186 JUMP JUMPDEST JUMPDEST PUSH1 0x20 MUL ADD MLOAD PUSH1 0xFF AND PUSH2 0x21AA SWAP2 SWAP1 PUSH2 0x3FE8 JUMP JUMPDEST DUP2 PUSH2 0x21B5 SWAP2 SWAP1 PUSH2 0x3579 JUMP JUMPDEST SWAP1 POP DUP1 DUP6 PUSH2 0x21C3 SWAP2 SWAP1 PUSH2 0x3579 JUMP JUMPDEST DUP11 LT ISZERO PUSH2 0x21D0 JUMPI POP PUSH2 0x21F2 JUMP JUMPDEST DUP1 DUP6 PUSH2 0x21DC SWAP2 SWAP1 PUSH2 0x3579 JUMP JUMPDEST SWAP5 POP DUP2 DUP1 PUSH2 0x21E9 SWAP1 PUSH2 0x3531 JUMP JUMPDEST SWAP3 POP POP POP PUSH2 0x216D JUMP JUMPDEST PUSH1 0x1 DUP2 PUSH2 0x21FF SWAP2 SWAP1 PUSH2 0x3579 JUMP JUMPDEST SWAP14 POP PUSH1 0x1 DUP9 DUP6 DUP12 PUSH2 0x2210 SWAP2 SWAP1 PUSH2 0x37D4 JUMP JUMPDEST PUSH2 0x221A SWAP2 SWAP1 PUSH2 0x33E9 JUMP JUMPDEST PUSH2 0x2224 SWAP2 SWAP1 PUSH2 0x3579 JUMP JUMPDEST SWAP13 POP PUSH1 0x0 DUP9 DUP6 DUP12 PUSH2 0x2235 SWAP2 SWAP1 PUSH2 0x37D4 JUMP JUMPDEST PUSH2 0x223F SWAP2 SWAP1 PUSH2 0x3579 JUMP JUMPDEST SWAP1 POP PUSH2 0xE10 DUP10 DUP3 PUSH2 0x2250 SWAP2 SWAP1 PUSH2 0x3FB7 JUMP JUMPDEST PUSH2 0x225A SWAP2 SWAP1 PUSH2 0x33E9 JUMP JUMPDEST SWAP13 POP PUSH1 0x3C PUSH2 0xE10 DUP3 PUSH2 0x226C SWAP2 SWAP1 PUSH2 0x3FB7 JUMP JUMPDEST PUSH2 0x2276 SWAP2 SWAP1 PUSH2 0x33E9 JUMP JUMPDEST SWAP12 POP POP POP POP POP POP POP POP POP POP POP POP SWAP2 SWAP4 SWAP6 SWAP1 SWAP3 SWAP5 POP JUMP JUMPDEST PUSH1 0x0 PUSH20 0xE86FCF5213C785ACF9A8BFFEEDEFA9A2199F7DA6 SWAP1 POP PUSH1 0x0 PUSH20 0xE1EF78939F9D3340E63A7A1077D50999CC6B64F PUSH20 0x1F4AEF3A04372CF9D738D5459F31950A53969CA3 PUSH1 0x40 MLOAD PUSH1 0x20 ADD PUSH2 0x22E2 SWAP3 SWAP2 SWAP1 PUSH2 0x402A JUMP JUMPDEST PUSH1 0x40 MLOAD PUSH1 0x20 DUP2 DUP4 SUB SUB DUP2 MSTORE SWAP1 PUSH1 0x40 MSTORE SWAP1 POP PUSH1 0x0 PUSH20 0x68C1F9620AEC7F2913430AD6DAC1BB16D8444F00 PUSH20 0xFFFFFFFFFFFFFFFFFFFFFFFFFFFFFFFFFFFFFFFF AND DUP4 DUP6 DUP5 PUSH1 0x40 MLOAD PUSH1 0x24 ADD PUSH2 0x2335 SWAP4 SWAP3 SWAP2 SWAP1 PUSH2 0x40A8 JUMP JUMPDEST PUSH1 0x40 MLOAD PUSH1 0x20 DUP2 DUP4 SUB SUB DUP2 MSTORE SWAP1 PUSH1 0x40 MSTORE PUSH32 0xD8146E7500000000000000000000000000000000000000000000000000000000 PUSH28 0xFFFFFFFFFFFFFFFFFFFFFFFFFFFFFFFFFFFFFFFFFFFFFFFFFFFFFFFF NOT AND PUSH1 0x20 DUP3 ADD DUP1 MLOAD PUSH28 0xFFFFFFFFFFFFFFFFFFFFFFFFFFFFFFFFFFFFFFFFFFFFFFFFFFFFFFFF DUP4 DUP2 DUP4 AND OR DUP4 MSTORE POP POP POP POP PUSH1 0x40 MLOAD PUSH2 0x23BF SWAP2 SWAP1 PUSH2 0x4122 JUMP JUMPDEST PUSH1 0x0 PUSH1 0x40 MLOAD DUP1 DUP4 SUB DUP2 PUSH1 0x0 DUP7 GAS CALL SWAP2 POP POP RETURNDATASIZE DUP1 PUSH1 0x0 DUP2 EQ PUSH2 0x23FC JUMPI PUSH1 0x40 MLOAD SWAP2 POP PUSH1 0x1F NOT PUSH1 0x3F RETURNDATASIZE ADD AND DUP3 ADD PUSH1 0x40 MSTORE RETURNDATASIZE DUP3 MSTORE RETURNDATASIZE PUSH1 0x0 PUSH1 0x20 DUP5 ADD RETURNDATACOPY PUSH2 0x2401 JUMP JUMPDEST PUSH1 0x60 SWAP2 POP JUMPDEST POP POP SWAP1 POP DUP1 PUSH2 0x2445 JUMPI PUSH1 0x40 MLOAD PUSH32 0x8C379A000000000000000000000000000000000000000000000000000000000 DUP2 MSTORE PUSH1 0x4 ADD PUSH2 0x243C SWAP1 PUSH2 0x4185 JUMP JUMPDEST PUSH1 0x40 MLOAD DUP1 SWAP2 SUB SWAP1 REVERT JUMPDEST POP POP POP POP JUMP JUMPDEST PUSH1 0x0 PUSH20 0xE1EF78939F9D3340E63A7A1077D50999CC6B64F PUSH20 0xFFFFFFFFFFFFFFFFFFFFFFFFFFFFFFFFFFFFFFFF AND PUSH20 0x1F4AEF3A04372CF9D738D5459F31950A53969CA3 DUP4 PUSH1 0x1 PUSH1 0x40 MLOAD PUSH1 0x24 ADD PUSH2 0x24A2 SWAP4 SWAP3 SWAP2 SWAP1 PUSH2 0x41A5 JUMP JUMPDEST PUSH1 0x40 MLOAD PUSH1 0x20 DUP2 DUP4 SUB SUB DUP2 MSTORE SWAP1 PUSH1 0x40 MSTORE PUSH32 0x53D3CE5F00000000000000000000000000000000000000000000000000000000 PUSH28 0xFFFFFFFFFFFFFFFFFFFFFFFFFFFFFFFFFFFFFFFFFFFFFFFFFFFFFFFF NOT AND PUSH1 0x20 DUP3 ADD DUP1 MLOAD PUSH28 0xFFFFFFFFFFFFFFFFFFFFFFFFFFFFFFFFFFFFFFFFFFFFFFFFFFFFFFFF DUP4 DUP2 DUP4 AND OR DUP4 MSTORE POP POP POP POP PUSH1 0x40 MLOAD PUSH2 0x252C SWAP2 SWAP1 PUSH2 0x4122 JUMP JUMPDEST PUSH1 0x0 PUSH1 0x40 MLOAD DUP1 DUP4 SUB DUP2 PUSH1 0x0 DUP7 GAS CALL SWAP2 POP POP RETURNDATASIZE DUP1 PUSH1 0x0 DUP2 EQ PUSH2 0x2569 JUMPI PUSH1 0x40 MLOAD SWAP2 POP PUSH1 0x1F NOT PUSH1 0x3F RETURNDATASIZE ADD AND DUP3 ADD PUSH1 0x40 MSTORE RETURNDATASIZE DUP3 MSTORE RETURNDATASIZE PUSH1 0x0 PUSH1 0x20 DUP5 ADD RETURNDATACOPY PUSH2 0x256E JUMP JUMPDEST PUSH1 0x60 SWAP2 POP JUMPDEST POP POP SWAP1 POP DUP1 PUSH2 0x25B2 JUMPI PUSH1 0x40 MLOAD PUSH32 0x8C379A000000000000000000000000000000000000000000000000000000000 DUP2 MSTORE PUSH1 0x4 ADD PUSH2 0x25A9 SWAP1 PUSH2 0x4185 JUMP JUMPDEST PUSH1 0x40 MLOAD DUP1 SWAP2 SUB SWAP1 REVERT JUMPDEST POP POP JUMP JUMPDEST DUP1 PUSH1 0x2 DUP1 SLOAD SWAP1 POP DUP2 LT PUSH2 0x25FE JUMPI PUSH1 0x40 MLOAD PUSH32 0x8C379A000000000000000000000000000000000000000000000000000000000 DUP2 MSTORE PUSH1 0x4 ADD PUSH2 0x25F5 SWAP1 PUSH2 0x3166 JUMP JUMPDEST PUSH1 0x40 MLOAD DUP1 SWAP2 SUB SWAP1 REVERT JUMPDEST PUSH1 0x2 DUP2 DUP2 SLOAD DUP2 LT PUSH2 0x2612 JUMPI PUSH2 0x2611 PUSH2 0x3186 JUMP JUMPDEST JUMPDEST SWAP1 PUSH1 0x0 MSTORE PUSH1 0x20 PUSH1 0x0 KECCAK256 SWAP1 PUSH1 0xE MUL ADD PUSH1 0x7 ADD PUSH1 0x1 SWAP1 SLOAD SWAP1 PUSH2 0x100 EXP SWAP1 DIV PUSH1 0xFF AND ISZERO PUSH2 0x2671 JUMPI PUSH1 0x40 MLOAD PUSH32 0x8C379A000000000000000000000000000000000000000000000000000000000 DUP2 MSTORE PUSH1 0x4 ADD PUSH2 0x2668 SWAP1 PUSH2 0x3C3B JUMP JUMPDEST PUSH1 0x40 MLOAD DUP1 SWAP2 SUB SWAP1 REVERT JUMPDEST PUSH1 0x0 PUSH1 0x2 DUP4 DUP2 SLOAD DUP2 LT PUSH2 0x2687 JUMPI PUSH2 0x2686 PUSH2 0x3186 JUMP JUMPDEST JUMPDEST SWAP1 PUSH1 0x0 MSTORE PUSH1 0x20 PUSH1 0x0 KECCAK256 SWAP1 PUSH1 0xE MUL ADD PUSH1 0x6 ADD SLOAD PUSH1 0x2 DUP5 DUP2 SLOAD DUP2 LT PUSH2 0x26AD JUMPI PUSH2 0x26AC PUSH2 0x3186 JUMP JUMPDEST JUMPDEST SWAP1 PUSH1 0x0 MSTORE PUSH1 0x20 PUSH1 0x0 KECCAK256 SWAP1 PUSH1 0xE MUL ADD PUSH1 0x5 ADD SLOAD PUSH2 0x26C9 SWAP2 SWAP1 PUSH2 0x3579 JUMP JUMPDEST SWAP1 POP PUSH1 0x0 DUP1 PUSH1 0x0 DUP1 PUSH2 0x26DA TIMESTAMP PUSH2 0x1FDF JUMP JUMPDEST POP SWAP4 POP SWAP4 POP SWAP4 POP SWAP4 POP PUSH1 0x0 DUP1 PUSH1 0x0 PUSH2 0x26F1 DUP9 PUSH2 0x1FDF JUMP JUMPDEST POP POP SWAP3 POP SWAP3 POP SWAP3 POP DUP3 DUP8 GT DUP1 PUSH2 0x2706 JUMPI POP DUP2 DUP7 GT JUMPDEST DUP1 PUSH2 0x2710 JUMPI POP DUP1 DUP6 GT JUMPDEST DUP1 PUSH2 0x271C JUMPI POP PUSH1 0x15 DUP5 LT ISZERO JUMPDEST PUSH2 0x275B JUMPI PUSH1 0x40 MLOAD PUSH32 0x8C379A000000000000000000000000000000000000000000000000000000000 DUP2 MSTORE PUSH1 0x4 ADD PUSH2 0x2752 SWAP1 PUSH2 0x4228 JUMP JUMPDEST PUSH1 0x40 MLOAD DUP1 SWAP2 SUB SWAP1 REVERT JUMPDEST PUSH2 0x2798 PUSH4 0x3B9ACA00 PUSH1 0x2 DUP13 DUP2 SLOAD DUP2 LT PUSH2 0x2777 JUMPI PUSH2 0x2776 PUSH2 0x3186 JUMP JUMPDEST JUMPDEST SWAP1 PUSH1 0x0 MSTORE PUSH1 0x20 PUSH1 0x0 KECCAK256 SWAP1 PUSH1 0xE MUL ADD PUSH1 0x3 ADD SLOAD PUSH2 0x2793 SWAP2 SWAP1 PUSH2 0x3FE8 JUMP JUMPDEST PUSH2 0x2819 JUMP JUMPDEST PUSH1 0x1 PUSH1 0x2 DUP12 DUP2 SLOAD DUP2 LT PUSH2 0x27AE JUMPI PUSH2 0x27AD PUSH2 0x3186 JUMP JUMPDEST JUMPDEST SWAP1 PUSH1 0x0 MSTORE PUSH1 0x20 PUSH1 0x0 KECCAK256 SWAP1 PUSH1 0xE MUL ADD PUSH1 0x7 ADD PUSH1 0x1 PUSH2 0x100 EXP DUP2 SLOAD DUP2 PUSH1 0xFF MUL NOT AND SWAP1 DUP4 ISZERO ISZERO MUL OR SWAP1 SSTORE POP PUSH32 0xC61EF8151923BBD8DC5F723BA25F26BB805EF4F9A52C5811DF7242872EDD2E0B DUP11 PUSH1 0x40 MLOAD PUSH2 0x2805 SWAP2 SWAP1 PUSH2 0x29FE JUMP JUMPDEST PUSH1 0x40 MLOAD DUP1 SWAP2 SUB SWAP1 LOG1 POP POP POP POP POP POP POP POP POP POP JUMP JUMPDEST PUSH1 0x0 PUSH20 0xE1EF78939F9D3340E63A7A1077D50999CC6B64F PUSH20 0xFFFFFFFFFFFFFFFFFFFFFFFFFFFFFFFFFFFFFFFF AND PUSH20 0x1F4AEF3A04372CF9D738D5459F31950A53969CA3 DUP4 PUSH1 0x40 MLOAD PUSH1 0x24 ADD PUSH2 0x286D SWAP3 SWAP2 SWAP1 PUSH2 0x341A JUMP JUMPDEST PUSH1 0x40 MLOAD PUSH1 0x20 DUP2 DUP4 SUB SUB DUP2 MSTORE SWAP1 PUSH1 0x40 MSTORE PUSH32 0xD8B1182100000000000000000000000000000000000000000000000000000000 PUSH28 0xFFFFFFFFFFFFFFFFFFFFFFFFFFFFFFFFFFFFFFFFFFFFFFFFFFFFFFFF NOT AND PUSH1 0x20 DUP3 ADD DUP1 MLOAD PUSH28 0xFFFFFFFFFFFFFFFFFFFFFFFFFFFFFFFFFFFFFFFFFFFFFFFFFFFFFFFF DUP4 DUP2 DUP4 AND OR DUP4 MSTORE POP POP POP POP PUSH1 0x40 MLOAD PUSH2 0x28F7 SWAP2 SWAP1 PUSH2 0x4122 JUMP JUMPDEST PUSH1 0x0 PUSH1 0x40 MLOAD DUP1 DUP4 SUB DUP2 PUSH1 0x0 DUP7 GAS CALL SWAP2 POP POP RETURNDATASIZE DUP1 PUSH1 0x0 DUP2 EQ PUSH2 0x2934 JUMPI PUSH1 0x40 MLOAD SWAP2 POP PUSH1 0x1F NOT PUSH1 0x3F RETURNDATASIZE ADD AND DUP3 ADD PUSH1 0x40 MSTORE RETURNDATASIZE DUP3 MSTORE RETURNDATASIZE PUSH1 0x0 PUSH1 0x20 DUP5 ADD RETURNDATACOPY PUSH2 0x2939 JUMP JUMPDEST PUSH1 0x60 SWAP2 POP JUMPDEST POP POP SWAP1 POP DUP1 PUSH2 0x297D JUMPI PUSH1 0x40 MLOAD PUSH32 0x8C379A000000000000000000000000000000000000000000000000000000000 DUP2 MSTORE PUSH1 0x4 ADD PUSH2 0x2974 SWAP1 PUSH2 0x4185 JUMP JUMPDEST PUSH1 0x40 MLOAD DUP1 SWAP2 SUB SWAP1 REVERT JUMPDEST POP POP JUMP JUMPDEST PUSH1 0x40 MLOAD DUP1 PUSH1 0xC0 ADD PUSH1 0x40 MSTORE DUP1 PUSH1 0x0 DUP2 MSTORE PUSH1 0x20 ADD PUSH1 0x60 DUP2 MSTORE PUSH1 0x20 ADD PUSH1 0x0 DUP2 MSTORE PUSH1 0x20 ADD PUSH1 0x0 DUP2 MSTORE PUSH1 0x20 ADD PUSH2 0x29B0 PUSH2 0x29C3 JUMP JUMPDEST DUP2 MSTORE PUSH1 0x20 ADD PUSH2 0x29BD PUSH2 0x29C3 JUMP JUMPDEST DUP2 MSTORE POP SWAP1 JUMP JUMPDEST PUSH1 0x40 MLOAD DUP1 PUSH1 0x80 ADD PUSH1 0x40 MSTORE DUP1 PUSH1 0x4 SWAP1 PUSH1 0x20 DUP3 MUL DUP1 CALLDATASIZE DUP4 CALLDATACOPY DUP1 DUP3 ADD SWAP2 POP POP SWAP1 POP POP SWAP1 JUMP JUMPDEST PUSH1 0x0 DUP2 SWAP1 POP SWAP2 SWAP1 POP JUMP JUMPDEST PUSH2 0x29F8 DUP2 PUSH2 0x29E5 JUMP JUMPDEST DUP3 MSTORE POP POP JUMP JUMPDEST PUSH1 0x0 PUSH1 0x20 DUP3 ADD SWAP1 POP PUSH2 0x2A13 PUSH1 0x0 DUP4 ADD DUP5 PUSH2 0x29EF JUMP JUMPDEST SWAP3 SWAP2 POP POP JUMP JUMPDEST PUSH1 0x0 PUSH1 0x40 MLOAD SWAP1 POP SWAP1 JUMP JUMPDEST PUSH1 0x0 DUP1 REVERT JUMPDEST PUSH1 0x0 DUP1 REVERT JUMPDEST PUSH2 0x2A36 DUP2 PUSH2 0x29E5 JUMP JUMPDEST DUP2 EQ PUSH2 0x2A41 JUMPI PUSH1 0x0 DUP1 REVERT JUMPDEST POP JUMP JUMPDEST PUSH1 0x0 DUP2 CALLDATALOAD SWAP1 POP PUSH2 0x2A53 DUP2 PUSH2 0x2A2D JUMP JUMPDEST SWAP3 SWAP2 POP POP JUMP JUMPDEST PUSH1 0x0 PUSH1 0x20 DUP3 DUP5 SUB SLT ISZERO PUSH2 0x2A6F JUMPI PUSH2 0x2A6E PUSH2 0x2A23 JUMP JUMPDEST JUMPDEST PUSH1 0x0 PUSH2 0x2A7D DUP5 DUP3 DUP6 ADD PUSH2 0x2A44 JUMP JUMPDEST SWAP2 POP POP SWAP3 SWAP2 POP POP JUMP JUMPDEST PUSH1 0x0 DUP2 MLOAD SWAP1 POP SWAP2 SWAP1 POP JUMP JUMPDEST PUSH1 0x0 DUP3 DUP3 MSTORE PUSH1 0x20 DUP3 ADD SWAP1 POP SWAP3 SWAP2 POP POP JUMP JUMPDEST PUSH1 0x0 DUP2 SWAP1 POP PUSH1 0x20 DUP3 ADD SWAP1 POP SWAP2 SWAP1 POP JUMP JUMPDEST PUSH2 0x2ABB DUP2 PUSH2 0x29E5 JUMP JUMPDEST DUP3 MSTORE POP POP JUMP JUMPDEST PUSH1 0x0 DUP2 MLOAD SWAP1 POP SWAP2 SWAP1 POP JUMP JUMPDEST PUSH1 0x0 DUP3 DUP3 MSTORE PUSH1 0x20 DUP3 ADD SWAP1 POP SWAP3 SWAP2 POP POP JUMP JUMPDEST PUSH1 0x0 JUMPDEST DUP4 DUP2 LT ISZERO PUSH2 0x2AFB JUMPI DUP1 DUP3 ADD MLOAD DUP2 DUP5 ADD MSTORE PUSH1 0x20 DUP2 ADD SWAP1 POP PUSH2 0x2AE0 JUMP JUMPDEST PUSH1 0x0 DUP5 DUP5 ADD MSTORE POP POP POP POP JUMP JUMPDEST PUSH1 0x0 PUSH1 0x1F NOT PUSH1 0x1F DUP4 ADD AND SWAP1 POP SWAP2 SWAP1 POP JUMP JUMPDEST PUSH1 0x0 PUSH2 0x2B23 DUP3 PUSH2 0x2AC1 JUMP JUMPDEST PUSH2 0x2B2D DUP2 DUP6 PUSH2 0x2ACC JUMP JUMPDEST SWAP4 POP PUSH2 0x2B3D DUP2 DUP6 PUSH1 0x20 DUP7 ADD PUSH2 0x2ADD JUMP JUMPDEST PUSH2 0x2B46 DUP2 PUSH2 0x2B07 JUMP JUMPDEST DUP5 ADD SWAP2 POP POP SWAP3 SWAP2 POP POP JUMP JUMPDEST PUSH1 0x0 PUSH1 0x4 SWAP1 POP SWAP2 SWAP1 POP JUMP JUMPDEST PUSH1 0x0 DUP2 SWAP1 POP SWAP3 SWAP2 POP POP JUMP JUMPDEST PUSH1 0x0 DUP2 SWAP1 POP SWAP2 SWAP1 POP JUMP JUMPDEST PUSH1 0x0 PUSH2 0x2B7D DUP4 DUP4 PUSH2 0x2AB2 JUMP JUMPDEST PUSH1 0x20 DUP4 ADD SWAP1 POP SWAP3 SWAP2 POP POP JUMP JUMPDEST PUSH1 0x0 PUSH1 0x20 DUP3 ADD SWAP1 POP SWAP2 SWAP1 POP JUMP JUMPDEST PUSH2 0x2B9F DUP2 PUSH2 0x2B51 JUMP JUMPDEST PUSH2 0x2BA9 DUP2 DUP5 PUSH2 0x2B5C JUMP JUMPDEST SWAP3 POP PUSH2 0x2BB4 DUP3 PUSH2 0x2B67 JUMP JUMPDEST DUP1 PUSH1 0x0 JUMPDEST DUP4 DUP2 LT ISZERO PUSH2 0x2BE5 JUMPI DUP2 MLOAD PUSH2 0x2BCC DUP8 DUP3 PUSH2 0x2B71 JUMP JUMPDEST SWAP7 POP PUSH2 0x2BD7 DUP4 PUSH2 0x2B89 JUMP JUMPDEST SWAP3 POP POP PUSH1 0x1 DUP2 ADD SWAP1 POP PUSH2 0x2BB8 JUMP JUMPDEST POP POP POP POP POP POP JUMP JUMPDEST PUSH1 0x0 PUSH2 0x180 DUP4 ADD PUSH1 0x0 DUP4 ADD MLOAD PUSH2 0x2C06 PUSH1 0x0 DUP7 ADD DUP3 PUSH2 0x2AB2 JUMP JUMPDEST POP PUSH1 0x20 DUP4 ADD MLOAD DUP5 DUP3 SUB PUSH1 0x20 DUP7 ADD MSTORE PUSH2 0x2C1E DUP3 DUP3 PUSH2 0x2B18 JUMP JUMPDEST SWAP2 POP POP PUSH1 0x40 DUP4 ADD MLOAD PUSH2 0x2C33 PUSH1 0x40 DUP7 ADD DUP3 PUSH2 0x2AB2 JUMP JUMPDEST POP PUSH1 0x60 DUP4 ADD MLOAD PUSH2 0x2C46 PUSH1 0x60 DUP7 ADD DUP3 PUSH2 0x2AB2 JUMP JUMPDEST POP PUSH1 0x80 DUP4 ADD MLOAD PUSH2 0x2C59 PUSH1 0x80 DUP7 ADD DUP3 PUSH2 0x2B96 JUMP JUMPDEST POP PUSH1 0xA0 DUP4 ADD MLOAD PUSH2 0x2C6D PUSH2 0x100 DUP7 ADD DUP3 PUSH2 0x2B96 JUMP JUMPDEST POP DUP1 SWAP2 POP POP SWAP3 SWAP2 POP POP JUMP JUMPDEST PUSH1 0x0 PUSH2 0x2C84 DUP4 DUP4 PUSH2 0x2BED JUMP JUMPDEST SWAP1 POP SWAP3 SWAP2 POP POP JUMP JUMPDEST PUSH1 0x0 PUSH1 0x20 DUP3 ADD SWAP1 POP SWAP2 SWAP1 POP JUMP JUMPDEST PUSH1 0x0 PUSH2 0x2CA4 DUP3 PUSH2 0x2A86 JUMP JUMPDEST PUSH2 0x2CAE DUP2 DUP6 PUSH2 0x2A91 JUMP JUMPDEST SWAP4 POP DUP4 PUSH1 0x20 DUP3 MUL DUP6 ADD PUSH2 0x2CC0 DUP6 PUSH2 0x2AA2 JUMP JUMPDEST DUP1 PUSH1 0x0 JUMPDEST DUP6 DUP2 LT ISZERO PUSH2 0x2CFC JUMPI DUP5 DUP5 SUB DUP10 MSTORE DUP2 MLOAD PUSH2 0x2CDD DUP6 DUP3 PUSH2 0x2C78 JUMP JUMPDEST SWAP5 POP PUSH2 0x2CE8 DUP4 PUSH2 0x2C8C JUMP JUMPDEST SWAP3 POP PUSH1 0x20 DUP11 ADD SWAP10 POP POP PUSH1 0x1 DUP2 ADD SWAP1 POP PUSH2 0x2CC4 JUMP JUMPDEST POP DUP3 SWAP8 POP DUP8 SWAP6 POP POP POP POP POP POP SWAP3 SWAP2 POP POP JUMP JUMPDEST PUSH1 0x0 PUSH1 0x20 DUP3 ADD SWAP1 POP DUP2 DUP2 SUB PUSH1 0x0 DUP4 ADD MSTORE PUSH2 0x2D28 DUP2 DUP5 PUSH2 0x2C99 JUMP JUMPDEST SWAP1 POP SWAP3 SWAP2 POP POP JUMP JUMPDEST PUSH1 0x0 DUP1 REVERT JUMPDEST PUSH1 0x0 DUP1 REVERT JUMPDEST PUSH32 0x4E487B7100000000000000000000000000000000000000000000000000000000 PUSH1 0x0 MSTORE PUSH1 0x41 PUSH1 0x4 MSTORE PUSH1 0x24 PUSH1 0x0 REVERT JUMPDEST PUSH2 0x2D72 DUP3 PUSH2 0x2B07 JUMP JUMPDEST DUP2 ADD DUP2 DUP2 LT PUSH8 0xFFFFFFFFFFFFFFFF DUP3 GT OR ISZERO PUSH2 0x2D91 JUMPI PUSH2 0x2D90 PUSH2 0x2D3A JUMP JUMPDEST JUMPDEST DUP1 PUSH1 0x40 MSTORE POP POP POP JUMP JUMPDEST PUSH1 0x0 PUSH2 0x2DA4 PUSH2 0x2A19 JUMP JUMPDEST SWAP1 POP PUSH2 0x2DB0 DUP3 DUP3 PUSH2 0x2D69 JUMP JUMPDEST SWAP2 SWAP1 POP JUMP JUMPDEST PUSH1 0x0 PUSH8 0xFFFFFFFFFFFFFFFF DUP3 GT ISZERO PUSH2 0x2DD0 JUMPI PUSH2 0x2DCF PUSH2 0x2D3A JUMP JUMPDEST JUMPDEST PUSH2 0x2DD9 DUP3 PUSH2 0x2B07 JUMP JUMPDEST SWAP1 POP PUSH1 0x20 DUP2 ADD SWAP1 POP SWAP2 SWAP1 POP JUMP JUMPDEST DUP3 DUP2 DUP4 CALLDATACOPY PUSH1 0x0 DUP4 DUP4 ADD MSTORE POP POP POP JUMP JUMPDEST PUSH1 0x0 PUSH2 0x2E08 PUSH2 0x2E03 DUP5 PUSH2 0x2DB5 JUMP JUMPDEST PUSH2 0x2D9A JUMP JUMPDEST SWAP1 POP DUP3 DUP2 MSTORE PUSH1 0x20 DUP2 ADD DUP5 DUP5 DUP5 ADD GT ISZERO PUSH2 0x2E24 JUMPI PUSH2 0x2E23 PUSH2 0x2D35 JUMP JUMPDEST JUMPDEST PUSH2 0x2E2F DUP5 DUP3 DUP6 PUSH2 0x2DE6 JUMP JUMPDEST POP SWAP4 SWAP3 POP POP POP JUMP JUMPDEST PUSH1 0x0 DUP3 PUSH1 0x1F DUP4 ADD SLT PUSH2 0x2E4C JUMPI PUSH2 0x2E4B PUSH2 0x2D30 JUMP JUMPDEST JUMPDEST DUP2 CALLDATALOAD PUSH2 0x2E5C DUP5 DUP3 PUSH1 0x20 DUP7 ADD PUSH2 0x2DF5 JUMP JUMPDEST SWAP2 POP POP SWAP3 SWAP2 POP POP JUMP JUMPDEST PUSH1 0x0 DUP1 PUSH1 0x0 PUSH1 0x60 DUP5 DUP7 SUB SLT ISZERO PUSH2 0x2E7E JUMPI PUSH2 0x2E7D PUSH2 0x2A23 JUMP JUMPDEST JUMPDEST PUSH1 0x0 DUP5 ADD CALLDATALOAD PUSH8 0xFFFFFFFFFFFFFFFF DUP2 GT ISZERO PUSH2 0x2E9C JUMPI PUSH2 0x2E9B PUSH2 0x2A28 JUMP JUMPDEST JUMPDEST PUSH2 0x2EA8 DUP7 DUP3 DUP8 ADD PUSH2 0x2E37 JUMP JUMPDEST SWAP4 POP POP PUSH1 0x20 PUSH2 0x2EB9 DUP7 DUP3 DUP8 ADD PUSH2 0x2A44 JUMP JUMPDEST SWAP3 POP POP PUSH1 0x40 PUSH2 0x2ECA DUP7 DUP3 DUP8 ADD PUSH2 0x2A44 JUMP JUMPDEST SWAP2 POP POP SWAP3 POP SWAP3 POP SWAP3 JUMP JUMPDEST PUSH1 0x0 PUSH20 0xFFFFFFFFFFFFFFFFFFFFFFFFFFFFFFFFFFFFFFFF DUP3 AND SWAP1 POP SWAP2 SWAP1 POP JUMP JUMPDEST PUSH1 0x0 PUSH2 0x2EFF DUP3 PUSH2 0x2ED4 JUMP JUMPDEST SWAP1 POP SWAP2 SWAP1 POP JUMP JUMPDEST PUSH2 0x2F0F DUP2 PUSH2 0x2EF4 JUMP JUMPDEST DUP2 EQ PUSH2 0x2F1A JUMPI PUSH1 0x0 DUP1 REVERT JUMPDEST POP JUMP JUMPDEST PUSH1 0x0 DUP2 CALLDATALOAD SWAP1 POP PUSH2 0x2F2C DUP2 PUSH2 0x2F06 JUMP JUMPDEST SWAP3 SWAP2 POP POP JUMP JUMPDEST PUSH1 0x0 PUSH1 0x20 DUP3 DUP5 SUB SLT ISZERO PUSH2 0x2F48 JUMPI PUSH2 0x2F47 PUSH2 0x2A23 JUMP JUMPDEST JUMPDEST PUSH1 0x0 PUSH2 0x2F56 DUP5 DUP3 DUP6 ADD PUSH2 0x2F1D JUMP JUMPDEST SWAP2 POP POP SWAP3 SWAP2 POP POP JUMP JUMPDEST PUSH2 0x2F68 DUP2 PUSH2 0x2EF4 JUMP JUMPDEST DUP3 MSTORE POP POP JUMP JUMPDEST PUSH1 0x0 DUP3 DUP3 MSTORE PUSH1 0x20 DUP3 ADD SWAP1 POP SWAP3 SWAP2 POP POP JUMP JUMPDEST PUSH1 0x0 PUSH2 0x2F8A DUP3 PUSH2 0x2AC1 JUMP JUMPDEST PUSH2 0x2F94 DUP2 DUP6 PUSH2 0x2F6E JUMP JUMPDEST SWAP4 POP PUSH2 0x2FA4 DUP2 DUP6 PUSH1 0x20 DUP7 ADD PUSH2 0x2ADD JUMP JUMPDEST PUSH2 0x2FAD DUP2 PUSH2 0x2B07 JUMP JUMPDEST DUP5 ADD SWAP2 POP POP SWAP3 SWAP2 POP POP JUMP JUMPDEST PUSH1 0x0 DUP2 ISZERO ISZERO SWAP1 POP SWAP2 SWAP1 POP JUMP JUMPDEST PUSH2 0x2FCD DUP2 PUSH2 0x2FB8 JUMP JUMPDEST DUP3 MSTORE POP POP JUMP JUMPDEST PUSH1 0x0 PUSH2 0x160 DUP3 ADD SWAP1 POP PUSH2 0x2FE9 PUSH1 0x0 DUP4 ADD DUP15 PUSH2 0x2F5F JUMP JUMPDEST DUP2 DUP2 SUB PUSH1 0x20 DUP4 ADD MSTORE PUSH2 0x2FFB DUP2 DUP14 PUSH2 0x2F7F JUMP JUMPDEST SWAP1 POP PUSH2 0x300A PUSH1 0x40 DUP4 ADD DUP13 PUSH2 0x29EF JUMP JUMPDEST PUSH2 0x3017 PUSH1 0x60 DUP4 ADD DUP12 PUSH2 0x29EF JUMP JUMPDEST PUSH2 0x3024 PUSH1 0x80 DUP4 ADD DUP11 PUSH2 0x29EF JUMP JUMPDEST PUSH2 0x3031 PUSH1 0xA0 DUP4 ADD DUP10 PUSH2 0x29EF JUMP JUMPDEST PUSH2 0x303E PUSH1 0xC0 DUP4 ADD DUP9 PUSH2 0x29EF JUMP JUMPDEST PUSH2 0x304B PUSH1 0xE0 DUP4 ADD DUP8 PUSH2 0x2FC4 JUMP JUMPDEST PUSH2 0x3059 PUSH2 0x100 DUP4 ADD DUP7 PUSH2 0x2FC4 JUMP JUMPDEST PUSH2 0x3067 PUSH2 0x120 DUP4 ADD DUP6 PUSH2 0x29EF JUMP JUMPDEST PUSH2 0x3075 PUSH2 0x140 DUP4 ADD DUP5 PUSH2 0x29EF JUMP JUMPDEST SWAP13 SWAP12 POP POP POP POP POP POP POP POP POP POP POP POP JUMP JUMPDEST PUSH1 0x0 PUSH1 0x20 DUP3 ADD SWAP1 POP PUSH2 0x309A PUSH1 0x0 DUP4 ADD DUP5 PUSH2 0x2F5F JUMP JUMPDEST SWAP3 SWAP2 POP POP JUMP JUMPDEST PUSH1 0x0 DUP2 SWAP1 POP SWAP2 SWAP1 POP JUMP JUMPDEST PUSH1 0x0 PUSH2 0x30C5 PUSH2 0x30C0 PUSH2 0x30BB DUP5 PUSH2 0x2ED4 JUMP JUMPDEST PUSH2 0x30A0 JUMP JUMPDEST PUSH2 0x2ED4 JUMP JUMPDEST SWAP1 POP SWAP2 SWAP1 POP JUMP JUMPDEST PUSH1 0x0 PUSH2 0x30D7 DUP3 PUSH2 0x30AA JUMP JUMPDEST SWAP1 POP SWAP2 SWAP1 POP JUMP JUMPDEST PUSH1 0x0 PUSH2 0x30E9 DUP3 PUSH2 0x30CC JUMP JUMPDEST SWAP1 POP SWAP2 SWAP1 POP JUMP JUMPDEST PUSH2 0x30F9 DUP2 PUSH2 0x30DE JUMP JUMPDEST DUP3 MSTORE POP POP JUMP JUMPDEST PUSH1 0x0 PUSH1 0x20 DUP3 ADD SWAP1 POP PUSH2 0x3114 PUSH1 0x0 DUP4 ADD DUP5 PUSH2 0x30F0 JUMP JUMPDEST SWAP3 SWAP2 POP POP JUMP JUMPDEST PUSH32 0x496E76616C6964206368616C6C656E6765204944000000000000000000000000 PUSH1 0x0 DUP3 ADD MSTORE POP JUMP JUMPDEST PUSH1 0x0 PUSH2 0x3150 PUSH1 0x14 DUP4 PUSH2 0x2F6E JUMP JUMPDEST SWAP2 POP PUSH2 0x315B DUP3 PUSH2 0x311A JUMP JUMPDEST PUSH1 0x20 DUP3 ADD SWAP1 POP SWAP2 SWAP1 POP JUMP JUMPDEST PUSH1 0x0 PUSH1 0x20 DUP3 ADD SWAP1 POP DUP2 DUP2 SUB PUSH1 0x0 DUP4 ADD MSTORE PUSH2 0x317F DUP2 PUSH2 0x3143 JUMP JUMPDEST SWAP1 POP SWAP2 SWAP1 POP JUMP JUMPDEST PUSH32 0x4E487B7100000000000000000000000000000000000000000000000000000000 PUSH1 0x0 MSTORE PUSH1 0x32 PUSH1 0x4 MSTORE PUSH1 0x24 PUSH1 0x0 REVERT JUMPDEST PUSH32 0x4368616C6C656E67652069736E277420636F6D706C65746564207965742E0000 PUSH1 0x0 DUP3 ADD MSTORE POP JUMP JUMPDEST PUSH1 0x0 PUSH2 0x31EB PUSH1 0x1E DUP4 PUSH2 0x2F6E JUMP JUMPDEST SWAP2 POP PUSH2 0x31F6 DUP3 PUSH2 0x31B5 JUMP JUMPDEST PUSH1 0x20 DUP3 ADD SWAP1 POP SWAP2 SWAP1 POP JUMP JUMPDEST PUSH1 0x0 PUSH1 0x20 DUP3 ADD SWAP1 POP DUP2 DUP2 SUB PUSH1 0x0 DUP4 ADD MSTORE PUSH2 0x321A DUP2 PUSH2 0x31DE JUMP JUMPDEST SWAP1 POP SWAP2 SWAP1 POP JUMP JUMPDEST PUSH32 0x596F75277265206E6F742061207061727469636970616E74206F662074686973 PUSH1 0x0 DUP3 ADD MSTORE PUSH32 0x206368616C6C656E67652E000000000000000000000000000000000000000000 PUSH1 0x20 DUP3 ADD MSTORE POP JUMP JUMPDEST PUSH1 0x0 PUSH2 0x327D PUSH1 0x2B DUP4 PUSH2 0x2F6E JUMP JUMPDEST SWAP2 POP PUSH2 0x3288 DUP3 PUSH2 0x3221 JUMP JUMPDEST PUSH1 0x40 DUP3 ADD SWAP1 POP SWAP2 SWAP1 POP JUMP JUMPDEST PUSH1 0x0 PUSH1 0x20 DUP3 ADD SWAP1 POP DUP2 DUP2 SUB PUSH1 0x0 DUP4 ADD MSTORE PUSH2 0x32AC DUP2 PUSH2 0x3270 JUMP JUMPDEST SWAP1 POP SWAP2 SWAP1 POP JUMP JUMPDEST PUSH32 0x416C726561647920636C61696D65640000000000000000000000000000000000 PUSH1 0x0 DUP3 ADD MSTORE POP JUMP JUMPDEST PUSH1 0x0 PUSH2 0x32E9 PUSH1 0xF DUP4 PUSH2 0x2F6E JUMP JUMPDEST SWAP2 POP PUSH2 0x32F4 DUP3 PUSH2 0x32B3 JUMP JUMPDEST PUSH1 0x20 DUP3 ADD SWAP1 POP SWAP2 SWAP1 POP JUMP JUMPDEST PUSH1 0x0 PUSH1 0x20 DUP3 ADD SWAP1 POP DUP2 DUP2 SUB PUSH1 0x0 DUP4 ADD MSTORE PUSH2 0x3318 DUP2 PUSH2 0x32DC JUMP JUMPDEST SWAP1 POP SWAP2 SWAP1 POP JUMP JUMPDEST PUSH32 0x596F75206469646E27742077696E2074686973206368616C6C656E67652E0000 PUSH1 0x0 DUP3 ADD MSTORE POP JUMP JUMPDEST PUSH1 0x0 PUSH2 0x3355 PUSH1 0x1E DUP4 PUSH2 0x2F6E JUMP JUMPDEST SWAP2 POP PUSH2 0x3360 DUP3 PUSH2 0x331F JUMP JUMPDEST PUSH1 0x20 DUP3 ADD SWAP1 POP SWAP2 SWAP1 POP JUMP JUMPDEST PUSH1 0x0 PUSH1 0x20 DUP3 ADD SWAP1 POP DUP2 DUP2 SUB PUSH1 0x0 DUP4 ADD MSTORE PUSH2 0x3384 DUP2 PUSH2 0x3348 JUMP JUMPDEST SWAP1 POP SWAP2 SWAP1 POP JUMP JUMPDEST PUSH32 0x4E487B7100000000000000000000000000000000000000000000000000000000 PUSH1 0x0 MSTORE PUSH1 0x12 PUSH1 0x4 MSTORE PUSH1 0x24 PUSH1 0x0 REVERT JUMPDEST PUSH32 0x4E487B7100000000000000000000000000000000000000000000000000000000 PUSH1 0x0 MSTORE PUSH1 0x11 PUSH1 0x4 MSTORE PUSH1 0x24 PUSH1 0x0 REVERT JUMPDEST PUSH1 0x0 PUSH2 0x33F4 DUP3 PUSH2 0x29E5 JUMP JUMPDEST SWAP2 POP PUSH2 0x33FF DUP4 PUSH2 0x29E5 JUMP JUMPDEST SWAP3 POP DUP3 PUSH2 0x340F JUMPI PUSH2 0x340E PUSH2 0x338B JUMP JUMPDEST JUMPDEST DUP3 DUP3 DIV SWAP1 POP SWAP3 SWAP2 POP POP JUMP JUMPDEST PUSH1 0x0 PUSH1 0x40 DUP3 ADD SWAP1 POP PUSH2 0x342F PUSH1 0x0 DUP4 ADD DUP6 PUSH2 0x2F5F JUMP JUMPDEST PUSH2 0x343C PUSH1 0x20 DUP4 ADD DUP5 PUSH2 0x29EF JUMP JUMPDEST SWAP4 SWAP3 POP POP POP JUMP JUMPDEST PUSH2 0x344C DUP2 PUSH2 0x2FB8 JUMP JUMPDEST DUP2 EQ PUSH2 0x3457 JUMPI PUSH1 0x0 DUP1 REVERT JUMPDEST POP JUMP JUMPDEST PUSH1 0x0 DUP2 MLOAD SWAP1 POP PUSH2 0x3469 DUP2 PUSH2 0x3443 JUMP JUMPDEST SWAP3 SWAP2 POP POP JUMP JUMPDEST PUSH1 0x0 PUSH1 0x20 DUP3 DUP5 SUB SLT ISZERO PUSH2 0x3485 JUMPI PUSH2 0x3484 PUSH2 0x2A23 JUMP JUMPDEST JUMPDEST PUSH1 0x0 PUSH2 0x3493 DUP5 DUP3 DUP6 ADD PUSH2 0x345A JUMP JUMPDEST SWAP2 POP POP SWAP3 SWAP2 POP POP JUMP JUMPDEST PUSH32 0x52657761726420636C61696D206661696C65642E000000000000000000000000 PUSH1 0x0 DUP3 ADD MSTORE POP JUMP JUMPDEST PUSH1 0x0 PUSH2 0x34D2 PUSH1 0x14 DUP4 PUSH2 0x2F6E JUMP JUMPDEST SWAP2 POP PUSH2 0x34DD DUP3 PUSH2 0x349C JUMP JUMPDEST PUSH1 0x20 DUP3 ADD SWAP1 POP SWAP2 SWAP1 POP JUMP JUMPDEST PUSH1 0x0 PUSH1 0x20 DUP3 ADD SWAP1 POP DUP2 DUP2 SUB PUSH1 0x0 DUP4 ADD MSTORE PUSH2 0x3501 DUP2 PUSH2 0x34C5 JUMP JUMPDEST SWAP1 POP SWAP2 SWAP1 POP JUMP JUMPDEST PUSH1 0x0 PUSH1 0x40 DUP3 ADD SWAP1 POP PUSH2 0x351D PUSH1 0x0 DUP4 ADD DUP6 PUSH2 0x29EF JUMP JUMPDEST PUSH2 0x352A PUSH1 0x20 DUP4 ADD DUP5 PUSH2 0x2F5F JUMP JUMPDEST SWAP4 SWAP3 POP POP POP JUMP JUMPDEST PUSH1 0x0 PUSH2 0x353C DUP3 PUSH2 0x29E5 JUMP JUMPDEST SWAP2 POP PUSH32 0xFFFFFFFFFFFFFFFFFFFFFFFFFFFFFFFFFFFFFFFFFFFFFFFFFFFFFFFFFFFFFFFF DUP3 SUB PUSH2 0x356E JUMPI PUSH2 0x356D PUSH2 0x33BA JUMP JUMPDEST JUMPDEST PUSH1 0x1 DUP3 ADD SWAP1 POP SWAP2 SWAP1 POP JUMP JUMPDEST PUSH1 0x0 PUSH2 0x3584 DUP3 PUSH2 0x29E5 JUMP JUMPDEST SWAP2 POP PUSH2 0x358F DUP4 PUSH2 0x29E5 JUMP JUMPDEST SWAP3 POP DUP3 DUP3 ADD SWAP1 POP DUP1 DUP3 GT ISZERO PUSH2 0x35A7 JUMPI PUSH2 0x35A6 PUSH2 0x33BA JUMP JUMPDEST JUMPDEST SWAP3 SWAP2 POP POP JUMP JUMPDEST PUSH32 0x4E487B7100000000000000000000000000000000000000000000000000000000 PUSH1 0x0 MSTORE PUSH1 0x22 PUSH1 0x4 MSTORE PUSH1 0x24 PUSH1 0x0 REVERT JUMPDEST PUSH1 0x0 PUSH1 0x2 DUP3 DIV SWAP1 POP PUSH1 0x1 DUP3 AND DUP1 PUSH2 0x35F4 JUMPI PUSH1 0x7F DUP3 AND SWAP2 POP JUMPDEST PUSH1 0x20 DUP3 LT DUP2 SUB PUSH2 0x3607 JUMPI PUSH2 0x3606 PUSH2 0x35AD JUMP JUMPDEST JUMPDEST POP SWAP2 SWAP1 POP JUMP JUMPDEST PUSH32 0x456E74727920616D6F756E742073686F756C6420626520677265617465722074 PUSH1 0x0 DUP3 ADD MSTORE PUSH32 0x68616E2030000000000000000000000000000000000000000000000000000000 PUSH1 0x20 DUP3 ADD MSTORE POP JUMP JUMPDEST PUSH1 0x0 PUSH2 0x3669 PUSH1 0x25 DUP4 PUSH2 0x2F6E JUMP JUMPDEST SWAP2 POP PUSH2 0x3674 DUP3 PUSH2 0x360D JUMP JUMPDEST PUSH1 0x40 DUP3 ADD SWAP1 POP SWAP2 SWAP1 POP JUMP JUMPDEST PUSH1 0x0 PUSH1 0x20 DUP3 ADD SWAP1 POP DUP2 DUP2 SUB PUSH1 0x0 DUP4 ADD MSTORE PUSH2 0x3698 DUP2 PUSH2 0x365C JUMP JUMPDEST SWAP1 POP SWAP2 SWAP1 POP JUMP JUMPDEST PUSH32 0x4661696C656420746F20617070726F766520746F6B656E7320666F7220747261 PUSH1 0x0 DUP3 ADD MSTORE PUSH32 0x6E73666572000000000000000000000000000000000000000000000000000000 PUSH1 0x20 DUP3 ADD MSTORE POP JUMP JUMPDEST PUSH1 0x0 PUSH2 0x36FB PUSH1 0x25 DUP4 PUSH2 0x2F6E JUMP JUMPDEST SWAP2 POP PUSH2 0x3706 DUP3 PUSH2 0x369F JUMP JUMPDEST PUSH1 0x40 DUP3 ADD SWAP1 POP SWAP2 SWAP1 POP JUMP JUMPDEST PUSH1 0x0 PUSH1 0x20 DUP3 ADD SWAP1 POP DUP2 DUP2 SUB PUSH1 0x0 DUP4 ADD MSTORE PUSH2 0x372A DUP2 PUSH2 0x36EE JUMP JUMPDEST SWAP1 POP SWAP2 SWAP1 POP JUMP JUMPDEST PUSH1 0x0 PUSH1 0x60 DUP3 ADD SWAP1 POP PUSH2 0x3746 PUSH1 0x0 DUP4 ADD DUP7 PUSH2 0x2F5F JUMP JUMPDEST PUSH2 0x3753 PUSH1 0x20 DUP4 ADD DUP6 PUSH2 0x2F5F JUMP JUMPDEST PUSH2 0x3760 PUSH1 0x40 DUP4 ADD DUP5 PUSH2 0x29EF JUMP JUMPDEST SWAP5 SWAP4 POP POP POP POP JUMP JUMPDEST PUSH32 0x4661696C656420746F207472616E7366657220746F6B656E7300000000000000 PUSH1 0x0 DUP3 ADD MSTORE POP JUMP JUMPDEST PUSH1 0x0 PUSH2 0x379E PUSH1 0x19 DUP4 PUSH2 0x2F6E JUMP JUMPDEST SWAP2 POP PUSH2 0x37A9 DUP3 PUSH2 0x3768 JUMP JUMPDEST PUSH1 0x20 DUP3 ADD SWAP1 POP SWAP2 SWAP1 POP JUMP JUMPDEST PUSH1 0x0 PUSH1 0x20 DUP3 ADD SWAP1 POP DUP2 DUP2 SUB PUSH1 0x0 DUP4 ADD MSTORE PUSH2 0x37CD DUP2 PUSH2 0x3791 JUMP JUMPDEST SWAP1 POP SWAP2 SWAP1 POP JUMP JUMPDEST PUSH1 0x0 PUSH2 0x37DF DUP3 PUSH2 0x29E5 JUMP JUMPDEST SWAP2 POP PUSH2 0x37EA DUP4 PUSH2 0x29E5 JUMP JUMPDEST SWAP3 POP DUP3 DUP3 SUB SWAP1 POP DUP2 DUP2 GT ISZERO PUSH2 0x3802 JUMPI PUSH2 0x3801 PUSH2 0x33BA JUMP JUMPDEST JUMPDEST SWAP3 SWAP2 POP POP JUMP JUMPDEST PUSH1 0x0 DUP2 SWAP1 POP DUP2 PUSH1 0x0 MSTORE PUSH1 0x20 PUSH1 0x0 KECCAK256 SWAP1 POP SWAP2 SWAP1 POP JUMP JUMPDEST PUSH1 0x0 PUSH1 0x20 PUSH1 0x1F DUP4 ADD DIV SWAP1 POP SWAP2 SWAP1 POP JUMP JUMPDEST PUSH1 0x0 DUP3 DUP3 SHL SWAP1 POP SWAP3 SWAP2 POP POP JUMP JUMPDEST PUSH1 0x0 PUSH1 0x8 DUP4 MUL PUSH2 0x386A PUSH32 0xFFFFFFFFFFFFFFFFFFFFFFFFFFFFFFFFFFFFFFFFFFFFFFFFFFFFFFFFFFFFFFFF DUP3 PUSH2 0x382D JUMP JUMPDEST PUSH2 0x3874 DUP7 DUP4 PUSH2 0x382D JUMP JUMPDEST SWAP6 POP DUP1 NOT DUP5 AND SWAP4 POP DUP1 DUP7 AND DUP5 OR SWAP3 POP POP POP SWAP4 SWAP3 POP POP POP JUMP JUMPDEST PUSH1 0x0 PUSH2 0x38A7 PUSH2 0x38A2 PUSH2 0x389D DUP5 PUSH2 0x29E5 JUMP JUMPDEST PUSH2 0x30A0 JUMP JUMPDEST PUSH2 0x29E5 JUMP JUMPDEST SWAP1 POP SWAP2 SWAP1 POP JUMP JUMPDEST PUSH1 0x0 DUP2 SWAP1 POP SWAP2 SWAP1 POP JUMP JUMPDEST PUSH2 0x38C1 DUP4 PUSH2 0x388C JUMP JUMPDEST PUSH2 0x38D5 PUSH2 0x38CD DUP3 PUSH2 0x38AE JUMP JUMPDEST DUP5 DUP5 SLOAD PUSH2 0x383A JUMP JUMPDEST DUP3 SSTORE POP POP POP POP JUMP JUMPDEST PUSH1 0x0 SWAP1 JUMP JUMPDEST PUSH2 0x38EA PUSH2 0x38DD JUMP JUMPDEST PUSH2 0x38F5 DUP2 DUP5 DUP5 PUSH2 0x38B8 JUMP JUMPDEST POP POP POP JUMP JUMPDEST JUMPDEST DUP2 DUP2 LT ISZERO PUSH2 0x3919 JUMPI PUSH2 0x390E PUSH1 0x0 DUP3 PUSH2 0x38E2 JUMP JUMPDEST PUSH1 0x1 DUP2 ADD SWAP1 POP PUSH2 0x38FB JUMP JUMPDEST POP POP JUMP JUMPDEST PUSH1 0x1F DUP3 GT ISZERO PUSH2 0x395E JUMPI PUSH2 0x392F DUP2 PUSH2 0x3808 JUMP JUMPDEST PUSH2 0x3938 DUP5 PUSH2 0x381D JUMP JUMPDEST DUP2 ADD PUSH1 0x20 DUP6 LT ISZERO PUSH2 0x3947 JUMPI DUP2 SWAP1 POP JUMPDEST PUSH2 0x395B PUSH2 0x3953 DUP6 PUSH2 0x381D JUMP JUMPDEST DUP4 ADD DUP3 PUSH2 0x38FA JUMP JUMPDEST POP POP JUMPDEST POP POP POP JUMP JUMPDEST PUSH1 0x0 DUP3 DUP3 SHR SWAP1 POP SWAP3 SWAP2 POP POP JUMP JUMPDEST PUSH1 0x0 PUSH2 0x3981 PUSH1 0x0 NOT DUP5 PUSH1 0x8 MUL PUSH2 0x3963 JUMP JUMPDEST NOT DUP1 DUP4 AND SWAP2 POP POP SWAP3 SWAP2 POP POP JUMP JUMPDEST PUSH1 0x0 PUSH2 0x399A DUP4 DUP4 PUSH2 0x3970 JUMP JUMPDEST SWAP2 POP DUP3 PUSH1 0x2 MUL DUP3 OR SWAP1 POP SWAP3 SWAP2 POP POP JUMP JUMPDEST PUSH2 0x39B3 DUP3 PUSH2 0x2AC1 JUMP JUMPDEST PUSH8 0xFFFFFFFFFFFFFFFF DUP2 GT ISZERO PUSH2 0x39CC JUMPI PUSH2 0x39CB PUSH2 0x2D3A JUMP JUMPDEST JUMPDEST PUSH2 0x39D6 DUP3 SLOAD PUSH2 0x35DC JUMP JUMPDEST PUSH2 0x39E1 DUP3 DUP3 DUP6 PUSH2 0x391D JUMP JUMPDEST PUSH1 0x0 PUSH1 0x20 SWAP1 POP PUSH1 0x1F DUP4 GT PUSH1 0x1 DUP2 EQ PUSH2 0x3A14 JUMPI PUSH1 0x0 DUP5 ISZERO PUSH2 0x3A02 JUMPI DUP3 DUP8 ADD MLOAD SWAP1 POP JUMPDEST PUSH2 0x3A0C DUP6 DUP3 PUSH2 0x398E JUMP JUMPDEST DUP7 SSTORE POP PUSH2 0x3A74 JUMP JUMPDEST PUSH1 0x1F NOT DUP5 AND PUSH2 0x3A22 DUP7 PUSH2 0x3808 JUMP JUMPDEST PUSH1 0x0 JUMPDEST DUP3 DUP2 LT ISZERO PUSH2 0x3A4A JUMPI DUP5 DUP10 ADD MLOAD DUP3 SSTORE PUSH1 0x1 DUP3 ADD SWAP2 POP PUSH1 0x20 DUP6 ADD SWAP5 POP PUSH1 0x20 DUP2 ADD SWAP1 POP PUSH2 0x3A25 JUMP JUMPDEST DUP7 DUP4 LT ISZERO PUSH2 0x3A67 JUMPI DUP5 DUP10 ADD MLOAD PUSH2 0x3A63 PUSH1 0x1F DUP10 AND DUP3 PUSH2 0x3970 JUMP JUMPDEST DUP4 SSTORE POP JUMPDEST PUSH1 0x1 PUSH1 0x2 DUP9 MUL ADD DUP9 SSTORE POP POP POP JUMPDEST POP POP POP POP POP POP JUMP JUMPDEST PUSH1 0x0 PUSH1 0x80 DUP3 ADD SWAP1 POP PUSH2 0x3A91 PUSH1 0x0 DUP4 ADD DUP8 PUSH2 0x29EF JUMP JUMPDEST DUP2 DUP2 SUB PUSH1 0x20 DUP4 ADD MSTORE PUSH2 0x3AA3 DUP2 DUP7 PUSH2 0x2F7F JUMP JUMPDEST SWAP1 POP PUSH2 0x3AB2 PUSH1 0x40 DUP4 ADD DUP6 PUSH2 0x29EF JUMP JUMPDEST PUSH2 0x3ABF PUSH1 0x60 DUP4 ADD DUP5 PUSH2 0x2F5F JUMP JUMPDEST SWAP6 SWAP5 POP POP POP POP POP JUMP JUMPDEST PUSH1 0x0 PUSH1 0x40 DUP3 ADD SWAP1 POP PUSH2 0x3ADD PUSH1 0x0 DUP4 ADD DUP6 PUSH2 0x29EF JUMP JUMPDEST PUSH2 0x3AEA PUSH1 0x20 DUP4 ADD DUP5 PUSH2 0x29EF JUMP JUMPDEST SWAP4 SWAP3 POP POP POP JUMP JUMPDEST PUSH32 0x4F6E6C79207468652061646D696E2063616E2063616C6C20746869732066756E PUSH1 0x0 DUP3 ADD MSTORE PUSH32 0x6374696F6E2E0000000000000000000000000000000000000000000000000000 PUSH1 0x20 DUP3 ADD MSTORE POP JUMP JUMPDEST PUSH1 0x0 PUSH2 0x3B4D PUSH1 0x26 DUP4 PUSH2 0x2F6E JUMP JUMPDEST SWAP2 POP PUSH2 0x3B58 DUP3 PUSH2 0x3AF1 JUMP JUMPDEST PUSH1 0x40 DUP3 ADD SWAP1 POP SWAP2 SWAP1 POP JUMP JUMPDEST PUSH1 0x0 PUSH1 0x20 DUP3 ADD SWAP1 POP DUP2 DUP2 SUB PUSH1 0x0 DUP4 ADD MSTORE PUSH2 0x3B7C DUP2 PUSH2 0x3B40 JUMP JUMPDEST SWAP1 POP SWAP2 SWAP1 POP JUMP JUMPDEST PUSH32 0x496E76616C696420616464726573732E00000000000000000000000000000000 PUSH1 0x0 DUP3 ADD MSTORE POP JUMP JUMPDEST PUSH1 0x0 PUSH2 0x3BB9 PUSH1 0x10 DUP4 PUSH2 0x2F6E JUMP JUMPDEST SWAP2 POP PUSH2 0x3BC4 DUP3 PUSH2 0x3B83 JUMP JUMPDEST PUSH1 0x20 DUP3 ADD SWAP1 POP SWAP2 SWAP1 POP JUMP JUMPDEST PUSH1 0x0 PUSH1 0x20 DUP3 ADD SWAP1 POP DUP2 DUP2 SUB PUSH1 0x0 DUP4 ADD MSTORE PUSH2 0x3BE8 DUP2 PUSH2 0x3BAC JUMP JUMPDEST SWAP1 POP SWAP2 SWAP1 POP JUMP JUMPDEST PUSH32 0x4368616C6C656E676520616C726561647920636F6D706C657465640000000000 PUSH1 0x0 DUP3 ADD MSTORE POP JUMP JUMPDEST PUSH1 0x0 PUSH2 0x3C25 PUSH1 0x1B DUP4 PUSH2 0x2F6E JUMP JUMPDEST SWAP2 POP PUSH2 0x3C30 DUP3 PUSH2 0x3BEF JUMP JUMPDEST PUSH1 0x20 DUP3 ADD SWAP1 POP SWAP2 SWAP1 POP JUMP JUMPDEST PUSH1 0x0 PUSH1 0x20 DUP3 ADD SWAP1 POP DUP2 DUP2 SUB PUSH1 0x0 DUP4 ADD MSTORE PUSH2 0x3C54 DUP2 PUSH2 0x3C18 JUMP JUMPDEST SWAP1 POP SWAP2 SWAP1 POP JUMP JUMPDEST PUSH32 0x596F7527766520616C726561647920636865636B656420746F6461792E000000 PUSH1 0x0 DUP3 ADD MSTORE POP JUMP JUMPDEST PUSH1 0x0 PUSH2 0x3C91 PUSH1 0x1D DUP4 PUSH2 0x2F6E JUMP JUMPDEST SWAP2 POP PUSH2 0x3C9C DUP3 PUSH2 0x3C5B JUMP JUMPDEST PUSH1 0x20 DUP3 ADD SWAP1 POP SWAP2 SWAP1 POP JUMP JUMPDEST PUSH1 0x0 PUSH1 0x20 DUP3 ADD SWAP1 POP DUP2 DUP2 SUB PUSH1 0x0 DUP4 ADD MSTORE PUSH2 0x3CC0 DUP2 PUSH2 0x3C84 JUMP JUMPDEST SWAP1 POP SWAP2 SWAP1 POP JUMP JUMPDEST PUSH32 0x596F75277665206661696C656420746F6461792773206D697373696F6E2E0000 PUSH1 0x0 DUP3 ADD MSTORE POP JUMP JUMPDEST PUSH1 0x0 PUSH2 0x3CFD PUSH1 0x1E DUP4 PUSH2 0x2F6E JUMP JUMPDEST SWAP2 POP PUSH2 0x3D08 DUP3 PUSH2 0x3CC7 JUMP JUMPDEST PUSH1 0x20 DUP3 ADD SWAP1 POP SWAP2 SWAP1 POP JUMP JUMPDEST PUSH1 0x0 PUSH1 0x20 DUP3 ADD SWAP1 POP DUP2 DUP2 SUB PUSH1 0x0 DUP4 ADD MSTORE PUSH2 0x3D2C DUP2 PUSH2 0x3CF0 JUMP JUMPDEST SWAP1 POP SWAP2 SWAP1 POP JUMP JUMPDEST PUSH32 0x546865206170706C69636174696F6E20706572696F6420686173206578706972 PUSH1 0x0 DUP3 ADD MSTORE PUSH32 0x65642E0000000000000000000000000000000000000000000000000000000000 PUSH1 0x20 DUP3 ADD MSTORE POP JUMP JUMPDEST PUSH1 0x0 PUSH2 0x3D8F PUSH1 0x23 DUP4 PUSH2 0x2F6E JUMP JUMPDEST SWAP2 POP PUSH2 0x3D9A DUP3 PUSH2 0x3D33 JUMP JUMPDEST PUSH1 0x40 DUP3 ADD SWAP1 POP SWAP2 SWAP1 POP JUMP JUMPDEST PUSH1 0x0 PUSH1 0x20 DUP3 ADD SWAP1 POP DUP2 DUP2 SUB PUSH1 0x0 DUP4 ADD MSTORE PUSH2 0x3DBE DUP2 PUSH2 0x3D82 JUMP JUMPDEST SWAP1 POP SWAP2 SWAP1 POP JUMP JUMPDEST PUSH32 0x6368616C6C656E67652069736E277420636F6D706C6574656400000000000000 PUSH1 0x0 DUP3 ADD MSTORE POP JUMP JUMPDEST PUSH1 0x0 PUSH2 0x3DFB PUSH1 0x19 DUP4 PUSH2 0x2F6E JUMP JUMPDEST SWAP2 POP PUSH2 0x3E06 DUP3 PUSH2 0x3DC5 JUMP JUMPDEST PUSH1 0x20 DUP3 ADD SWAP1 POP SWAP2 SWAP1 POP JUMP JUMPDEST PUSH1 0x0 PUSH1 0x20 DUP3 ADD SWAP1 POP DUP2 DUP2 SUB PUSH1 0x0 DUP4 ADD MSTORE PUSH2 0x3E2A DUP2 PUSH2 0x3DEE JUMP JUMPDEST SWAP1 POP SWAP2 SWAP1 POP JUMP JUMPDEST PUSH32 0x4368616C6C656E6765206475726174696F6E206E6F74206F7665722079657400 PUSH1 0x0 DUP3 ADD MSTORE POP JUMP JUMPDEST PUSH1 0x0 PUSH2 0x3E67 PUSH1 0x1F DUP4 PUSH2 0x2F6E JUMP JUMPDEST SWAP2 POP PUSH2 0x3E72 DUP3 PUSH2 0x3E31 JUMP JUMPDEST PUSH1 0x20 DUP3 ADD SWAP1 POP SWAP2 SWAP1 POP JUMP JUMPDEST PUSH1 0x0 PUSH1 0x20 DUP3 ADD SWAP1 POP DUP2 DUP2 SUB PUSH1 0x0 DUP4 ADD MSTORE PUSH2 0x3E96 DUP2 PUSH2 0x3E5A JUMP JUMPDEST SWAP1 POP SWAP2 SWAP1 POP JUMP JUMPDEST PUSH32 0x596F7527766520616C7265616479206A6F696E65642E00000000000000000000 PUSH1 0x0 DUP3 ADD MSTORE POP JUMP JUMPDEST PUSH1 0x0 PUSH2 0x3ED3 PUSH1 0x16 DUP4 PUSH2 0x2F6E JUMP JUMPDEST SWAP2 POP PUSH2 0x3EDE DUP3 PUSH2 0x3E9D JUMP JUMPDEST PUSH1 0x20 DUP3 ADD SWAP1 POP SWAP2 SWAP1 POP JUMP JUMPDEST PUSH1 0x0 PUSH1 0x20 DUP3 ADD SWAP1 POP DUP2 DUP2 SUB PUSH1 0x0 DUP4 ADD MSTORE PUSH2 0x3F02 DUP2 PUSH2 0x3EC6 JUMP JUMPDEST SWAP1 POP SWAP2 SWAP1 POP JUMP JUMPDEST PUSH1 0x0 DUP2 MLOAD SWAP1 POP PUSH2 0x3F18 DUP2 PUSH2 0x2A2D JUMP JUMPDEST SWAP3 SWAP2 POP POP JUMP JUMPDEST PUSH1 0x0 PUSH1 0x20 DUP3 DUP5 SUB SLT ISZERO PUSH2 0x3F34 JUMPI PUSH2 0x3F33 PUSH2 0x2A23 JUMP JUMPDEST JUMPDEST PUSH1 0x0 PUSH2 0x3F42 DUP5 DUP3 DUP6 ADD PUSH2 0x3F09 JUMP JUMPDEST SWAP2 POP POP SWAP3 SWAP2 POP POP JUMP JUMPDEST PUSH32 0x496E73756666696369656E7420656E74727920616D6F756E7400000000000000 PUSH1 0x0 DUP3 ADD MSTORE POP JUMP JUMPDEST PUSH1 0x0 PUSH2 0x3F81 PUSH1 0x19 DUP4 PUSH2 0x2F6E JUMP JUMPDEST SWAP2 POP PUSH2 0x3F8C DUP3 PUSH2 0x3F4B JUMP JUMPDEST PUSH1 0x20 DUP3 ADD SWAP1 POP SWAP2 SWAP1 POP JUMP JUMPDEST PUSH1 0x0 PUSH1 0x20 DUP3 ADD SWAP1 POP DUP2 DUP2 SUB PUSH1 0x0 DUP4 ADD MSTORE PUSH2 0x3FB0 DUP2 PUSH2 0x3F74 JUMP JUMPDEST SWAP1 POP SWAP2 SWAP1 POP JUMP JUMPDEST PUSH1 0x0 PUSH2 0x3FC2 DUP3 PUSH2 0x29E5 JUMP JUMPDEST SWAP2 POP PUSH2 0x3FCD DUP4 PUSH2 0x29E5 JUMP JUMPDEST SWAP3 POP DUP3 PUSH2 0x3FDD JUMPI PUSH2 0x3FDC PUSH2 0x338B JUMP JUMPDEST JUMPDEST DUP3 DUP3 MOD SWAP1 POP SWAP3 SWAP2 POP POP JUMP JUMPDEST PUSH1 0x0 PUSH2 0x3FF3 DUP3 PUSH2 0x29E5 JUMP JUMPDEST SWAP2 POP PUSH2 0x3FFE DUP4 PUSH2 0x29E5 JUMP JUMPDEST SWAP3 POP DUP3 DUP3 MUL PUSH2 0x400C DUP2 PUSH2 0x29E5 JUMP JUMPDEST SWAP2 POP DUP3 DUP3 DIV DUP5 EQ DUP4 ISZERO OR PUSH2 0x4023 JUMPI PUSH2 0x4022 PUSH2 0x33BA JUMP JUMPDEST JUMPDEST POP SWAP3 SWAP2 POP POP JUMP JUMPDEST PUSH1 0x0 PUSH1 0x40 DUP3 ADD SWAP1 POP PUSH2 0x403F PUSH1 0x0 DUP4 ADD DUP6 PUSH2 0x2F5F JUMP JUMPDEST PUSH2 0x404C PUSH1 0x20 DUP4 ADD DUP5 PUSH2 0x2F5F JUMP JUMPDEST SWAP4 SWAP3 POP POP POP JUMP JUMPDEST PUSH1 0x0 DUP2 MLOAD SWAP1 POP SWAP2 SWAP1 POP JUMP JUMPDEST PUSH1 0x0 DUP3 DUP3 MSTORE PUSH1 0x20 DUP3 ADD SWAP1 POP SWAP3 SWAP2 POP POP JUMP JUMPDEST PUSH1 0x0 PUSH2 0x407A DUP3 PUSH2 0x4053 JUMP JUMPDEST PUSH2 0x4084 DUP2 DUP6 PUSH2 0x405E JUMP JUMPDEST SWAP4 POP PUSH2 0x4094 DUP2 DUP6 PUSH1 0x20 DUP7 ADD PUSH2 0x2ADD JUMP JUMPDEST PUSH2 0x409D DUP2 PUSH2 0x2B07 JUMP JUMPDEST DUP5 ADD SWAP2 POP POP SWAP3 SWAP2 POP POP JUMP JUMPDEST PUSH1 0x0 PUSH1 0x60 DUP3 ADD SWAP1 POP PUSH2 0x40BD PUSH1 0x0 DUP4 ADD DUP7 PUSH2 0x2F5F JUMP JUMPDEST PUSH2 0x40CA PUSH1 0x20 DUP4 ADD DUP6 PUSH2 0x29EF JUMP JUMPDEST DUP2 DUP2 SUB PUSH1 0x40 DUP4 ADD MSTORE PUSH2 0x40DC DUP2 DUP5 PUSH2 0x406F JUMP JUMPDEST SWAP1 POP SWAP5 SWAP4 POP POP POP POP JUMP JUMPDEST PUSH1 0x0 DUP2 SWAP1 POP SWAP3 SWAP2 POP POP JUMP JUMPDEST PUSH1 0x0 PUSH2 0x40FC DUP3 PUSH2 0x4053 JUMP JUMPDEST PUSH2 0x4106 DUP2 DUP6 PUSH2 0x40E6 JUMP JUMPDEST SWAP4 POP PUSH2 0x4116 DUP2 DUP6 PUSH1 0x20 DUP7 ADD PUSH2 0x2ADD JUMP JUMPDEST DUP1 DUP5 ADD SWAP2 POP POP SWAP3 SWAP2 POP POP JUMP JUMPDEST PUSH1 0x0 PUSH2 0x412E DUP3 DUP5 PUSH2 0x40F1 JUMP JUMPDEST SWAP2 POP DUP2 SWAP1 POP SWAP3 SWAP2 POP POP JUMP JUMPDEST PUSH32 0x45787465726E616C2063616C6C206661696C6564000000000000000000000000 PUSH1 0x0 DUP3 ADD MSTORE POP JUMP JUMPDEST PUSH1 0x0 PUSH2 0x416F PUSH1 0x14 DUP4 PUSH2 0x2F6E JUMP JUMPDEST SWAP2 POP PUSH2 0x417A DUP3 PUSH2 0x4139 JUMP JUMPDEST PUSH1 0x20 DUP3 ADD SWAP1 POP SWAP2 SWAP1 POP JUMP JUMPDEST PUSH1 0x0 PUSH1 0x20 DUP3 ADD SWAP1 POP DUP2 DUP2 SUB PUSH1 0x0 DUP4 ADD MSTORE PUSH2 0x419E DUP2 PUSH2 0x4162 JUMP JUMPDEST SWAP1 POP SWAP2 SWAP1 POP JUMP JUMPDEST PUSH1 0x0 PUSH1 0x60 DUP3 ADD SWAP1 POP PUSH2 0x41BA PUSH1 0x0 DUP4 ADD DUP7 PUSH2 0x2F5F JUMP JUMPDEST PUSH2 0x41C7 PUSH1 0x20 DUP4 ADD DUP6 PUSH2 0x29EF JUMP JUMPDEST PUSH2 0x41D4 PUSH1 0x40 DUP4 ADD DUP5 PUSH2 0x2FC4 JUMP JUMPDEST SWAP5 SWAP4 POP POP POP POP JUMP JUMPDEST PUSH32 0x4368616C6C656E6765206475726174696F6E206E6F74206F766572207965742E PUSH1 0x0 DUP3 ADD MSTORE POP JUMP JUMPDEST PUSH1 0x0 PUSH2 0x4212 PUSH1 0x20 DUP4 PUSH2 0x2F6E JUMP JUMPDEST SWAP2 POP PUSH2 0x421D DUP3 PUSH2 0x41DC JUMP JUMPDEST PUSH1 0x20 DUP3 ADD SWAP1 POP SWAP2 SWAP1 POP JUMP JUMPDEST PUSH1 0x0 PUSH1 0x20 DUP3 ADD SWAP1 POP DUP2 DUP2 SUB PUSH1 0x0 DUP4 ADD MSTORE PUSH2 0x4241 DUP2 PUSH2 0x4205 JUMP JUMPDEST SWAP1 POP SWAP2 SWAP1 POP JUMP INVALID LOG2 PUSH5 0x6970667358 0x22 SLT KECCAK256 TIMESTAMP CALLER DUP5 0xDD 0x4F PUSH18 0x983C87B5DE85D074350B93BC675AFECCC9CD LT 0x5E PUSH19 0x1B256900F164736F6C63430008140033000000 "},"methodIdentifiers":{"admin()":"f851a440","challenges(uint256)":"8f1d3776","claimRewards(uint256)":"0962ef79","closeChallenge(uint256)":"59808a97","createChallenge(string,uint256,uint256)":"1aaaac93","getChallengeCount()":"0933f467","getCurrentChallenges()":"18d95b76","joinChallenge(uint256)":"e448ee26","runChallenge(uint256)":"497ddc63","setTokenAddress(address)":"26a4e8d2","token()":"fc0c546a","wakeUpCheck(uint256)":"335eff3e","withdrawalReward(uint256)":"4a4ae32b"}}}}}