{"contracts/ChallengeContract.sol":{"ChallengeContract":{"abi":[{"inputs":[{"internalType":"address","name":"_tokenAddress","type":"address"}],"stateMutability":"nonpayable","type":"constructor"},{"anonymous":false,"inputs":[{"indexed":false,"internalType":"uint256","name":"challengeId","type":"uint256"},{"indexed":false,"internalType":"uint256","name":"closureDate","type":"uint256"}],"name":"ChallengeClosureScheduled","type":"event"},{"anonymous":false,"inputs":[{"indexed":false,"internalType":"uint256","name":"challengeId","type":"uint256"}],"name":"ChallengeCompleted","type":"event"},{"anonymous":false,"inputs":[{"indexed":false,"internalType":"uint256","name":"challengeId","type":"uint256"},{"indexed":false,"internalType":"string","name":"challengeName","type":"string"},{"indexed":false,"internalType":"uint256","name":"entryAmount","type":"uint256"},{"indexed":false,"internalType":"address","name":"creator","type":"address"}],"name":"ChallengeCreated","type":"event"},{"anonymous":false,"inputs":[{"indexed":false,"internalType":"uint256","name":"challengeId","type":"uint256"},{"indexed":false,"internalType":"address","name":"participant","type":"address"}],"name":"ChallengeJoined","type":"event"},{"anonymous":false,"inputs":[{"indexed":false,"internalType":"uint256","name":"challengeId","type":"uint256"},{"indexed":false,"internalType":"address","name":"participant","type":"address"}],"name":"ChallengeRewardClaimed","type":"event"},{"inputs":[{"internalType":"uint256","name":"_challengeId","type":"uint256"}],"name":"automaticallyCloseChallenge","outputs":[],"stateMutability":"nonpayable","type":"function"},{"inputs":[{"internalType":"uint256","name":"","type":"uint256"}],"name":"challenges","outputs":[{"internalType":"address","name":"creator","type":"address"},{"internalType":"string","name":"challengeName","type":"string"},{"internalType":"uint256","name":"entryAmount","type":"uint256"},{"internalType":"uint256","name":"totalAmount","type":"uint256"},{"internalType":"uint256","name":"creationTime","type":"uint256"},{"internalType":"uint256","name":"applicationDeadline","type":"uint256"},{"internalType":"uint256","name":"duration","type":"uint256"},{"internalType":"bool","name":"completed","type":"bool"},{"internalType":"uint256","name":"numOfWakeUpCheckToWin","type":"uint256"},{"internalType":"uint256","name":"numOfWinners","type":"uint256"}],"stateMutability":"view","type":"function"},{"inputs":[{"internalType":"uint256","name":"_challengeId","type":"uint256"}],"name":"claimRewards","outputs":[],"stateMutability":"nonpayable","type":"function"},{"inputs":[{"internalType":"string","name":"_challengeName","type":"string"},{"internalType":"uint256","name":"_duration","type":"uint256"},{"internalType":"uint256","name":"_entryAmount","type":"uint256"}],"name":"createChallenge","outputs":[],"stateMutability":"nonpayable","type":"function"},{"inputs":[],"name":"getChallengeCount","outputs":[{"internalType":"uint256","name":"","type":"uint256"}],"stateMutability":"view","type":"function"},{"inputs":[],"name":"getCurrentChallenges","outputs":[{"components":[{"internalType":"uint256","name":"id","type":"uint256"},{"internalType":"string","name":"challengeName","type":"string"},{"internalType":"uint256","name":"entryAmount","type":"uint256"},{"internalType":"uint256","name":"currentTotalAmount","type":"uint256"},{"internalType":"uint256[4]","name":"appDeadline","type":"uint256[4]"},{"internalType":"uint256[4]","name":"dueDate","type":"uint256[4]"}],"internalType":"struct ChallengeContract.OngoingChallenge[]","name":"","type":"tuple[]"}],"stateMutability":"view","type":"function"},{"inputs":[{"internalType":"uint256","name":"_challengeId","type":"uint256"}],"name":"joinChallenge","outputs":[],"stateMutability":"nonpayable","type":"function"},{"inputs":[],"name":"startChallenge","outputs":[],"stateMutability":"nonpayable","type":"function"},{"inputs":[],"name":"token","outputs":[{"internalType":"contract ERC20","name":"","type":"address"}],"stateMutability":"view","type":"function"},{"inputs":[{"internalType":"uint256","name":"_challengeId","type":"uint256"}],"name":"wakeUpCheck","outputs":[],"stateMutability":"nonpayable","type":"function"}],"evm":{"bytecode":{"linkReferences":{},"object":"60806040523480156200001157600080fd5b506040516200376f3803806200376f8339818101604052810190620000379190620000e8565b806000806101000a81548173ffffffffffffffffffffffffffffffffffffffff021916908373ffffffffffffffffffffffffffffffffffffffff160217905550506200011a565b600080fd5b600073ffffffffffffffffffffffffffffffffffffffff82169050919050565b6000620000b08262000083565b9050919050565b620000c281620000a3565b8114620000ce57600080fd5b50565b600081519050620000e281620000b7565b92915050565b6000602082840312156200010157620001006200007e565b5b60006200011184828501620000d1565b91505092915050565b613645806200012a6000396000f3fe608060405234801561001057600080fd5b506004361061009e5760003560e01c80638f1d3776116100665780638f1d377614610133578063b2990c361461016c578063e0a7b2c314610188578063e448ee2614610192578063fc0c546a146101ae5761009e565b80630933f467146100a35780630962ef79146100c157806318d95b76146100dd5780631aaaac93146100fb578063335eff3e14610117575b600080fd5b6100ab6101cc565b6040516100b891906120b7565b60405180910390f35b6100db60048036038101906100d69190612112565b6101d9565b005b6100e56106aa565b6040516100f291906123c7565b60405180910390f35b6101156004803603810190610110919061251e565b610a13565b005b610131600480360381019061012c9190612112565b610e35565b005b61014d60048036038101906101489190612112565b61128d565b6040516101639a99989796959493929190612633565b60405180910390f35b61018660048036038101906101819190612112565b6113a6565b005b61019061144a565b005b6101ac60048036038101906101a79190612112565b61144c565b005b6101b6611a91565b6040516101c39190612735565b60405180910390f35b6000600180549050905090565b806001805490508110610221576040517f08c379a00000000000000000000000000000000000000000000000000000000081526004016102189061279c565b60405180910390fd5b60018281548110610235576102346127bc565b5b90600052602060002090600e020160070160009054906101000a900460ff16610293576040517f08c379a000000000000000000000000000000000000000000000000000000000815260040161028a90612837565b60405180910390fd5b600182815481106102a7576102a66127bc565b5b90600052602060002090600e0201600c0160003373ffffffffffffffffffffffffffffffffffffffff1673ffffffffffffffffffffffffffffffffffffffff16815260200190815260200160002060009054906101000a900460ff16610342576040517f08c379a0000000000000000000000000000000000000000000000000000000008152600401610339906128c9565b60405180910390fd5b60018281548110610356576103556127bc565b5b90600052602060002090600e0201600d0160003373ffffffffffffffffffffffffffffffffffffffff1673ffffffffffffffffffffffffffffffffffffffff16815260200190815260200160002060009054906101000a900460ff16156103f2576040517f08c379a00000000000000000000000000000000000000000000000000000000081526004016103e990612935565b60405180910390fd5b60018281548110610406576104056127bc565b5b90600052602060002090600e0201600801546001838154811061042c5761042b6127bc565b5b90600052602060002090600e0201600a0160003373ffffffffffffffffffffffffffffffffffffffff1673ffffffffffffffffffffffffffffffffffffffff16815260200190815260200160002054146104bb576040517f08c379a00000000000000000000000000000000000000000000000000000000081526004016104b2906129a1565b60405180910390fd5b6000600183815481106104d1576104d06127bc565b5b90600052602060002090600e020160090154600184815481106104f7576104f66127bc565b5b90600052602060002090600e0201600301546105139190612a1f565b905060008054906101000a900473ffffffffffffffffffffffffffffffffffffffff1673ffffffffffffffffffffffffffffffffffffffff1663a9059cbb33836040518363ffffffff1660e01b8152600401610570929190612a50565b6020604051808303816000875af115801561058f573d6000803e3d6000fd5b505050506040513d601f19601f820116820180604052508101906105b39190612aa5565b6105f2576040517f08c379a00000000000000000000000000000000000000000000000000000000081526004016105e990612b1e565b60405180910390fd5b6001808481548110610607576106066127bc565b5b90600052602060002090600e0201600d0160003373ffffffffffffffffffffffffffffffffffffffff1673ffffffffffffffffffffffffffffffffffffffff16815260200190815260200160002060006101000a81548160ff0219169083151502179055507fcc543a67f8dfe04cfbe3cdcf9eacffa678f7b557e40f7d0051fcf17e8165d5e3833360405161069d929190612b3e565b60405180910390a1505050565b60606000805b60018054905081101561071657600181815481106106d1576106d06127bc565b5b90600052602060002090600e020160070160009054906101000a900460ff166107035781806106ff90612b67565b9250505b808061070e90612b67565b9150506106b0565b5060008167ffffffffffffffff811115610733576107326123f3565b5b60405190808252806020026020018201604052801561076c57816020015b61075961203a565b8152602001906001900390816107515790505b5090506000805b600180549050811015610a095760018181548110610794576107936127bc565b5b90600052602060002090600e020160070160009054906101000a900460ff166109f657600080600061081a600185815481106107d3576107d26127bc565b5b90600052602060002090600e020160060154600186815481106107f9576107f86127bc565b5b90600052602060002090600e0201600501546108159190612baf565b611ab5565b505092509250925060008060006108556001888154811061083e5761083d6127bc565b5b90600052602060002090600e020160050154611ab5565b50509250925092506040518060c0016040528088815260200160018981548110610882576108816127bc565b5b90600052602060002090600e0201600101805461089e90612c12565b80601f01602080910402602001604051908101604052809291908181526020018280546108ca90612c12565b80156109175780601f106108ec57610100808354040283529160200191610917565b820191906000526020600020905b8154815290600101906020018083116108fa57829003601f168201915b5050505050815260200160018981548110610935576109346127bc565b5b90600052602060002090600e0201600201548152602001600189815481106109605761095f6127bc565b5b90600052602060002090600e0201600301548152602001604051806080016040528086815260200185815260200184815260200160158152508152602001604051806080016040528089815260200188815260200187815260200160158152508152508989815181106109d6576109d56127bc565b5b602002602001018190525087806109ec90612b67565b9850505050505050505b8080610a0190612b67565b915050610773565b5081935050505090565b60008111610a56576040517f08c379a0000000000000000000000000000000000000000000000000000000008152600401610a4d90612cb5565b60405180910390fd5b60008054906101000a900473ffffffffffffffffffffffffffffffffffffffff1673ffffffffffffffffffffffffffffffffffffffff1663095ea7b330836040518363ffffffff1660e01b8152600401610ab1929190612a50565b6020604051808303816000875af1158015610ad0573d6000803e3d6000fd5b505050506040513d601f19601f82011682018060405250810190610af49190612aa5565b610b33576040517f08c379a0000000000000000000000000000000000000000000000000000000008152600401610b2a90612d47565b60405180910390fd5b60008054906101000a900473ffffffffffffffffffffffffffffffffffffffff1673ffffffffffffffffffffffffffffffffffffffff166323b872dd3330846040518463ffffffff1660e01b8152600401610b9093929190612d67565b6020604051808303816000875af1158015610baf573d6000803e3d6000fd5b505050506040513d601f19601f82011682018060405250810190610bd39190612aa5565b610c12576040517f08c379a0000000000000000000000000000000000000000000000000000000008152600401610c0990612dea565b60405180910390fd5b600180816001815401808255809150500390600052602060002090505060006001808080549050610c439190612e0a565b81548110610c5457610c536127bc565b5b90600052602060002090600e02019050338160000160006101000a81548173ffffffffffffffffffffffffffffffffffffffff021916908373ffffffffffffffffffffffffffffffffffffffff16021790555083816001019081610cb89190612fe0565b5081816002018190555081816003016000828254610cd69190612baf565b925050819055504281600401819055506201518042610cf59190612baf565b816005018190555082816006018190555060008160070160006101000a81548160ff0219169083151502179055506201518083610d329190612a1f565b8160080181905550600181600c0160003373ffffffffffffffffffffffffffffffffffffffff1673ffffffffffffffffffffffffffffffffffffffff16815260200190815260200160002060006101000a81548160ff021916908315150217905550600060018080549050610da79190612e0a565b90507f46ea7ee0990cde33902e77e2d7200322990cb03186c32d68f2966739d28fb36681868533604051610dde94939291906130b2565b60405180910390a17f79db182af3410c60080d8e7c7ed50f1977b0df228f066bbea532e7d75af80d2c81858460050154610e189190612baf565b604051610e269291906130fe565b60405180910390a15050505050565b806001805490508110610e7d576040517f08c379a0000000000000000000000000000000000000000000000000000000008152600401610e749061279c565b60405180910390fd5b60018181548110610e9157610e906127bc565b5b90600052602060002090600e020160070160009054906101000a900460ff1615610ef0576040517f08c379a0000000000000000000000000000000000000000000000000000000008152600401610ee790613173565b60405180910390fd5b60018281548110610f0457610f036127bc565b5b90600052602060002090600e0201600c0160003373ffffffffffffffffffffffffffffffffffffffff1673ffffffffffffffffffffffffffffffffffffffff16815260200190815260200160002060009054906101000a900460ff16610f9f576040517f08c379a0000000000000000000000000000000000000000000000000000000008152600401610f96906128c9565b60405180910390fd5b600080600061100f60018681548110610fbb57610fba6127bc565b5b90600052602060002090600e0201600b0160003373ffffffffffffffffffffffffffffffffffffffff1673ffffffffffffffffffffffffffffffffffffffff16815260200190815260200160002054611ab5565b5050925092509250600080600080600061102842611ab5565b945094509450945094508785118061103f57508684115b8061104957508583115b611088576040517f08c379a000000000000000000000000000000000000000000000000000000000815260040161107f906131df565b60405180910390fd5b600682148015611099575060058111155b6110d8576040517f08c379a00000000000000000000000000000000000000000000000000000000081526004016110cf9061324b565b60405180910390fd5b60018a815481106110ec576110eb6127bc565b5b90600052602060002090600e0201600a0160003373ffffffffffffffffffffffffffffffffffffffff1673ffffffffffffffffffffffffffffffffffffffff168152602001908152602001600020600081548092919061114b90612b67565b91905055504260018b81548110611165576111646127bc565b5b90600052602060002090600e0201600b0160003373ffffffffffffffffffffffffffffffffffffffff1673ffffffffffffffffffffffffffffffffffffffff1681526020019081526020016000208190555060018a815481106111cb576111ca6127bc565b5b90600052602060002090600e02016008015460018b815481106111f1576111f06127bc565b5b90600052602060002090600e0201600a0160003373ffffffffffffffffffffffffffffffffffffffff1673ffffffffffffffffffffffffffffffffffffffff16815260200190815260200160002054036112815760018a81548110611259576112586127bc565b5b90600052602060002090600e0201600901600081548092919061127b90612b67565b91905055505b50505050505050505050565b6001818154811061129d57600080fd5b90600052602060002090600e02016000915090508060000160009054906101000a900473ffffffffffffffffffffffffffffffffffffffff16908060010180546112e690612c12565b80601f016020809104026020016040519081016040528092919081815260200182805461131290612c12565b801561135f5780601f106113345761010080835404028352916020019161135f565b820191906000526020600020905b81548152906001019060200180831161134257829003601f168201915b5050505050908060020154908060030154908060040154908060050154908060060154908060070160009054906101000a900460ff1690806008015490806009015490508a565b600181815481106113ba576113b96127bc565b5b90600052602060002090600e020160060154600182815481106113e0576113df6127bc565b5b90600052602060002090600e0201600501546113fc9190612baf565b42101561143e576040517f08c379a0000000000000000000000000000000000000000000000000000000008152600401611435906132b7565b60405180910390fd5b61144781611d62565b50565b565b806001805490508110611494576040517f08c379a000000000000000000000000000000000000000000000000000000000815260040161148b9061279c565b60405180910390fd5b600181815481106114a8576114a76127bc565b5b90600052602060002090600e020160070160009054906101000a900460ff1615611507576040517f08c379a00000000000000000000000000000000000000000000000000000000081526004016114fe90613173565b60405180910390fd5b600080600061153a60018681548110611523576115226127bc565b5b90600052602060002090600e020160050154611ab5565b505092509250925060008060008061155142611ab5565b5093509350935093508684108061156757508583105b8061157157508482105b8061157c5750601581105b6115bb576040517f08c379a00000000000000000000000000000000000000000000000000000000081526004016115b290613349565b60405180910390fd5b600189815481106115cf576115ce6127bc565b5b90600052602060002090600e0201600c0160003373ffffffffffffffffffffffffffffffffffffffff1673ffffffffffffffffffffffffffffffffffffffff16815260200190815260200160002060009054906101000a900460ff161561166b576040517f08c379a0000000000000000000000000000000000000000000000000000000008152600401611662906133b5565b60405180910390fd5b6001898154811061167f5761167e6127bc565b5b90600052602060002090600e02016002015460008054906101000a900473ffffffffffffffffffffffffffffffffffffffff1673ffffffffffffffffffffffffffffffffffffffff166370a08231336040518263ffffffff1660e01b81526004016116ea91906133d5565b602060405180830381865afa158015611707573d6000803e3d6000fd5b505050506040513d601f19601f8201168201806040525081019061172b9190613405565b101561176c576040517f08c379a00000000000000000000000000000000000000000000000000000000081526004016117639061347e565b60405180910390fd5b60008054906101000a900473ffffffffffffffffffffffffffffffffffffffff1673ffffffffffffffffffffffffffffffffffffffff1663095ea7b33060018c815481106117bd576117bc6127bc565b5b90600052602060002090600e0201600201546040518363ffffffff1660e01b81526004016117ec929190612a50565b6020604051808303816000875af115801561180b573d6000803e3d6000fd5b505050506040513d601f19601f8201168201806040525081019061182f9190612aa5565b61186e576040517f08c379a000000000000000000000000000000000000000000000000000000000815260040161186590612d47565b60405180910390fd5b60008054906101000a900473ffffffffffffffffffffffffffffffffffffffff1673ffffffffffffffffffffffffffffffffffffffff166323b872dd333060018d815481106118c0576118bf6127bc565b5b90600052602060002090600e0201600201546040518463ffffffff1660e01b81526004016118f093929190612d67565b6020604051808303816000875af115801561190f573d6000803e3d6000fd5b505050506040513d601f19601f820116820180604052508101906119339190612aa5565b611972576040517f08c379a000000000000000000000000000000000000000000000000000000000815260040161196990612dea565b60405180910390fd5b7f690ecbabe96222b39728b512682860cc6460002a670ff94954038286bea0ba6989336040516119a3929190612b3e565b60405180910390a16001808a815481106119c0576119bf6127bc565b5b90600052602060002090600e0201600c0160003373ffffffffffffffffffffffffffffffffffffffff1673ffffffffffffffffffffffffffffffffffffffff16815260200190815260200160002060006101000a81548160ff02191690831515021790555060018981548110611a3957611a386127bc565b5b90600052602060002090600e02016002015460018a81548110611a5f57611a5e6127bc565b5b90600052602060002090600e02016003016000828254611a7f9190612baf565b92505081905550505050505050505050565b60008054906101000a900473ffffffffffffffffffffffffffffffffffffffff1681565b600080600080600080617e90905060008188611ad19190612baf565b9050600062015180905060006301e13380905060006301e28500905060006107b290506000805b868583611b059190612baf565b11611b93576000600484611b19919061349e565b148015611b4b57506000606484611b30919061349e565b141580611b4a5750600061019084611b48919061349e565b145b5b15611b71578382611b5c9190612baf565b91508080611b6990612b67565b915050611b80565b8482611b7d9190612baf565b91505b8280611b8b90612b67565b935050611af8565b829c506000604051806101800160405280601f60ff1660ff168152602001601c60ff1660ff168152602001601f60ff1660ff168152602001601e60ff1660ff168152602001601f60ff1660ff168152602001601e60ff1660ff168152602001601f60ff1660ff168152602001601f60ff1660ff168152602001601e60ff1660ff168152602001601f60ff1660ff168152602001601e60ff1660ff168152602001601f60ff1660ff16815250905060005b600115611cc8576000600c8203611c5a5750611cc8565b888383600c8110611c6e57611c6d6127bc565b5b602002015160ff16611c8091906134cf565b81611c8b9190612baf565b90508085611c999190612baf565b8a1015611ca65750611cc8565b8085611cb29190612baf565b94508180611cbf90612b67565b92505050611c43565b600181611cd59190612baf565b9d50600188858b611ce69190612e0a565b611cf09190612a1f565b611cfa9190612baf565b9c50600088858b611d0b9190612e0a565b611d159190612baf565b9050610e108982611d26919061349e565b611d309190612a1f565b9c50603c610e1082611d42919061349e565b611d4c9190612a1f565b9b50505050505050505050505091939590929450565b806001805490508110611daa576040517f08c379a0000000000000000000000000000000000000000000000000000000008152600401611da19061279c565b60405180910390fd5b60018181548110611dbe57611dbd6127bc565b5b90600052602060002090600e020160070160009054906101000a900460ff1615611e1d576040517f08c379a0000000000000000000000000000000000000000000000000000000008152600401611e1490613173565b60405180910390fd5b3373ffffffffffffffffffffffffffffffffffffffff1660018381548110611e4857611e476127bc565b5b90600052602060002090600e020160000160009054906101000a900473ffffffffffffffffffffffffffffffffffffffff1673ffffffffffffffffffffffffffffffffffffffff1614611ed0576040517f08c379a0000000000000000000000000000000000000000000000000000000008152600401611ec790613583565b60405180910390fd5b600060018381548110611ee657611ee56127bc565b5b90600052602060002090600e02016006015460018481548110611f0c57611f0b6127bc565b5b90600052602060002090600e020160050154611f289190612baf565b9050600080600080611f3942611ab5565b5093509350935093506000806000611f5088611ab5565b505092509250925082871180611f6557508186115b80611f6f57508085115b80611f7b575060158410155b611fba576040517f08c379a0000000000000000000000000000000000000000000000000000000008152600401611fb1906135ef565b60405180910390fd5b6001808b81548110611fcf57611fce6127bc565b5b90600052602060002090600e020160070160006101000a81548160ff0219169083151502179055507fc61ef8151923bbd8dc5f723ba25f26bb805ef4f9a52c5811df7242872edd2e0b8a60405161202691906120b7565b60405180910390a150505050505050505050565b6040518060c001604052806000815260200160608152602001600081526020016000815260200161206961207c565b815260200161207661207c565b81525090565b6040518060800160405280600490602082028036833780820191505090505090565b6000819050919050565b6120b18161209e565b82525050565b60006020820190506120cc60008301846120a8565b92915050565b6000604051905090565b600080fd5b600080fd5b6120ef8161209e565b81146120fa57600080fd5b50565b60008135905061210c816120e6565b92915050565b600060208284031215612128576121276120dc565b5b6000612136848285016120fd565b91505092915050565b600081519050919050565b600082825260208201905092915050565b6000819050602082019050919050565b6121748161209e565b82525050565b600081519050919050565b600082825260208201905092915050565b60005b838110156121b4578082015181840152602081019050612199565b60008484015250505050565b6000601f19601f8301169050919050565b60006121dc8261217a565b6121e68185612185565b93506121f6818560208601612196565b6121ff816121c0565b840191505092915050565b600060049050919050565b600081905092915050565b6000819050919050565b6000612236838361216b565b60208301905092915050565b6000602082019050919050565b6122588161220a565b6122628184612215565b925061226d82612220565b8060005b8381101561229e578151612285878261222a565b965061229083612242565b925050600181019050612271565b505050505050565b6000610180830160008301516122bf600086018261216b565b50602083015184820360208601526122d782826121d1565b91505060408301516122ec604086018261216b565b5060608301516122ff606086018261216b565b506080830151612312608086018261224f565b5060a083015161232661010086018261224f565b508091505092915050565b600061233d83836122a6565b905092915050565b6000602082019050919050565b600061235d8261213f565b612367818561214a565b9350836020820285016123798561215b565b8060005b858110156123b557848403895281516123968582612331565b94506123a183612345565b925060208a0199505060018101905061237d565b50829750879550505050505092915050565b600060208201905081810360008301526123e18184612352565b905092915050565b600080fd5b600080fd5b7f4e487b7100000000000000000000000000000000000000000000000000000000600052604160045260246000fd5b61242b826121c0565b810181811067ffffffffffffffff8211171561244a576124496123f3565b5b80604052505050565b600061245d6120d2565b90506124698282612422565b919050565b600067ffffffffffffffff821115612489576124886123f3565b5b612492826121c0565b9050602081019050919050565b82818337600083830152505050565b60006124c16124bc8461246e565b612453565b9050828152602081018484840111156124dd576124dc6123ee565b5b6124e884828561249f565b509392505050565b600082601f830112612505576125046123e9565b5b81356125158482602086016124ae565b91505092915050565b600080600060608486031215612537576125366120dc565b5b600084013567ffffffffffffffff811115612555576125546120e1565b5b612561868287016124f0565b9350506020612572868287016120fd565b9250506040612583868287016120fd565b9150509250925092565b600073ffffffffffffffffffffffffffffffffffffffff82169050919050565b60006125b88261258d565b9050919050565b6125c8816125ad565b82525050565b600082825260208201905092915050565b60006125ea8261217a565b6125f481856125ce565b9350612604818560208601612196565b61260d816121c0565b840191505092915050565b60008115159050919050565b61262d81612618565b82525050565b600061014082019050612649600083018d6125bf565b818103602083015261265b818c6125df565b905061266a604083018b6120a8565b612677606083018a6120a8565b61268460808301896120a8565b61269160a08301886120a8565b61269e60c08301876120a8565b6126ab60e0830186612624565b6126b96101008301856120a8565b6126c76101208301846120a8565b9b9a5050505050505050505050565b6000819050919050565b60006126fb6126f66126f18461258d565b6126d6565b61258d565b9050919050565b600061270d826126e0565b9050919050565b600061271f82612702565b9050919050565b61272f81612714565b82525050565b600060208201905061274a6000830184612726565b92915050565b7f496e76616c6964206368616c6c656e6765204944000000000000000000000000600082015250565b60006127866014836125ce565b915061279182612750565b602082019050919050565b600060208201905081810360008301526127b581612779565b9050919050565b7f4e487b7100000000000000000000000000000000000000000000000000000000600052603260045260246000fd5b7f4368616c6c656e67652069736e277420636f6d706c65746564207965742e0000600082015250565b6000612821601e836125ce565b915061282c826127eb565b602082019050919050565b6000602082019050818103600083015261285081612814565b9050919050565b7f596f75277265206e6f742061207061727469636970616e74206f66207468697360008201527f206368616c6c656e67652e000000000000000000000000000000000000000000602082015250565b60006128b3602b836125ce565b91506128be82612857565b604082019050919050565b600060208201905081810360008301526128e2816128a6565b9050919050565b7f416c726561647920636c61696d65640000000000000000000000000000000000600082015250565b600061291f600f836125ce565b915061292a826128e9565b602082019050919050565b6000602082019050818103600083015261294e81612912565b9050919050565b7f596f75206469646e27742077696e2074686973206368616c6c656e67652e0000600082015250565b600061298b601e836125ce565b915061299682612955565b602082019050919050565b600060208201905081810360008301526129ba8161297e565b9050919050565b7f4e487b7100000000000000000000000000000000000000000000000000000000600052601260045260246000fd5b7f4e487b7100000000000000000000000000000000000000000000000000000000600052601160045260246000fd5b6000612a2a8261209e565b9150612a358361209e565b925082612a4557612a446129c1565b5b828204905092915050565b6000604082019050612a6560008301856125bf565b612a7260208301846120a8565b9392505050565b612a8281612618565b8114612a8d57600080fd5b50565b600081519050612a9f81612a79565b92915050565b600060208284031215612abb57612aba6120dc565b5b6000612ac984828501612a90565b91505092915050565b7f52657761726420636c61696d206661696c65642e000000000000000000000000600082015250565b6000612b086014836125ce565b9150612b1382612ad2565b602082019050919050565b60006020820190508181036000830152612b3781612afb565b9050919050565b6000604082019050612b5360008301856120a8565b612b6060208301846125bf565b9392505050565b6000612b728261209e565b91507fffffffffffffffffffffffffffffffffffffffffffffffffffffffffffffffff8203612ba457612ba36129f0565b5b600182019050919050565b6000612bba8261209e565b9150612bc58361209e565b9250828201905080821115612bdd57612bdc6129f0565b5b92915050565b7f4e487b7100000000000000000000000000000000000000000000000000000000600052602260045260246000fd5b60006002820490506001821680612c2a57607f821691505b602082108103612c3d57612c3c612be3565b5b50919050565b7f456e74727920616d6f756e742073686f756c642062652067726561746572207460008201527f68616e2030000000000000000000000000000000000000000000000000000000602082015250565b6000612c9f6025836125ce565b9150612caa82612c43565b604082019050919050565b60006020820190508181036000830152612cce81612c92565b9050919050565b7f4661696c656420746f20617070726f766520746f6b656e7320666f722074726160008201527f6e73666572000000000000000000000000000000000000000000000000000000602082015250565b6000612d316025836125ce565b9150612d3c82612cd5565b604082019050919050565b60006020820190508181036000830152612d6081612d24565b9050919050565b6000606082019050612d7c60008301866125bf565b612d8960208301856125bf565b612d9660408301846120a8565b949350505050565b7f4661696c656420746f207472616e7366657220746f6b656e7300000000000000600082015250565b6000612dd46019836125ce565b9150612ddf82612d9e565b602082019050919050565b60006020820190508181036000830152612e0381612dc7565b9050919050565b6000612e158261209e565b9150612e208361209e565b9250828203905081811115612e3857612e376129f0565b5b92915050565b60008190508160005260206000209050919050565b60006020601f8301049050919050565b600082821b905092915050565b600060088302612ea07fffffffffffffffffffffffffffffffffffffffffffffffffffffffffffffffff82612e63565b612eaa8683612e63565b95508019841693508086168417925050509392505050565b6000612edd612ed8612ed38461209e565b6126d6565b61209e565b9050919050565b6000819050919050565b612ef783612ec2565b612f0b612f0382612ee4565b848454612e70565b825550505050565b600090565b612f20612f13565b612f2b818484612eee565b505050565b5b81811015612f4f57612f44600082612f18565b600181019050612f31565b5050565b601f821115612f9457612f6581612e3e565b612f6e84612e53565b81016020851015612f7d578190505b612f91612f8985612e53565b830182612f30565b50505b505050565b600082821c905092915050565b6000612fb760001984600802612f99565b1980831691505092915050565b6000612fd08383612fa6565b9150826002028217905092915050565b612fe98261217a565b67ffffffffffffffff811115613002576130016123f3565b5b61300c8254612c12565b613017828285612f53565b600060209050601f83116001811461304a5760008415613038578287015190505b6130428582612fc4565b8655506130aa565b601f19841661305886612e3e565b60005b828110156130805784890151825560018201915060208501945060208101905061305b565b8683101561309d5784890151613099601f891682612fa6565b8355505b6001600288020188555050505b505050505050565b60006080820190506130c760008301876120a8565b81810360208301526130d981866125df565b90506130e860408301856120a8565b6130f560608301846125bf565b95945050505050565b600060408201905061311360008301856120a8565b61312060208301846120a8565b9392505050565b7f4368616c6c656e676520616c726561647920636f6d706c657465640000000000600082015250565b600061315d601b836125ce565b915061316882613127565b602082019050919050565b6000602082019050818103600083015261318c81613150565b9050919050565b7f596f7527766520616c726561647920636865636b656420746f6461792e000000600082015250565b60006131c9601d836125ce565b91506131d482613193565b602082019050919050565b600060208201905081810360008301526131f8816131bc565b9050919050565b7f596f75277665206661696c656420746f6461792773206d697373696f6e2e0000600082015250565b6000613235601e836125ce565b9150613240826131ff565b602082019050919050565b6000602082019050818103600083015261326481613228565b9050919050565b7f4368616c6c656e6765206475726174696f6e206e6f74206f7665722079657400600082015250565b60006132a1601f836125ce565b91506132ac8261326b565b602082019050919050565b600060208201905081810360008301526132d081613294565b9050919050565b7f546865206170706c69636174696f6e20706572696f642068617320657870697260008201527f65642e0000000000000000000000000000000000000000000000000000000000602082015250565b60006133336023836125ce565b915061333e826132d7565b604082019050919050565b6000602082019050818103600083015261336281613326565b9050919050565b7f596f7527766520616c7265616479206a6f696e65642e00000000000000000000600082015250565b600061339f6016836125ce565b91506133aa82613369565b602082019050919050565b600060208201905081810360008301526133ce81613392565b9050919050565b60006020820190506133ea60008301846125bf565b92915050565b6000815190506133ff816120e6565b92915050565b60006020828403121561341b5761341a6120dc565b5b6000613429848285016133f0565b91505092915050565b7f496e73756666696369656e7420656e74727920616d6f756e7400000000000000600082015250565b60006134686019836125ce565b915061347382613432565b602082019050919050565b600060208201905081810360008301526134978161345b565b9050919050565b60006134a98261209e565b91506134b48361209e565b9250826134c4576134c36129c1565b5b828206905092915050565b60006134da8261209e565b91506134e58361209e565b92508282026134f38161209e565b9150828204841483151761350a576135096129f0565b5b5092915050565b7f4f6e6c7920746865206368616c6c656e67652063726561746f722063616e206360008201527f6c6f736520697400000000000000000000000000000000000000000000000000602082015250565b600061356d6027836125ce565b915061357882613511565b604082019050919050565b6000602082019050818103600083015261359c81613560565b9050919050565b7f4368616c6c656e6765206475726174696f6e206e6f74206f766572207965742e600082015250565b60006135d96020836125ce565b91506135e4826135a3565b602082019050919050565b60006020820190508181036000830152613608816135cc565b905091905056fea26469706673582212202a19ea03b4cbbc6fc92f03b29b1d2983640562964b004d3423d1b350264ce35e64736f6c63430008130033","opcodes":"PUSH1 0x80 PUSH1 0x40 MSTORE CALLVALUE DUP1 ISZERO PUSH3 0x11 JUMPI PUSH1 0x0 DUP1 REVERT JUMPDEST POP PUSH1 0x40 MLOAD PUSH3 0x376F CODESIZE SUB DUP1 PUSH3 0x376F DUP4 CODECOPY DUP2 DUP2 ADD PUSH1 0x40 MSTORE DUP2 ADD SWAP1 PUSH3 0x37 SWAP2 SWAP1 PUSH3 0xE8 JUMP JUMPDEST DUP1 PUSH1 0x0 DUP1 PUSH2 0x100 EXP DUP2 SLOAD DUP2 PUSH20 0xFFFFFFFFFFFFFFFFFFFFFFFFFFFFFFFFFFFFFFFF MUL NOT AND SWAP1 DUP4 PUSH20 0xFFFFFFFFFFFFFFFFFFFFFFFFFFFFFFFFFFFFFFFF AND MUL OR SWAP1 SSTORE POP POP PUSH3 0x11A JUMP JUMPDEST PUSH1 0x0 DUP1 REVERT JUMPDEST PUSH1 0x0 PUSH20 0xFFFFFFFFFFFFFFFFFFFFFFFFFFFFFFFFFFFFFFFF DUP3 AND SWAP1 POP SWAP2 SWAP1 POP JUMP JUMPDEST PUSH1 0x0 PUSH3 0xB0 DUP3 PUSH3 0x83 JUMP JUMPDEST SWAP1 POP SWAP2 SWAP1 POP JUMP JUMPDEST PUSH3 0xC2 DUP2 PUSH3 0xA3 JUMP JUMPDEST DUP2 EQ PUSH3 0xCE JUMPI PUSH1 0x0 DUP1 REVERT JUMPDEST POP JUMP JUMPDEST PUSH1 0x0 DUP2 MLOAD SWAP1 POP PUSH3 0xE2 DUP2 PUSH3 0xB7 JUMP JUMPDEST SWAP3 SWAP2 POP POP JUMP JUMPDEST PUSH1 0x0 PUSH1 0x20 DUP3 DUP5 SUB SLT ISZERO PUSH3 0x101 JUMPI PUSH3 0x100 PUSH3 0x7E JUMP JUMPDEST JUMPDEST PUSH1 0x0 PUSH3 0x111 DUP5 DUP3 DUP6 ADD PUSH3 0xD1 JUMP JUMPDEST SWAP2 POP POP SWAP3 SWAP2 POP POP JUMP JUMPDEST PUSH2 0x3645 DUP1 PUSH3 0x12A PUSH1 0x0 CODECOPY PUSH1 0x0 RETURN INVALID PUSH1 0x80 PUSH1 0x40 MSTORE CALLVALUE DUP1 ISZERO PUSH2 0x10 JUMPI PUSH1 0x0 DUP1 REVERT JUMPDEST POP PUSH1 0x4 CALLDATASIZE LT PUSH2 0x9E JUMPI PUSH1 0x0 CALLDATALOAD PUSH1 0xE0 SHR DUP1 PUSH4 0x8F1D3776 GT PUSH2 0x66 JUMPI DUP1 PUSH4 0x8F1D3776 EQ PUSH2 0x133 JUMPI DUP1 PUSH4 0xB2990C36 EQ PUSH2 0x16C JUMPI DUP1 PUSH4 0xE0A7B2C3 EQ PUSH2 0x188 JUMPI DUP1 PUSH4 0xE448EE26 EQ PUSH2 0x192 JUMPI DUP1 PUSH4 0xFC0C546A EQ PUSH2 0x1AE JUMPI PUSH2 0x9E JUMP JUMPDEST DUP1 PUSH4 0x933F467 EQ PUSH2 0xA3 JUMPI DUP1 PUSH4 0x962EF79 EQ PUSH2 0xC1 JUMPI DUP1 PUSH4 0x18D95B76 EQ PUSH2 0xDD JUMPI DUP1 PUSH4 0x1AAAAC93 EQ PUSH2 0xFB JUMPI DUP1 PUSH4 0x335EFF3E EQ PUSH2 0x117 JUMPI JUMPDEST PUSH1 0x0 DUP1 REVERT JUMPDEST PUSH2 0xAB PUSH2 0x1CC JUMP JUMPDEST PUSH1 0x40 MLOAD PUSH2 0xB8 SWAP2 SWAP1 PUSH2 0x20B7 JUMP JUMPDEST PUSH1 0x40 MLOAD DUP1 SWAP2 SUB SWAP1 RETURN JUMPDEST PUSH2 0xDB PUSH1 0x4 DUP1 CALLDATASIZE SUB DUP2 ADD SWAP1 PUSH2 0xD6 SWAP2 SWAP1 PUSH2 0x2112 JUMP JUMPDEST PUSH2 0x1D9 JUMP JUMPDEST STOP JUMPDEST PUSH2 0xE5 PUSH2 0x6AA JUMP JUMPDEST PUSH1 0x40 MLOAD PUSH2 0xF2 SWAP2 SWAP1 PUSH2 0x23C7 JUMP JUMPDEST PUSH1 0x40 MLOAD DUP1 SWAP2 SUB SWAP1 RETURN JUMPDEST PUSH2 0x115 PUSH1 0x4 DUP1 CALLDATASIZE SUB DUP2 ADD SWAP1 PUSH2 0x110 SWAP2 SWAP1 PUSH2 0x251E JUMP JUMPDEST PUSH2 0xA13 JUMP JUMPDEST STOP JUMPDEST PUSH2 0x131 PUSH1 0x4 DUP1 CALLDATASIZE SUB DUP2 ADD SWAP1 PUSH2 0x12C SWAP2 SWAP1 PUSH2 0x2112 JUMP JUMPDEST PUSH2 0xE35 JUMP JUMPDEST STOP JUMPDEST PUSH2 0x14D PUSH1 0x4 DUP1 CALLDATASIZE SUB DUP2 ADD SWAP1 PUSH2 0x148 SWAP2 SWAP1 PUSH2 0x2112 JUMP JUMPDEST PUSH2 0x128D JUMP JUMPDEST PUSH1 0x40 MLOAD PUSH2 0x163 SWAP11 SWAP10 SWAP9 SWAP8 SWAP7 SWAP6 SWAP5 SWAP4 SWAP3 SWAP2 SWAP1 PUSH2 0x2633 JUMP JUMPDEST PUSH1 0x40 MLOAD DUP1 SWAP2 SUB SWAP1 RETURN JUMPDEST PUSH2 0x186 PUSH1 0x4 DUP1 CALLDATASIZE SUB DUP2 ADD SWAP1 PUSH2 0x181 SWAP2 SWAP1 PUSH2 0x2112 JUMP JUMPDEST PUSH2 0x13A6 JUMP JUMPDEST STOP JUMPDEST PUSH2 0x190 PUSH2 0x144A JUMP JUMPDEST STOP JUMPDEST PUSH2 0x1AC PUSH1 0x4 DUP1 CALLDATASIZE SUB DUP2 ADD SWAP1 PUSH2 0x1A7 SWAP2 SWAP1 PUSH2 0x2112 JUMP JUMPDEST PUSH2 0x144C JUMP JUMPDEST STOP JUMPDEST PUSH2 0x1B6 PUSH2 0x1A91 JUMP JUMPDEST PUSH1 0x40 MLOAD PUSH2 0x1C3 SWAP2 SWAP1 PUSH2 0x2735 JUMP JUMPDEST PUSH1 0x40 MLOAD DUP1 SWAP2 SUB SWAP1 RETURN JUMPDEST PUSH1 0x0 PUSH1 0x1 DUP1 SLOAD SWAP1 POP SWAP1 POP SWAP1 JUMP JUMPDEST DUP1 PUSH1 0x1 DUP1 SLOAD SWAP1 POP DUP2 LT PUSH2 0x221 JUMPI PUSH1 0x40 MLOAD PUSH32 0x8C379A000000000000000000000000000000000000000000000000000000000 DUP2 MSTORE PUSH1 0x4 ADD PUSH2 0x218 SWAP1 PUSH2 0x279C JUMP JUMPDEST PUSH1 0x40 MLOAD DUP1 SWAP2 SUB SWAP1 REVERT JUMPDEST PUSH1 0x1 DUP3 DUP2 SLOAD DUP2 LT PUSH2 0x235 JUMPI PUSH2 0x234 PUSH2 0x27BC JUMP JUMPDEST JUMPDEST SWAP1 PUSH1 0x0 MSTORE PUSH1 0x20 PUSH1 0x0 KECCAK256 SWAP1 PUSH1 0xE MUL ADD PUSH1 0x7 ADD PUSH1 0x0 SWAP1 SLOAD SWAP1 PUSH2 0x100 EXP SWAP1 DIV PUSH1 0xFF AND PUSH2 0x293 JUMPI PUSH1 0x40 MLOAD PUSH32 0x8C379A000000000000000000000000000000000000000000000000000000000 DUP2 MSTORE PUSH1 0x4 ADD PUSH2 0x28A SWAP1 PUSH2 0x2837 JUMP JUMPDEST PUSH1 0x40 MLOAD DUP1 SWAP2 SUB SWAP1 REVERT JUMPDEST PUSH1 0x1 DUP3 DUP2 SLOAD DUP2 LT PUSH2 0x2A7 JUMPI PUSH2 0x2A6 PUSH2 0x27BC JUMP JUMPDEST JUMPDEST SWAP1 PUSH1 0x0 MSTORE PUSH1 0x20 PUSH1 0x0 KECCAK256 SWAP1 PUSH1 0xE MUL ADD PUSH1 0xC ADD PUSH1 0x0 CALLER PUSH20 0xFFFFFFFFFFFFFFFFFFFFFFFFFFFFFFFFFFFFFFFF AND PUSH20 0xFFFFFFFFFFFFFFFFFFFFFFFFFFFFFFFFFFFFFFFF AND DUP2 MSTORE PUSH1 0x20 ADD SWAP1 DUP2 MSTORE PUSH1 0x20 ADD PUSH1 0x0 KECCAK256 PUSH1 0x0 SWAP1 SLOAD SWAP1 PUSH2 0x100 EXP SWAP1 DIV PUSH1 0xFF AND PUSH2 0x342 JUMPI PUSH1 0x40 MLOAD PUSH32 0x8C379A000000000000000000000000000000000000000000000000000000000 DUP2 MSTORE PUSH1 0x4 ADD PUSH2 0x339 SWAP1 PUSH2 0x28C9 JUMP JUMPDEST PUSH1 0x40 MLOAD DUP1 SWAP2 SUB SWAP1 REVERT JUMPDEST PUSH1 0x1 DUP3 DUP2 SLOAD DUP2 LT PUSH2 0x356 JUMPI PUSH2 0x355 PUSH2 0x27BC JUMP JUMPDEST JUMPDEST SWAP1 PUSH1 0x0 MSTORE PUSH1 0x20 PUSH1 0x0 KECCAK256 SWAP1 PUSH1 0xE MUL ADD PUSH1 0xD ADD PUSH1 0x0 CALLER PUSH20 0xFFFFFFFFFFFFFFFFFFFFFFFFFFFFFFFFFFFFFFFF AND PUSH20 0xFFFFFFFFFFFFFFFFFFFFFFFFFFFFFFFFFFFFFFFF AND DUP2 MSTORE PUSH1 0x20 ADD SWAP1 DUP2 MSTORE PUSH1 0x20 ADD PUSH1 0x0 KECCAK256 PUSH1 0x0 SWAP1 SLOAD SWAP1 PUSH2 0x100 EXP SWAP1 DIV PUSH1 0xFF AND ISZERO PUSH2 0x3F2 JUMPI PUSH1 0x40 MLOAD PUSH32 0x8C379A000000000000000000000000000000000000000000000000000000000 DUP2 MSTORE PUSH1 0x4 ADD PUSH2 0x3E9 SWAP1 PUSH2 0x2935 JUMP JUMPDEST PUSH1 0x40 MLOAD DUP1 SWAP2 SUB SWAP1 REVERT JUMPDEST PUSH1 0x1 DUP3 DUP2 SLOAD DUP2 LT PUSH2 0x406 JUMPI PUSH2 0x405 PUSH2 0x27BC JUMP JUMPDEST JUMPDEST SWAP1 PUSH1 0x0 MSTORE PUSH1 0x20 PUSH1 0x0 KECCAK256 SWAP1 PUSH1 0xE MUL ADD PUSH1 0x8 ADD SLOAD PUSH1 0x1 DUP4 DUP2 SLOAD DUP2 LT PUSH2 0x42C JUMPI PUSH2 0x42B PUSH2 0x27BC JUMP JUMPDEST JUMPDEST SWAP1 PUSH1 0x0 MSTORE PUSH1 0x20 PUSH1 0x0 KECCAK256 SWAP1 PUSH1 0xE MUL ADD PUSH1 0xA ADD PUSH1 0x0 CALLER PUSH20 0xFFFFFFFFFFFFFFFFFFFFFFFFFFFFFFFFFFFFFFFF AND PUSH20 0xFFFFFFFFFFFFFFFFFFFFFFFFFFFFFFFFFFFFFFFF AND DUP2 MSTORE PUSH1 0x20 ADD SWAP1 DUP2 MSTORE PUSH1 0x20 ADD PUSH1 0x0 KECCAK256 SLOAD EQ PUSH2 0x4BB JUMPI PUSH1 0x40 MLOAD PUSH32 0x8C379A000000000000000000000000000000000000000000000000000000000 DUP2 MSTORE PUSH1 0x4 ADD PUSH2 0x4B2 SWAP1 PUSH2 0x29A1 JUMP JUMPDEST PUSH1 0x40 MLOAD DUP1 SWAP2 SUB SWAP1 REVERT JUMPDEST PUSH1 0x0 PUSH1 0x1 DUP4 DUP2 SLOAD DUP2 LT PUSH2 0x4D1 JUMPI PUSH2 0x4D0 PUSH2 0x27BC JUMP JUMPDEST JUMPDEST SWAP1 PUSH1 0x0 MSTORE PUSH1 0x20 PUSH1 0x0 KECCAK256 SWAP1 PUSH1 0xE MUL ADD PUSH1 0x9 ADD SLOAD PUSH1 0x1 DUP5 DUP2 SLOAD DUP2 LT PUSH2 0x4F7 JUMPI PUSH2 0x4F6 PUSH2 0x27BC JUMP JUMPDEST JUMPDEST SWAP1 PUSH1 0x0 MSTORE PUSH1 0x20 PUSH1 0x0 KECCAK256 SWAP1 PUSH1 0xE MUL ADD PUSH1 0x3 ADD SLOAD PUSH2 0x513 SWAP2 SWAP1 PUSH2 0x2A1F JUMP JUMPDEST SWAP1 POP PUSH1 0x0 DUP1 SLOAD SWAP1 PUSH2 0x100 EXP SWAP1 DIV PUSH20 0xFFFFFFFFFFFFFFFFFFFFFFFFFFFFFFFFFFFFFFFF AND PUSH20 0xFFFFFFFFFFFFFFFFFFFFFFFFFFFFFFFFFFFFFFFF AND PUSH4 0xA9059CBB CALLER DUP4 PUSH1 0x40 MLOAD DUP4 PUSH4 0xFFFFFFFF AND PUSH1 0xE0 SHL DUP2 MSTORE PUSH1 0x4 ADD PUSH2 0x570 SWAP3 SWAP2 SWAP1 PUSH2 0x2A50 JUMP JUMPDEST PUSH1 0x20 PUSH1 0x40 MLOAD DUP1 DUP4 SUB DUP2 PUSH1 0x0 DUP8 GAS CALL ISZERO DUP1 ISZERO PUSH2 0x58F JUMPI RETURNDATASIZE PUSH1 0x0 DUP1 RETURNDATACOPY RETURNDATASIZE PUSH1 0x0 REVERT JUMPDEST POP POP POP POP PUSH1 0x40 MLOAD RETURNDATASIZE PUSH1 0x1F NOT PUSH1 0x1F DUP3 ADD AND DUP3 ADD DUP1 PUSH1 0x40 MSTORE POP DUP2 ADD SWAP1 PUSH2 0x5B3 SWAP2 SWAP1 PUSH2 0x2AA5 JUMP JUMPDEST PUSH2 0x5F2 JUMPI PUSH1 0x40 MLOAD PUSH32 0x8C379A000000000000000000000000000000000000000000000000000000000 DUP2 MSTORE PUSH1 0x4 ADD PUSH2 0x5E9 SWAP1 PUSH2 0x2B1E JUMP JUMPDEST PUSH1 0x40 MLOAD DUP1 SWAP2 SUB SWAP1 REVERT JUMPDEST PUSH1 0x1 DUP1 DUP5 DUP2 SLOAD DUP2 LT PUSH2 0x607 JUMPI PUSH2 0x606 PUSH2 0x27BC JUMP JUMPDEST JUMPDEST SWAP1 PUSH1 0x0 MSTORE PUSH1 0x20 PUSH1 0x0 KECCAK256 SWAP1 PUSH1 0xE MUL ADD PUSH1 0xD ADD PUSH1 0x0 CALLER PUSH20 0xFFFFFFFFFFFFFFFFFFFFFFFFFFFFFFFFFFFFFFFF AND PUSH20 0xFFFFFFFFFFFFFFFFFFFFFFFFFFFFFFFFFFFFFFFF AND DUP2 MSTORE PUSH1 0x20 ADD SWAP1 DUP2 MSTORE PUSH1 0x20 ADD PUSH1 0x0 KECCAK256 PUSH1 0x0 PUSH2 0x100 EXP DUP2 SLOAD DUP2 PUSH1 0xFF MUL NOT AND SWAP1 DUP4 ISZERO ISZERO MUL OR SWAP1 SSTORE POP PUSH32 0xCC543A67F8DFE04CFBE3CDCF9EACFFA678F7B557E40F7D0051FCF17E8165D5E3 DUP4 CALLER PUSH1 0x40 MLOAD PUSH2 0x69D SWAP3 SWAP2 SWAP1 PUSH2 0x2B3E JUMP JUMPDEST PUSH1 0x40 MLOAD DUP1 SWAP2 SUB SWAP1 LOG1 POP POP POP JUMP JUMPDEST PUSH1 0x60 PUSH1 0x0 DUP1 JUMPDEST PUSH1 0x1 DUP1 SLOAD SWAP1 POP DUP2 LT ISZERO PUSH2 0x716 JUMPI PUSH1 0x1 DUP2 DUP2 SLOAD DUP2 LT PUSH2 0x6D1 JUMPI PUSH2 0x6D0 PUSH2 0x27BC JUMP JUMPDEST JUMPDEST SWAP1 PUSH1 0x0 MSTORE PUSH1 0x20 PUSH1 0x0 KECCAK256 SWAP1 PUSH1 0xE MUL ADD PUSH1 0x7 ADD PUSH1 0x0 SWAP1 SLOAD SWAP1 PUSH2 0x100 EXP SWAP1 DIV PUSH1 0xFF AND PUSH2 0x703 JUMPI DUP2 DUP1 PUSH2 0x6FF SWAP1 PUSH2 0x2B67 JUMP JUMPDEST SWAP3 POP POP JUMPDEST DUP1 DUP1 PUSH2 0x70E SWAP1 PUSH2 0x2B67 JUMP JUMPDEST SWAP2 POP POP PUSH2 0x6B0 JUMP JUMPDEST POP PUSH1 0x0 DUP2 PUSH8 0xFFFFFFFFFFFFFFFF DUP2 GT ISZERO PUSH2 0x733 JUMPI PUSH2 0x732 PUSH2 0x23F3 JUMP JUMPDEST JUMPDEST PUSH1 0x40 MLOAD SWAP1 DUP1 DUP3 MSTORE DUP1 PUSH1 0x20 MUL PUSH1 0x20 ADD DUP3 ADD PUSH1 0x40 MSTORE DUP1 ISZERO PUSH2 0x76C JUMPI DUP2 PUSH1 0x20 ADD JUMPDEST PUSH2 0x759 PUSH2 0x203A JUMP JUMPDEST DUP2 MSTORE PUSH1 0x20 ADD SWAP1 PUSH1 0x1 SWAP1 SUB SWAP1 DUP2 PUSH2 0x751 JUMPI SWAP1 POP JUMPDEST POP SWAP1 POP PUSH1 0x0 DUP1 JUMPDEST PUSH1 0x1 DUP1 SLOAD SWAP1 POP DUP2 LT ISZERO PUSH2 0xA09 JUMPI PUSH1 0x1 DUP2 DUP2 SLOAD DUP2 LT PUSH2 0x794 JUMPI PUSH2 0x793 PUSH2 0x27BC JUMP JUMPDEST JUMPDEST SWAP1 PUSH1 0x0 MSTORE PUSH1 0x20 PUSH1 0x0 KECCAK256 SWAP1 PUSH1 0xE MUL ADD PUSH1 0x7 ADD PUSH1 0x0 SWAP1 SLOAD SWAP1 PUSH2 0x100 EXP SWAP1 DIV PUSH1 0xFF AND PUSH2 0x9F6 JUMPI PUSH1 0x0 DUP1 PUSH1 0x0 PUSH2 0x81A PUSH1 0x1 DUP6 DUP2 SLOAD DUP2 LT PUSH2 0x7D3 JUMPI PUSH2 0x7D2 PUSH2 0x27BC JUMP JUMPDEST JUMPDEST SWAP1 PUSH1 0x0 MSTORE PUSH1 0x20 PUSH1 0x0 KECCAK256 SWAP1 PUSH1 0xE MUL ADD PUSH1 0x6 ADD SLOAD PUSH1 0x1 DUP7 DUP2 SLOAD DUP2 LT PUSH2 0x7F9 JUMPI PUSH2 0x7F8 PUSH2 0x27BC JUMP JUMPDEST JUMPDEST SWAP1 PUSH1 0x0 MSTORE PUSH1 0x20 PUSH1 0x0 KECCAK256 SWAP1 PUSH1 0xE MUL ADD PUSH1 0x5 ADD SLOAD PUSH2 0x815 SWAP2 SWAP1 PUSH2 0x2BAF JUMP JUMPDEST PUSH2 0x1AB5 JUMP JUMPDEST POP POP SWAP3 POP SWAP3 POP SWAP3 POP PUSH1 0x0 DUP1 PUSH1 0x0 PUSH2 0x855 PUSH1 0x1 DUP9 DUP2 SLOAD DUP2 LT PUSH2 0x83E JUMPI PUSH2 0x83D PUSH2 0x27BC JUMP JUMPDEST JUMPDEST SWAP1 PUSH1 0x0 MSTORE PUSH1 0x20 PUSH1 0x0 KECCAK256 SWAP1 PUSH1 0xE MUL ADD PUSH1 0x5 ADD SLOAD PUSH2 0x1AB5 JUMP JUMPDEST POP POP SWAP3 POP SWAP3 POP SWAP3 POP PUSH1 0x40 MLOAD DUP1 PUSH1 0xC0 ADD PUSH1 0x40 MSTORE DUP1 DUP9 DUP2 MSTORE PUSH1 0x20 ADD PUSH1 0x1 DUP10 DUP2 SLOAD DUP2 LT PUSH2 0x882 JUMPI PUSH2 0x881 PUSH2 0x27BC JUMP JUMPDEST JUMPDEST SWAP1 PUSH1 0x0 MSTORE PUSH1 0x20 PUSH1 0x0 KECCAK256 SWAP1 PUSH1 0xE MUL ADD PUSH1 0x1 ADD DUP1 SLOAD PUSH2 0x89E SWAP1 PUSH2 0x2C12 JUMP JUMPDEST DUP1 PUSH1 0x1F ADD PUSH1 0x20 DUP1 SWAP2 DIV MUL PUSH1 0x20 ADD PUSH1 0x40 MLOAD SWAP1 DUP2 ADD PUSH1 0x40 MSTORE DUP1 SWAP3 SWAP2 SWAP1 DUP2 DUP2 MSTORE PUSH1 0x20 ADD DUP3 DUP1 SLOAD PUSH2 0x8CA SWAP1 PUSH2 0x2C12 JUMP JUMPDEST DUP1 ISZERO PUSH2 0x917 JUMPI DUP1 PUSH1 0x1F LT PUSH2 0x8EC JUMPI PUSH2 0x100 DUP1 DUP4 SLOAD DIV MUL DUP4 MSTORE SWAP2 PUSH1 0x20 ADD SWAP2 PUSH2 0x917 JUMP JUMPDEST DUP3 ADD SWAP2 SWAP1 PUSH1 0x0 MSTORE PUSH1 0x20 PUSH1 0x0 KECCAK256 SWAP1 JUMPDEST DUP2 SLOAD DUP2 MSTORE SWAP1 PUSH1 0x1 ADD SWAP1 PUSH1 0x20 ADD DUP1 DUP4 GT PUSH2 0x8FA JUMPI DUP3 SWAP1 SUB PUSH1 0x1F AND DUP3 ADD SWAP2 JUMPDEST POP POP POP POP POP DUP2 MSTORE PUSH1 0x20 ADD PUSH1 0x1 DUP10 DUP2 SLOAD DUP2 LT PUSH2 0x935 JUMPI PUSH2 0x934 PUSH2 0x27BC JUMP JUMPDEST JUMPDEST SWAP1 PUSH1 0x0 MSTORE PUSH1 0x20 PUSH1 0x0 KECCAK256 SWAP1 PUSH1 0xE MUL ADD PUSH1 0x2 ADD SLOAD DUP2 MSTORE PUSH1 0x20 ADD PUSH1 0x1 DUP10 DUP2 SLOAD DUP2 LT PUSH2 0x960 JUMPI PUSH2 0x95F PUSH2 0x27BC JUMP JUMPDEST JUMPDEST SWAP1 PUSH1 0x0 MSTORE PUSH1 0x20 PUSH1 0x0 KECCAK256 SWAP1 PUSH1 0xE MUL ADD PUSH1 0x3 ADD SLOAD DUP2 MSTORE PUSH1 0x20 ADD PUSH1 0x40 MLOAD DUP1 PUSH1 0x80 ADD PUSH1 0x40 MSTORE DUP1 DUP7 DUP2 MSTORE PUSH1 0x20 ADD DUP6 DUP2 MSTORE PUSH1 0x20 ADD DUP5 DUP2 MSTORE PUSH1 0x20 ADD PUSH1 0x15 DUP2 MSTORE POP DUP2 MSTORE PUSH1 0x20 ADD PUSH1 0x40 MLOAD DUP1 PUSH1 0x80 ADD PUSH1 0x40 MSTORE DUP1 DUP10 DUP2 MSTORE PUSH1 0x20 ADD DUP9 DUP2 MSTORE PUSH1 0x20 ADD DUP8 DUP2 MSTORE PUSH1 0x20 ADD PUSH1 0x15 DUP2 MSTORE POP DUP2 MSTORE POP DUP10 DUP10 DUP2 MLOAD DUP2 LT PUSH2 0x9D6 JUMPI PUSH2 0x9D5 PUSH2 0x27BC JUMP JUMPDEST JUMPDEST PUSH1 0x20 MUL PUSH1 0x20 ADD ADD DUP2 SWAP1 MSTORE POP DUP8 DUP1 PUSH2 0x9EC SWAP1 PUSH2 0x2B67 JUMP JUMPDEST SWAP9 POP POP POP POP POP POP POP POP JUMPDEST DUP1 DUP1 PUSH2 0xA01 SWAP1 PUSH2 0x2B67 JUMP JUMPDEST SWAP2 POP POP PUSH2 0x773 JUMP JUMPDEST POP DUP2 SWAP4 POP POP POP POP SWAP1 JUMP JUMPDEST PUSH1 0x0 DUP2 GT PUSH2 0xA56 JUMPI PUSH1 0x40 MLOAD PUSH32 0x8C379A000000000000000000000000000000000000000000000000000000000 DUP2 MSTORE PUSH1 0x4 ADD PUSH2 0xA4D SWAP1 PUSH2 0x2CB5 JUMP JUMPDEST PUSH1 0x40 MLOAD DUP1 SWAP2 SUB SWAP1 REVERT JUMPDEST PUSH1 0x0 DUP1 SLOAD SWAP1 PUSH2 0x100 EXP SWAP1 DIV PUSH20 0xFFFFFFFFFFFFFFFFFFFFFFFFFFFFFFFFFFFFFFFF AND PUSH20 0xFFFFFFFFFFFFFFFFFFFFFFFFFFFFFFFFFFFFFFFF AND PUSH4 0x95EA7B3 ADDRESS DUP4 PUSH1 0x40 MLOAD DUP4 PUSH4 0xFFFFFFFF AND PUSH1 0xE0 SHL DUP2 MSTORE PUSH1 0x4 ADD PUSH2 0xAB1 SWAP3 SWAP2 SWAP1 PUSH2 0x2A50 JUMP JUMPDEST PUSH1 0x20 PUSH1 0x40 MLOAD DUP1 DUP4 SUB DUP2 PUSH1 0x0 DUP8 GAS CALL ISZERO DUP1 ISZERO PUSH2 0xAD0 JUMPI RETURNDATASIZE PUSH1 0x0 DUP1 RETURNDATACOPY RETURNDATASIZE PUSH1 0x0 REVERT JUMPDEST POP POP POP POP PUSH1 0x40 MLOAD RETURNDATASIZE PUSH1 0x1F NOT PUSH1 0x1F DUP3 ADD AND DUP3 ADD DUP1 PUSH1 0x40 MSTORE POP DUP2 ADD SWAP1 PUSH2 0xAF4 SWAP2 SWAP1 PUSH2 0x2AA5 JUMP JUMPDEST PUSH2 0xB33 JUMPI PUSH1 0x40 MLOAD PUSH32 0x8C379A000000000000000000000000000000000000000000000000000000000 DUP2 MSTORE PUSH1 0x4 ADD PUSH2 0xB2A SWAP1 PUSH2 0x2D47 JUMP JUMPDEST PUSH1 0x40 MLOAD DUP1 SWAP2 SUB SWAP1 REVERT JUMPDEST PUSH1 0x0 DUP1 SLOAD SWAP1 PUSH2 0x100 EXP SWAP1 DIV PUSH20 0xFFFFFFFFFFFFFFFFFFFFFFFFFFFFFFFFFFFFFFFF AND PUSH20 0xFFFFFFFFFFFFFFFFFFFFFFFFFFFFFFFFFFFFFFFF AND PUSH4 0x23B872DD CALLER ADDRESS DUP5 PUSH1 0x40 MLOAD DUP5 PUSH4 0xFFFFFFFF AND PUSH1 0xE0 SHL DUP2 MSTORE PUSH1 0x4 ADD PUSH2 0xB90 SWAP4 SWAP3 SWAP2 SWAP1 PUSH2 0x2D67 JUMP JUMPDEST PUSH1 0x20 PUSH1 0x40 MLOAD DUP1 DUP4 SUB DUP2 PUSH1 0x0 DUP8 GAS CALL ISZERO DUP1 ISZERO PUSH2 0xBAF JUMPI RETURNDATASIZE PUSH1 0x0 DUP1 RETURNDATACOPY RETURNDATASIZE PUSH1 0x0 REVERT JUMPDEST POP POP POP POP PUSH1 0x40 MLOAD RETURNDATASIZE PUSH1 0x1F NOT PUSH1 0x1F DUP3 ADD AND DUP3 ADD DUP1 PUSH1 0x40 MSTORE POP DUP2 ADD SWAP1 PUSH2 0xBD3 SWAP2 SWAP1 PUSH2 0x2AA5 JUMP JUMPDEST PUSH2 0xC12 JUMPI PUSH1 0x40 MLOAD PUSH32 0x8C379A000000000000000000000000000000000000000000000000000000000 DUP2 MSTORE PUSH1 0x4 ADD PUSH2 0xC09 SWAP1 PUSH2 0x2DEA JUMP JUMPDEST PUSH1 0x40 MLOAD DUP1 SWAP2 SUB SWAP1 REVERT JUMPDEST PUSH1 0x1 DUP1 DUP2 PUSH1 0x1 DUP2 SLOAD ADD DUP1 DUP3 SSTORE DUP1 SWAP2 POP POP SUB SWAP1 PUSH1 0x0 MSTORE PUSH1 0x20 PUSH1 0x0 KECCAK256 SWAP1 POP POP PUSH1 0x0 PUSH1 0x1 DUP1 DUP1 DUP1 SLOAD SWAP1 POP PUSH2 0xC43 SWAP2 SWAP1 PUSH2 0x2E0A JUMP JUMPDEST DUP2 SLOAD DUP2 LT PUSH2 0xC54 JUMPI PUSH2 0xC53 PUSH2 0x27BC JUMP JUMPDEST JUMPDEST SWAP1 PUSH1 0x0 MSTORE PUSH1 0x20 PUSH1 0x0 KECCAK256 SWAP1 PUSH1 0xE MUL ADD SWAP1 POP CALLER DUP2 PUSH1 0x0 ADD PUSH1 0x0 PUSH2 0x100 EXP DUP2 SLOAD DUP2 PUSH20 0xFFFFFFFFFFFFFFFFFFFFFFFFFFFFFFFFFFFFFFFF MUL NOT AND SWAP1 DUP4 PUSH20 0xFFFFFFFFFFFFFFFFFFFFFFFFFFFFFFFFFFFFFFFF AND MUL OR SWAP1 SSTORE POP DUP4 DUP2 PUSH1 0x1 ADD SWAP1 DUP2 PUSH2 0xCB8 SWAP2 SWAP1 PUSH2 0x2FE0 JUMP JUMPDEST POP DUP2 DUP2 PUSH1 0x2 ADD DUP2 SWAP1 SSTORE POP DUP2 DUP2 PUSH1 0x3 ADD PUSH1 0x0 DUP3 DUP3 SLOAD PUSH2 0xCD6 SWAP2 SWAP1 PUSH2 0x2BAF JUMP JUMPDEST SWAP3 POP POP DUP2 SWAP1 SSTORE POP TIMESTAMP DUP2 PUSH1 0x4 ADD DUP2 SWAP1 SSTORE POP PUSH3 0x15180 TIMESTAMP PUSH2 0xCF5 SWAP2 SWAP1 PUSH2 0x2BAF JUMP JUMPDEST DUP2 PUSH1 0x5 ADD DUP2 SWAP1 SSTORE POP DUP3 DUP2 PUSH1 0x6 ADD DUP2 SWAP1 SSTORE POP PUSH1 0x0 DUP2 PUSH1 0x7 ADD PUSH1 0x0 PUSH2 0x100 EXP DUP2 SLOAD DUP2 PUSH1 0xFF MUL NOT AND SWAP1 DUP4 ISZERO ISZERO MUL OR SWAP1 SSTORE POP PUSH3 0x15180 DUP4 PUSH2 0xD32 SWAP2 SWAP1 PUSH2 0x2A1F JUMP JUMPDEST DUP2 PUSH1 0x8 ADD DUP2 SWAP1 SSTORE POP PUSH1 0x1 DUP2 PUSH1 0xC ADD PUSH1 0x0 CALLER PUSH20 0xFFFFFFFFFFFFFFFFFFFFFFFFFFFFFFFFFFFFFFFF AND PUSH20 0xFFFFFFFFFFFFFFFFFFFFFFFFFFFFFFFFFFFFFFFF AND DUP2 MSTORE PUSH1 0x20 ADD SWAP1 DUP2 MSTORE PUSH1 0x20 ADD PUSH1 0x0 KECCAK256 PUSH1 0x0 PUSH2 0x100 EXP DUP2 SLOAD DUP2 PUSH1 0xFF MUL NOT AND SWAP1 DUP4 ISZERO ISZERO MUL OR SWAP1 SSTORE POP PUSH1 0x0 PUSH1 0x1 DUP1 DUP1 SLOAD SWAP1 POP PUSH2 0xDA7 SWAP2 SWAP1 PUSH2 0x2E0A JUMP JUMPDEST SWAP1 POP PUSH32 0x46EA7EE0990CDE33902E77E2D7200322990CB03186C32D68F2966739D28FB366 DUP2 DUP7 DUP6 CALLER PUSH1 0x40 MLOAD PUSH2 0xDDE SWAP5 SWAP4 SWAP3 SWAP2 SWAP1 PUSH2 0x30B2 JUMP JUMPDEST PUSH1 0x40 MLOAD DUP1 SWAP2 SUB SWAP1 LOG1 PUSH32 0x79DB182AF3410C60080D8E7C7ED50F1977B0DF228F066BBEA532E7D75AF80D2C DUP2 DUP6 DUP5 PUSH1 0x5 ADD SLOAD PUSH2 0xE18 SWAP2 SWAP1 PUSH2 0x2BAF JUMP JUMPDEST PUSH1 0x40 MLOAD PUSH2 0xE26 SWAP3 SWAP2 SWAP1 PUSH2 0x30FE JUMP JUMPDEST PUSH1 0x40 MLOAD DUP1 SWAP2 SUB SWAP1 LOG1 POP POP POP POP POP JUMP JUMPDEST DUP1 PUSH1 0x1 DUP1 SLOAD SWAP1 POP DUP2 LT PUSH2 0xE7D JUMPI PUSH1 0x40 MLOAD PUSH32 0x8C379A000000000000000000000000000000000000000000000000000000000 DUP2 MSTORE PUSH1 0x4 ADD PUSH2 0xE74 SWAP1 PUSH2 0x279C JUMP JUMPDEST PUSH1 0x40 MLOAD DUP1 SWAP2 SUB SWAP1 REVERT JUMPDEST PUSH1 0x1 DUP2 DUP2 SLOAD DUP2 LT PUSH2 0xE91 JUMPI PUSH2 0xE90 PUSH2 0x27BC JUMP JUMPDEST JUMPDEST SWAP1 PUSH1 0x0 MSTORE PUSH1 0x20 PUSH1 0x0 KECCAK256 SWAP1 PUSH1 0xE MUL ADD PUSH1 0x7 ADD PUSH1 0x0 SWAP1 SLOAD SWAP1 PUSH2 0x100 EXP SWAP1 DIV PUSH1 0xFF AND ISZERO PUSH2 0xEF0 JUMPI PUSH1 0x40 MLOAD PUSH32 0x8C379A000000000000000000000000000000000000000000000000000000000 DUP2 MSTORE PUSH1 0x4 ADD PUSH2 0xEE7 SWAP1 PUSH2 0x3173 JUMP JUMPDEST PUSH1 0x40 MLOAD DUP1 SWAP2 SUB SWAP1 REVERT JUMPDEST PUSH1 0x1 DUP3 DUP2 SLOAD DUP2 LT PUSH2 0xF04 JUMPI PUSH2 0xF03 PUSH2 0x27BC JUMP JUMPDEST JUMPDEST SWAP1 PUSH1 0x0 MSTORE PUSH1 0x20 PUSH1 0x0 KECCAK256 SWAP1 PUSH1 0xE MUL ADD PUSH1 0xC ADD PUSH1 0x0 CALLER PUSH20 0xFFFFFFFFFFFFFFFFFFFFFFFFFFFFFFFFFFFFFFFF AND PUSH20 0xFFFFFFFFFFFFFFFFFFFFFFFFFFFFFFFFFFFFFFFF AND DUP2 MSTORE PUSH1 0x20 ADD SWAP1 DUP2 MSTORE PUSH1 0x20 ADD PUSH1 0x0 KECCAK256 PUSH1 0x0 SWAP1 SLOAD SWAP1 PUSH2 0x100 EXP SWAP1 DIV PUSH1 0xFF AND PUSH2 0xF9F JUMPI PUSH1 0x40 MLOAD PUSH32 0x8C379A000000000000000000000000000000000000000000000000000000000 DUP2 MSTORE PUSH1 0x4 ADD PUSH2 0xF96 SWAP1 PUSH2 0x28C9 JUMP JUMPDEST PUSH1 0x40 MLOAD DUP1 SWAP2 SUB SWAP1 REVERT JUMPDEST PUSH1 0x0 DUP1 PUSH1 0x0 PUSH2 0x100F PUSH1 0x1 DUP7 DUP2 SLOAD DUP2 LT PUSH2 0xFBB JUMPI PUSH2 0xFBA PUSH2 0x27BC JUMP JUMPDEST JUMPDEST SWAP1 PUSH1 0x0 MSTORE PUSH1 0x20 PUSH1 0x0 KECCAK256 SWAP1 PUSH1 0xE MUL ADD PUSH1 0xB ADD PUSH1 0x0 CALLER PUSH20 0xFFFFFFFFFFFFFFFFFFFFFFFFFFFFFFFFFFFFFFFF AND PUSH20 0xFFFFFFFFFFFFFFFFFFFFFFFFFFFFFFFFFFFFFFFF AND DUP2 MSTORE PUSH1 0x20 ADD SWAP1 DUP2 MSTORE PUSH1 0x20 ADD PUSH1 0x0 KECCAK256 SLOAD PUSH2 0x1AB5 JUMP JUMPDEST POP POP SWAP3 POP SWAP3 POP SWAP3 POP PUSH1 0x0 DUP1 PUSH1 0x0 DUP1 PUSH1 0x0 PUSH2 0x1028 TIMESTAMP PUSH2 0x1AB5 JUMP JUMPDEST SWAP5 POP SWAP5 POP SWAP5 POP SWAP5 POP SWAP5 POP DUP8 DUP6 GT DUP1 PUSH2 0x103F JUMPI POP DUP7 DUP5 GT JUMPDEST DUP1 PUSH2 0x1049 JUMPI POP DUP6 DUP4 GT JUMPDEST PUSH2 0x1088 JUMPI PUSH1 0x40 MLOAD PUSH32 0x8C379A000000000000000000000000000000000000000000000000000000000 DUP2 MSTORE PUSH1 0x4 ADD PUSH2 0x107F SWAP1 PUSH2 0x31DF JUMP JUMPDEST PUSH1 0x40 MLOAD DUP1 SWAP2 SUB SWAP1 REVERT JUMPDEST PUSH1 0x6 DUP3 EQ DUP1 ISZERO PUSH2 0x1099 JUMPI POP PUSH1 0x5 DUP2 GT ISZERO JUMPDEST PUSH2 0x10D8 JUMPI PUSH1 0x40 MLOAD PUSH32 0x8C379A000000000000000000000000000000000000000000000000000000000 DUP2 MSTORE PUSH1 0x4 ADD PUSH2 0x10CF SWAP1 PUSH2 0x324B JUMP JUMPDEST PUSH1 0x40 MLOAD DUP1 SWAP2 SUB SWAP1 REVERT JUMPDEST PUSH1 0x1 DUP11 DUP2 SLOAD DUP2 LT PUSH2 0x10EC JUMPI PUSH2 0x10EB PUSH2 0x27BC JUMP JUMPDEST JUMPDEST SWAP1 PUSH1 0x0 MSTORE PUSH1 0x20 PUSH1 0x0 KECCAK256 SWAP1 PUSH1 0xE MUL ADD PUSH1 0xA ADD PUSH1 0x0 CALLER PUSH20 0xFFFFFFFFFFFFFFFFFFFFFFFFFFFFFFFFFFFFFFFF AND PUSH20 0xFFFFFFFFFFFFFFFFFFFFFFFFFFFFFFFFFFFFFFFF AND DUP2 MSTORE PUSH1 0x20 ADD SWAP1 DUP2 MSTORE PUSH1 0x20 ADD PUSH1 0x0 KECCAK256 PUSH1 0x0 DUP2 SLOAD DUP1 SWAP3 SWAP2 SWAP1 PUSH2 0x114B SWAP1 PUSH2 0x2B67 JUMP JUMPDEST SWAP2 SWAP1 POP SSTORE POP TIMESTAMP PUSH1 0x1 DUP12 DUP2 SLOAD DUP2 LT PUSH2 0x1165 JUMPI PUSH2 0x1164 PUSH2 0x27BC JUMP JUMPDEST JUMPDEST SWAP1 PUSH1 0x0 MSTORE PUSH1 0x20 PUSH1 0x0 KECCAK256 SWAP1 PUSH1 0xE MUL ADD PUSH1 0xB ADD PUSH1 0x0 CALLER PUSH20 0xFFFFFFFFFFFFFFFFFFFFFFFFFFFFFFFFFFFFFFFF AND PUSH20 0xFFFFFFFFFFFFFFFFFFFFFFFFFFFFFFFFFFFFFFFF AND DUP2 MSTORE PUSH1 0x20 ADD SWAP1 DUP2 MSTORE PUSH1 0x20 ADD PUSH1 0x0 KECCAK256 DUP2 SWAP1 SSTORE POP PUSH1 0x1 DUP11 DUP2 SLOAD DUP2 LT PUSH2 0x11CB JUMPI PUSH2 0x11CA PUSH2 0x27BC JUMP JUMPDEST JUMPDEST SWAP1 PUSH1 0x0 MSTORE PUSH1 0x20 PUSH1 0x0 KECCAK256 SWAP1 PUSH1 0xE MUL ADD PUSH1 0x8 ADD SLOAD PUSH1 0x1 DUP12 DUP2 SLOAD DUP2 LT PUSH2 0x11F1 JUMPI PUSH2 0x11F0 PUSH2 0x27BC JUMP JUMPDEST JUMPDEST SWAP1 PUSH1 0x0 MSTORE PUSH1 0x20 PUSH1 0x0 KECCAK256 SWAP1 PUSH1 0xE MUL ADD PUSH1 0xA ADD PUSH1 0x0 CALLER PUSH20 0xFFFFFFFFFFFFFFFFFFFFFFFFFFFFFFFFFFFFFFFF AND PUSH20 0xFFFFFFFFFFFFFFFFFFFFFFFFFFFFFFFFFFFFFFFF AND DUP2 MSTORE PUSH1 0x20 ADD SWAP1 DUP2 MSTORE PUSH1 0x20 ADD PUSH1 0x0 KECCAK256 SLOAD SUB PUSH2 0x1281 JUMPI PUSH1 0x1 DUP11 DUP2 SLOAD DUP2 LT PUSH2 0x1259 JUMPI PUSH2 0x1258 PUSH2 0x27BC JUMP JUMPDEST JUMPDEST SWAP1 PUSH1 0x0 MSTORE PUSH1 0x20 PUSH1 0x0 KECCAK256 SWAP1 PUSH1 0xE MUL ADD PUSH1 0x9 ADD PUSH1 0x0 DUP2 SLOAD DUP1 SWAP3 SWAP2 SWAP1 PUSH2 0x127B SWAP1 PUSH2 0x2B67 JUMP JUMPDEST SWAP2 SWAP1 POP SSTORE POP JUMPDEST POP POP POP POP POP POP POP POP POP POP JUMP JUMPDEST PUSH1 0x1 DUP2 DUP2 SLOAD DUP2 LT PUSH2 0x129D JUMPI PUSH1 0x0 DUP1 REVERT JUMPDEST SWAP1 PUSH1 0x0 MSTORE PUSH1 0x20 PUSH1 0x0 KECCAK256 SWAP1 PUSH1 0xE MUL ADD PUSH1 0x0 SWAP2 POP SWAP1 POP DUP1 PUSH1 0x0 ADD PUSH1 0x0 SWAP1 SLOAD SWAP1 PUSH2 0x100 EXP SWAP1 DIV PUSH20 0xFFFFFFFFFFFFFFFFFFFFFFFFFFFFFFFFFFFFFFFF AND SWAP1 DUP1 PUSH1 0x1 ADD DUP1 SLOAD PUSH2 0x12E6 SWAP1 PUSH2 0x2C12 JUMP JUMPDEST DUP1 PUSH1 0x1F ADD PUSH1 0x20 DUP1 SWAP2 DIV MUL PUSH1 0x20 ADD PUSH1 0x40 MLOAD SWAP1 DUP2 ADD PUSH1 0x40 MSTORE DUP1 SWAP3 SWAP2 SWAP1 DUP2 DUP2 MSTORE PUSH1 0x20 ADD DUP3 DUP1 SLOAD PUSH2 0x1312 SWAP1 PUSH2 0x2C12 JUMP JUMPDEST DUP1 ISZERO PUSH2 0x135F JUMPI DUP1 PUSH1 0x1F LT PUSH2 0x1334 JUMPI PUSH2 0x100 DUP1 DUP4 SLOAD DIV MUL DUP4 MSTORE SWAP2 PUSH1 0x20 ADD SWAP2 PUSH2 0x135F JUMP JUMPDEST DUP3 ADD SWAP2 SWAP1 PUSH1 0x0 MSTORE PUSH1 0x20 PUSH1 0x0 KECCAK256 SWAP1 JUMPDEST DUP2 SLOAD DUP2 MSTORE SWAP1 PUSH1 0x1 ADD SWAP1 PUSH1 0x20 ADD DUP1 DUP4 GT PUSH2 0x1342 JUMPI DUP3 SWAP1 SUB PUSH1 0x1F AND DUP3 ADD SWAP2 JUMPDEST POP POP POP POP POP SWAP1 DUP1 PUSH1 0x2 ADD SLOAD SWAP1 DUP1 PUSH1 0x3 ADD SLOAD SWAP1 DUP1 PUSH1 0x4 ADD SLOAD SWAP1 DUP1 PUSH1 0x5 ADD SLOAD SWAP1 DUP1 PUSH1 0x6 ADD SLOAD SWAP1 DUP1 PUSH1 0x7 ADD PUSH1 0x0 SWAP1 SLOAD SWAP1 PUSH2 0x100 EXP SWAP1 DIV PUSH1 0xFF AND SWAP1 DUP1 PUSH1 0x8 ADD SLOAD SWAP1 DUP1 PUSH1 0x9 ADD SLOAD SWAP1 POP DUP11 JUMP JUMPDEST PUSH1 0x1 DUP2 DUP2 SLOAD DUP2 LT PUSH2 0x13BA JUMPI PUSH2 0x13B9 PUSH2 0x27BC JUMP JUMPDEST JUMPDEST SWAP1 PUSH1 0x0 MSTORE PUSH1 0x20 PUSH1 0x0 KECCAK256 SWAP1 PUSH1 0xE MUL ADD PUSH1 0x6 ADD SLOAD PUSH1 0x1 DUP3 DUP2 SLOAD DUP2 LT PUSH2 0x13E0 JUMPI PUSH2 0x13DF PUSH2 0x27BC JUMP JUMPDEST JUMPDEST SWAP1 PUSH1 0x0 MSTORE PUSH1 0x20 PUSH1 0x0 KECCAK256 SWAP1 PUSH1 0xE MUL ADD PUSH1 0x5 ADD SLOAD PUSH2 0x13FC SWAP2 SWAP1 PUSH2 0x2BAF JUMP JUMPDEST TIMESTAMP LT ISZERO PUSH2 0x143E JUMPI PUSH1 0x40 MLOAD PUSH32 0x8C379A000000000000000000000000000000000000000000000000000000000 DUP2 MSTORE PUSH1 0x4 ADD PUSH2 0x1435 SWAP1 PUSH2 0x32B7 JUMP JUMPDEST PUSH1 0x40 MLOAD DUP1 SWAP2 SUB SWAP1 REVERT JUMPDEST PUSH2 0x1447 DUP2 PUSH2 0x1D62 JUMP JUMPDEST POP JUMP JUMPDEST JUMP JUMPDEST DUP1 PUSH1 0x1 DUP1 SLOAD SWAP1 POP DUP2 LT PUSH2 0x1494 JUMPI PUSH1 0x40 MLOAD PUSH32 0x8C379A000000000000000000000000000000000000000000000000000000000 DUP2 MSTORE PUSH1 0x4 ADD PUSH2 0x148B SWAP1 PUSH2 0x279C JUMP JUMPDEST PUSH1 0x40 MLOAD DUP1 SWAP2 SUB SWAP1 REVERT JUMPDEST PUSH1 0x1 DUP2 DUP2 SLOAD DUP2 LT PUSH2 0x14A8 JUMPI PUSH2 0x14A7 PUSH2 0x27BC JUMP JUMPDEST JUMPDEST SWAP1 PUSH1 0x0 MSTORE PUSH1 0x20 PUSH1 0x0 KECCAK256 SWAP1 PUSH1 0xE MUL ADD PUSH1 0x7 ADD PUSH1 0x0 SWAP1 SLOAD SWAP1 PUSH2 0x100 EXP SWAP1 DIV PUSH1 0xFF AND ISZERO PUSH2 0x1507 JUMPI PUSH1 0x40 MLOAD PUSH32 0x8C379A000000000000000000000000000000000000000000000000000000000 DUP2 MSTORE PUSH1 0x4 ADD PUSH2 0x14FE SWAP1 PUSH2 0x3173 JUMP JUMPDEST PUSH1 0x40 MLOAD DUP1 SWAP2 SUB SWAP1 REVERT JUMPDEST PUSH1 0x0 DUP1 PUSH1 0x0 PUSH2 0x153A PUSH1 0x1 DUP7 DUP2 SLOAD DUP2 LT PUSH2 0x1523 JUMPI PUSH2 0x1522 PUSH2 0x27BC JUMP JUMPDEST JUMPDEST SWAP1 PUSH1 0x0 MSTORE PUSH1 0x20 PUSH1 0x0 KECCAK256 SWAP1 PUSH1 0xE MUL ADD PUSH1 0x5 ADD SLOAD PUSH2 0x1AB5 JUMP JUMPDEST POP POP SWAP3 POP SWAP3 POP SWAP3 POP PUSH1 0x0 DUP1 PUSH1 0x0 DUP1 PUSH2 0x1551 TIMESTAMP PUSH2 0x1AB5 JUMP JUMPDEST POP SWAP4 POP SWAP4 POP SWAP4 POP SWAP4 POP DUP7 DUP5 LT DUP1 PUSH2 0x1567 JUMPI POP DUP6 DUP4 LT JUMPDEST DUP1 PUSH2 0x1571 JUMPI POP DUP5 DUP3 LT JUMPDEST DUP1 PUSH2 0x157C JUMPI POP PUSH1 0x15 DUP2 LT JUMPDEST PUSH2 0x15BB JUMPI PUSH1 0x40 MLOAD PUSH32 0x8C379A000000000000000000000000000000000000000000000000000000000 DUP2 MSTORE PUSH1 0x4 ADD PUSH2 0x15B2 SWAP1 PUSH2 0x3349 JUMP JUMPDEST PUSH1 0x40 MLOAD DUP1 SWAP2 SUB SWAP1 REVERT JUMPDEST PUSH1 0x1 DUP10 DUP2 SLOAD DUP2 LT PUSH2 0x15CF JUMPI PUSH2 0x15CE PUSH2 0x27BC JUMP JUMPDEST JUMPDEST SWAP1 PUSH1 0x0 MSTORE PUSH1 0x20 PUSH1 0x0 KECCAK256 SWAP1 PUSH1 0xE MUL ADD PUSH1 0xC ADD PUSH1 0x0 CALLER PUSH20 0xFFFFFFFFFFFFFFFFFFFFFFFFFFFFFFFFFFFFFFFF AND PUSH20 0xFFFFFFFFFFFFFFFFFFFFFFFFFFFFFFFFFFFFFFFF AND DUP2 MSTORE PUSH1 0x20 ADD SWAP1 DUP2 MSTORE PUSH1 0x20 ADD PUSH1 0x0 KECCAK256 PUSH1 0x0 SWAP1 SLOAD SWAP1 PUSH2 0x100 EXP SWAP1 DIV PUSH1 0xFF AND ISZERO PUSH2 0x166B JUMPI PUSH1 0x40 MLOAD PUSH32 0x8C379A000000000000000000000000000000000000000000000000000000000 DUP2 MSTORE PUSH1 0x4 ADD PUSH2 0x1662 SWAP1 PUSH2 0x33B5 JUMP JUMPDEST PUSH1 0x40 MLOAD DUP1 SWAP2 SUB SWAP1 REVERT JUMPDEST PUSH1 0x1 DUP10 DUP2 SLOAD DUP2 LT PUSH2 0x167F JUMPI PUSH2 0x167E PUSH2 0x27BC JUMP JUMPDEST JUMPDEST SWAP1 PUSH1 0x0 MSTORE PUSH1 0x20 PUSH1 0x0 KECCAK256 SWAP1 PUSH1 0xE MUL ADD PUSH1 0x2 ADD SLOAD PUSH1 0x0 DUP1 SLOAD SWAP1 PUSH2 0x100 EXP SWAP1 DIV PUSH20 0xFFFFFFFFFFFFFFFFFFFFFFFFFFFFFFFFFFFFFFFF AND PUSH20 0xFFFFFFFFFFFFFFFFFFFFFFFFFFFFFFFFFFFFFFFF AND PUSH4 0x70A08231 CALLER PUSH1 0x40 MLOAD DUP3 PUSH4 0xFFFFFFFF AND PUSH1 0xE0 SHL DUP2 MSTORE PUSH1 0x4 ADD PUSH2 0x16EA SWAP2 SWAP1 PUSH2 0x33D5 JUMP JUMPDEST PUSH1 0x20 PUSH1 0x40 MLOAD DUP1 DUP4 SUB DUP2 DUP7 GAS STATICCALL ISZERO DUP1 ISZERO PUSH2 0x1707 JUMPI RETURNDATASIZE PUSH1 0x0 DUP1 RETURNDATACOPY RETURNDATASIZE PUSH1 0x0 REVERT JUMPDEST POP POP POP POP PUSH1 0x40 MLOAD RETURNDATASIZE PUSH1 0x1F NOT PUSH1 0x1F DUP3 ADD AND DUP3 ADD DUP1 PUSH1 0x40 MSTORE POP DUP2 ADD SWAP1 PUSH2 0x172B SWAP2 SWAP1 PUSH2 0x3405 JUMP JUMPDEST LT ISZERO PUSH2 0x176C JUMPI PUSH1 0x40 MLOAD PUSH32 0x8C379A000000000000000000000000000000000000000000000000000000000 DUP2 MSTORE PUSH1 0x4 ADD PUSH2 0x1763 SWAP1 PUSH2 0x347E JUMP JUMPDEST PUSH1 0x40 MLOAD DUP1 SWAP2 SUB SWAP1 REVERT JUMPDEST PUSH1 0x0 DUP1 SLOAD SWAP1 PUSH2 0x100 EXP SWAP1 DIV PUSH20 0xFFFFFFFFFFFFFFFFFFFFFFFFFFFFFFFFFFFFFFFF AND PUSH20 0xFFFFFFFFFFFFFFFFFFFFFFFFFFFFFFFFFFFFFFFF AND PUSH4 0x95EA7B3 ADDRESS PUSH1 0x1 DUP13 DUP2 SLOAD DUP2 LT PUSH2 0x17BD JUMPI PUSH2 0x17BC PUSH2 0x27BC JUMP JUMPDEST JUMPDEST SWAP1 PUSH1 0x0 MSTORE PUSH1 0x20 PUSH1 0x0 KECCAK256 SWAP1 PUSH1 0xE MUL ADD PUSH1 0x2 ADD SLOAD PUSH1 0x40 MLOAD DUP4 PUSH4 0xFFFFFFFF AND PUSH1 0xE0 SHL DUP2 MSTORE PUSH1 0x4 ADD PUSH2 0x17EC SWAP3 SWAP2 SWAP1 PUSH2 0x2A50 JUMP JUMPDEST PUSH1 0x20 PUSH1 0x40 MLOAD DUP1 DUP4 SUB DUP2 PUSH1 0x0 DUP8 GAS CALL ISZERO DUP1 ISZERO PUSH2 0x180B JUMPI RETURNDATASIZE PUSH1 0x0 DUP1 RETURNDATACOPY RETURNDATASIZE PUSH1 0x0 REVERT JUMPDEST POP POP POP POP PUSH1 0x40 MLOAD RETURNDATASIZE PUSH1 0x1F NOT PUSH1 0x1F DUP3 ADD AND DUP3 ADD DUP1 PUSH1 0x40 MSTORE POP DUP2 ADD SWAP1 PUSH2 0x182F SWAP2 SWAP1 PUSH2 0x2AA5 JUMP JUMPDEST PUSH2 0x186E JUMPI PUSH1 0x40 MLOAD PUSH32 0x8C379A000000000000000000000000000000000000000000000000000000000 DUP2 MSTORE PUSH1 0x4 ADD PUSH2 0x1865 SWAP1 PUSH2 0x2D47 JUMP JUMPDEST PUSH1 0x40 MLOAD DUP1 SWAP2 SUB SWAP1 REVERT JUMPDEST PUSH1 0x0 DUP1 SLOAD SWAP1 PUSH2 0x100 EXP SWAP1 DIV PUSH20 0xFFFFFFFFFFFFFFFFFFFFFFFFFFFFFFFFFFFFFFFF AND PUSH20 0xFFFFFFFFFFFFFFFFFFFFFFFFFFFFFFFFFFFFFFFF AND PUSH4 0x23B872DD CALLER ADDRESS PUSH1 0x1 DUP14 DUP2 SLOAD DUP2 LT PUSH2 0x18C0 JUMPI PUSH2 0x18BF PUSH2 0x27BC JUMP JUMPDEST JUMPDEST SWAP1 PUSH1 0x0 MSTORE PUSH1 0x20 PUSH1 0x0 KECCAK256 SWAP1 PUSH1 0xE MUL ADD PUSH1 0x2 ADD SLOAD PUSH1 0x40 MLOAD DUP5 PUSH4 0xFFFFFFFF AND PUSH1 0xE0 SHL DUP2 MSTORE PUSH1 0x4 ADD PUSH2 0x18F0 SWAP4 SWAP3 SWAP2 SWAP1 PUSH2 0x2D67 JUMP JUMPDEST PUSH1 0x20 PUSH1 0x40 MLOAD DUP1 DUP4 SUB DUP2 PUSH1 0x0 DUP8 GAS CALL ISZERO DUP1 ISZERO PUSH2 0x190F JUMPI RETURNDATASIZE PUSH1 0x0 DUP1 RETURNDATACOPY RETURNDATASIZE PUSH1 0x0 REVERT JUMPDEST POP POP POP POP PUSH1 0x40 MLOAD RETURNDATASIZE PUSH1 0x1F NOT PUSH1 0x1F DUP3 ADD AND DUP3 ADD DUP1 PUSH1 0x40 MSTORE POP DUP2 ADD SWAP1 PUSH2 0x1933 SWAP2 SWAP1 PUSH2 0x2AA5 JUMP JUMPDEST PUSH2 0x1972 JUMPI PUSH1 0x40 MLOAD PUSH32 0x8C379A000000000000000000000000000000000000000000000000000000000 DUP2 MSTORE PUSH1 0x4 ADD PUSH2 0x1969 SWAP1 PUSH2 0x2DEA JUMP JUMPDEST PUSH1 0x40 MLOAD DUP1 SWAP2 SUB SWAP1 REVERT JUMPDEST PUSH32 0x690ECBABE96222B39728B512682860CC6460002A670FF94954038286BEA0BA69 DUP10 CALLER PUSH1 0x40 MLOAD PUSH2 0x19A3 SWAP3 SWAP2 SWAP1 PUSH2 0x2B3E JUMP JUMPDEST PUSH1 0x40 MLOAD DUP1 SWAP2 SUB SWAP1 LOG1 PUSH1 0x1 DUP1 DUP11 DUP2 SLOAD DUP2 LT PUSH2 0x19C0 JUMPI PUSH2 0x19BF PUSH2 0x27BC JUMP JUMPDEST JUMPDEST SWAP1 PUSH1 0x0 MSTORE PUSH1 0x20 PUSH1 0x0 KECCAK256 SWAP1 PUSH1 0xE MUL ADD PUSH1 0xC ADD PUSH1 0x0 CALLER PUSH20 0xFFFFFFFFFFFFFFFFFFFFFFFFFFFFFFFFFFFFFFFF AND PUSH20 0xFFFFFFFFFFFFFFFFFFFFFFFFFFFFFFFFFFFFFFFF AND DUP2 MSTORE PUSH1 0x20 ADD SWAP1 DUP2 MSTORE PUSH1 0x20 ADD PUSH1 0x0 KECCAK256 PUSH1 0x0 PUSH2 0x100 EXP DUP2 SLOAD DUP2 PUSH1 0xFF MUL NOT AND SWAP1 DUP4 ISZERO ISZERO MUL OR SWAP1 SSTORE POP PUSH1 0x1 DUP10 DUP2 SLOAD DUP2 LT PUSH2 0x1A39 JUMPI PUSH2 0x1A38 PUSH2 0x27BC JUMP JUMPDEST JUMPDEST SWAP1 PUSH1 0x0 MSTORE PUSH1 0x20 PUSH1 0x0 KECCAK256 SWAP1 PUSH1 0xE MUL ADD PUSH1 0x2 ADD SLOAD PUSH1 0x1 DUP11 DUP2 SLOAD DUP2 LT PUSH2 0x1A5F JUMPI PUSH2 0x1A5E PUSH2 0x27BC JUMP JUMPDEST JUMPDEST SWAP1 PUSH1 0x0 MSTORE PUSH1 0x20 PUSH1 0x0 KECCAK256 SWAP1 PUSH1 0xE MUL ADD PUSH1 0x3 ADD PUSH1 0x0 DUP3 DUP3 SLOAD PUSH2 0x1A7F SWAP2 SWAP1 PUSH2 0x2BAF JUMP JUMPDEST SWAP3 POP POP DUP2 SWAP1 SSTORE POP POP POP POP POP POP POP POP POP POP JUMP JUMPDEST PUSH1 0x0 DUP1 SLOAD SWAP1 PUSH2 0x100 EXP SWAP1 DIV PUSH20 0xFFFFFFFFFFFFFFFFFFFFFFFFFFFFFFFFFFFFFFFF AND DUP2 JUMP JUMPDEST PUSH1 0x0 DUP1 PUSH1 0x0 DUP1 PUSH1 0x0 DUP1 PUSH2 0x7E90 SWAP1 POP PUSH1 0x0 DUP2 DUP9 PUSH2 0x1AD1 SWAP2 SWAP1 PUSH2 0x2BAF JUMP JUMPDEST SWAP1 POP PUSH1 0x0 PUSH3 0x15180 SWAP1 POP PUSH1 0x0 PUSH4 0x1E13380 SWAP1 POP PUSH1 0x0 PUSH4 0x1E28500 SWAP1 POP PUSH1 0x0 PUSH2 0x7B2 SWAP1 POP PUSH1 0x0 DUP1 JUMPDEST DUP7 DUP6 DUP4 PUSH2 0x1B05 SWAP2 SWAP1 PUSH2 0x2BAF JUMP JUMPDEST GT PUSH2 0x1B93 JUMPI PUSH1 0x0 PUSH1 0x4 DUP5 PUSH2 0x1B19 SWAP2 SWAP1 PUSH2 0x349E JUMP JUMPDEST EQ DUP1 ISZERO PUSH2 0x1B4B JUMPI POP PUSH1 0x0 PUSH1 0x64 DUP5 PUSH2 0x1B30 SWAP2 SWAP1 PUSH2 0x349E JUMP JUMPDEST EQ ISZERO DUP1 PUSH2 0x1B4A JUMPI POP PUSH1 0x0 PUSH2 0x190 DUP5 PUSH2 0x1B48 SWAP2 SWAP1 PUSH2 0x349E JUMP JUMPDEST EQ JUMPDEST JUMPDEST ISZERO PUSH2 0x1B71 JUMPI DUP4 DUP3 PUSH2 0x1B5C SWAP2 SWAP1 PUSH2 0x2BAF JUMP JUMPDEST SWAP2 POP DUP1 DUP1 PUSH2 0x1B69 SWAP1 PUSH2 0x2B67 JUMP JUMPDEST SWAP2 POP POP PUSH2 0x1B80 JUMP JUMPDEST DUP5 DUP3 PUSH2 0x1B7D SWAP2 SWAP1 PUSH2 0x2BAF JUMP JUMPDEST SWAP2 POP JUMPDEST DUP3 DUP1 PUSH2 0x1B8B SWAP1 PUSH2 0x2B67 JUMP JUMPDEST SWAP4 POP POP PUSH2 0x1AF8 JUMP JUMPDEST DUP3 SWAP13 POP PUSH1 0x0 PUSH1 0x40 MLOAD DUP1 PUSH2 0x180 ADD PUSH1 0x40 MSTORE DUP1 PUSH1 0x1F PUSH1 0xFF AND PUSH1 0xFF AND DUP2 MSTORE PUSH1 0x20 ADD PUSH1 0x1C PUSH1 0xFF AND PUSH1 0xFF AND DUP2 MSTORE PUSH1 0x20 ADD PUSH1 0x1F PUSH1 0xFF AND PUSH1 0xFF AND DUP2 MSTORE PUSH1 0x20 ADD PUSH1 0x1E PUSH1 0xFF AND PUSH1 0xFF AND DUP2 MSTORE PUSH1 0x20 ADD PUSH1 0x1F PUSH1 0xFF AND PUSH1 0xFF AND DUP2 MSTORE PUSH1 0x20 ADD PUSH1 0x1E PUSH1 0xFF AND PUSH1 0xFF AND DUP2 MSTORE PUSH1 0x20 ADD PUSH1 0x1F PUSH1 0xFF AND PUSH1 0xFF AND DUP2 MSTORE PUSH1 0x20 ADD PUSH1 0x1F PUSH1 0xFF AND PUSH1 0xFF AND DUP2 MSTORE PUSH1 0x20 ADD PUSH1 0x1E PUSH1 0xFF AND PUSH1 0xFF AND DUP2 MSTORE PUSH1 0x20 ADD PUSH1 0x1F PUSH1 0xFF AND PUSH1 0xFF AND DUP2 MSTORE PUSH1 0x20 ADD PUSH1 0x1E PUSH1 0xFF AND PUSH1 0xFF AND DUP2 MSTORE PUSH1 0x20 ADD PUSH1 0x1F PUSH1 0xFF AND PUSH1 0xFF AND DUP2 MSTORE POP SWAP1 POP PUSH1 0x0 JUMPDEST PUSH1 0x1 ISZERO PUSH2 0x1CC8 JUMPI PUSH1 0x0 PUSH1 0xC DUP3 SUB PUSH2 0x1C5A JUMPI POP PUSH2 0x1CC8 JUMP JUMPDEST DUP9 DUP4 DUP4 PUSH1 0xC DUP2 LT PUSH2 0x1C6E JUMPI PUSH2 0x1C6D PUSH2 0x27BC JUMP JUMPDEST JUMPDEST PUSH1 0x20 MUL ADD MLOAD PUSH1 0xFF AND PUSH2 0x1C80 SWAP2 SWAP1 PUSH2 0x34CF JUMP JUMPDEST DUP2 PUSH2 0x1C8B SWAP2 SWAP1 PUSH2 0x2BAF JUMP JUMPDEST SWAP1 POP DUP1 DUP6 PUSH2 0x1C99 SWAP2 SWAP1 PUSH2 0x2BAF JUMP JUMPDEST DUP11 LT ISZERO PUSH2 0x1CA6 JUMPI POP PUSH2 0x1CC8 JUMP JUMPDEST DUP1 DUP6 PUSH2 0x1CB2 SWAP2 SWAP1 PUSH2 0x2BAF JUMP JUMPDEST SWAP5 POP DUP2 DUP1 PUSH2 0x1CBF SWAP1 PUSH2 0x2B67 JUMP JUMPDEST SWAP3 POP POP POP PUSH2 0x1C43 JUMP JUMPDEST PUSH1 0x1 DUP2 PUSH2 0x1CD5 SWAP2 SWAP1 PUSH2 0x2BAF JUMP JUMPDEST SWAP14 POP PUSH1 0x1 DUP9 DUP6 DUP12 PUSH2 0x1CE6 SWAP2 SWAP1 PUSH2 0x2E0A JUMP JUMPDEST PUSH2 0x1CF0 SWAP2 SWAP1 PUSH2 0x2A1F JUMP JUMPDEST PUSH2 0x1CFA SWAP2 SWAP1 PUSH2 0x2BAF JUMP JUMPDEST SWAP13 POP PUSH1 0x0 DUP9 DUP6 DUP12 PUSH2 0x1D0B SWAP2 SWAP1 PUSH2 0x2E0A JUMP JUMPDEST PUSH2 0x1D15 SWAP2 SWAP1 PUSH2 0x2BAF JUMP JUMPDEST SWAP1 POP PUSH2 0xE10 DUP10 DUP3 PUSH2 0x1D26 SWAP2 SWAP1 PUSH2 0x349E JUMP JUMPDEST PUSH2 0x1D30 SWAP2 SWAP1 PUSH2 0x2A1F JUMP JUMPDEST SWAP13 POP PUSH1 0x3C PUSH2 0xE10 DUP3 PUSH2 0x1D42 SWAP2 SWAP1 PUSH2 0x349E JUMP JUMPDEST PUSH2 0x1D4C SWAP2 SWAP1 PUSH2 0x2A1F JUMP JUMPDEST SWAP12 POP POP POP POP POP POP POP POP POP POP POP POP SWAP2 SWAP4 SWAP6 SWAP1 SWAP3 SWAP5 POP JUMP JUMPDEST DUP1 PUSH1 0x1 DUP1 SLOAD SWAP1 POP DUP2 LT PUSH2 0x1DAA JUMPI PUSH1 0x40 MLOAD PUSH32 0x8C379A000000000000000000000000000000000000000000000000000000000 DUP2 MSTORE PUSH1 0x4 ADD PUSH2 0x1DA1 SWAP1 PUSH2 0x279C JUMP JUMPDEST PUSH1 0x40 MLOAD DUP1 SWAP2 SUB SWAP1 REVERT JUMPDEST PUSH1 0x1 DUP2 DUP2 SLOAD DUP2 LT PUSH2 0x1DBE JUMPI PUSH2 0x1DBD PUSH2 0x27BC JUMP JUMPDEST JUMPDEST SWAP1 PUSH1 0x0 MSTORE PUSH1 0x20 PUSH1 0x0 KECCAK256 SWAP1 PUSH1 0xE MUL ADD PUSH1 0x7 ADD PUSH1 0x0 SWAP1 SLOAD SWAP1 PUSH2 0x100 EXP SWAP1 DIV PUSH1 0xFF AND ISZERO PUSH2 0x1E1D JUMPI PUSH1 0x40 MLOAD PUSH32 0x8C379A000000000000000000000000000000000000000000000000000000000 DUP2 MSTORE PUSH1 0x4 ADD PUSH2 0x1E14 SWAP1 PUSH2 0x3173 JUMP JUMPDEST PUSH1 0x40 MLOAD DUP1 SWAP2 SUB SWAP1 REVERT JUMPDEST CALLER PUSH20 0xFFFFFFFFFFFFFFFFFFFFFFFFFFFFFFFFFFFFFFFF AND PUSH1 0x1 DUP4 DUP2 SLOAD DUP2 LT PUSH2 0x1E48 JUMPI PUSH2 0x1E47 PUSH2 0x27BC JUMP JUMPDEST JUMPDEST SWAP1 PUSH1 0x0 MSTORE PUSH1 0x20 PUSH1 0x0 KECCAK256 SWAP1 PUSH1 0xE MUL ADD PUSH1 0x0 ADD PUSH1 0x0 SWAP1 SLOAD SWAP1 PUSH2 0x100 EXP SWAP1 DIV PUSH20 0xFFFFFFFFFFFFFFFFFFFFFFFFFFFFFFFFFFFFFFFF AND PUSH20 0xFFFFFFFFFFFFFFFFFFFFFFFFFFFFFFFFFFFFFFFF AND EQ PUSH2 0x1ED0 JUMPI PUSH1 0x40 MLOAD PUSH32 0x8C379A000000000000000000000000000000000000000000000000000000000 DUP2 MSTORE PUSH1 0x4 ADD PUSH2 0x1EC7 SWAP1 PUSH2 0x3583 JUMP JUMPDEST PUSH1 0x40 MLOAD DUP1 SWAP2 SUB SWAP1 REVERT JUMPDEST PUSH1 0x0 PUSH1 0x1 DUP4 DUP2 SLOAD DUP2 LT PUSH2 0x1EE6 JUMPI PUSH2 0x1EE5 PUSH2 0x27BC JUMP JUMPDEST JUMPDEST SWAP1 PUSH1 0x0 MSTORE PUSH1 0x20 PUSH1 0x0 KECCAK256 SWAP1 PUSH1 0xE MUL ADD PUSH1 0x6 ADD SLOAD PUSH1 0x1 DUP5 DUP2 SLOAD DUP2 LT PUSH2 0x1F0C JUMPI PUSH2 0x1F0B PUSH2 0x27BC JUMP JUMPDEST JUMPDEST SWAP1 PUSH1 0x0 MSTORE PUSH1 0x20 PUSH1 0x0 KECCAK256 SWAP1 PUSH1 0xE MUL ADD PUSH1 0x5 ADD SLOAD PUSH2 0x1F28 SWAP2 SWAP1 PUSH2 0x2BAF JUMP JUMPDEST SWAP1 POP PUSH1 0x0 DUP1 PUSH1 0x0 DUP1 PUSH2 0x1F39 TIMESTAMP PUSH2 0x1AB5 JUMP JUMPDEST POP SWAP4 POP SWAP4 POP SWAP4 POP SWAP4 POP PUSH1 0x0 DUP1 PUSH1 0x0 PUSH2 0x1F50 DUP9 PUSH2 0x1AB5 JUMP JUMPDEST POP POP SWAP3 POP SWAP3 POP SWAP3 POP DUP3 DUP8 GT DUP1 PUSH2 0x1F65 JUMPI POP DUP2 DUP7 GT JUMPDEST DUP1 PUSH2 0x1F6F JUMPI POP DUP1 DUP6 GT JUMPDEST DUP1 PUSH2 0x1F7B JUMPI POP PUSH1 0x15 DUP5 LT ISZERO JUMPDEST PUSH2 0x1FBA JUMPI PUSH1 0x40 MLOAD PUSH32 0x8C379A000000000000000000000000000000000000000000000000000000000 DUP2 MSTORE PUSH1 0x4 ADD PUSH2 0x1FB1 SWAP1 PUSH2 0x35EF JUMP JUMPDEST PUSH1 0x40 MLOAD DUP1 SWAP2 SUB SWAP1 REVERT JUMPDEST PUSH1 0x1 DUP1 DUP12 DUP2 SLOAD DUP2 LT PUSH2 0x1FCF JUMPI PUSH2 0x1FCE PUSH2 0x27BC JUMP JUMPDEST JUMPDEST SWAP1 PUSH1 0x0 MSTORE PUSH1 0x20 PUSH1 0x0 KECCAK256 SWAP1 PUSH1 0xE MUL ADD PUSH1 0x7 ADD PUSH1 0x0 PUSH2 0x100 EXP DUP2 SLOAD DUP2 PUSH1 0xFF MUL NOT AND SWAP1 DUP4 ISZERO ISZERO MUL OR SWAP1 SSTORE POP PUSH32 0xC61EF8151923BBD8DC5F723BA25F26BB805EF4F9A52C5811DF7242872EDD2E0B DUP11 PUSH1 0x40 MLOAD PUSH2 0x2026 SWAP2 SWAP1 PUSH2 0x20B7 JUMP JUMPDEST PUSH1 0x40 MLOAD DUP1 SWAP2 SUB SWAP1 LOG1 POP POP POP POP POP POP POP POP POP POP JUMP JUMPDEST PUSH1 0x40 MLOAD DUP1 PUSH1 0xC0 ADD PUSH1 0x40 MSTORE DUP1 PUSH1 0x0 DUP2 MSTORE PUSH1 0x20 ADD PUSH1 0x60 DUP2 MSTORE PUSH1 0x20 ADD PUSH1 0x0 DUP2 MSTORE PUSH1 0x20 ADD PUSH1 0x0 DUP2 MSTORE PUSH1 0x20 ADD PUSH2 0x2069 PUSH2 0x207C JUMP JUMPDEST DUP2 MSTORE PUSH1 0x20 ADD PUSH2 0x2076 PUSH2 0x207C JUMP JUMPDEST DUP2 MSTORE POP SWAP1 JUMP JUMPDEST PUSH1 0x40 MLOAD DUP1 PUSH1 0x80 ADD PUSH1 0x40 MSTORE DUP1 PUSH1 0x4 SWAP1 PUSH1 0x20 DUP3 MUL DUP1 CALLDATASIZE DUP4 CALLDATACOPY DUP1 DUP3 ADD SWAP2 POP POP SWAP1 POP POP SWAP1 JUMP JUMPDEST PUSH1 0x0 DUP2 SWAP1 POP SWAP2 SWAP1 POP JUMP JUMPDEST PUSH2 0x20B1 DUP2 PUSH2 0x209E JUMP JUMPDEST DUP3 MSTORE POP POP JUMP JUMPDEST PUSH1 0x0 PUSH1 0x20 DUP3 ADD SWAP1 POP PUSH2 0x20CC PUSH1 0x0 DUP4 ADD DUP5 PUSH2 0x20A8 JUMP JUMPDEST SWAP3 SWAP2 POP POP JUMP JUMPDEST PUSH1 0x0 PUSH1 0x40 MLOAD SWAP1 POP SWAP1 JUMP JUMPDEST PUSH1 0x0 DUP1 REVERT JUMPDEST PUSH1 0x0 DUP1 REVERT JUMPDEST PUSH2 0x20EF DUP2 PUSH2 0x209E JUMP JUMPDEST DUP2 EQ PUSH2 0x20FA JUMPI PUSH1 0x0 DUP1 REVERT JUMPDEST POP JUMP JUMPDEST PUSH1 0x0 DUP2 CALLDATALOAD SWAP1 POP PUSH2 0x210C DUP2 PUSH2 0x20E6 JUMP JUMPDEST SWAP3 SWAP2 POP POP JUMP JUMPDEST PUSH1 0x0 PUSH1 0x20 DUP3 DUP5 SUB SLT ISZERO PUSH2 0x2128 JUMPI PUSH2 0x2127 PUSH2 0x20DC JUMP JUMPDEST JUMPDEST PUSH1 0x0 PUSH2 0x2136 DUP5 DUP3 DUP6 ADD PUSH2 0x20FD JUMP JUMPDEST SWAP2 POP POP SWAP3 SWAP2 POP POP JUMP JUMPDEST PUSH1 0x0 DUP2 MLOAD SWAP1 POP SWAP2 SWAP1 POP JUMP JUMPDEST PUSH1 0x0 DUP3 DUP3 MSTORE PUSH1 0x20 DUP3 ADD SWAP1 POP SWAP3 SWAP2 POP POP JUMP JUMPDEST PUSH1 0x0 DUP2 SWAP1 POP PUSH1 0x20 DUP3 ADD SWAP1 POP SWAP2 SWAP1 POP JUMP JUMPDEST PUSH2 0x2174 DUP2 PUSH2 0x209E JUMP JUMPDEST DUP3 MSTORE POP POP JUMP JUMPDEST PUSH1 0x0 DUP2 MLOAD SWAP1 POP SWAP2 SWAP1 POP JUMP JUMPDEST PUSH1 0x0 DUP3 DUP3 MSTORE PUSH1 0x20 DUP3 ADD SWAP1 POP SWAP3 SWAP2 POP POP JUMP JUMPDEST PUSH1 0x0 JUMPDEST DUP4 DUP2 LT ISZERO PUSH2 0x21B4 JUMPI DUP1 DUP3 ADD MLOAD DUP2 DUP5 ADD MSTORE PUSH1 0x20 DUP2 ADD SWAP1 POP PUSH2 0x2199 JUMP JUMPDEST PUSH1 0x0 DUP5 DUP5 ADD MSTORE POP POP POP POP JUMP JUMPDEST PUSH1 0x0 PUSH1 0x1F NOT PUSH1 0x1F DUP4 ADD AND SWAP1 POP SWAP2 SWAP1 POP JUMP JUMPDEST PUSH1 0x0 PUSH2 0x21DC DUP3 PUSH2 0x217A JUMP JUMPDEST PUSH2 0x21E6 DUP2 DUP6 PUSH2 0x2185 JUMP JUMPDEST SWAP4 POP PUSH2 0x21F6 DUP2 DUP6 PUSH1 0x20 DUP7 ADD PUSH2 0x2196 JUMP JUMPDEST PUSH2 0x21FF DUP2 PUSH2 0x21C0 JUMP JUMPDEST DUP5 ADD SWAP2 POP POP SWAP3 SWAP2 POP POP JUMP JUMPDEST PUSH1 0x0 PUSH1 0x4 SWAP1 POP SWAP2 SWAP1 POP JUMP JUMPDEST PUSH1 0x0 DUP2 SWAP1 POP SWAP3 SWAP2 POP POP JUMP JUMPDEST PUSH1 0x0 DUP2 SWAP1 POP SWAP2 SWAP1 POP JUMP JUMPDEST PUSH1 0x0 PUSH2 0x2236 DUP4 DUP4 PUSH2 0x216B JUMP JUMPDEST PUSH1 0x20 DUP4 ADD SWAP1 POP SWAP3 SWAP2 POP POP JUMP JUMPDEST PUSH1 0x0 PUSH1 0x20 DUP3 ADD SWAP1 POP SWAP2 SWAP1 POP JUMP JUMPDEST PUSH2 0x2258 DUP2 PUSH2 0x220A JUMP JUMPDEST PUSH2 0x2262 DUP2 DUP5 PUSH2 0x2215 JUMP JUMPDEST SWAP3 POP PUSH2 0x226D DUP3 PUSH2 0x2220 JUMP JUMPDEST DUP1 PUSH1 0x0 JUMPDEST DUP4 DUP2 LT ISZERO PUSH2 0x229E JUMPI DUP2 MLOAD PUSH2 0x2285 DUP8 DUP3 PUSH2 0x222A JUMP JUMPDEST SWAP7 POP PUSH2 0x2290 DUP4 PUSH2 0x2242 JUMP JUMPDEST SWAP3 POP POP PUSH1 0x1 DUP2 ADD SWAP1 POP PUSH2 0x2271 JUMP JUMPDEST POP POP POP POP POP POP JUMP JUMPDEST PUSH1 0x0 PUSH2 0x180 DUP4 ADD PUSH1 0x0 DUP4 ADD MLOAD PUSH2 0x22BF PUSH1 0x0 DUP7 ADD DUP3 PUSH2 0x216B JUMP JUMPDEST POP PUSH1 0x20 DUP4 ADD MLOAD DUP5 DUP3 SUB PUSH1 0x20 DUP7 ADD MSTORE PUSH2 0x22D7 DUP3 DUP3 PUSH2 0x21D1 JUMP JUMPDEST SWAP2 POP POP PUSH1 0x40 DUP4 ADD MLOAD PUSH2 0x22EC PUSH1 0x40 DUP7 ADD DUP3 PUSH2 0x216B JUMP JUMPDEST POP PUSH1 0x60 DUP4 ADD MLOAD PUSH2 0x22FF PUSH1 0x60 DUP7 ADD DUP3 PUSH2 0x216B JUMP JUMPDEST POP PUSH1 0x80 DUP4 ADD MLOAD PUSH2 0x2312 PUSH1 0x80 DUP7 ADD DUP3 PUSH2 0x224F JUMP JUMPDEST POP PUSH1 0xA0 DUP4 ADD MLOAD PUSH2 0x2326 PUSH2 0x100 DUP7 ADD DUP3 PUSH2 0x224F JUMP JUMPDEST POP DUP1 SWAP2 POP POP SWAP3 SWAP2 POP POP JUMP JUMPDEST PUSH1 0x0 PUSH2 0x233D DUP4 DUP4 PUSH2 0x22A6 JUMP JUMPDEST SWAP1 POP SWAP3 SWAP2 POP POP JUMP JUMPDEST PUSH1 0x0 PUSH1 0x20 DUP3 ADD SWAP1 POP SWAP2 SWAP1 POP JUMP JUMPDEST PUSH1 0x0 PUSH2 0x235D DUP3 PUSH2 0x213F JUMP JUMPDEST PUSH2 0x2367 DUP2 DUP6 PUSH2 0x214A JUMP JUMPDEST SWAP4 POP DUP4 PUSH1 0x20 DUP3 MUL DUP6 ADD PUSH2 0x2379 DUP6 PUSH2 0x215B JUMP JUMPDEST DUP1 PUSH1 0x0 JUMPDEST DUP6 DUP2 LT ISZERO PUSH2 0x23B5 JUMPI DUP5 DUP5 SUB DUP10 MSTORE DUP2 MLOAD PUSH2 0x2396 DUP6 DUP3 PUSH2 0x2331 JUMP JUMPDEST SWAP5 POP PUSH2 0x23A1 DUP4 PUSH2 0x2345 JUMP JUMPDEST SWAP3 POP PUSH1 0x20 DUP11 ADD SWAP10 POP POP PUSH1 0x1 DUP2 ADD SWAP1 POP PUSH2 0x237D JUMP JUMPDEST POP DUP3 SWAP8 POP DUP8 SWAP6 POP POP POP POP POP POP SWAP3 SWAP2 POP POP JUMP JUMPDEST PUSH1 0x0 PUSH1 0x20 DUP3 ADD SWAP1 POP DUP2 DUP2 SUB PUSH1 0x0 DUP4 ADD MSTORE PUSH2 0x23E1 DUP2 DUP5 PUSH2 0x2352 JUMP JUMPDEST SWAP1 POP SWAP3 SWAP2 POP POP JUMP JUMPDEST PUSH1 0x0 DUP1 REVERT JUMPDEST PUSH1 0x0 DUP1 REVERT JUMPDEST PUSH32 0x4E487B7100000000000000000000000000000000000000000000000000000000 PUSH1 0x0 MSTORE PUSH1 0x41 PUSH1 0x4 MSTORE PUSH1 0x24 PUSH1 0x0 REVERT JUMPDEST PUSH2 0x242B DUP3 PUSH2 0x21C0 JUMP JUMPDEST DUP2 ADD DUP2 DUP2 LT PUSH8 0xFFFFFFFFFFFFFFFF DUP3 GT OR ISZERO PUSH2 0x244A JUMPI PUSH2 0x2449 PUSH2 0x23F3 JUMP JUMPDEST JUMPDEST DUP1 PUSH1 0x40 MSTORE POP POP POP JUMP JUMPDEST PUSH1 0x0 PUSH2 0x245D PUSH2 0x20D2 JUMP JUMPDEST SWAP1 POP PUSH2 0x2469 DUP3 DUP3 PUSH2 0x2422 JUMP JUMPDEST SWAP2 SWAP1 POP JUMP JUMPDEST PUSH1 0x0 PUSH8 0xFFFFFFFFFFFFFFFF DUP3 GT ISZERO PUSH2 0x2489 JUMPI PUSH2 0x2488 PUSH2 0x23F3 JUMP JUMPDEST JUMPDEST PUSH2 0x2492 DUP3 PUSH2 0x21C0 JUMP JUMPDEST SWAP1 POP PUSH1 0x20 DUP2 ADD SWAP1 POP SWAP2 SWAP1 POP JUMP JUMPDEST DUP3 DUP2 DUP4 CALLDATACOPY PUSH1 0x0 DUP4 DUP4 ADD MSTORE POP POP POP JUMP JUMPDEST PUSH1 0x0 PUSH2 0x24C1 PUSH2 0x24BC DUP5 PUSH2 0x246E JUMP JUMPDEST PUSH2 0x2453 JUMP JUMPDEST SWAP1 POP DUP3 DUP2 MSTORE PUSH1 0x20 DUP2 ADD DUP5 DUP5 DUP5 ADD GT ISZERO PUSH2 0x24DD JUMPI PUSH2 0x24DC PUSH2 0x23EE JUMP JUMPDEST JUMPDEST PUSH2 0x24E8 DUP5 DUP3 DUP6 PUSH2 0x249F JUMP JUMPDEST POP SWAP4 SWAP3 POP POP POP JUMP JUMPDEST PUSH1 0x0 DUP3 PUSH1 0x1F DUP4 ADD SLT PUSH2 0x2505 JUMPI PUSH2 0x2504 PUSH2 0x23E9 JUMP JUMPDEST JUMPDEST DUP2 CALLDATALOAD PUSH2 0x2515 DUP5 DUP3 PUSH1 0x20 DUP7 ADD PUSH2 0x24AE JUMP JUMPDEST SWAP2 POP POP SWAP3 SWAP2 POP POP JUMP JUMPDEST PUSH1 0x0 DUP1 PUSH1 0x0 PUSH1 0x60 DUP5 DUP7 SUB SLT ISZERO PUSH2 0x2537 JUMPI PUSH2 0x2536 PUSH2 0x20DC JUMP JUMPDEST JUMPDEST PUSH1 0x0 DUP5 ADD CALLDATALOAD PUSH8 0xFFFFFFFFFFFFFFFF DUP2 GT ISZERO PUSH2 0x2555 JUMPI PUSH2 0x2554 PUSH2 0x20E1 JUMP JUMPDEST JUMPDEST PUSH2 0x2561 DUP7 DUP3 DUP8 ADD PUSH2 0x24F0 JUMP JUMPDEST SWAP4 POP POP PUSH1 0x20 PUSH2 0x2572 DUP7 DUP3 DUP8 ADD PUSH2 0x20FD JUMP JUMPDEST SWAP3 POP POP PUSH1 0x40 PUSH2 0x2583 DUP7 DUP3 DUP8 ADD PUSH2 0x20FD JUMP JUMPDEST SWAP2 POP POP SWAP3 POP SWAP3 POP SWAP3 JUMP JUMPDEST PUSH1 0x0 PUSH20 0xFFFFFFFFFFFFFFFFFFFFFFFFFFFFFFFFFFFFFFFF DUP3 AND SWAP1 POP SWAP2 SWAP1 POP JUMP JUMPDEST PUSH1 0x0 PUSH2 0x25B8 DUP3 PUSH2 0x258D JUMP JUMPDEST SWAP1 POP SWAP2 SWAP1 POP JUMP JUMPDEST PUSH2 0x25C8 DUP2 PUSH2 0x25AD JUMP JUMPDEST DUP3 MSTORE POP POP JUMP JUMPDEST PUSH1 0x0 DUP3 DUP3 MSTORE PUSH1 0x20 DUP3 ADD SWAP1 POP SWAP3 SWAP2 POP POP JUMP JUMPDEST PUSH1 0x0 PUSH2 0x25EA DUP3 PUSH2 0x217A JUMP JUMPDEST PUSH2 0x25F4 DUP2 DUP6 PUSH2 0x25CE JUMP JUMPDEST SWAP4 POP PUSH2 0x2604 DUP2 DUP6 PUSH1 0x20 DUP7 ADD PUSH2 0x2196 JUMP JUMPDEST PUSH2 0x260D DUP2 PUSH2 0x21C0 JUMP JUMPDEST DUP5 ADD SWAP2 POP POP SWAP3 SWAP2 POP POP JUMP JUMPDEST PUSH1 0x0 DUP2 ISZERO ISZERO SWAP1 POP SWAP2 SWAP1 POP JUMP JUMPDEST PUSH2 0x262D DUP2 PUSH2 0x2618 JUMP JUMPDEST DUP3 MSTORE POP POP JUMP JUMPDEST PUSH1 0x0 PUSH2 0x140 DUP3 ADD SWAP1 POP PUSH2 0x2649 PUSH1 0x0 DUP4 ADD DUP14 PUSH2 0x25BF JUMP JUMPDEST DUP2 DUP2 SUB PUSH1 0x20 DUP4 ADD MSTORE PUSH2 0x265B DUP2 DUP13 PUSH2 0x25DF JUMP JUMPDEST SWAP1 POP PUSH2 0x266A PUSH1 0x40 DUP4 ADD DUP12 PUSH2 0x20A8 JUMP JUMPDEST PUSH2 0x2677 PUSH1 0x60 DUP4 ADD DUP11 PUSH2 0x20A8 JUMP JUMPDEST PUSH2 0x2684 PUSH1 0x80 DUP4 ADD DUP10 PUSH2 0x20A8 JUMP JUMPDEST PUSH2 0x2691 PUSH1 0xA0 DUP4 ADD DUP9 PUSH2 0x20A8 JUMP JUMPDEST PUSH2 0x269E PUSH1 0xC0 DUP4 ADD DUP8 PUSH2 0x20A8 JUMP JUMPDEST PUSH2 0x26AB PUSH1 0xE0 DUP4 ADD DUP7 PUSH2 0x2624 JUMP JUMPDEST PUSH2 0x26B9 PUSH2 0x100 DUP4 ADD DUP6 PUSH2 0x20A8 JUMP JUMPDEST PUSH2 0x26C7 PUSH2 0x120 DUP4 ADD DUP5 PUSH2 0x20A8 JUMP JUMPDEST SWAP12 SWAP11 POP POP POP POP POP POP POP POP POP POP POP JUMP JUMPDEST PUSH1 0x0 DUP2 SWAP1 POP SWAP2 SWAP1 POP JUMP JUMPDEST PUSH1 0x0 PUSH2 0x26FB PUSH2 0x26F6 PUSH2 0x26F1 DUP5 PUSH2 0x258D JUMP JUMPDEST PUSH2 0x26D6 JUMP JUMPDEST PUSH2 0x258D JUMP JUMPDEST SWAP1 POP SWAP2 SWAP1 POP JUMP JUMPDEST PUSH1 0x0 PUSH2 0x270D DUP3 PUSH2 0x26E0 JUMP JUMPDEST SWAP1 POP SWAP2 SWAP1 POP JUMP JUMPDEST PUSH1 0x0 PUSH2 0x271F DUP3 PUSH2 0x2702 JUMP JUMPDEST SWAP1 POP SWAP2 SWAP1 POP JUMP JUMPDEST PUSH2 0x272F DUP2 PUSH2 0x2714 JUMP JUMPDEST DUP3 MSTORE POP POP JUMP JUMPDEST PUSH1 0x0 PUSH1 0x20 DUP3 ADD SWAP1 POP PUSH2 0x274A PUSH1 0x0 DUP4 ADD DUP5 PUSH2 0x2726 JUMP JUMPDEST SWAP3 SWAP2 POP POP JUMP JUMPDEST PUSH32 0x496E76616C6964206368616C6C656E6765204944000000000000000000000000 PUSH1 0x0 DUP3 ADD MSTORE POP JUMP JUMPDEST PUSH1 0x0 PUSH2 0x2786 PUSH1 0x14 DUP4 PUSH2 0x25CE JUMP JUMPDEST SWAP2 POP PUSH2 0x2791 DUP3 PUSH2 0x2750 JUMP JUMPDEST PUSH1 0x20 DUP3 ADD SWAP1 POP SWAP2 SWAP1 POP JUMP JUMPDEST PUSH1 0x0 PUSH1 0x20 DUP3 ADD SWAP1 POP DUP2 DUP2 SUB PUSH1 0x0 DUP4 ADD MSTORE PUSH2 0x27B5 DUP2 PUSH2 0x2779 JUMP JUMPDEST SWAP1 POP SWAP2 SWAP1 POP JUMP JUMPDEST PUSH32 0x4E487B7100000000000000000000000000000000000000000000000000000000 PUSH1 0x0 MSTORE PUSH1 0x32 PUSH1 0x4 MSTORE PUSH1 0x24 PUSH1 0x0 REVERT JUMPDEST PUSH32 0x4368616C6C656E67652069736E277420636F6D706C65746564207965742E0000 PUSH1 0x0 DUP3 ADD MSTORE POP JUMP JUMPDEST PUSH1 0x0 PUSH2 0x2821 PUSH1 0x1E DUP4 PUSH2 0x25CE JUMP JUMPDEST SWAP2 POP PUSH2 0x282C DUP3 PUSH2 0x27EB JUMP JUMPDEST PUSH1 0x20 DUP3 ADD SWAP1 POP SWAP2 SWAP1 POP JUMP JUMPDEST PUSH1 0x0 PUSH1 0x20 DUP3 ADD SWAP1 POP DUP2 DUP2 SUB PUSH1 0x0 DUP4 ADD MSTORE PUSH2 0x2850 DUP2 PUSH2 0x2814 JUMP JUMPDEST SWAP1 POP SWAP2 SWAP1 POP JUMP JUMPDEST PUSH32 0x596F75277265206E6F742061207061727469636970616E74206F662074686973 PUSH1 0x0 DUP3 ADD MSTORE PUSH32 0x206368616C6C656E67652E000000000000000000000000000000000000000000 PUSH1 0x20 DUP3 ADD MSTORE POP JUMP JUMPDEST PUSH1 0x0 PUSH2 0x28B3 PUSH1 0x2B DUP4 PUSH2 0x25CE JUMP JUMPDEST SWAP2 POP PUSH2 0x28BE DUP3 PUSH2 0x2857 JUMP JUMPDEST PUSH1 0x40 DUP3 ADD SWAP1 POP SWAP2 SWAP1 POP JUMP JUMPDEST PUSH1 0x0 PUSH1 0x20 DUP3 ADD SWAP1 POP DUP2 DUP2 SUB PUSH1 0x0 DUP4 ADD MSTORE PUSH2 0x28E2 DUP2 PUSH2 0x28A6 JUMP JUMPDEST SWAP1 POP SWAP2 SWAP1 POP JUMP JUMPDEST PUSH32 0x416C726561647920636C61696D65640000000000000000000000000000000000 PUSH1 0x0 DUP3 ADD MSTORE POP JUMP JUMPDEST PUSH1 0x0 PUSH2 0x291F PUSH1 0xF DUP4 PUSH2 0x25CE JUMP JUMPDEST SWAP2 POP PUSH2 0x292A DUP3 PUSH2 0x28E9 JUMP JUMPDEST PUSH1 0x20 DUP3 ADD SWAP1 POP SWAP2 SWAP1 POP JUMP JUMPDEST PUSH1 0x0 PUSH1 0x20 DUP3 ADD SWAP1 POP DUP2 DUP2 SUB PUSH1 0x0 DUP4 ADD MSTORE PUSH2 0x294E DUP2 PUSH2 0x2912 JUMP JUMPDEST SWAP1 POP SWAP2 SWAP1 POP JUMP JUMPDEST PUSH32 0x596F75206469646E27742077696E2074686973206368616C6C656E67652E0000 PUSH1 0x0 DUP3 ADD MSTORE POP JUMP JUMPDEST PUSH1 0x0 PUSH2 0x298B PUSH1 0x1E DUP4 PUSH2 0x25CE JUMP JUMPDEST SWAP2 POP PUSH2 0x2996 DUP3 PUSH2 0x2955 JUMP JUMPDEST PUSH1 0x20 DUP3 ADD SWAP1 POP SWAP2 SWAP1 POP JUMP JUMPDEST PUSH1 0x0 PUSH1 0x20 DUP3 ADD SWAP1 POP DUP2 DUP2 SUB PUSH1 0x0 DUP4 ADD MSTORE PUSH2 0x29BA DUP2 PUSH2 0x297E JUMP JUMPDEST SWAP1 POP SWAP2 SWAP1 POP JUMP JUMPDEST PUSH32 0x4E487B7100000000000000000000000000000000000000000000000000000000 PUSH1 0x0 MSTORE PUSH1 0x12 PUSH1 0x4 MSTORE PUSH1 0x24 PUSH1 0x0 REVERT JUMPDEST PUSH32 0x4E487B7100000000000000000000000000000000000000000000000000000000 PUSH1 0x0 MSTORE PUSH1 0x11 PUSH1 0x4 MSTORE PUSH1 0x24 PUSH1 0x0 REVERT JUMPDEST PUSH1 0x0 PUSH2 0x2A2A DUP3 PUSH2 0x209E JUMP JUMPDEST SWAP2 POP PUSH2 0x2A35 DUP4 PUSH2 0x209E JUMP JUMPDEST SWAP3 POP DUP3 PUSH2 0x2A45 JUMPI PUSH2 0x2A44 PUSH2 0x29C1 JUMP JUMPDEST JUMPDEST DUP3 DUP3 DIV SWAP1 POP SWAP3 SWAP2 POP POP JUMP JUMPDEST PUSH1 0x0 PUSH1 0x40 DUP3 ADD SWAP1 POP PUSH2 0x2A65 PUSH1 0x0 DUP4 ADD DUP6 PUSH2 0x25BF JUMP JUMPDEST PUSH2 0x2A72 PUSH1 0x20 DUP4 ADD DUP5 PUSH2 0x20A8 JUMP JUMPDEST SWAP4 SWAP3 POP POP POP JUMP JUMPDEST PUSH2 0x2A82 DUP2 PUSH2 0x2618 JUMP JUMPDEST DUP2 EQ PUSH2 0x2A8D JUMPI PUSH1 0x0 DUP1 REVERT JUMPDEST POP JUMP JUMPDEST PUSH1 0x0 DUP2 MLOAD SWAP1 POP PUSH2 0x2A9F DUP2 PUSH2 0x2A79 JUMP JUMPDEST SWAP3 SWAP2 POP POP JUMP JUMPDEST PUSH1 0x0 PUSH1 0x20 DUP3 DUP5 SUB SLT ISZERO PUSH2 0x2ABB JUMPI PUSH2 0x2ABA PUSH2 0x20DC JUMP JUMPDEST JUMPDEST PUSH1 0x0 PUSH2 0x2AC9 DUP5 DUP3 DUP6 ADD PUSH2 0x2A90 JUMP JUMPDEST SWAP2 POP POP SWAP3 SWAP2 POP POP JUMP JUMPDEST PUSH32 0x52657761726420636C61696D206661696C65642E000000000000000000000000 PUSH1 0x0 DUP3 ADD MSTORE POP JUMP JUMPDEST PUSH1 0x0 PUSH2 0x2B08 PUSH1 0x14 DUP4 PUSH2 0x25CE JUMP JUMPDEST SWAP2 POP PUSH2 0x2B13 DUP3 PUSH2 0x2AD2 JUMP JUMPDEST PUSH1 0x20 DUP3 ADD SWAP1 POP SWAP2 SWAP1 POP JUMP JUMPDEST PUSH1 0x0 PUSH1 0x20 DUP3 ADD SWAP1 POP DUP2 DUP2 SUB PUSH1 0x0 DUP4 ADD MSTORE PUSH2 0x2B37 DUP2 PUSH2 0x2AFB JUMP JUMPDEST SWAP1 POP SWAP2 SWAP1 POP JUMP JUMPDEST PUSH1 0x0 PUSH1 0x40 DUP3 ADD SWAP1 POP PUSH2 0x2B53 PUSH1 0x0 DUP4 ADD DUP6 PUSH2 0x20A8 JUMP JUMPDEST PUSH2 0x2B60 PUSH1 0x20 DUP4 ADD DUP5 PUSH2 0x25BF JUMP JUMPDEST SWAP4 SWAP3 POP POP POP JUMP JUMPDEST PUSH1 0x0 PUSH2 0x2B72 DUP3 PUSH2 0x209E JUMP JUMPDEST SWAP2 POP PUSH32 0xFFFFFFFFFFFFFFFFFFFFFFFFFFFFFFFFFFFFFFFFFFFFFFFFFFFFFFFFFFFFFFFF DUP3 SUB PUSH2 0x2BA4 JUMPI PUSH2 0x2BA3 PUSH2 0x29F0 JUMP JUMPDEST JUMPDEST PUSH1 0x1 DUP3 ADD SWAP1 POP SWAP2 SWAP1 POP JUMP JUMPDEST PUSH1 0x0 PUSH2 0x2BBA DUP3 PUSH2 0x209E JUMP JUMPDEST SWAP2 POP PUSH2 0x2BC5 DUP4 PUSH2 0x209E JUMP JUMPDEST SWAP3 POP DUP3 DUP3 ADD SWAP1 POP DUP1 DUP3 GT ISZERO PUSH2 0x2BDD JUMPI PUSH2 0x2BDC PUSH2 0x29F0 JUMP JUMPDEST JUMPDEST SWAP3 SWAP2 POP POP JUMP JUMPDEST PUSH32 0x4E487B7100000000000000000000000000000000000000000000000000000000 PUSH1 0x0 MSTORE PUSH1 0x22 PUSH1 0x4 MSTORE PUSH1 0x24 PUSH1 0x0 REVERT JUMPDEST PUSH1 0x0 PUSH1 0x2 DUP3 DIV SWAP1 POP PUSH1 0x1 DUP3 AND DUP1 PUSH2 0x2C2A JUMPI PUSH1 0x7F DUP3 AND SWAP2 POP JUMPDEST PUSH1 0x20 DUP3 LT DUP2 SUB PUSH2 0x2C3D JUMPI PUSH2 0x2C3C PUSH2 0x2BE3 JUMP JUMPDEST JUMPDEST POP SWAP2 SWAP1 POP JUMP JUMPDEST PUSH32 0x456E74727920616D6F756E742073686F756C6420626520677265617465722074 PUSH1 0x0 DUP3 ADD MSTORE PUSH32 0x68616E2030000000000000000000000000000000000000000000000000000000 PUSH1 0x20 DUP3 ADD MSTORE POP JUMP JUMPDEST PUSH1 0x0 PUSH2 0x2C9F PUSH1 0x25 DUP4 PUSH2 0x25CE JUMP JUMPDEST SWAP2 POP PUSH2 0x2CAA DUP3 PUSH2 0x2C43 JUMP JUMPDEST PUSH1 0x40 DUP3 ADD SWAP1 POP SWAP2 SWAP1 POP JUMP JUMPDEST PUSH1 0x0 PUSH1 0x20 DUP3 ADD SWAP1 POP DUP2 DUP2 SUB PUSH1 0x0 DUP4 ADD MSTORE PUSH2 0x2CCE DUP2 PUSH2 0x2C92 JUMP JUMPDEST SWAP1 POP SWAP2 SWAP1 POP JUMP JUMPDEST PUSH32 0x4661696C656420746F20617070726F766520746F6B656E7320666F7220747261 PUSH1 0x0 DUP3 ADD MSTORE PUSH32 0x6E73666572000000000000000000000000000000000000000000000000000000 PUSH1 0x20 DUP3 ADD MSTORE POP JUMP JUMPDEST PUSH1 0x0 PUSH2 0x2D31 PUSH1 0x25 DUP4 PUSH2 0x25CE JUMP JUMPDEST SWAP2 POP PUSH2 0x2D3C DUP3 PUSH2 0x2CD5 JUMP JUMPDEST PUSH1 0x40 DUP3 ADD SWAP1 POP SWAP2 SWAP1 POP JUMP JUMPDEST PUSH1 0x0 PUSH1 0x20 DUP3 ADD SWAP1 POP DUP2 DUP2 SUB PUSH1 0x0 DUP4 ADD MSTORE PUSH2 0x2D60 DUP2 PUSH2 0x2D24 JUMP JUMPDEST SWAP1 POP SWAP2 SWAP1 POP JUMP JUMPDEST PUSH1 0x0 PUSH1 0x60 DUP3 ADD SWAP1 POP PUSH2 0x2D7C PUSH1 0x0 DUP4 ADD DUP7 PUSH2 0x25BF JUMP JUMPDEST PUSH2 0x2D89 PUSH1 0x20 DUP4 ADD DUP6 PUSH2 0x25BF JUMP JUMPDEST PUSH2 0x2D96 PUSH1 0x40 DUP4 ADD DUP5 PUSH2 0x20A8 JUMP JUMPDEST SWAP5 SWAP4 POP POP POP POP JUMP JUMPDEST PUSH32 0x4661696C656420746F207472616E7366657220746F6B656E7300000000000000 PUSH1 0x0 DUP3 ADD MSTORE POP JUMP JUMPDEST PUSH1 0x0 PUSH2 0x2DD4 PUSH1 0x19 DUP4 PUSH2 0x25CE JUMP JUMPDEST SWAP2 POP PUSH2 0x2DDF DUP3 PUSH2 0x2D9E JUMP JUMPDEST PUSH1 0x20 DUP3 ADD SWAP1 POP SWAP2 SWAP1 POP JUMP JUMPDEST PUSH1 0x0 PUSH1 0x20 DUP3 ADD SWAP1 POP DUP2 DUP2 SUB PUSH1 0x0 DUP4 ADD MSTORE PUSH2 0x2E03 DUP2 PUSH2 0x2DC7 JUMP JUMPDEST SWAP1 POP SWAP2 SWAP1 POP JUMP JUMPDEST PUSH1 0x0 PUSH2 0x2E15 DUP3 PUSH2 0x209E JUMP JUMPDEST SWAP2 POP PUSH2 0x2E20 DUP4 PUSH2 0x209E JUMP JUMPDEST SWAP3 POP DUP3 DUP3 SUB SWAP1 POP DUP2 DUP2 GT ISZERO PUSH2 0x2E38 JUMPI PUSH2 0x2E37 PUSH2 0x29F0 JUMP JUMPDEST JUMPDEST SWAP3 SWAP2 POP POP JUMP JUMPDEST PUSH1 0x0 DUP2 SWAP1 POP DUP2 PUSH1 0x0 MSTORE PUSH1 0x20 PUSH1 0x0 KECCAK256 SWAP1 POP SWAP2 SWAP1 POP JUMP JUMPDEST PUSH1 0x0 PUSH1 0x20 PUSH1 0x1F DUP4 ADD DIV SWAP1 POP SWAP2 SWAP1 POP JUMP JUMPDEST PUSH1 0x0 DUP3 DUP3 SHL SWAP1 POP SWAP3 SWAP2 POP POP JUMP JUMPDEST PUSH1 0x0 PUSH1 0x8 DUP4 MUL PUSH2 0x2EA0 PUSH32 0xFFFFFFFFFFFFFFFFFFFFFFFFFFFFFFFFFFFFFFFFFFFFFFFFFFFFFFFFFFFFFFFF DUP3 PUSH2 0x2E63 JUMP JUMPDEST PUSH2 0x2EAA DUP7 DUP4 PUSH2 0x2E63 JUMP JUMPDEST SWAP6 POP DUP1 NOT DUP5 AND SWAP4 POP DUP1 DUP7 AND DUP5 OR SWAP3 POP POP POP SWAP4 SWAP3 POP POP POP JUMP JUMPDEST PUSH1 0x0 PUSH2 0x2EDD PUSH2 0x2ED8 PUSH2 0x2ED3 DUP5 PUSH2 0x209E JUMP JUMPDEST PUSH2 0x26D6 JUMP JUMPDEST PUSH2 0x209E JUMP JUMPDEST SWAP1 POP SWAP2 SWAP1 POP JUMP JUMPDEST PUSH1 0x0 DUP2 SWAP1 POP SWAP2 SWAP1 POP JUMP JUMPDEST PUSH2 0x2EF7 DUP4 PUSH2 0x2EC2 JUMP JUMPDEST PUSH2 0x2F0B PUSH2 0x2F03 DUP3 PUSH2 0x2EE4 JUMP JUMPDEST DUP5 DUP5 SLOAD PUSH2 0x2E70 JUMP JUMPDEST DUP3 SSTORE POP POP POP POP JUMP JUMPDEST PUSH1 0x0 SWAP1 JUMP JUMPDEST PUSH2 0x2F20 PUSH2 0x2F13 JUMP JUMPDEST PUSH2 0x2F2B DUP2 DUP5 DUP5 PUSH2 0x2EEE JUMP JUMPDEST POP POP POP JUMP JUMPDEST JUMPDEST DUP2 DUP2 LT ISZERO PUSH2 0x2F4F JUMPI PUSH2 0x2F44 PUSH1 0x0 DUP3 PUSH2 0x2F18 JUMP JUMPDEST PUSH1 0x1 DUP2 ADD SWAP1 POP PUSH2 0x2F31 JUMP JUMPDEST POP POP JUMP JUMPDEST PUSH1 0x1F DUP3 GT ISZERO PUSH2 0x2F94 JUMPI PUSH2 0x2F65 DUP2 PUSH2 0x2E3E JUMP JUMPDEST PUSH2 0x2F6E DUP5 PUSH2 0x2E53 JUMP JUMPDEST DUP2 ADD PUSH1 0x20 DUP6 LT ISZERO PUSH2 0x2F7D JUMPI DUP2 SWAP1 POP JUMPDEST PUSH2 0x2F91 PUSH2 0x2F89 DUP6 PUSH2 0x2E53 JUMP JUMPDEST DUP4 ADD DUP3 PUSH2 0x2F30 JUMP JUMPDEST POP POP JUMPDEST POP POP POP JUMP JUMPDEST PUSH1 0x0 DUP3 DUP3 SHR SWAP1 POP SWAP3 SWAP2 POP POP JUMP JUMPDEST PUSH1 0x0 PUSH2 0x2FB7 PUSH1 0x0 NOT DUP5 PUSH1 0x8 MUL PUSH2 0x2F99 JUMP JUMPDEST NOT DUP1 DUP4 AND SWAP2 POP POP SWAP3 SWAP2 POP POP JUMP JUMPDEST PUSH1 0x0 PUSH2 0x2FD0 DUP4 DUP4 PUSH2 0x2FA6 JUMP JUMPDEST SWAP2 POP DUP3 PUSH1 0x2 MUL DUP3 OR SWAP1 POP SWAP3 SWAP2 POP POP JUMP JUMPDEST PUSH2 0x2FE9 DUP3 PUSH2 0x217A JUMP JUMPDEST PUSH8 0xFFFFFFFFFFFFFFFF DUP2 GT ISZERO PUSH2 0x3002 JUMPI PUSH2 0x3001 PUSH2 0x23F3 JUMP JUMPDEST JUMPDEST PUSH2 0x300C DUP3 SLOAD PUSH2 0x2C12 JUMP JUMPDEST PUSH2 0x3017 DUP3 DUP3 DUP6 PUSH2 0x2F53 JUMP JUMPDEST PUSH1 0x0 PUSH1 0x20 SWAP1 POP PUSH1 0x1F DUP4 GT PUSH1 0x1 DUP2 EQ PUSH2 0x304A JUMPI PUSH1 0x0 DUP5 ISZERO PUSH2 0x3038 JUMPI DUP3 DUP8 ADD MLOAD SWAP1 POP JUMPDEST PUSH2 0x3042 DUP6 DUP3 PUSH2 0x2FC4 JUMP JUMPDEST DUP7 SSTORE POP PUSH2 0x30AA JUMP JUMPDEST PUSH1 0x1F NOT DUP5 AND PUSH2 0x3058 DUP7 PUSH2 0x2E3E JUMP JUMPDEST PUSH1 0x0 JUMPDEST DUP3 DUP2 LT ISZERO PUSH2 0x3080 JUMPI DUP5 DUP10 ADD MLOAD DUP3 SSTORE PUSH1 0x1 DUP3 ADD SWAP2 POP PUSH1 0x20 DUP6 ADD SWAP5 POP PUSH1 0x20 DUP2 ADD SWAP1 POP PUSH2 0x305B JUMP JUMPDEST DUP7 DUP4 LT ISZERO PUSH2 0x309D JUMPI DUP5 DUP10 ADD MLOAD PUSH2 0x3099 PUSH1 0x1F DUP10 AND DUP3 PUSH2 0x2FA6 JUMP JUMPDEST DUP4 SSTORE POP JUMPDEST PUSH1 0x1 PUSH1 0x2 DUP9 MUL ADD DUP9 SSTORE POP POP POP JUMPDEST POP POP POP POP POP POP JUMP JUMPDEST PUSH1 0x0 PUSH1 0x80 DUP3 ADD SWAP1 POP PUSH2 0x30C7 PUSH1 0x0 DUP4 ADD DUP8 PUSH2 0x20A8 JUMP JUMPDEST DUP2 DUP2 SUB PUSH1 0x20 DUP4 ADD MSTORE PUSH2 0x30D9 DUP2 DUP7 PUSH2 0x25DF JUMP JUMPDEST SWAP1 POP PUSH2 0x30E8 PUSH1 0x40 DUP4 ADD DUP6 PUSH2 0x20A8 JUMP JUMPDEST PUSH2 0x30F5 PUSH1 0x60 DUP4 ADD DUP5 PUSH2 0x25BF JUMP JUMPDEST SWAP6 SWAP5 POP POP POP POP POP JUMP JUMPDEST PUSH1 0x0 PUSH1 0x40 DUP3 ADD SWAP1 POP PUSH2 0x3113 PUSH1 0x0 DUP4 ADD DUP6 PUSH2 0x20A8 JUMP JUMPDEST PUSH2 0x3120 PUSH1 0x20 DUP4 ADD DUP5 PUSH2 0x20A8 JUMP JUMPDEST SWAP4 SWAP3 POP POP POP JUMP JUMPDEST PUSH32 0x4368616C6C656E676520616C726561647920636F6D706C657465640000000000 PUSH1 0x0 DUP3 ADD MSTORE POP JUMP JUMPDEST PUSH1 0x0 PUSH2 0x315D PUSH1 0x1B DUP4 PUSH2 0x25CE JUMP JUMPDEST SWAP2 POP PUSH2 0x3168 DUP3 PUSH2 0x3127 JUMP JUMPDEST PUSH1 0x20 DUP3 ADD SWAP1 POP SWAP2 SWAP1 POP JUMP JUMPDEST PUSH1 0x0 PUSH1 0x20 DUP3 ADD SWAP1 POP DUP2 DUP2 SUB PUSH1 0x0 DUP4 ADD MSTORE PUSH2 0x318C DUP2 PUSH2 0x3150 JUMP JUMPDEST SWAP1 POP SWAP2 SWAP1 POP JUMP JUMPDEST PUSH32 0x596F7527766520616C726561647920636865636B656420746F6461792E000000 PUSH1 0x0 DUP3 ADD MSTORE POP JUMP JUMPDEST PUSH1 0x0 PUSH2 0x31C9 PUSH1 0x1D DUP4 PUSH2 0x25CE JUMP JUMPDEST SWAP2 POP PUSH2 0x31D4 DUP3 PUSH2 0x3193 JUMP JUMPDEST PUSH1 0x20 DUP3 ADD SWAP1 POP SWAP2 SWAP1 POP JUMP JUMPDEST PUSH1 0x0 PUSH1 0x20 DUP3 ADD SWAP1 POP DUP2 DUP2 SUB PUSH1 0x0 DUP4 ADD MSTORE PUSH2 0x31F8 DUP2 PUSH2 0x31BC JUMP JUMPDEST SWAP1 POP SWAP2 SWAP1 POP JUMP JUMPDEST PUSH32 0x596F75277665206661696C656420746F6461792773206D697373696F6E2E0000 PUSH1 0x0 DUP3 ADD MSTORE POP JUMP JUMPDEST PUSH1 0x0 PUSH2 0x3235 PUSH1 0x1E DUP4 PUSH2 0x25CE JUMP JUMPDEST SWAP2 POP PUSH2 0x3240 DUP3 PUSH2 0x31FF JUMP JUMPDEST PUSH1 0x20 DUP3 ADD SWAP1 POP SWAP2 SWAP1 POP JUMP JUMPDEST PUSH1 0x0 PUSH1 0x20 DUP3 ADD SWAP1 POP DUP2 DUP2 SUB PUSH1 0x0 DUP4 ADD MSTORE PUSH2 0x3264 DUP2 PUSH2 0x3228 JUMP JUMPDEST SWAP1 POP SWAP2 SWAP1 POP JUMP JUMPDEST PUSH32 0x4368616C6C656E6765206475726174696F6E206E6F74206F7665722079657400 PUSH1 0x0 DUP3 ADD MSTORE POP JUMP JUMPDEST PUSH1 0x0 PUSH2 0x32A1 PUSH1 0x1F DUP4 PUSH2 0x25CE JUMP JUMPDEST SWAP2 POP PUSH2 0x32AC DUP3 PUSH2 0x326B JUMP JUMPDEST PUSH1 0x20 DUP3 ADD SWAP1 POP SWAP2 SWAP1 POP JUMP JUMPDEST PUSH1 0x0 PUSH1 0x20 DUP3 ADD SWAP1 POP DUP2 DUP2 SUB PUSH1 0x0 DUP4 ADD MSTORE PUSH2 0x32D0 DUP2 PUSH2 0x3294 JUMP JUMPDEST SWAP1 POP SWAP2 SWAP1 POP JUMP JUMPDEST PUSH32 0x546865206170706C69636174696F6E20706572696F6420686173206578706972 PUSH1 0x0 DUP3 ADD MSTORE PUSH32 0x65642E0000000000000000000000000000000000000000000000000000000000 PUSH1 0x20 DUP3 ADD MSTORE POP JUMP JUMPDEST PUSH1 0x0 PUSH2 0x3333 PUSH1 0x23 DUP4 PUSH2 0x25CE JUMP JUMPDEST SWAP2 POP PUSH2 0x333E DUP3 PUSH2 0x32D7 JUMP JUMPDEST PUSH1 0x40 DUP3 ADD SWAP1 POP SWAP2 SWAP1 POP JUMP JUMPDEST PUSH1 0x0 PUSH1 0x20 DUP3 ADD SWAP1 POP DUP2 DUP2 SUB PUSH1 0x0 DUP4 ADD MSTORE PUSH2 0x3362 DUP2 PUSH2 0x3326 JUMP JUMPDEST SWAP1 POP SWAP2 SWAP1 POP JUMP JUMPDEST PUSH32 0x596F7527766520616C7265616479206A6F696E65642E00000000000000000000 PUSH1 0x0 DUP3 ADD MSTORE POP JUMP JUMPDEST PUSH1 0x0 PUSH2 0x339F PUSH1 0x16 DUP4 PUSH2 0x25CE JUMP JUMPDEST SWAP2 POP PUSH2 0x33AA DUP3 PUSH2 0x3369 JUMP JUMPDEST PUSH1 0x20 DUP3 ADD SWAP1 POP SWAP2 SWAP1 POP JUMP JUMPDEST PUSH1 0x0 PUSH1 0x20 DUP3 ADD SWAP1 POP DUP2 DUP2 SUB PUSH1 0x0 DUP4 ADD MSTORE PUSH2 0x33CE DUP2 PUSH2 0x3392 JUMP JUMPDEST SWAP1 POP SWAP2 SWAP1 POP JUMP JUMPDEST PUSH1 0x0 PUSH1 0x20 DUP3 ADD SWAP1 POP PUSH2 0x33EA PUSH1 0x0 DUP4 ADD DUP5 PUSH2 0x25BF JUMP JUMPDEST SWAP3 SWAP2 POP POP JUMP JUMPDEST PUSH1 0x0 DUP2 MLOAD SWAP1 POP PUSH2 0x33FF DUP2 PUSH2 0x20E6 JUMP JUMPDEST SWAP3 SWAP2 POP POP JUMP JUMPDEST PUSH1 0x0 PUSH1 0x20 DUP3 DUP5 SUB SLT ISZERO PUSH2 0x341B JUMPI PUSH2 0x341A PUSH2 0x20DC JUMP JUMPDEST JUMPDEST PUSH1 0x0 PUSH2 0x3429 DUP5 DUP3 DUP6 ADD PUSH2 0x33F0 JUMP JUMPDEST SWAP2 POP POP SWAP3 SWAP2 POP POP JUMP JUMPDEST PUSH32 0x496E73756666696369656E7420656E74727920616D6F756E7400000000000000 PUSH1 0x0 DUP3 ADD MSTORE POP JUMP JUMPDEST PUSH1 0x0 PUSH2 0x3468 PUSH1 0x19 DUP4 PUSH2 0x25CE JUMP JUMPDEST SWAP2 POP PUSH2 0x3473 DUP3 PUSH2 0x3432 JUMP JUMPDEST PUSH1 0x20 DUP3 ADD SWAP1 POP SWAP2 SWAP1 POP JUMP JUMPDEST PUSH1 0x0 PUSH1 0x20 DUP3 ADD SWAP1 POP DUP2 DUP2 SUB PUSH1 0x0 DUP4 ADD MSTORE PUSH2 0x3497 DUP2 PUSH2 0x345B JUMP JUMPDEST SWAP1 POP SWAP2 SWAP1 POP JUMP JUMPDEST PUSH1 0x0 PUSH2 0x34A9 DUP3 PUSH2 0x209E JUMP JUMPDEST SWAP2 POP PUSH2 0x34B4 DUP4 PUSH2 0x209E JUMP JUMPDEST SWAP3 POP DUP3 PUSH2 0x34C4 JUMPI PUSH2 0x34C3 PUSH2 0x29C1 JUMP JUMPDEST JUMPDEST DUP3 DUP3 MOD SWAP1 POP SWAP3 SWAP2 POP POP JUMP JUMPDEST PUSH1 0x0 PUSH2 0x34DA DUP3 PUSH2 0x209E JUMP JUMPDEST SWAP2 POP PUSH2 0x34E5 DUP4 PUSH2 0x209E JUMP JUMPDEST SWAP3 POP DUP3 DUP3 MUL PUSH2 0x34F3 DUP2 PUSH2 0x209E JUMP JUMPDEST SWAP2 POP DUP3 DUP3 DIV DUP5 EQ DUP4 ISZERO OR PUSH2 0x350A JUMPI PUSH2 0x3509 PUSH2 0x29F0 JUMP JUMPDEST JUMPDEST POP SWAP3 SWAP2 POP POP JUMP JUMPDEST PUSH32 0x4F6E6C7920746865206368616C6C656E67652063726561746F722063616E2063 PUSH1 0x0 DUP3 ADD MSTORE PUSH32 0x6C6F736520697400000000000000000000000000000000000000000000000000 PUSH1 0x20 DUP3 ADD MSTORE POP JUMP JUMPDEST PUSH1 0x0 PUSH2 0x356D PUSH1 0x27 DUP4 PUSH2 0x25CE JUMP JUMPDEST SWAP2 POP PUSH2 0x3578 DUP3 PUSH2 0x3511 JUMP JUMPDEST PUSH1 0x40 DUP3 ADD SWAP1 POP SWAP2 SWAP1 POP JUMP JUMPDEST PUSH1 0x0 PUSH1 0x20 DUP3 ADD SWAP1 POP DUP2 DUP2 SUB PUSH1 0x0 DUP4 ADD MSTORE PUSH2 0x359C DUP2 PUSH2 0x3560 JUMP JUMPDEST SWAP1 POP SWAP2 SWAP1 POP JUMP JUMPDEST PUSH32 0x4368616C6C656E6765206475726174696F6E206E6F74206F766572207965742E PUSH1 0x0 DUP3 ADD MSTORE POP JUMP JUMPDEST PUSH1 0x0 PUSH2 0x35D9 PUSH1 0x20 DUP4 PUSH2 0x25CE JUMP JUMPDEST SWAP2 POP PUSH2 0x35E4 DUP3 PUSH2 0x35A3 JUMP JUMPDEST PUSH1 0x20 DUP3 ADD SWAP1 POP SWAP2 SWAP1 POP JUMP JUMPDEST PUSH1 0x0 PUSH1 0x20 DUP3 ADD SWAP1 POP DUP2 DUP2 SUB PUSH1 0x0 DUP4 ADD MSTORE PUSH2 0x3608 DUP2 PUSH2 0x35CC JUMP JUMPDEST SWAP1 POP SWAP2 SWAP1 POP JUMP INVALID LOG2 PUSH5 0x6970667358 0x22 SLT KECCAK256 0x2A NOT 0xEA SUB 0xB4 0xCB 0xBC PUSH16 0xC92F03B29B1D2983640562964B004D34 0x23 0xD1 0xB3 POP 0x26 0x4C 0xE3 0x5E PUSH5 0x736F6C6343 STOP ADDMOD SGT STOP CALLER "},"methodIdentifiers":{"automaticallyCloseChallenge(uint256)":"b2990c36","challenges(uint256)":"8f1d3776","claimRewards(uint256)":"0962ef79","createChallenge(string,uint256,uint256)":"1aaaac93","getChallengeCount()":"0933f467","getCurrentChallenges()":"18d95b76","joinChallenge(uint256)":"e448ee26","startChallenge()":"e0a7b2c3","token()":"fc0c546a","wakeUpCheck(uint256)":"335eff3e"}}}}}