{"contracts/ChallengeContract.sol":{"ChallengeContract":{"abi":[{"inputs":[{"internalType":"address","name":"_tokenAddress","type":"address"}],"stateMutability":"nonpayable","type":"constructor"},{"anonymous":false,"inputs":[{"indexed":false,"internalType":"uint256","name":"challengeId","type":"uint256"},{"indexed":false,"internalType":"uint256","name":"closureDate","type":"uint256"}],"name":"ChallengeClosureScheduled","type":"event"},{"anonymous":false,"inputs":[{"indexed":false,"internalType":"uint256","name":"challengeId","type":"uint256"}],"name":"ChallengeCompleted","type":"event"},{"anonymous":false,"inputs":[{"indexed":false,"internalType":"uint256","name":"challengeId","type":"uint256"},{"indexed":false,"internalType":"string","name":"challengeName","type":"string"},{"indexed":false,"internalType":"uint256","name":"entryAmount","type":"uint256"},{"indexed":false,"internalType":"address","name":"creator","type":"address"}],"name":"ChallengeCreated","type":"event"},{"anonymous":false,"inputs":[{"indexed":false,"internalType":"uint256","name":"challengeId","type":"uint256"},{"indexed":false,"internalType":"address","name":"participant","type":"address"}],"name":"ChallengeJoined","type":"event"},{"anonymous":false,"inputs":[{"indexed":false,"internalType":"uint256","name":"challengeId","type":"uint256"},{"indexed":false,"internalType":"address","name":"participant","type":"address"}],"name":"ChallengeRewardClaimed","type":"event"},{"inputs":[],"name":"admin","outputs":[{"internalType":"address","name":"","type":"address"}],"stateMutability":"view","type":"function"},{"inputs":[{"internalType":"uint256","name":"","type":"uint256"}],"name":"challenges","outputs":[{"internalType":"address","name":"creator","type":"address"},{"internalType":"string","name":"challengeName","type":"string"},{"internalType":"uint256","name":"entryAmount","type":"uint256"},{"internalType":"uint256","name":"totalAmount","type":"uint256"},{"internalType":"uint256","name":"creationTime","type":"uint256"},{"internalType":"uint256","name":"applicationDeadline","type":"uint256"},{"internalType":"uint256","name":"duration","type":"uint256"},{"internalType":"bool","name":"canApplication","type":"bool"},{"internalType":"bool","name":"completed","type":"bool"},{"internalType":"uint256","name":"numOfWakeUpCheckToWin","type":"uint256"},{"internalType":"uint256","name":"numOfWinners","type":"uint256"}],"stateMutability":"view","type":"function"},{"inputs":[{"internalType":"uint256","name":"_challengeId","type":"uint256"}],"name":"claimRewards","outputs":[],"stateMutability":"nonpayable","type":"function"},{"inputs":[{"internalType":"uint256","name":"_challengeId","type":"uint256"}],"name":"closeChallenge","outputs":[],"stateMutability":"nonpayable","type":"function"},{"inputs":[{"internalType":"string","name":"_challengeName","type":"string"},{"internalType":"uint256","name":"_duration","type":"uint256"},{"internalType":"uint256","name":"_entryAmount","type":"uint256"}],"name":"createChallenge","outputs":[],"stateMutability":"nonpayable","type":"function"},{"inputs":[],"name":"getChallengeCount","outputs":[{"internalType":"uint256","name":"","type":"uint256"}],"stateMutability":"view","type":"function"},{"inputs":[],"name":"getCurrentChallenges","outputs":[{"components":[{"internalType":"uint256","name":"id","type":"uint256"},{"internalType":"string","name":"challengeName","type":"string"},{"internalType":"uint256","name":"entryAmount","type":"uint256"},{"internalType":"uint256","name":"currentTotalAmount","type":"uint256"},{"internalType":"uint256[4]","name":"appDeadline","type":"uint256[4]"},{"internalType":"uint256[4]","name":"dueDate","type":"uint256[4]"}],"internalType":"struct ChallengeStorage.OngoingChallenge[]","name":"","type":"tuple[]"}],"stateMutability":"view","type":"function"},{"inputs":[{"internalType":"uint256","name":"_challengeId","type":"uint256"}],"name":"joinChallenge","outputs":[],"stateMutability":"nonpayable","type":"function"},{"inputs":[{"internalType":"uint256","name":"_challengeId","type":"uint256"}],"name":"runChallenge","outputs":[],"stateMutability":"nonpayable","type":"function"},{"inputs":[{"internalType":"address","name":"_newTokenAddress","type":"address"}],"name":"setTokenAddress","outputs":[],"stateMutability":"nonpayable","type":"function"},{"inputs":[],"name":"token","outputs":[{"internalType":"contract IERC20","name":"","type":"address"}],"stateMutability":"view","type":"function"},{"inputs":[{"internalType":"uint256","name":"_challengeId","type":"uint256"}],"name":"wakeUpCheck","outputs":[],"stateMutability":"nonpayable","type":"function"},{"inputs":[{"internalType":"uint256","name":"_challengeId","type":"uint256"}],"name":"withdrawalReward","outputs":[],"stateMutability":"nonpayable","type":"function"}],"evm":{"bytecode":{"linkReferences":{},"object":"60806040523480156200001157600080fd5b50604051620043c5380380620043c5833981810160405281019062000037919062000129565b80600160006101000a81548173ffffffffffffffffffffffffffffffffffffffff021916908373ffffffffffffffffffffffffffffffffffffffff160217905550336000806101000a81548173ffffffffffffffffffffffffffffffffffffffff021916908373ffffffffffffffffffffffffffffffffffffffff160217905550506200015b565b600080fd5b600073ffffffffffffffffffffffffffffffffffffffff82169050919050565b6000620000f182620000c4565b9050919050565b6200010381620000e4565b81146200010f57600080fd5b50565b6000815190506200012381620000f8565b92915050565b600060208284031215620001425762000141620000bf565b5b6000620001528482850162000112565b91505092915050565b61425a806200016b6000396000f3fe608060405234801561001057600080fd5b50600436106100cf5760003560e01c8063497ddc631161008c5780638f1d3776116100665780638f1d3776146101d4578063e448ee261461020e578063f851a4401461022a578063fc0c546a14610248576100cf565b8063497ddc63146101805780634a4ae32b1461019c57806359808a97146101b8576100cf565b80630933f467146100d45780630962ef79146100f257806318d95b761461010e5780631aaaac931461012c57806326a4e8d214610148578063335eff3e14610164575b600080fd5b6100dc610266565b6040516100e99190612a00565b60405180910390f35b61010c60048036038101906101079190612a5b565b610273565b005b610116610747565b6040516101239190612d10565b60405180910390f35b61014660048036038101906101419190612e67565b610ab0565b005b610162600480360381019061015d9190612f34565b610ef8565b005b61017e60048036038101906101799190612a5b565b611039565b005b61019a60048036038101906101959190612a5b565b611491565b005b6101b660048036038101906101b19190612a5b565b611649565b005b6101d260048036038101906101cd9190612a5b565b6116ec565b005b6101ee60048036038101906101e99190612a5b565b61181e565b6040516102059b9a99989796959493929190612fd5565b60405180910390f35b61022860048036038101906102239190612a5b565b61194a565b005b610232611f97565b60405161023f9190613087565b60405180910390f35b610250611fbb565b60405161025d9190613101565b60405180910390f35b6000600280549050905090565b8060028054905081106102bb576040517f08c379a00000000000000000000000000000000000000000000000000000000081526004016102b290613168565b60405180910390fd5b600282815481106102cf576102ce613188565b5b90600052602060002090600e020160070160019054906101000a900460ff1661032d576040517f08c379a000000000000000000000000000000000000000000000000000000000815260040161032490613203565b60405180910390fd5b6002828154811061034157610340613188565b5b90600052602060002090600e0201600c0160003373ffffffffffffffffffffffffffffffffffffffff1673ffffffffffffffffffffffffffffffffffffffff16815260200190815260200160002060009054906101000a900460ff166103dc576040517f08c379a00000000000000000000000000000000000000000000000000000000081526004016103d390613295565b60405180910390fd5b600282815481106103f0576103ef613188565b5b90600052602060002090600e0201600d0160003373ffffffffffffffffffffffffffffffffffffffff1673ffffffffffffffffffffffffffffffffffffffff16815260200190815260200160002060009054906101000a900460ff161561048c576040517f08c379a000000000000000000000000000000000000000000000000000000000815260040161048390613301565b60405180910390fd5b600282815481106104a05761049f613188565b5b90600052602060002090600e020160080154600283815481106104c6576104c5613188565b5b90600052602060002090600e0201600a0160003373ffffffffffffffffffffffffffffffffffffffff1673ffffffffffffffffffffffffffffffffffffffff1681526020019081526020016000205414610555576040517f08c379a000000000000000000000000000000000000000000000000000000000815260040161054c9061336d565b60405180910390fd5b60006002838154811061056b5761056a613188565b5b90600052602060002090600e0201600901546002848154811061059157610590613188565b5b90600052602060002090600e0201600301546105ad91906133eb565b9050600160009054906101000a900473ffffffffffffffffffffffffffffffffffffffff1673ffffffffffffffffffffffffffffffffffffffff1663a9059cbb33836040518363ffffffff1660e01b815260040161060c92919061341c565b6020604051808303816000875af115801561062b573d6000803e3d6000fd5b505050506040513d601f19601f8201168201806040525081019061064f9190613471565b61068e576040517f08c379a0000000000000000000000000000000000000000000000000000000008152600401610685906134ea565b60405180910390fd5b6001600284815481106106a4576106a3613188565b5b90600052602060002090600e0201600d0160003373ffffffffffffffffffffffffffffffffffffffff1673ffffffffffffffffffffffffffffffffffffffff16815260200190815260200160002060006101000a81548160ff0219169083151502179055507fcc543a67f8dfe04cfbe3cdcf9eacffa678f7b557e40f7d0051fcf17e8165d5e3833360405161073a92919061350a565b60405180910390a1505050565b60606000805b6002805490508110156107b3576002818154811061076e5761076d613188565b5b90600052602060002090600e020160070160019054906101000a900460ff166107a057818061079c90613533565b9250505b80806107ab90613533565b91505061074d565b5060008167ffffffffffffffff8111156107d0576107cf612d3c565b5b60405190808252806020026020018201604052801561080957816020015b6107f6612983565b8152602001906001900390816107ee5790505b5090506000805b600280549050811015610aa6576002818154811061083157610830613188565b5b90600052602060002090600e020160070160019054906101000a900460ff16610a935760008060006108b7600285815481106108705761086f613188565b5b90600052602060002090600e0201600601546002868154811061089657610895613188565b5b90600052602060002090600e0201600501546108b2919061357b565b611fe1565b505092509250925060008060006108f2600288815481106108db576108da613188565b5b90600052602060002090600e020160050154611fe1565b50509250925092506040518060c001604052808881526020016002898154811061091f5761091e613188565b5b90600052602060002090600e0201600101805461093b906135de565b80601f0160208091040260200160405190810160405280929190818152602001828054610967906135de565b80156109b45780601f10610989576101008083540402835291602001916109b4565b820191906000526020600020905b81548152906001019060200180831161099757829003601f168201915b50505050508152602001600289815481106109d2576109d1613188565b5b90600052602060002090600e0201600201548152602001600289815481106109fd576109fc613188565b5b90600052602060002090600e020160030154815260200160405180608001604052808681526020018581526020018481526020016015815250815260200160405180608001604052808981526020018881526020018781526020016015815250815250898981518110610a7357610a72613188565b5b60200260200101819052508780610a8990613533565b9850505050505050505b8080610a9e90613533565b915050610810565b5081935050505090565b60008111610af3576040517f08c379a0000000000000000000000000000000000000000000000000000000008152600401610aea90613681565b60405180910390fd5b80600160009054906101000a900473ffffffffffffffffffffffffffffffffffffffff1673ffffffffffffffffffffffffffffffffffffffff1663dd62ed3e33306040518363ffffffff1660e01b8152600401610b519291906136a1565b602060405180830381865afa158015610b6e573d6000803e3d6000fd5b505050506040513d601f19601f82011682018060405250810190610b9291906136df565b1015610bd3576040517f08c379a0000000000000000000000000000000000000000000000000000000008152600401610bca90613758565b60405180910390fd5b600160009054906101000a900473ffffffffffffffffffffffffffffffffffffffff1673ffffffffffffffffffffffffffffffffffffffff166323b872dd3330846040518463ffffffff1660e01b8152600401610c3293929190613778565b6020604051808303816000875af1158015610c51573d6000803e3d6000fd5b505050506040513d601f19601f82011682018060405250810190610c759190613471565b610cb4576040517f08c379a0000000000000000000000000000000000000000000000000000000008152600401610cab906137fb565b60405180910390fd5b600260018160018154018082558091505003906000526020600020905050600060026001600280549050610ce8919061381b565b81548110610cf957610cf8613188565b5b90600052602060002090600e02019050338160000160006101000a81548173ffffffffffffffffffffffffffffffffffffffff021916908373ffffffffffffffffffffffffffffffffffffffff16021790555083816001019081610d5d91906139f1565b5081816002018190555081816003016000828254610d7b919061357b565b925050819055504281600401819055506201518042610d9a919061357b565b816005018190555082816006018190555060018160070160006101000a81548160ff02191690831515021790555060008160070160016101000a81548160ff0219169083151502179055506201518083610df491906133eb565b8160080181905550600181600c0160003373ffffffffffffffffffffffffffffffffffffffff1673ffffffffffffffffffffffffffffffffffffffff16815260200190815260200160002060006101000a81548160ff02191690831515021790555060006001600280549050610e6a919061381b565b90507f46ea7ee0990cde33902e77e2d7200322990cb03186c32d68f2966739d28fb36681868533604051610ea19493929190613ac3565b60405180910390a17f79db182af3410c60080d8e7c7ed50f1977b0df228f066bbea532e7d75af80d2c81858460050154610edb919061357b565b604051610ee9929190613b0f565b60405180910390a15050505050565b60008054906101000a900473ffffffffffffffffffffffffffffffffffffffff1673ffffffffffffffffffffffffffffffffffffffff163373ffffffffffffffffffffffffffffffffffffffff1614610f86576040517f08c379a0000000000000000000000000000000000000000000000000000000008152600401610f7d90613baa565b60405180910390fd5b600073ffffffffffffffffffffffffffffffffffffffff168173ffffffffffffffffffffffffffffffffffffffff1603610ff5576040517f08c379a0000000000000000000000000000000000000000000000000000000008152600401610fec90613c16565b60405180910390fd5b80600160006101000a81548173ffffffffffffffffffffffffffffffffffffffff021916908373ffffffffffffffffffffffffffffffffffffffff16021790555050565b806002805490508110611081576040517f08c379a000000000000000000000000000000000000000000000000000000000815260040161107890613168565b60405180910390fd5b6002818154811061109557611094613188565b5b90600052602060002090600e020160070160019054906101000a900460ff16156110f4576040517f08c379a00000000000000000000000000000000000000000000000000000000081526004016110eb90613c82565b60405180910390fd5b6002828154811061110857611107613188565b5b90600052602060002090600e0201600c0160003373ffffffffffffffffffffffffffffffffffffffff1673ffffffffffffffffffffffffffffffffffffffff16815260200190815260200160002060009054906101000a900460ff166111a3576040517f08c379a000000000000000000000000000000000000000000000000000000000815260040161119a90613295565b60405180910390fd5b6000806000611213600286815481106111bf576111be613188565b5b90600052602060002090600e0201600b0160003373ffffffffffffffffffffffffffffffffffffffff1673ffffffffffffffffffffffffffffffffffffffff16815260200190815260200160002054611fe1565b5050925092509250600080600080600061122c42611fe1565b945094509450945094508785118061124357508684115b8061124d57508583115b61128c576040517f08c379a000000000000000000000000000000000000000000000000000000000815260040161128390613cee565b60405180910390fd5b60068214801561129d575060058111155b6112dc576040517f08c379a00000000000000000000000000000000000000000000000000000000081526004016112d390613d5a565b60405180910390fd5b60028a815481106112f0576112ef613188565b5b90600052602060002090600e0201600a0160003373ffffffffffffffffffffffffffffffffffffffff1673ffffffffffffffffffffffffffffffffffffffff168152602001908152602001600020600081548092919061134f90613533565b91905055504260028b8154811061136957611368613188565b5b90600052602060002090600e0201600b0160003373ffffffffffffffffffffffffffffffffffffffff1673ffffffffffffffffffffffffffffffffffffffff1681526020019081526020016000208190555060028a815481106113cf576113ce613188565b5b90600052602060002090600e02016008015460028b815481106113f5576113f4613188565b5b90600052602060002090600e0201600a0160003373ffffffffffffffffffffffffffffffffffffffff1673ffffffffffffffffffffffffffffffffffffffff16815260200190815260200160002054036114855760028a8154811061145d5761145c613188565b5b90600052602060002090600e0201600901600081548092919061147f90613533565b91905055505b50505050505050505050565b60008054906101000a900473ffffffffffffffffffffffffffffffffffffffff1673ffffffffffffffffffffffffffffffffffffffff163373ffffffffffffffffffffffffffffffffffffffff161461151f576040517f08c379a000000000000000000000000000000000000000000000000000000000815260040161151690613baa565b60405180910390fd5b60008060006115526002858154811061153b5761153a613188565b5b90600052602060002090600e020160050154611fe1565b505092509250925060008060008061156942611fe1565b5093509350935093508684118061157f57508583115b8061158957508482115b806115945750601581115b6115d3576040517f08c379a00000000000000000000000000000000000000000000000000000000081526004016115ca90613dec565b60405180910390fd5b6000600289815481106115e9576115e8613188565b5b90600052602060002090600e020160070160006101000a81548160ff02191690831515021790555061163f6002898154811061162857611627613188565b5b90600052602060002090600e02016003015461228e565b5050505050505050565b6002818154811061165d5761165c613188565b5b90600052602060002090600e020160070160019054906101000a900460ff166116bb576040517f08c379a00000000000000000000000000000000000000000000000000000000081526004016116b290613e58565b60405180910390fd5b6116e9600282815481106116d2576116d1613188565b5b90600052602060002090600e02016003015461244d565b50565b60008054906101000a900473ffffffffffffffffffffffffffffffffffffffff1673ffffffffffffffffffffffffffffffffffffffff163373ffffffffffffffffffffffffffffffffffffffff161461177a576040517f08c379a000000000000000000000000000000000000000000000000000000000815260040161177190613baa565b60405180910390fd5b6002818154811061178e5761178d613188565b5b90600052602060002090600e020160060154600282815481106117b4576117b3613188565b5b90600052602060002090600e0201600501546117d0919061357b565b421015611812576040517f08c379a000000000000000000000000000000000000000000000000000000000815260040161180990613ec4565b60405180910390fd5b61181b816125b8565b50565b6002818154811061182e57600080fd5b90600052602060002090600e02016000915090508060000160009054906101000a900473ffffffffffffffffffffffffffffffffffffffff1690806001018054611877906135de565b80601f01602080910402602001604051908101604052809291908181526020018280546118a3906135de565b80156118f05780601f106118c5576101008083540402835291602001916118f0565b820191906000526020600020905b8154815290600101906020018083116118d357829003601f168201915b5050505050908060020154908060030154908060040154908060050154908060060154908060070160009054906101000a900460ff16908060070160019054906101000a900460ff1690806008015490806009015490508b565b806002805490508110611992576040517f08c379a000000000000000000000000000000000000000000000000000000000815260040161198990613168565b60405180910390fd5b600281815481106119a6576119a5613188565b5b90600052602060002090600e020160070160019054906101000a900460ff1615611a05576040517f08c379a00000000000000000000000000000000000000000000000000000000081526004016119fc90613c82565b60405180910390fd5b6000806000611a3860028681548110611a2157611a20613188565b5b90600052602060002090600e020160050154611fe1565b5050925092509250600080600080611a4f42611fe1565b50935093509350935086841080611a6557508583105b80611a6f57508482105b80611a7a5750601581105b611ab9576040517f08c379a0000000000000000000000000000000000000000000000000000000008152600401611ab090613dec565b60405180910390fd5b60028981548110611acd57611acc613188565b5b90600052602060002090600e0201600c0160003373ffffffffffffffffffffffffffffffffffffffff1673ffffffffffffffffffffffffffffffffffffffff16815260200190815260200160002060009054906101000a900460ff1615611b69576040517f08c379a0000000000000000000000000000000000000000000000000000000008152600401611b6090613f30565b60405180910390fd5b60028981548110611b7d57611b7c613188565b5b90600052602060002090600e020160020154600160009054906101000a900473ffffffffffffffffffffffffffffffffffffffff1673ffffffffffffffffffffffffffffffffffffffff166370a08231336040518263ffffffff1660e01b8152600401611bea9190613087565b602060405180830381865afa158015611c07573d6000803e3d6000fd5b505050506040513d601f19601f82011682018060405250810190611c2b91906136df565b1015611c6c576040517f08c379a0000000000000000000000000000000000000000000000000000000008152600401611c6390613f9c565b60405180910390fd5b60028981548110611c8057611c7f613188565b5b90600052602060002090600e020160020154600160009054906101000a900473ffffffffffffffffffffffffffffffffffffffff1673ffffffffffffffffffffffffffffffffffffffff1663dd62ed3e33306040518363ffffffff1660e01b8152600401611cef9291906136a1565b602060405180830381865afa158015611d0c573d6000803e3d6000fd5b505050506040513d601f19601f82011682018060405250810190611d3091906136df565b1015611d71576040517f08c379a0000000000000000000000000000000000000000000000000000000008152600401611d6890613758565b60405180910390fd5b600160009054906101000a900473ffffffffffffffffffffffffffffffffffffffff1673ffffffffffffffffffffffffffffffffffffffff166323b872dd333060028d81548110611dc557611dc4613188565b5b90600052602060002090600e0201600201546040518463ffffffff1660e01b8152600401611df593929190613778565b6020604051808303816000875af1158015611e14573d6000803e3d6000fd5b505050506040513d601f19601f82011682018060405250810190611e389190613471565b611e77576040517f08c379a0000000000000000000000000000000000000000000000000000000008152600401611e6e906137fb565b60405180910390fd5b7f690ecbabe96222b39728b512682860cc6460002a670ff94954038286bea0ba698933604051611ea892919061350a565b60405180910390a1600160028a81548110611ec657611ec5613188565b5b90600052602060002090600e0201600c0160003373ffffffffffffffffffffffffffffffffffffffff1673ffffffffffffffffffffffffffffffffffffffff16815260200190815260200160002060006101000a81548160ff02191690831515021790555060028981548110611f3f57611f3e613188565b5b90600052602060002090600e02016002015460028a81548110611f6557611f64613188565b5b90600052602060002090600e02016003016000828254611f85919061357b565b92505081905550505050505050505050565b60008054906101000a900473ffffffffffffffffffffffffffffffffffffffff1681565b600160009054906101000a900473ffffffffffffffffffffffffffffffffffffffff1681565b600080600080600080617e90905060008188611ffd919061357b565b9050600062015180905060006301e13380905060006301e28500905060006107b290506000805b868583612031919061357b565b116120bf5760006004846120459190613fbc565b1480156120775750600060648461205c9190613fbc565b14158061207657506000610190846120749190613fbc565b145b5b1561209d578382612088919061357b565b9150808061209590613533565b9150506120ac565b84826120a9919061357b565b91505b82806120b790613533565b935050612024565b829c506000604051806101800160405280601f60ff1660ff168152602001601c60ff1660ff168152602001601f60ff1660ff168152602001601e60ff1660ff168152602001601f60ff1660ff168152602001601e60ff1660ff168152602001601f60ff1660ff168152602001601f60ff1660ff168152602001601e60ff1660ff168152602001601f60ff1660ff168152602001601e60ff1660ff168152602001601f60ff1660ff16815250905060005b6001156121f4576000600c820361218657506121f4565b888383600c811061219a57612199613188565b5b602002015160ff166121ac9190613fed565b816121b7919061357b565b905080856121c5919061357b565b8a10156121d257506121f4565b80856121de919061357b565b945081806121eb90613533565b9250505061216f565b600181612201919061357b565b9d50600188858b612212919061381b565b61221c91906133eb565b612226919061357b565b9c50600088858b612237919061381b565b612241919061357b565b9050610e1089826122529190613fbc565b61225c91906133eb565b9c50603c610e108261226e9190613fbc565b61227891906133eb565b9b50505050505050505050505091939590929450565b600073e86fcf5213c785acf9a8bffeedefa9a2199f7da690506000730e1ef78939f9d3340e63a7a1077d50999cc6b64f731f4aef3a04372cf9d738d5459f31950a53969ca36040516020016122e49291906136a1565b604051602081830303815290604052905060007368c1f9620aec7f2913430ad6dac1bb16d8444f0073ffffffffffffffffffffffffffffffffffffffff1683858460405160240161233793929190614084565b6040516020818303038152906040527fd8146e75000000000000000000000000000000000000000000000000000000007bffffffffffffffffffffffffffffffffffffffffffffffffffffffff19166020820180517bffffffffffffffffffffffffffffffffffffffffffffffffffffffff83818316178352505050506040516123c191906140fe565b6000604051808303816000865af19150503d80600081146123fe576040519150601f19603f3d011682016040523d82523d6000602084013e612403565b606091505b5050905080612447576040517f08c379a000000000000000000000000000000000000000000000000000000000815260040161243e90614161565b60405180910390fd5b50505050565b6000730e1ef78939f9d3340e63a7a1077d50999cc6b64f73ffffffffffffffffffffffffffffffffffffffff16731f4aef3a04372cf9d738d5459f31950a53969ca38360016040516024016124a493929190614181565b6040516020818303038152906040527f53d3ce5f000000000000000000000000000000000000000000000000000000007bffffffffffffffffffffffffffffffffffffffffffffffffffffffff19166020820180517bffffffffffffffffffffffffffffffffffffffffffffffffffffffff838183161783525050505060405161252e91906140fe565b6000604051808303816000865af19150503d806000811461256b576040519150601f19603f3d011682016040523d82523d6000602084013e612570565b606091505b50509050806125b4576040517f08c379a00000000000000000000000000000000000000000000000000000000081526004016125ab90614161565b60405180910390fd5b5050565b806002805490508110612600576040517f08c379a00000000000000000000000000000000000000000000000000000000081526004016125f790613168565b60405180910390fd5b6002818154811061261457612613613188565b5b90600052602060002090600e020160070160019054906101000a900460ff1615612673576040517f08c379a000000000000000000000000000000000000000000000000000000000815260040161266a90613c82565b60405180910390fd5b60006002838154811061268957612688613188565b5b90600052602060002090600e020160060154600284815481106126af576126ae613188565b5b90600052602060002090600e0201600501546126cb919061357b565b90506000806000806126dc42611fe1565b50935093509350935060008060006126f388611fe1565b50509250925092508287118061270857508186115b8061271257508085115b8061271e575060158410155b61275d576040517f08c379a000000000000000000000000000000000000000000000000000000000815260040161275490614204565b60405180910390fd5b61279a633b9aca0060028c8154811061277957612778613188565b5b90600052602060002090600e0201600301546127959190613fed565b61281b565b600160028b815481106127b0576127af613188565b5b90600052602060002090600e020160070160016101000a81548160ff0219169083151502179055507fc61ef8151923bbd8dc5f723ba25f26bb805ef4f9a52c5811df7242872edd2e0b8a6040516128079190612a00565b60405180910390a150505050505050505050565b6000730e1ef78939f9d3340e63a7a1077d50999cc6b64f73ffffffffffffffffffffffffffffffffffffffff16731f4aef3a04372cf9d738d5459f31950a53969ca38360405160240161286f92919061341c565b6040516020818303038152906040527fd8b11821000000000000000000000000000000000000000000000000000000007bffffffffffffffffffffffffffffffffffffffffffffffffffffffff19166020820180517bffffffffffffffffffffffffffffffffffffffffffffffffffffffff83818316178352505050506040516128f991906140fe565b6000604051808303816000865af19150503d8060008114612936576040519150601f19603f3d011682016040523d82523d6000602084013e61293b565b606091505b505090508061297f576040517f08c379a000000000000000000000000000000000000000000000000000000000815260040161297690614161565b60405180910390fd5b5050565b6040518060c00160405280600081526020016060815260200160008152602001600081526020016129b26129c5565b81526020016129bf6129c5565b81525090565b6040518060800160405280600490602082028036833780820191505090505090565b6000819050919050565b6129fa816129e7565b82525050565b6000602082019050612a1560008301846129f1565b92915050565b6000604051905090565b600080fd5b600080fd5b612a38816129e7565b8114612a4357600080fd5b50565b600081359050612a5581612a2f565b92915050565b600060208284031215612a7157612a70612a25565b5b6000612a7f84828501612a46565b91505092915050565b600081519050919050565b600082825260208201905092915050565b6000819050602082019050919050565b612abd816129e7565b82525050565b600081519050919050565b600082825260208201905092915050565b60005b83811015612afd578082015181840152602081019050612ae2565b60008484015250505050565b6000601f19601f8301169050919050565b6000612b2582612ac3565b612b2f8185612ace565b9350612b3f818560208601612adf565b612b4881612b09565b840191505092915050565b600060049050919050565b600081905092915050565b6000819050919050565b6000612b7f8383612ab4565b60208301905092915050565b6000602082019050919050565b612ba181612b53565b612bab8184612b5e565b9250612bb682612b69565b8060005b83811015612be7578151612bce8782612b73565b9650612bd983612b8b565b925050600181019050612bba565b505050505050565b600061018083016000830151612c086000860182612ab4565b5060208301518482036020860152612c208282612b1a565b9150506040830151612c356040860182612ab4565b506060830151612c486060860182612ab4565b506080830151612c5b6080860182612b98565b5060a0830151612c6f610100860182612b98565b508091505092915050565b6000612c868383612bef565b905092915050565b6000602082019050919050565b6000612ca682612a88565b612cb08185612a93565b935083602082028501612cc285612aa4565b8060005b85811015612cfe5784840389528151612cdf8582612c7a565b9450612cea83612c8e565b925060208a01995050600181019050612cc6565b50829750879550505050505092915050565b60006020820190508181036000830152612d2a8184612c9b565b905092915050565b600080fd5b600080fd5b7f4e487b7100000000000000000000000000000000000000000000000000000000600052604160045260246000fd5b612d7482612b09565b810181811067ffffffffffffffff82111715612d9357612d92612d3c565b5b80604052505050565b6000612da6612a1b565b9050612db28282612d6b565b919050565b600067ffffffffffffffff821115612dd257612dd1612d3c565b5b612ddb82612b09565b9050602081019050919050565b82818337600083830152505050565b6000612e0a612e0584612db7565b612d9c565b905082815260208101848484011115612e2657612e25612d37565b5b612e31848285612de8565b509392505050565b600082601f830112612e4e57612e4d612d32565b5b8135612e5e848260208601612df7565b91505092915050565b600080600060608486031215612e8057612e7f612a25565b5b600084013567ffffffffffffffff811115612e9e57612e9d612a2a565b5b612eaa86828701612e39565b9350506020612ebb86828701612a46565b9250506040612ecc86828701612a46565b9150509250925092565b600073ffffffffffffffffffffffffffffffffffffffff82169050919050565b6000612f0182612ed6565b9050919050565b612f1181612ef6565b8114612f1c57600080fd5b50565b600081359050612f2e81612f08565b92915050565b600060208284031215612f4a57612f49612a25565b5b6000612f5884828501612f1f565b91505092915050565b612f6a81612ef6565b82525050565b600082825260208201905092915050565b6000612f8c82612ac3565b612f968185612f70565b9350612fa6818560208601612adf565b612faf81612b09565b840191505092915050565b60008115159050919050565b612fcf81612fba565b82525050565b600061016082019050612feb600083018e612f61565b8181036020830152612ffd818d612f81565b905061300c604083018c6129f1565b613019606083018b6129f1565b613026608083018a6129f1565b61303360a08301896129f1565b61304060c08301886129f1565b61304d60e0830187612fc6565b61305b610100830186612fc6565b6130696101208301856129f1565b6130776101408301846129f1565b9c9b505050505050505050505050565b600060208201905061309c6000830184612f61565b92915050565b6000819050919050565b60006130c76130c26130bd84612ed6565b6130a2565b612ed6565b9050919050565b60006130d9826130ac565b9050919050565b60006130eb826130ce565b9050919050565b6130fb816130e0565b82525050565b600060208201905061311660008301846130f2565b92915050565b7f496e76616c6964206368616c6c656e6765204944000000000000000000000000600082015250565b6000613152601483612f70565b915061315d8261311c565b602082019050919050565b6000602082019050818103600083015261318181613145565b9050919050565b7f4e487b7100000000000000000000000000000000000000000000000000000000600052603260045260246000fd5b7f4368616c6c656e67652069736e277420636f6d706c65746564207965742e0000600082015250565b60006131ed601e83612f70565b91506131f8826131b7565b602082019050919050565b6000602082019050818103600083015261321c816131e0565b9050919050565b7f596f75277265206e6f742061207061727469636970616e74206f66207468697360008201527f206368616c6c656e67652e000000000000000000000000000000000000000000602082015250565b600061327f602b83612f70565b915061328a82613223565b604082019050919050565b600060208201905081810360008301526132ae81613272565b9050919050565b7f416c726561647920636c61696d65640000000000000000000000000000000000600082015250565b60006132eb600f83612f70565b91506132f6826132b5565b602082019050919050565b6000602082019050818103600083015261331a816132de565b9050919050565b7f596f75206469646e27742077696e2074686973206368616c6c656e67652e0000600082015250565b6000613357601e83612f70565b915061336282613321565b602082019050919050565b600060208201905081810360008301526133868161334a565b9050919050565b7f4e487b7100000000000000000000000000000000000000000000000000000000600052601260045260246000fd5b7f4e487b7100000000000000000000000000000000000000000000000000000000600052601160045260246000fd5b60006133f6826129e7565b9150613401836129e7565b9250826134115761341061338d565b5b828204905092915050565b60006040820190506134316000830185612f61565b61343e60208301846129f1565b9392505050565b61344e81612fba565b811461345957600080fd5b50565b60008151905061346b81613445565b92915050565b60006020828403121561348757613486612a25565b5b60006134958482850161345c565b91505092915050565b7f52657761726420636c61696d206661696c65642e000000000000000000000000600082015250565b60006134d4601483612f70565b91506134df8261349e565b602082019050919050565b60006020820190508181036000830152613503816134c7565b9050919050565b600060408201905061351f60008301856129f1565b61352c6020830184612f61565b9392505050565b600061353e826129e7565b91507fffffffffffffffffffffffffffffffffffffffffffffffffffffffffffffffff82036135705761356f6133bc565b5b600182019050919050565b6000613586826129e7565b9150613591836129e7565b92508282019050808211156135a9576135a86133bc565b5b92915050565b7f4e487b7100000000000000000000000000000000000000000000000000000000600052602260045260246000fd5b600060028204905060018216806135f657607f821691505b602082108103613609576136086135af565b5b50919050565b7f456e74727920616d6f756e742073686f756c642062652067726561746572207460008201527f68616e2030000000000000000000000000000000000000000000000000000000602082015250565b600061366b602583612f70565b91506136768261360f565b604082019050919050565b6000602082019050818103600083015261369a8161365e565b9050919050565b60006040820190506136b66000830185612f61565b6136c36020830184612f61565b9392505050565b6000815190506136d981612a2f565b92915050565b6000602082840312156136f5576136f4612a25565b5b6000613703848285016136ca565b91505092915050565b7f4e6f7420656e6f75676820746f6b656e20616c6c6f77616e6365000000000000600082015250565b6000613742601a83612f70565b915061374d8261370c565b602082019050919050565b6000602082019050818103600083015261377181613735565b9050919050565b600060608201905061378d6000830186612f61565b61379a6020830185612f61565b6137a760408301846129f1565b949350505050565b7f4661696c656420746f207472616e7366657220746f6b656e7300000000000000600082015250565b60006137e5601983612f70565b91506137f0826137af565b602082019050919050565b60006020820190508181036000830152613814816137d8565b9050919050565b6000613826826129e7565b9150613831836129e7565b9250828203905081811115613849576138486133bc565b5b92915050565b60008190508160005260206000209050919050565b60006020601f8301049050919050565b600082821b905092915050565b6000600883026138b17fffffffffffffffffffffffffffffffffffffffffffffffffffffffffffffffff82613874565b6138bb8683613874565b95508019841693508086168417925050509392505050565b60006138ee6138e96138e4846129e7565b6130a2565b6129e7565b9050919050565b6000819050919050565b613908836138d3565b61391c613914826138f5565b848454613881565b825550505050565b600090565b613931613924565b61393c8184846138ff565b505050565b5b8181101561396057613955600082613929565b600181019050613942565b5050565b601f8211156139a5576139768161384f565b61397f84613864565b8101602085101561398e578190505b6139a261399a85613864565b830182613941565b50505b505050565b600082821c905092915050565b60006139c8600019846008026139aa565b1980831691505092915050565b60006139e183836139b7565b9150826002028217905092915050565b6139fa82612ac3565b67ffffffffffffffff811115613a1357613a12612d3c565b5b613a1d82546135de565b613a28828285613964565b600060209050601f831160018114613a5b5760008415613a49578287015190505b613a5385826139d5565b865550613abb565b601f198416613a698661384f565b60005b82811015613a9157848901518255600182019150602085019450602081019050613a6c565b86831015613aae5784890151613aaa601f8916826139b7565b8355505b6001600288020188555050505b505050505050565b6000608082019050613ad860008301876129f1565b8181036020830152613aea8186612f81565b9050613af960408301856129f1565b613b066060830184612f61565b95945050505050565b6000604082019050613b2460008301856129f1565b613b3160208301846129f1565b9392505050565b7f4f6e6c79207468652061646d696e2063616e2063616c6c20746869732066756e60008201527f6374696f6e2e0000000000000000000000000000000000000000000000000000602082015250565b6000613b94602683612f70565b9150613b9f82613b38565b604082019050919050565b60006020820190508181036000830152613bc381613b87565b9050919050565b7f496e76616c696420616464726573732e00000000000000000000000000000000600082015250565b6000613c00601083612f70565b9150613c0b82613bca565b602082019050919050565b60006020820190508181036000830152613c2f81613bf3565b9050919050565b7f4368616c6c656e676520616c726561647920636f6d706c657465640000000000600082015250565b6000613c6c601b83612f70565b9150613c7782613c36565b602082019050919050565b60006020820190508181036000830152613c9b81613c5f565b9050919050565b7f596f7527766520616c726561647920636865636b656420746f6461792e000000600082015250565b6000613cd8601d83612f70565b9150613ce382613ca2565b602082019050919050565b60006020820190508181036000830152613d0781613ccb565b9050919050565b7f596f75277665206661696c656420746f6461792773206d697373696f6e2e0000600082015250565b6000613d44601e83612f70565b9150613d4f82613d0e565b602082019050919050565b60006020820190508181036000830152613d7381613d37565b9050919050565b7f546865206170706c69636174696f6e20706572696f642068617320657870697260008201527f65642e0000000000000000000000000000000000000000000000000000000000602082015250565b6000613dd6602383612f70565b9150613de182613d7a565b604082019050919050565b60006020820190508181036000830152613e0581613dc9565b9050919050565b7f6368616c6c656e67652069736e277420636f6d706c6574656400000000000000600082015250565b6000613e42601983612f70565b9150613e4d82613e0c565b602082019050919050565b60006020820190508181036000830152613e7181613e35565b9050919050565b7f4368616c6c656e6765206475726174696f6e206e6f74206f7665722079657400600082015250565b6000613eae601f83612f70565b9150613eb982613e78565b602082019050919050565b60006020820190508181036000830152613edd81613ea1565b9050919050565b7f596f7527766520616c7265616479206a6f696e65642e00000000000000000000600082015250565b6000613f1a601683612f70565b9150613f2582613ee4565b602082019050919050565b60006020820190508181036000830152613f4981613f0d565b9050919050565b7f496e73756666696369656e7420656e74727920616d6f756e7400000000000000600082015250565b6000613f86601983612f70565b9150613f9182613f50565b602082019050919050565b60006020820190508181036000830152613fb581613f79565b9050919050565b6000613fc7826129e7565b9150613fd2836129e7565b925082613fe257613fe161338d565b5b828206905092915050565b6000613ff8826129e7565b9150614003836129e7565b9250828202614011816129e7565b91508282048414831517614028576140276133bc565b5b5092915050565b600081519050919050565b600082825260208201905092915050565b60006140568261402f565b614060818561403a565b9350614070818560208601612adf565b61407981612b09565b840191505092915050565b60006060820190506140996000830186612f61565b6140a660208301856129f1565b81810360408301526140b8818461404b565b9050949350505050565b600081905092915050565b60006140d88261402f565b6140e281856140c2565b93506140f2818560208601612adf565b80840191505092915050565b600061410a82846140cd565b915081905092915050565b7f45787465726e616c2063616c6c206661696c6564000000000000000000000000600082015250565b600061414b601483612f70565b915061415682614115565b602082019050919050565b6000602082019050818103600083015261417a8161413e565b9050919050565b60006060820190506141966000830186612f61565b6141a360208301856129f1565b6141b06040830184612fc6565b949350505050565b7f4368616c6c656e6765206475726174696f6e206e6f74206f766572207965742e600082015250565b60006141ee602083612f70565b91506141f9826141b8565b602082019050919050565b6000602082019050818103600083015261421d816141e1565b905091905056fea2646970667358221220e3aefb0cbb1344295decb42d4a7af6950f9fd5b47890b2a39d58eaef491abf2564736f6c63430008140033","opcodes":"PUSH1 0x80 PUSH1 0x40 MSTORE CALLVALUE DUP1 ISZERO PUSH3 0x11 JUMPI PUSH1 0x0 DUP1 REVERT JUMPDEST POP PUSH1 0x40 MLOAD PUSH3 0x43C5 CODESIZE SUB DUP1 PUSH3 0x43C5 DUP4 CODECOPY DUP2 DUP2 ADD PUSH1 0x40 MSTORE DUP2 ADD SWAP1 PUSH3 0x37 SWAP2 SWAP1 PUSH3 0x129 JUMP JUMPDEST DUP1 PUSH1 0x1 PUSH1 0x0 PUSH2 0x100 EXP DUP2 SLOAD DUP2 PUSH20 0xFFFFFFFFFFFFFFFFFFFFFFFFFFFFFFFFFFFFFFFF MUL NOT AND SWAP1 DUP4 PUSH20 0xFFFFFFFFFFFFFFFFFFFFFFFFFFFFFFFFFFFFFFFF AND MUL OR SWAP1 SSTORE POP CALLER PUSH1 0x0 DUP1 PUSH2 0x100 EXP DUP2 SLOAD DUP2 PUSH20 0xFFFFFFFFFFFFFFFFFFFFFFFFFFFFFFFFFFFFFFFF MUL NOT AND SWAP1 DUP4 PUSH20 0xFFFFFFFFFFFFFFFFFFFFFFFFFFFFFFFFFFFFFFFF AND MUL OR SWAP1 SSTORE POP POP PUSH3 0x15B JUMP JUMPDEST PUSH1 0x0 DUP1 REVERT JUMPDEST PUSH1 0x0 PUSH20 0xFFFFFFFFFFFFFFFFFFFFFFFFFFFFFFFFFFFFFFFF DUP3 AND SWAP1 POP SWAP2 SWAP1 POP JUMP JUMPDEST PUSH1 0x0 PUSH3 0xF1 DUP3 PUSH3 0xC4 JUMP JUMPDEST SWAP1 POP SWAP2 SWAP1 POP JUMP JUMPDEST PUSH3 0x103 DUP2 PUSH3 0xE4 JUMP JUMPDEST DUP2 EQ PUSH3 0x10F JUMPI PUSH1 0x0 DUP1 REVERT JUMPDEST POP JUMP JUMPDEST PUSH1 0x0 DUP2 MLOAD SWAP1 POP PUSH3 0x123 DUP2 PUSH3 0xF8 JUMP JUMPDEST SWAP3 SWAP2 POP POP JUMP JUMPDEST PUSH1 0x0 PUSH1 0x20 DUP3 DUP5 SUB SLT ISZERO PUSH3 0x142 JUMPI PUSH3 0x141 PUSH3 0xBF JUMP JUMPDEST JUMPDEST PUSH1 0x0 PUSH3 0x152 DUP5 DUP3 DUP6 ADD PUSH3 0x112 JUMP JUMPDEST SWAP2 POP POP SWAP3 SWAP2 POP POP JUMP JUMPDEST PUSH2 0x425A DUP1 PUSH3 0x16B PUSH1 0x0 CODECOPY PUSH1 0x0 RETURN INVALID PUSH1 0x80 PUSH1 0x40 MSTORE CALLVALUE DUP1 ISZERO PUSH2 0x10 JUMPI PUSH1 0x0 DUP1 REVERT JUMPDEST POP PUSH1 0x4 CALLDATASIZE LT PUSH2 0xCF JUMPI PUSH1 0x0 CALLDATALOAD PUSH1 0xE0 SHR DUP1 PUSH4 0x497DDC63 GT PUSH2 0x8C JUMPI DUP1 PUSH4 0x8F1D3776 GT PUSH2 0x66 JUMPI DUP1 PUSH4 0x8F1D3776 EQ PUSH2 0x1D4 JUMPI DUP1 PUSH4 0xE448EE26 EQ PUSH2 0x20E JUMPI DUP1 PUSH4 0xF851A440 EQ PUSH2 0x22A JUMPI DUP1 PUSH4 0xFC0C546A EQ PUSH2 0x248 JUMPI PUSH2 0xCF JUMP JUMPDEST DUP1 PUSH4 0x497DDC63 EQ PUSH2 0x180 JUMPI DUP1 PUSH4 0x4A4AE32B EQ PUSH2 0x19C JUMPI DUP1 PUSH4 0x59808A97 EQ PUSH2 0x1B8 JUMPI PUSH2 0xCF JUMP JUMPDEST DUP1 PUSH4 0x933F467 EQ PUSH2 0xD4 JUMPI DUP1 PUSH4 0x962EF79 EQ PUSH2 0xF2 JUMPI DUP1 PUSH4 0x18D95B76 EQ PUSH2 0x10E JUMPI DUP1 PUSH4 0x1AAAAC93 EQ PUSH2 0x12C JUMPI DUP1 PUSH4 0x26A4E8D2 EQ PUSH2 0x148 JUMPI DUP1 PUSH4 0x335EFF3E EQ PUSH2 0x164 JUMPI JUMPDEST PUSH1 0x0 DUP1 REVERT JUMPDEST PUSH2 0xDC PUSH2 0x266 JUMP JUMPDEST PUSH1 0x40 MLOAD PUSH2 0xE9 SWAP2 SWAP1 PUSH2 0x2A00 JUMP JUMPDEST PUSH1 0x40 MLOAD DUP1 SWAP2 SUB SWAP1 RETURN JUMPDEST PUSH2 0x10C PUSH1 0x4 DUP1 CALLDATASIZE SUB DUP2 ADD SWAP1 PUSH2 0x107 SWAP2 SWAP1 PUSH2 0x2A5B JUMP JUMPDEST PUSH2 0x273 JUMP JUMPDEST STOP JUMPDEST PUSH2 0x116 PUSH2 0x747 JUMP JUMPDEST PUSH1 0x40 MLOAD PUSH2 0x123 SWAP2 SWAP1 PUSH2 0x2D10 JUMP JUMPDEST PUSH1 0x40 MLOAD DUP1 SWAP2 SUB SWAP1 RETURN JUMPDEST PUSH2 0x146 PUSH1 0x4 DUP1 CALLDATASIZE SUB DUP2 ADD SWAP1 PUSH2 0x141 SWAP2 SWAP1 PUSH2 0x2E67 JUMP JUMPDEST PUSH2 0xAB0 JUMP JUMPDEST STOP JUMPDEST PUSH2 0x162 PUSH1 0x4 DUP1 CALLDATASIZE SUB DUP2 ADD SWAP1 PUSH2 0x15D SWAP2 SWAP1 PUSH2 0x2F34 JUMP JUMPDEST PUSH2 0xEF8 JUMP JUMPDEST STOP JUMPDEST PUSH2 0x17E PUSH1 0x4 DUP1 CALLDATASIZE SUB DUP2 ADD SWAP1 PUSH2 0x179 SWAP2 SWAP1 PUSH2 0x2A5B JUMP JUMPDEST PUSH2 0x1039 JUMP JUMPDEST STOP JUMPDEST PUSH2 0x19A PUSH1 0x4 DUP1 CALLDATASIZE SUB DUP2 ADD SWAP1 PUSH2 0x195 SWAP2 SWAP1 PUSH2 0x2A5B JUMP JUMPDEST PUSH2 0x1491 JUMP JUMPDEST STOP JUMPDEST PUSH2 0x1B6 PUSH1 0x4 DUP1 CALLDATASIZE SUB DUP2 ADD SWAP1 PUSH2 0x1B1 SWAP2 SWAP1 PUSH2 0x2A5B JUMP JUMPDEST PUSH2 0x1649 JUMP JUMPDEST STOP JUMPDEST PUSH2 0x1D2 PUSH1 0x4 DUP1 CALLDATASIZE SUB DUP2 ADD SWAP1 PUSH2 0x1CD SWAP2 SWAP1 PUSH2 0x2A5B JUMP JUMPDEST PUSH2 0x16EC JUMP JUMPDEST STOP JUMPDEST PUSH2 0x1EE PUSH1 0x4 DUP1 CALLDATASIZE SUB DUP2 ADD SWAP1 PUSH2 0x1E9 SWAP2 SWAP1 PUSH2 0x2A5B JUMP JUMPDEST PUSH2 0x181E JUMP JUMPDEST PUSH1 0x40 MLOAD PUSH2 0x205 SWAP12 SWAP11 SWAP10 SWAP9 SWAP8 SWAP7 SWAP6 SWAP5 SWAP4 SWAP3 SWAP2 SWAP1 PUSH2 0x2FD5 JUMP JUMPDEST PUSH1 0x40 MLOAD DUP1 SWAP2 SUB SWAP1 RETURN JUMPDEST PUSH2 0x228 PUSH1 0x4 DUP1 CALLDATASIZE SUB DUP2 ADD SWAP1 PUSH2 0x223 SWAP2 SWAP1 PUSH2 0x2A5B JUMP JUMPDEST PUSH2 0x194A JUMP JUMPDEST STOP JUMPDEST PUSH2 0x232 PUSH2 0x1F97 JUMP JUMPDEST PUSH1 0x40 MLOAD PUSH2 0x23F SWAP2 SWAP1 PUSH2 0x3087 JUMP JUMPDEST PUSH1 0x40 MLOAD DUP1 SWAP2 SUB SWAP1 RETURN JUMPDEST PUSH2 0x250 PUSH2 0x1FBB JUMP JUMPDEST PUSH1 0x40 MLOAD PUSH2 0x25D SWAP2 SWAP1 PUSH2 0x3101 JUMP JUMPDEST PUSH1 0x40 MLOAD DUP1 SWAP2 SUB SWAP1 RETURN JUMPDEST PUSH1 0x0 PUSH1 0x2 DUP1 SLOAD SWAP1 POP SWAP1 POP SWAP1 JUMP JUMPDEST DUP1 PUSH1 0x2 DUP1 SLOAD SWAP1 POP DUP2 LT PUSH2 0x2BB JUMPI PUSH1 0x40 MLOAD PUSH32 0x8C379A000000000000000000000000000000000000000000000000000000000 DUP2 MSTORE PUSH1 0x4 ADD PUSH2 0x2B2 SWAP1 PUSH2 0x3168 JUMP JUMPDEST PUSH1 0x40 MLOAD DUP1 SWAP2 SUB SWAP1 REVERT JUMPDEST PUSH1 0x2 DUP3 DUP2 SLOAD DUP2 LT PUSH2 0x2CF JUMPI PUSH2 0x2CE PUSH2 0x3188 JUMP JUMPDEST JUMPDEST SWAP1 PUSH1 0x0 MSTORE PUSH1 0x20 PUSH1 0x0 KECCAK256 SWAP1 PUSH1 0xE MUL ADD PUSH1 0x7 ADD PUSH1 0x1 SWAP1 SLOAD SWAP1 PUSH2 0x100 EXP SWAP1 DIV PUSH1 0xFF AND PUSH2 0x32D JUMPI PUSH1 0x40 MLOAD PUSH32 0x8C379A000000000000000000000000000000000000000000000000000000000 DUP2 MSTORE PUSH1 0x4 ADD PUSH2 0x324 SWAP1 PUSH2 0x3203 JUMP JUMPDEST PUSH1 0x40 MLOAD DUP1 SWAP2 SUB SWAP1 REVERT JUMPDEST PUSH1 0x2 DUP3 DUP2 SLOAD DUP2 LT PUSH2 0x341 JUMPI PUSH2 0x340 PUSH2 0x3188 JUMP JUMPDEST JUMPDEST SWAP1 PUSH1 0x0 MSTORE PUSH1 0x20 PUSH1 0x0 KECCAK256 SWAP1 PUSH1 0xE MUL ADD PUSH1 0xC ADD PUSH1 0x0 CALLER PUSH20 0xFFFFFFFFFFFFFFFFFFFFFFFFFFFFFFFFFFFFFFFF AND PUSH20 0xFFFFFFFFFFFFFFFFFFFFFFFFFFFFFFFFFFFFFFFF AND DUP2 MSTORE PUSH1 0x20 ADD SWAP1 DUP2 MSTORE PUSH1 0x20 ADD PUSH1 0x0 KECCAK256 PUSH1 0x0 SWAP1 SLOAD SWAP1 PUSH2 0x100 EXP SWAP1 DIV PUSH1 0xFF AND PUSH2 0x3DC JUMPI PUSH1 0x40 MLOAD PUSH32 0x8C379A000000000000000000000000000000000000000000000000000000000 DUP2 MSTORE PUSH1 0x4 ADD PUSH2 0x3D3 SWAP1 PUSH2 0x3295 JUMP JUMPDEST PUSH1 0x40 MLOAD DUP1 SWAP2 SUB SWAP1 REVERT JUMPDEST PUSH1 0x2 DUP3 DUP2 SLOAD DUP2 LT PUSH2 0x3F0 JUMPI PUSH2 0x3EF PUSH2 0x3188 JUMP JUMPDEST JUMPDEST SWAP1 PUSH1 0x0 MSTORE PUSH1 0x20 PUSH1 0x0 KECCAK256 SWAP1 PUSH1 0xE MUL ADD PUSH1 0xD ADD PUSH1 0x0 CALLER PUSH20 0xFFFFFFFFFFFFFFFFFFFFFFFFFFFFFFFFFFFFFFFF AND PUSH20 0xFFFFFFFFFFFFFFFFFFFFFFFFFFFFFFFFFFFFFFFF AND DUP2 MSTORE PUSH1 0x20 ADD SWAP1 DUP2 MSTORE PUSH1 0x20 ADD PUSH1 0x0 KECCAK256 PUSH1 0x0 SWAP1 SLOAD SWAP1 PUSH2 0x100 EXP SWAP1 DIV PUSH1 0xFF AND ISZERO PUSH2 0x48C JUMPI PUSH1 0x40 MLOAD PUSH32 0x8C379A000000000000000000000000000000000000000000000000000000000 DUP2 MSTORE PUSH1 0x4 ADD PUSH2 0x483 SWAP1 PUSH2 0x3301 JUMP JUMPDEST PUSH1 0x40 MLOAD DUP1 SWAP2 SUB SWAP1 REVERT JUMPDEST PUSH1 0x2 DUP3 DUP2 SLOAD DUP2 LT PUSH2 0x4A0 JUMPI PUSH2 0x49F PUSH2 0x3188 JUMP JUMPDEST JUMPDEST SWAP1 PUSH1 0x0 MSTORE PUSH1 0x20 PUSH1 0x0 KECCAK256 SWAP1 PUSH1 0xE MUL ADD PUSH1 0x8 ADD SLOAD PUSH1 0x2 DUP4 DUP2 SLOAD DUP2 LT PUSH2 0x4C6 JUMPI PUSH2 0x4C5 PUSH2 0x3188 JUMP JUMPDEST JUMPDEST SWAP1 PUSH1 0x0 MSTORE PUSH1 0x20 PUSH1 0x0 KECCAK256 SWAP1 PUSH1 0xE MUL ADD PUSH1 0xA ADD PUSH1 0x0 CALLER PUSH20 0xFFFFFFFFFFFFFFFFFFFFFFFFFFFFFFFFFFFFFFFF AND PUSH20 0xFFFFFFFFFFFFFFFFFFFFFFFFFFFFFFFFFFFFFFFF AND DUP2 MSTORE PUSH1 0x20 ADD SWAP1 DUP2 MSTORE PUSH1 0x20 ADD PUSH1 0x0 KECCAK256 SLOAD EQ PUSH2 0x555 JUMPI PUSH1 0x40 MLOAD PUSH32 0x8C379A000000000000000000000000000000000000000000000000000000000 DUP2 MSTORE PUSH1 0x4 ADD PUSH2 0x54C SWAP1 PUSH2 0x336D JUMP JUMPDEST PUSH1 0x40 MLOAD DUP1 SWAP2 SUB SWAP1 REVERT JUMPDEST PUSH1 0x0 PUSH1 0x2 DUP4 DUP2 SLOAD DUP2 LT PUSH2 0x56B JUMPI PUSH2 0x56A PUSH2 0x3188 JUMP JUMPDEST JUMPDEST SWAP1 PUSH1 0x0 MSTORE PUSH1 0x20 PUSH1 0x0 KECCAK256 SWAP1 PUSH1 0xE MUL ADD PUSH1 0x9 ADD SLOAD PUSH1 0x2 DUP5 DUP2 SLOAD DUP2 LT PUSH2 0x591 JUMPI PUSH2 0x590 PUSH2 0x3188 JUMP JUMPDEST JUMPDEST SWAP1 PUSH1 0x0 MSTORE PUSH1 0x20 PUSH1 0x0 KECCAK256 SWAP1 PUSH1 0xE MUL ADD PUSH1 0x3 ADD SLOAD PUSH2 0x5AD SWAP2 SWAP1 PUSH2 0x33EB JUMP JUMPDEST SWAP1 POP PUSH1 0x1 PUSH1 0x0 SWAP1 SLOAD SWAP1 PUSH2 0x100 EXP SWAP1 DIV PUSH20 0xFFFFFFFFFFFFFFFFFFFFFFFFFFFFFFFFFFFFFFFF AND PUSH20 0xFFFFFFFFFFFFFFFFFFFFFFFFFFFFFFFFFFFFFFFF AND PUSH4 0xA9059CBB CALLER DUP4 PUSH1 0x40 MLOAD DUP4 PUSH4 0xFFFFFFFF AND PUSH1 0xE0 SHL DUP2 MSTORE PUSH1 0x4 ADD PUSH2 0x60C SWAP3 SWAP2 SWAP1 PUSH2 0x341C JUMP JUMPDEST PUSH1 0x20 PUSH1 0x40 MLOAD DUP1 DUP4 SUB DUP2 PUSH1 0x0 DUP8 GAS CALL ISZERO DUP1 ISZERO PUSH2 0x62B JUMPI RETURNDATASIZE PUSH1 0x0 DUP1 RETURNDATACOPY RETURNDATASIZE PUSH1 0x0 REVERT JUMPDEST POP POP POP POP PUSH1 0x40 MLOAD RETURNDATASIZE PUSH1 0x1F NOT PUSH1 0x1F DUP3 ADD AND DUP3 ADD DUP1 PUSH1 0x40 MSTORE POP DUP2 ADD SWAP1 PUSH2 0x64F SWAP2 SWAP1 PUSH2 0x3471 JUMP JUMPDEST PUSH2 0x68E JUMPI PUSH1 0x40 MLOAD PUSH32 0x8C379A000000000000000000000000000000000000000000000000000000000 DUP2 MSTORE PUSH1 0x4 ADD PUSH2 0x685 SWAP1 PUSH2 0x34EA JUMP JUMPDEST PUSH1 0x40 MLOAD DUP1 SWAP2 SUB SWAP1 REVERT JUMPDEST PUSH1 0x1 PUSH1 0x2 DUP5 DUP2 SLOAD DUP2 LT PUSH2 0x6A4 JUMPI PUSH2 0x6A3 PUSH2 0x3188 JUMP JUMPDEST JUMPDEST SWAP1 PUSH1 0x0 MSTORE PUSH1 0x20 PUSH1 0x0 KECCAK256 SWAP1 PUSH1 0xE MUL ADD PUSH1 0xD ADD PUSH1 0x0 CALLER PUSH20 0xFFFFFFFFFFFFFFFFFFFFFFFFFFFFFFFFFFFFFFFF AND PUSH20 0xFFFFFFFFFFFFFFFFFFFFFFFFFFFFFFFFFFFFFFFF AND DUP2 MSTORE PUSH1 0x20 ADD SWAP1 DUP2 MSTORE PUSH1 0x20 ADD PUSH1 0x0 KECCAK256 PUSH1 0x0 PUSH2 0x100 EXP DUP2 SLOAD DUP2 PUSH1 0xFF MUL NOT AND SWAP1 DUP4 ISZERO ISZERO MUL OR SWAP1 SSTORE POP PUSH32 0xCC543A67F8DFE04CFBE3CDCF9EACFFA678F7B557E40F7D0051FCF17E8165D5E3 DUP4 CALLER PUSH1 0x40 MLOAD PUSH2 0x73A SWAP3 SWAP2 SWAP1 PUSH2 0x350A JUMP JUMPDEST PUSH1 0x40 MLOAD DUP1 SWAP2 SUB SWAP1 LOG1 POP POP POP JUMP JUMPDEST PUSH1 0x60 PUSH1 0x0 DUP1 JUMPDEST PUSH1 0x2 DUP1 SLOAD SWAP1 POP DUP2 LT ISZERO PUSH2 0x7B3 JUMPI PUSH1 0x2 DUP2 DUP2 SLOAD DUP2 LT PUSH2 0x76E JUMPI PUSH2 0x76D PUSH2 0x3188 JUMP JUMPDEST JUMPDEST SWAP1 PUSH1 0x0 MSTORE PUSH1 0x20 PUSH1 0x0 KECCAK256 SWAP1 PUSH1 0xE MUL ADD PUSH1 0x7 ADD PUSH1 0x1 SWAP1 SLOAD SWAP1 PUSH2 0x100 EXP SWAP1 DIV PUSH1 0xFF AND PUSH2 0x7A0 JUMPI DUP2 DUP1 PUSH2 0x79C SWAP1 PUSH2 0x3533 JUMP JUMPDEST SWAP3 POP POP JUMPDEST DUP1 DUP1 PUSH2 0x7AB SWAP1 PUSH2 0x3533 JUMP JUMPDEST SWAP2 POP POP PUSH2 0x74D JUMP JUMPDEST POP PUSH1 0x0 DUP2 PUSH8 0xFFFFFFFFFFFFFFFF DUP2 GT ISZERO PUSH2 0x7D0 JUMPI PUSH2 0x7CF PUSH2 0x2D3C JUMP JUMPDEST JUMPDEST PUSH1 0x40 MLOAD SWAP1 DUP1 DUP3 MSTORE DUP1 PUSH1 0x20 MUL PUSH1 0x20 ADD DUP3 ADD PUSH1 0x40 MSTORE DUP1 ISZERO PUSH2 0x809 JUMPI DUP2 PUSH1 0x20 ADD JUMPDEST PUSH2 0x7F6 PUSH2 0x2983 JUMP JUMPDEST DUP2 MSTORE PUSH1 0x20 ADD SWAP1 PUSH1 0x1 SWAP1 SUB SWAP1 DUP2 PUSH2 0x7EE JUMPI SWAP1 POP JUMPDEST POP SWAP1 POP PUSH1 0x0 DUP1 JUMPDEST PUSH1 0x2 DUP1 SLOAD SWAP1 POP DUP2 LT ISZERO PUSH2 0xAA6 JUMPI PUSH1 0x2 DUP2 DUP2 SLOAD DUP2 LT PUSH2 0x831 JUMPI PUSH2 0x830 PUSH2 0x3188 JUMP JUMPDEST JUMPDEST SWAP1 PUSH1 0x0 MSTORE PUSH1 0x20 PUSH1 0x0 KECCAK256 SWAP1 PUSH1 0xE MUL ADD PUSH1 0x7 ADD PUSH1 0x1 SWAP1 SLOAD SWAP1 PUSH2 0x100 EXP SWAP1 DIV PUSH1 0xFF AND PUSH2 0xA93 JUMPI PUSH1 0x0 DUP1 PUSH1 0x0 PUSH2 0x8B7 PUSH1 0x2 DUP6 DUP2 SLOAD DUP2 LT PUSH2 0x870 JUMPI PUSH2 0x86F PUSH2 0x3188 JUMP JUMPDEST JUMPDEST SWAP1 PUSH1 0x0 MSTORE PUSH1 0x20 PUSH1 0x0 KECCAK256 SWAP1 PUSH1 0xE MUL ADD PUSH1 0x6 ADD SLOAD PUSH1 0x2 DUP7 DUP2 SLOAD DUP2 LT PUSH2 0x896 JUMPI PUSH2 0x895 PUSH2 0x3188 JUMP JUMPDEST JUMPDEST SWAP1 PUSH1 0x0 MSTORE PUSH1 0x20 PUSH1 0x0 KECCAK256 SWAP1 PUSH1 0xE MUL ADD PUSH1 0x5 ADD SLOAD PUSH2 0x8B2 SWAP2 SWAP1 PUSH2 0x357B JUMP JUMPDEST PUSH2 0x1FE1 JUMP JUMPDEST POP POP SWAP3 POP SWAP3 POP SWAP3 POP PUSH1 0x0 DUP1 PUSH1 0x0 PUSH2 0x8F2 PUSH1 0x2 DUP9 DUP2 SLOAD DUP2 LT PUSH2 0x8DB JUMPI PUSH2 0x8DA PUSH2 0x3188 JUMP JUMPDEST JUMPDEST SWAP1 PUSH1 0x0 MSTORE PUSH1 0x20 PUSH1 0x0 KECCAK256 SWAP1 PUSH1 0xE MUL ADD PUSH1 0x5 ADD SLOAD PUSH2 0x1FE1 JUMP JUMPDEST POP POP SWAP3 POP SWAP3 POP SWAP3 POP PUSH1 0x40 MLOAD DUP1 PUSH1 0xC0 ADD PUSH1 0x40 MSTORE DUP1 DUP9 DUP2 MSTORE PUSH1 0x20 ADD PUSH1 0x2 DUP10 DUP2 SLOAD DUP2 LT PUSH2 0x91F JUMPI PUSH2 0x91E PUSH2 0x3188 JUMP JUMPDEST JUMPDEST SWAP1 PUSH1 0x0 MSTORE PUSH1 0x20 PUSH1 0x0 KECCAK256 SWAP1 PUSH1 0xE MUL ADD PUSH1 0x1 ADD DUP1 SLOAD PUSH2 0x93B SWAP1 PUSH2 0x35DE JUMP JUMPDEST DUP1 PUSH1 0x1F ADD PUSH1 0x20 DUP1 SWAP2 DIV MUL PUSH1 0x20 ADD PUSH1 0x40 MLOAD SWAP1 DUP2 ADD PUSH1 0x40 MSTORE DUP1 SWAP3 SWAP2 SWAP1 DUP2 DUP2 MSTORE PUSH1 0x20 ADD DUP3 DUP1 SLOAD PUSH2 0x967 SWAP1 PUSH2 0x35DE JUMP JUMPDEST DUP1 ISZERO PUSH2 0x9B4 JUMPI DUP1 PUSH1 0x1F LT PUSH2 0x989 JUMPI PUSH2 0x100 DUP1 DUP4 SLOAD DIV MUL DUP4 MSTORE SWAP2 PUSH1 0x20 ADD SWAP2 PUSH2 0x9B4 JUMP JUMPDEST DUP3 ADD SWAP2 SWAP1 PUSH1 0x0 MSTORE PUSH1 0x20 PUSH1 0x0 KECCAK256 SWAP1 JUMPDEST DUP2 SLOAD DUP2 MSTORE SWAP1 PUSH1 0x1 ADD SWAP1 PUSH1 0x20 ADD DUP1 DUP4 GT PUSH2 0x997 JUMPI DUP3 SWAP1 SUB PUSH1 0x1F AND DUP3 ADD SWAP2 JUMPDEST POP POP POP POP POP DUP2 MSTORE PUSH1 0x20 ADD PUSH1 0x2 DUP10 DUP2 SLOAD DUP2 LT PUSH2 0x9D2 JUMPI PUSH2 0x9D1 PUSH2 0x3188 JUMP JUMPDEST JUMPDEST SWAP1 PUSH1 0x0 MSTORE PUSH1 0x20 PUSH1 0x0 KECCAK256 SWAP1 PUSH1 0xE MUL ADD PUSH1 0x2 ADD SLOAD DUP2 MSTORE PUSH1 0x20 ADD PUSH1 0x2 DUP10 DUP2 SLOAD DUP2 LT PUSH2 0x9FD JUMPI PUSH2 0x9FC PUSH2 0x3188 JUMP JUMPDEST JUMPDEST SWAP1 PUSH1 0x0 MSTORE PUSH1 0x20 PUSH1 0x0 KECCAK256 SWAP1 PUSH1 0xE MUL ADD PUSH1 0x3 ADD SLOAD DUP2 MSTORE PUSH1 0x20 ADD PUSH1 0x40 MLOAD DUP1 PUSH1 0x80 ADD PUSH1 0x40 MSTORE DUP1 DUP7 DUP2 MSTORE PUSH1 0x20 ADD DUP6 DUP2 MSTORE PUSH1 0x20 ADD DUP5 DUP2 MSTORE PUSH1 0x20 ADD PUSH1 0x15 DUP2 MSTORE POP DUP2 MSTORE PUSH1 0x20 ADD PUSH1 0x40 MLOAD DUP1 PUSH1 0x80 ADD PUSH1 0x40 MSTORE DUP1 DUP10 DUP2 MSTORE PUSH1 0x20 ADD DUP9 DUP2 MSTORE PUSH1 0x20 ADD DUP8 DUP2 MSTORE PUSH1 0x20 ADD PUSH1 0x15 DUP2 MSTORE POP DUP2 MSTORE POP DUP10 DUP10 DUP2 MLOAD DUP2 LT PUSH2 0xA73 JUMPI PUSH2 0xA72 PUSH2 0x3188 JUMP JUMPDEST JUMPDEST PUSH1 0x20 MUL PUSH1 0x20 ADD ADD DUP2 SWAP1 MSTORE POP DUP8 DUP1 PUSH2 0xA89 SWAP1 PUSH2 0x3533 JUMP JUMPDEST SWAP9 POP POP POP POP POP POP POP POP JUMPDEST DUP1 DUP1 PUSH2 0xA9E SWAP1 PUSH2 0x3533 JUMP JUMPDEST SWAP2 POP POP PUSH2 0x810 JUMP JUMPDEST POP DUP2 SWAP4 POP POP POP POP SWAP1 JUMP JUMPDEST PUSH1 0x0 DUP2 GT PUSH2 0xAF3 JUMPI PUSH1 0x40 MLOAD PUSH32 0x8C379A000000000000000000000000000000000000000000000000000000000 DUP2 MSTORE PUSH1 0x4 ADD PUSH2 0xAEA SWAP1 PUSH2 0x3681 JUMP JUMPDEST PUSH1 0x40 MLOAD DUP1 SWAP2 SUB SWAP1 REVERT JUMPDEST DUP1 PUSH1 0x1 PUSH1 0x0 SWAP1 SLOAD SWAP1 PUSH2 0x100 EXP SWAP1 DIV PUSH20 0xFFFFFFFFFFFFFFFFFFFFFFFFFFFFFFFFFFFFFFFF AND PUSH20 0xFFFFFFFFFFFFFFFFFFFFFFFFFFFFFFFFFFFFFFFF AND PUSH4 0xDD62ED3E CALLER ADDRESS PUSH1 0x40 MLOAD DUP4 PUSH4 0xFFFFFFFF AND PUSH1 0xE0 SHL DUP2 MSTORE PUSH1 0x4 ADD PUSH2 0xB51 SWAP3 SWAP2 SWAP1 PUSH2 0x36A1 JUMP JUMPDEST PUSH1 0x20 PUSH1 0x40 MLOAD DUP1 DUP4 SUB DUP2 DUP7 GAS STATICCALL ISZERO DUP1 ISZERO PUSH2 0xB6E JUMPI RETURNDATASIZE PUSH1 0x0 DUP1 RETURNDATACOPY RETURNDATASIZE PUSH1 0x0 REVERT JUMPDEST POP POP POP POP PUSH1 0x40 MLOAD RETURNDATASIZE PUSH1 0x1F NOT PUSH1 0x1F DUP3 ADD AND DUP3 ADD DUP1 PUSH1 0x40 MSTORE POP DUP2 ADD SWAP1 PUSH2 0xB92 SWAP2 SWAP1 PUSH2 0x36DF JUMP JUMPDEST LT ISZERO PUSH2 0xBD3 JUMPI PUSH1 0x40 MLOAD PUSH32 0x8C379A000000000000000000000000000000000000000000000000000000000 DUP2 MSTORE PUSH1 0x4 ADD PUSH2 0xBCA SWAP1 PUSH2 0x3758 JUMP JUMPDEST PUSH1 0x40 MLOAD DUP1 SWAP2 SUB SWAP1 REVERT JUMPDEST PUSH1 0x1 PUSH1 0x0 SWAP1 SLOAD SWAP1 PUSH2 0x100 EXP SWAP1 DIV PUSH20 0xFFFFFFFFFFFFFFFFFFFFFFFFFFFFFFFFFFFFFFFF AND PUSH20 0xFFFFFFFFFFFFFFFFFFFFFFFFFFFFFFFFFFFFFFFF AND PUSH4 0x23B872DD CALLER ADDRESS DUP5 PUSH1 0x40 MLOAD DUP5 PUSH4 0xFFFFFFFF AND PUSH1 0xE0 SHL DUP2 MSTORE PUSH1 0x4 ADD PUSH2 0xC32 SWAP4 SWAP3 SWAP2 SWAP1 PUSH2 0x3778 JUMP JUMPDEST PUSH1 0x20 PUSH1 0x40 MLOAD DUP1 DUP4 SUB DUP2 PUSH1 0x0 DUP8 GAS CALL ISZERO DUP1 ISZERO PUSH2 0xC51 JUMPI RETURNDATASIZE PUSH1 0x0 DUP1 RETURNDATACOPY RETURNDATASIZE PUSH1 0x0 REVERT JUMPDEST POP POP POP POP PUSH1 0x40 MLOAD RETURNDATASIZE PUSH1 0x1F NOT PUSH1 0x1F DUP3 ADD AND DUP3 ADD DUP1 PUSH1 0x40 MSTORE POP DUP2 ADD SWAP1 PUSH2 0xC75 SWAP2 SWAP1 PUSH2 0x3471 JUMP JUMPDEST PUSH2 0xCB4 JUMPI PUSH1 0x40 MLOAD PUSH32 0x8C379A000000000000000000000000000000000000000000000000000000000 DUP2 MSTORE PUSH1 0x4 ADD PUSH2 0xCAB SWAP1 PUSH2 0x37FB JUMP JUMPDEST PUSH1 0x40 MLOAD DUP1 SWAP2 SUB SWAP1 REVERT JUMPDEST PUSH1 0x2 PUSH1 0x1 DUP2 PUSH1 0x1 DUP2 SLOAD ADD DUP1 DUP3 SSTORE DUP1 SWAP2 POP POP SUB SWAP1 PUSH1 0x0 MSTORE PUSH1 0x20 PUSH1 0x0 KECCAK256 SWAP1 POP POP PUSH1 0x0 PUSH1 0x2 PUSH1 0x1 PUSH1 0x2 DUP1 SLOAD SWAP1 POP PUSH2 0xCE8 SWAP2 SWAP1 PUSH2 0x381B JUMP JUMPDEST DUP2 SLOAD DUP2 LT PUSH2 0xCF9 JUMPI PUSH2 0xCF8 PUSH2 0x3188 JUMP JUMPDEST JUMPDEST SWAP1 PUSH1 0x0 MSTORE PUSH1 0x20 PUSH1 0x0 KECCAK256 SWAP1 PUSH1 0xE MUL ADD SWAP1 POP CALLER DUP2 PUSH1 0x0 ADD PUSH1 0x0 PUSH2 0x100 EXP DUP2 SLOAD DUP2 PUSH20 0xFFFFFFFFFFFFFFFFFFFFFFFFFFFFFFFFFFFFFFFF MUL NOT AND SWAP1 DUP4 PUSH20 0xFFFFFFFFFFFFFFFFFFFFFFFFFFFFFFFFFFFFFFFF AND MUL OR SWAP1 SSTORE POP DUP4 DUP2 PUSH1 0x1 ADD SWAP1 DUP2 PUSH2 0xD5D SWAP2 SWAP1 PUSH2 0x39F1 JUMP JUMPDEST POP DUP2 DUP2 PUSH1 0x2 ADD DUP2 SWAP1 SSTORE POP DUP2 DUP2 PUSH1 0x3 ADD PUSH1 0x0 DUP3 DUP3 SLOAD PUSH2 0xD7B SWAP2 SWAP1 PUSH2 0x357B JUMP JUMPDEST SWAP3 POP POP DUP2 SWAP1 SSTORE POP TIMESTAMP DUP2 PUSH1 0x4 ADD DUP2 SWAP1 SSTORE POP PUSH3 0x15180 TIMESTAMP PUSH2 0xD9A SWAP2 SWAP1 PUSH2 0x357B JUMP JUMPDEST DUP2 PUSH1 0x5 ADD DUP2 SWAP1 SSTORE POP DUP3 DUP2 PUSH1 0x6 ADD DUP2 SWAP1 SSTORE POP PUSH1 0x1 DUP2 PUSH1 0x7 ADD PUSH1 0x0 PUSH2 0x100 EXP DUP2 SLOAD DUP2 PUSH1 0xFF MUL NOT AND SWAP1 DUP4 ISZERO ISZERO MUL OR SWAP1 SSTORE POP PUSH1 0x0 DUP2 PUSH1 0x7 ADD PUSH1 0x1 PUSH2 0x100 EXP DUP2 SLOAD DUP2 PUSH1 0xFF MUL NOT AND SWAP1 DUP4 ISZERO ISZERO MUL OR SWAP1 SSTORE POP PUSH3 0x15180 DUP4 PUSH2 0xDF4 SWAP2 SWAP1 PUSH2 0x33EB JUMP JUMPDEST DUP2 PUSH1 0x8 ADD DUP2 SWAP1 SSTORE POP PUSH1 0x1 DUP2 PUSH1 0xC ADD PUSH1 0x0 CALLER PUSH20 0xFFFFFFFFFFFFFFFFFFFFFFFFFFFFFFFFFFFFFFFF AND PUSH20 0xFFFFFFFFFFFFFFFFFFFFFFFFFFFFFFFFFFFFFFFF AND DUP2 MSTORE PUSH1 0x20 ADD SWAP1 DUP2 MSTORE PUSH1 0x20 ADD PUSH1 0x0 KECCAK256 PUSH1 0x0 PUSH2 0x100 EXP DUP2 SLOAD DUP2 PUSH1 0xFF MUL NOT AND SWAP1 DUP4 ISZERO ISZERO MUL OR SWAP1 SSTORE POP PUSH1 0x0 PUSH1 0x1 PUSH1 0x2 DUP1 SLOAD SWAP1 POP PUSH2 0xE6A SWAP2 SWAP1 PUSH2 0x381B JUMP JUMPDEST SWAP1 POP PUSH32 0x46EA7EE0990CDE33902E77E2D7200322990CB03186C32D68F2966739D28FB366 DUP2 DUP7 DUP6 CALLER PUSH1 0x40 MLOAD PUSH2 0xEA1 SWAP5 SWAP4 SWAP3 SWAP2 SWAP1 PUSH2 0x3AC3 JUMP JUMPDEST PUSH1 0x40 MLOAD DUP1 SWAP2 SUB SWAP1 LOG1 PUSH32 0x79DB182AF3410C60080D8E7C7ED50F1977B0DF228F066BBEA532E7D75AF80D2C DUP2 DUP6 DUP5 PUSH1 0x5 ADD SLOAD PUSH2 0xEDB SWAP2 SWAP1 PUSH2 0x357B JUMP JUMPDEST PUSH1 0x40 MLOAD PUSH2 0xEE9 SWAP3 SWAP2 SWAP1 PUSH2 0x3B0F JUMP JUMPDEST PUSH1 0x40 MLOAD DUP1 SWAP2 SUB SWAP1 LOG1 POP POP POP POP POP JUMP JUMPDEST PUSH1 0x0 DUP1 SLOAD SWAP1 PUSH2 0x100 EXP SWAP1 DIV PUSH20 0xFFFFFFFFFFFFFFFFFFFFFFFFFFFFFFFFFFFFFFFF AND PUSH20 0xFFFFFFFFFFFFFFFFFFFFFFFFFFFFFFFFFFFFFFFF AND CALLER PUSH20 0xFFFFFFFFFFFFFFFFFFFFFFFFFFFFFFFFFFFFFFFF AND EQ PUSH2 0xF86 JUMPI PUSH1 0x40 MLOAD PUSH32 0x8C379A000000000000000000000000000000000000000000000000000000000 DUP2 MSTORE PUSH1 0x4 ADD PUSH2 0xF7D SWAP1 PUSH2 0x3BAA JUMP JUMPDEST PUSH1 0x40 MLOAD DUP1 SWAP2 SUB SWAP1 REVERT JUMPDEST PUSH1 0x0 PUSH20 0xFFFFFFFFFFFFFFFFFFFFFFFFFFFFFFFFFFFFFFFF AND DUP2 PUSH20 0xFFFFFFFFFFFFFFFFFFFFFFFFFFFFFFFFFFFFFFFF AND SUB PUSH2 0xFF5 JUMPI PUSH1 0x40 MLOAD PUSH32 0x8C379A000000000000000000000000000000000000000000000000000000000 DUP2 MSTORE PUSH1 0x4 ADD PUSH2 0xFEC SWAP1 PUSH2 0x3C16 JUMP JUMPDEST PUSH1 0x40 MLOAD DUP1 SWAP2 SUB SWAP1 REVERT JUMPDEST DUP1 PUSH1 0x1 PUSH1 0x0 PUSH2 0x100 EXP DUP2 SLOAD DUP2 PUSH20 0xFFFFFFFFFFFFFFFFFFFFFFFFFFFFFFFFFFFFFFFF MUL NOT AND SWAP1 DUP4 PUSH20 0xFFFFFFFFFFFFFFFFFFFFFFFFFFFFFFFFFFFFFFFF AND MUL OR SWAP1 SSTORE POP POP JUMP JUMPDEST DUP1 PUSH1 0x2 DUP1 SLOAD SWAP1 POP DUP2 LT PUSH2 0x1081 JUMPI PUSH1 0x40 MLOAD PUSH32 0x8C379A000000000000000000000000000000000000000000000000000000000 DUP2 MSTORE PUSH1 0x4 ADD PUSH2 0x1078 SWAP1 PUSH2 0x3168 JUMP JUMPDEST PUSH1 0x40 MLOAD DUP1 SWAP2 SUB SWAP1 REVERT JUMPDEST PUSH1 0x2 DUP2 DUP2 SLOAD DUP2 LT PUSH2 0x1095 JUMPI PUSH2 0x1094 PUSH2 0x3188 JUMP JUMPDEST JUMPDEST SWAP1 PUSH1 0x0 MSTORE PUSH1 0x20 PUSH1 0x0 KECCAK256 SWAP1 PUSH1 0xE MUL ADD PUSH1 0x7 ADD PUSH1 0x1 SWAP1 SLOAD SWAP1 PUSH2 0x100 EXP SWAP1 DIV PUSH1 0xFF AND ISZERO PUSH2 0x10F4 JUMPI PUSH1 0x40 MLOAD PUSH32 0x8C379A000000000000000000000000000000000000000000000000000000000 DUP2 MSTORE PUSH1 0x4 ADD PUSH2 0x10EB SWAP1 PUSH2 0x3C82 JUMP JUMPDEST PUSH1 0x40 MLOAD DUP1 SWAP2 SUB SWAP1 REVERT JUMPDEST PUSH1 0x2 DUP3 DUP2 SLOAD DUP2 LT PUSH2 0x1108 JUMPI PUSH2 0x1107 PUSH2 0x3188 JUMP JUMPDEST JUMPDEST SWAP1 PUSH1 0x0 MSTORE PUSH1 0x20 PUSH1 0x0 KECCAK256 SWAP1 PUSH1 0xE MUL ADD PUSH1 0xC ADD PUSH1 0x0 CALLER PUSH20 0xFFFFFFFFFFFFFFFFFFFFFFFFFFFFFFFFFFFFFFFF AND PUSH20 0xFFFFFFFFFFFFFFFFFFFFFFFFFFFFFFFFFFFFFFFF AND DUP2 MSTORE PUSH1 0x20 ADD SWAP1 DUP2 MSTORE PUSH1 0x20 ADD PUSH1 0x0 KECCAK256 PUSH1 0x0 SWAP1 SLOAD SWAP1 PUSH2 0x100 EXP SWAP1 DIV PUSH1 0xFF AND PUSH2 0x11A3 JUMPI PUSH1 0x40 MLOAD PUSH32 0x8C379A000000000000000000000000000000000000000000000000000000000 DUP2 MSTORE PUSH1 0x4 ADD PUSH2 0x119A SWAP1 PUSH2 0x3295 JUMP JUMPDEST PUSH1 0x40 MLOAD DUP1 SWAP2 SUB SWAP1 REVERT JUMPDEST PUSH1 0x0 DUP1 PUSH1 0x0 PUSH2 0x1213 PUSH1 0x2 DUP7 DUP2 SLOAD DUP2 LT PUSH2 0x11BF JUMPI PUSH2 0x11BE PUSH2 0x3188 JUMP JUMPDEST JUMPDEST SWAP1 PUSH1 0x0 MSTORE PUSH1 0x20 PUSH1 0x0 KECCAK256 SWAP1 PUSH1 0xE MUL ADD PUSH1 0xB ADD PUSH1 0x0 CALLER PUSH20 0xFFFFFFFFFFFFFFFFFFFFFFFFFFFFFFFFFFFFFFFF AND PUSH20 0xFFFFFFFFFFFFFFFFFFFFFFFFFFFFFFFFFFFFFFFF AND DUP2 MSTORE PUSH1 0x20 ADD SWAP1 DUP2 MSTORE PUSH1 0x20 ADD PUSH1 0x0 KECCAK256 SLOAD PUSH2 0x1FE1 JUMP JUMPDEST POP POP SWAP3 POP SWAP3 POP SWAP3 POP PUSH1 0x0 DUP1 PUSH1 0x0 DUP1 PUSH1 0x0 PUSH2 0x122C TIMESTAMP PUSH2 0x1FE1 JUMP JUMPDEST SWAP5 POP SWAP5 POP SWAP5 POP SWAP5 POP SWAP5 POP DUP8 DUP6 GT DUP1 PUSH2 0x1243 JUMPI POP DUP7 DUP5 GT JUMPDEST DUP1 PUSH2 0x124D JUMPI POP DUP6 DUP4 GT JUMPDEST PUSH2 0x128C JUMPI PUSH1 0x40 MLOAD PUSH32 0x8C379A000000000000000000000000000000000000000000000000000000000 DUP2 MSTORE PUSH1 0x4 ADD PUSH2 0x1283 SWAP1 PUSH2 0x3CEE JUMP JUMPDEST PUSH1 0x40 MLOAD DUP1 SWAP2 SUB SWAP1 REVERT JUMPDEST PUSH1 0x6 DUP3 EQ DUP1 ISZERO PUSH2 0x129D JUMPI POP PUSH1 0x5 DUP2 GT ISZERO JUMPDEST PUSH2 0x12DC JUMPI PUSH1 0x40 MLOAD PUSH32 0x8C379A000000000000000000000000000000000000000000000000000000000 DUP2 MSTORE PUSH1 0x4 ADD PUSH2 0x12D3 SWAP1 PUSH2 0x3D5A JUMP JUMPDEST PUSH1 0x40 MLOAD DUP1 SWAP2 SUB SWAP1 REVERT JUMPDEST PUSH1 0x2 DUP11 DUP2 SLOAD DUP2 LT PUSH2 0x12F0 JUMPI PUSH2 0x12EF PUSH2 0x3188 JUMP JUMPDEST JUMPDEST SWAP1 PUSH1 0x0 MSTORE PUSH1 0x20 PUSH1 0x0 KECCAK256 SWAP1 PUSH1 0xE MUL ADD PUSH1 0xA ADD PUSH1 0x0 CALLER PUSH20 0xFFFFFFFFFFFFFFFFFFFFFFFFFFFFFFFFFFFFFFFF AND PUSH20 0xFFFFFFFFFFFFFFFFFFFFFFFFFFFFFFFFFFFFFFFF AND DUP2 MSTORE PUSH1 0x20 ADD SWAP1 DUP2 MSTORE PUSH1 0x20 ADD PUSH1 0x0 KECCAK256 PUSH1 0x0 DUP2 SLOAD DUP1 SWAP3 SWAP2 SWAP1 PUSH2 0x134F SWAP1 PUSH2 0x3533 JUMP JUMPDEST SWAP2 SWAP1 POP SSTORE POP TIMESTAMP PUSH1 0x2 DUP12 DUP2 SLOAD DUP2 LT PUSH2 0x1369 JUMPI PUSH2 0x1368 PUSH2 0x3188 JUMP JUMPDEST JUMPDEST SWAP1 PUSH1 0x0 MSTORE PUSH1 0x20 PUSH1 0x0 KECCAK256 SWAP1 PUSH1 0xE MUL ADD PUSH1 0xB ADD PUSH1 0x0 CALLER PUSH20 0xFFFFFFFFFFFFFFFFFFFFFFFFFFFFFFFFFFFFFFFF AND PUSH20 0xFFFFFFFFFFFFFFFFFFFFFFFFFFFFFFFFFFFFFFFF AND DUP2 MSTORE PUSH1 0x20 ADD SWAP1 DUP2 MSTORE PUSH1 0x20 ADD PUSH1 0x0 KECCAK256 DUP2 SWAP1 SSTORE POP PUSH1 0x2 DUP11 DUP2 SLOAD DUP2 LT PUSH2 0x13CF JUMPI PUSH2 0x13CE PUSH2 0x3188 JUMP JUMPDEST JUMPDEST SWAP1 PUSH1 0x0 MSTORE PUSH1 0x20 PUSH1 0x0 KECCAK256 SWAP1 PUSH1 0xE MUL ADD PUSH1 0x8 ADD SLOAD PUSH1 0x2 DUP12 DUP2 SLOAD DUP2 LT PUSH2 0x13F5 JUMPI PUSH2 0x13F4 PUSH2 0x3188 JUMP JUMPDEST JUMPDEST SWAP1 PUSH1 0x0 MSTORE PUSH1 0x20 PUSH1 0x0 KECCAK256 SWAP1 PUSH1 0xE MUL ADD PUSH1 0xA ADD PUSH1 0x0 CALLER PUSH20 0xFFFFFFFFFFFFFFFFFFFFFFFFFFFFFFFFFFFFFFFF AND PUSH20 0xFFFFFFFFFFFFFFFFFFFFFFFFFFFFFFFFFFFFFFFF AND DUP2 MSTORE PUSH1 0x20 ADD SWAP1 DUP2 MSTORE PUSH1 0x20 ADD PUSH1 0x0 KECCAK256 SLOAD SUB PUSH2 0x1485 JUMPI PUSH1 0x2 DUP11 DUP2 SLOAD DUP2 LT PUSH2 0x145D JUMPI PUSH2 0x145C PUSH2 0x3188 JUMP JUMPDEST JUMPDEST SWAP1 PUSH1 0x0 MSTORE PUSH1 0x20 PUSH1 0x0 KECCAK256 SWAP1 PUSH1 0xE MUL ADD PUSH1 0x9 ADD PUSH1 0x0 DUP2 SLOAD DUP1 SWAP3 SWAP2 SWAP1 PUSH2 0x147F SWAP1 PUSH2 0x3533 JUMP JUMPDEST SWAP2 SWAP1 POP SSTORE POP JUMPDEST POP POP POP POP POP POP POP POP POP POP JUMP JUMPDEST PUSH1 0x0 DUP1 SLOAD SWAP1 PUSH2 0x100 EXP SWAP1 DIV PUSH20 0xFFFFFFFFFFFFFFFFFFFFFFFFFFFFFFFFFFFFFFFF AND PUSH20 0xFFFFFFFFFFFFFFFFFFFFFFFFFFFFFFFFFFFFFFFF AND CALLER PUSH20 0xFFFFFFFFFFFFFFFFFFFFFFFFFFFFFFFFFFFFFFFF AND EQ PUSH2 0x151F JUMPI PUSH1 0x40 MLOAD PUSH32 0x8C379A000000000000000000000000000000000000000000000000000000000 DUP2 MSTORE PUSH1 0x4 ADD PUSH2 0x1516 SWAP1 PUSH2 0x3BAA JUMP JUMPDEST PUSH1 0x40 MLOAD DUP1 SWAP2 SUB SWAP1 REVERT JUMPDEST PUSH1 0x0 DUP1 PUSH1 0x0 PUSH2 0x1552 PUSH1 0x2 DUP6 DUP2 SLOAD DUP2 LT PUSH2 0x153B JUMPI PUSH2 0x153A PUSH2 0x3188 JUMP JUMPDEST JUMPDEST SWAP1 PUSH1 0x0 MSTORE PUSH1 0x20 PUSH1 0x0 KECCAK256 SWAP1 PUSH1 0xE MUL ADD PUSH1 0x5 ADD SLOAD PUSH2 0x1FE1 JUMP JUMPDEST POP POP SWAP3 POP SWAP3 POP SWAP3 POP PUSH1 0x0 DUP1 PUSH1 0x0 DUP1 PUSH2 0x1569 TIMESTAMP PUSH2 0x1FE1 JUMP JUMPDEST POP SWAP4 POP SWAP4 POP SWAP4 POP SWAP4 POP DUP7 DUP5 GT DUP1 PUSH2 0x157F JUMPI POP DUP6 DUP4 GT JUMPDEST DUP1 PUSH2 0x1589 JUMPI POP DUP5 DUP3 GT JUMPDEST DUP1 PUSH2 0x1594 JUMPI POP PUSH1 0x15 DUP2 GT JUMPDEST PUSH2 0x15D3 JUMPI PUSH1 0x40 MLOAD PUSH32 0x8C379A000000000000000000000000000000000000000000000000000000000 DUP2 MSTORE PUSH1 0x4 ADD PUSH2 0x15CA SWAP1 PUSH2 0x3DEC JUMP JUMPDEST PUSH1 0x40 MLOAD DUP1 SWAP2 SUB SWAP1 REVERT JUMPDEST PUSH1 0x0 PUSH1 0x2 DUP10 DUP2 SLOAD DUP2 LT PUSH2 0x15E9 JUMPI PUSH2 0x15E8 PUSH2 0x3188 JUMP JUMPDEST JUMPDEST SWAP1 PUSH1 0x0 MSTORE PUSH1 0x20 PUSH1 0x0 KECCAK256 SWAP1 PUSH1 0xE MUL ADD PUSH1 0x7 ADD PUSH1 0x0 PUSH2 0x100 EXP DUP2 SLOAD DUP2 PUSH1 0xFF MUL NOT AND SWAP1 DUP4 ISZERO ISZERO MUL OR SWAP1 SSTORE POP PUSH2 0x163F PUSH1 0x2 DUP10 DUP2 SLOAD DUP2 LT PUSH2 0x1628 JUMPI PUSH2 0x1627 PUSH2 0x3188 JUMP JUMPDEST JUMPDEST SWAP1 PUSH1 0x0 MSTORE PUSH1 0x20 PUSH1 0x0 KECCAK256 SWAP1 PUSH1 0xE MUL ADD PUSH1 0x3 ADD SLOAD PUSH2 0x228E JUMP JUMPDEST POP POP POP POP POP POP POP POP JUMP JUMPDEST PUSH1 0x2 DUP2 DUP2 SLOAD DUP2 LT PUSH2 0x165D JUMPI PUSH2 0x165C PUSH2 0x3188 JUMP JUMPDEST JUMPDEST SWAP1 PUSH1 0x0 MSTORE PUSH1 0x20 PUSH1 0x0 KECCAK256 SWAP1 PUSH1 0xE MUL ADD PUSH1 0x7 ADD PUSH1 0x1 SWAP1 SLOAD SWAP1 PUSH2 0x100 EXP SWAP1 DIV PUSH1 0xFF AND PUSH2 0x16BB JUMPI PUSH1 0x40 MLOAD PUSH32 0x8C379A000000000000000000000000000000000000000000000000000000000 DUP2 MSTORE PUSH1 0x4 ADD PUSH2 0x16B2 SWAP1 PUSH2 0x3E58 JUMP JUMPDEST PUSH1 0x40 MLOAD DUP1 SWAP2 SUB SWAP1 REVERT JUMPDEST PUSH2 0x16E9 PUSH1 0x2 DUP3 DUP2 SLOAD DUP2 LT PUSH2 0x16D2 JUMPI PUSH2 0x16D1 PUSH2 0x3188 JUMP JUMPDEST JUMPDEST SWAP1 PUSH1 0x0 MSTORE PUSH1 0x20 PUSH1 0x0 KECCAK256 SWAP1 PUSH1 0xE MUL ADD PUSH1 0x3 ADD SLOAD PUSH2 0x244D JUMP JUMPDEST POP JUMP JUMPDEST PUSH1 0x0 DUP1 SLOAD SWAP1 PUSH2 0x100 EXP SWAP1 DIV PUSH20 0xFFFFFFFFFFFFFFFFFFFFFFFFFFFFFFFFFFFFFFFF AND PUSH20 0xFFFFFFFFFFFFFFFFFFFFFFFFFFFFFFFFFFFFFFFF AND CALLER PUSH20 0xFFFFFFFFFFFFFFFFFFFFFFFFFFFFFFFFFFFFFFFF AND EQ PUSH2 0x177A JUMPI PUSH1 0x40 MLOAD PUSH32 0x8C379A000000000000000000000000000000000000000000000000000000000 DUP2 MSTORE PUSH1 0x4 ADD PUSH2 0x1771 SWAP1 PUSH2 0x3BAA JUMP JUMPDEST PUSH1 0x40 MLOAD DUP1 SWAP2 SUB SWAP1 REVERT JUMPDEST PUSH1 0x2 DUP2 DUP2 SLOAD DUP2 LT PUSH2 0x178E JUMPI PUSH2 0x178D PUSH2 0x3188 JUMP JUMPDEST JUMPDEST SWAP1 PUSH1 0x0 MSTORE PUSH1 0x20 PUSH1 0x0 KECCAK256 SWAP1 PUSH1 0xE MUL ADD PUSH1 0x6 ADD SLOAD PUSH1 0x2 DUP3 DUP2 SLOAD DUP2 LT PUSH2 0x17B4 JUMPI PUSH2 0x17B3 PUSH2 0x3188 JUMP JUMPDEST JUMPDEST SWAP1 PUSH1 0x0 MSTORE PUSH1 0x20 PUSH1 0x0 KECCAK256 SWAP1 PUSH1 0xE MUL ADD PUSH1 0x5 ADD SLOAD PUSH2 0x17D0 SWAP2 SWAP1 PUSH2 0x357B JUMP JUMPDEST TIMESTAMP LT ISZERO PUSH2 0x1812 JUMPI PUSH1 0x40 MLOAD PUSH32 0x8C379A000000000000000000000000000000000000000000000000000000000 DUP2 MSTORE PUSH1 0x4 ADD PUSH2 0x1809 SWAP1 PUSH2 0x3EC4 JUMP JUMPDEST PUSH1 0x40 MLOAD DUP1 SWAP2 SUB SWAP1 REVERT JUMPDEST PUSH2 0x181B DUP2 PUSH2 0x25B8 JUMP JUMPDEST POP JUMP JUMPDEST PUSH1 0x2 DUP2 DUP2 SLOAD DUP2 LT PUSH2 0x182E JUMPI PUSH1 0x0 DUP1 REVERT JUMPDEST SWAP1 PUSH1 0x0 MSTORE PUSH1 0x20 PUSH1 0x0 KECCAK256 SWAP1 PUSH1 0xE MUL ADD PUSH1 0x0 SWAP2 POP SWAP1 POP DUP1 PUSH1 0x0 ADD PUSH1 0x0 SWAP1 SLOAD SWAP1 PUSH2 0x100 EXP SWAP1 DIV PUSH20 0xFFFFFFFFFFFFFFFFFFFFFFFFFFFFFFFFFFFFFFFF AND SWAP1 DUP1 PUSH1 0x1 ADD DUP1 SLOAD PUSH2 0x1877 SWAP1 PUSH2 0x35DE JUMP JUMPDEST DUP1 PUSH1 0x1F ADD PUSH1 0x20 DUP1 SWAP2 DIV MUL PUSH1 0x20 ADD PUSH1 0x40 MLOAD SWAP1 DUP2 ADD PUSH1 0x40 MSTORE DUP1 SWAP3 SWAP2 SWAP1 DUP2 DUP2 MSTORE PUSH1 0x20 ADD DUP3 DUP1 SLOAD PUSH2 0x18A3 SWAP1 PUSH2 0x35DE JUMP JUMPDEST DUP1 ISZERO PUSH2 0x18F0 JUMPI DUP1 PUSH1 0x1F LT PUSH2 0x18C5 JUMPI PUSH2 0x100 DUP1 DUP4 SLOAD DIV MUL DUP4 MSTORE SWAP2 PUSH1 0x20 ADD SWAP2 PUSH2 0x18F0 JUMP JUMPDEST DUP3 ADD SWAP2 SWAP1 PUSH1 0x0 MSTORE PUSH1 0x20 PUSH1 0x0 KECCAK256 SWAP1 JUMPDEST DUP2 SLOAD DUP2 MSTORE SWAP1 PUSH1 0x1 ADD SWAP1 PUSH1 0x20 ADD DUP1 DUP4 GT PUSH2 0x18D3 JUMPI DUP3 SWAP1 SUB PUSH1 0x1F AND DUP3 ADD SWAP2 JUMPDEST POP POP POP POP POP SWAP1 DUP1 PUSH1 0x2 ADD SLOAD SWAP1 DUP1 PUSH1 0x3 ADD SLOAD SWAP1 DUP1 PUSH1 0x4 ADD SLOAD SWAP1 DUP1 PUSH1 0x5 ADD SLOAD SWAP1 DUP1 PUSH1 0x6 ADD SLOAD SWAP1 DUP1 PUSH1 0x7 ADD PUSH1 0x0 SWAP1 SLOAD SWAP1 PUSH2 0x100 EXP SWAP1 DIV PUSH1 0xFF AND SWAP1 DUP1 PUSH1 0x7 ADD PUSH1 0x1 SWAP1 SLOAD SWAP1 PUSH2 0x100 EXP SWAP1 DIV PUSH1 0xFF AND SWAP1 DUP1 PUSH1 0x8 ADD SLOAD SWAP1 DUP1 PUSH1 0x9 ADD SLOAD SWAP1 POP DUP12 JUMP JUMPDEST DUP1 PUSH1 0x2 DUP1 SLOAD SWAP1 POP DUP2 LT PUSH2 0x1992 JUMPI PUSH1 0x40 MLOAD PUSH32 0x8C379A000000000000000000000000000000000000000000000000000000000 DUP2 MSTORE PUSH1 0x4 ADD PUSH2 0x1989 SWAP1 PUSH2 0x3168 JUMP JUMPDEST PUSH1 0x40 MLOAD DUP1 SWAP2 SUB SWAP1 REVERT JUMPDEST PUSH1 0x2 DUP2 DUP2 SLOAD DUP2 LT PUSH2 0x19A6 JUMPI PUSH2 0x19A5 PUSH2 0x3188 JUMP JUMPDEST JUMPDEST SWAP1 PUSH1 0x0 MSTORE PUSH1 0x20 PUSH1 0x0 KECCAK256 SWAP1 PUSH1 0xE MUL ADD PUSH1 0x7 ADD PUSH1 0x1 SWAP1 SLOAD SWAP1 PUSH2 0x100 EXP SWAP1 DIV PUSH1 0xFF AND ISZERO PUSH2 0x1A05 JUMPI PUSH1 0x40 MLOAD PUSH32 0x8C379A000000000000000000000000000000000000000000000000000000000 DUP2 MSTORE PUSH1 0x4 ADD PUSH2 0x19FC SWAP1 PUSH2 0x3C82 JUMP JUMPDEST PUSH1 0x40 MLOAD DUP1 SWAP2 SUB SWAP1 REVERT JUMPDEST PUSH1 0x0 DUP1 PUSH1 0x0 PUSH2 0x1A38 PUSH1 0x2 DUP7 DUP2 SLOAD DUP2 LT PUSH2 0x1A21 JUMPI PUSH2 0x1A20 PUSH2 0x3188 JUMP JUMPDEST JUMPDEST SWAP1 PUSH1 0x0 MSTORE PUSH1 0x20 PUSH1 0x0 KECCAK256 SWAP1 PUSH1 0xE MUL ADD PUSH1 0x5 ADD SLOAD PUSH2 0x1FE1 JUMP JUMPDEST POP POP SWAP3 POP SWAP3 POP SWAP3 POP PUSH1 0x0 DUP1 PUSH1 0x0 DUP1 PUSH2 0x1A4F TIMESTAMP PUSH2 0x1FE1 JUMP JUMPDEST POP SWAP4 POP SWAP4 POP SWAP4 POP SWAP4 POP DUP7 DUP5 LT DUP1 PUSH2 0x1A65 JUMPI POP DUP6 DUP4 LT JUMPDEST DUP1 PUSH2 0x1A6F JUMPI POP DUP5 DUP3 LT JUMPDEST DUP1 PUSH2 0x1A7A JUMPI POP PUSH1 0x15 DUP2 LT JUMPDEST PUSH2 0x1AB9 JUMPI PUSH1 0x40 MLOAD PUSH32 0x8C379A000000000000000000000000000000000000000000000000000000000 DUP2 MSTORE PUSH1 0x4 ADD PUSH2 0x1AB0 SWAP1 PUSH2 0x3DEC JUMP JUMPDEST PUSH1 0x40 MLOAD DUP1 SWAP2 SUB SWAP1 REVERT JUMPDEST PUSH1 0x2 DUP10 DUP2 SLOAD DUP2 LT PUSH2 0x1ACD JUMPI PUSH2 0x1ACC PUSH2 0x3188 JUMP JUMPDEST JUMPDEST SWAP1 PUSH1 0x0 MSTORE PUSH1 0x20 PUSH1 0x0 KECCAK256 SWAP1 PUSH1 0xE MUL ADD PUSH1 0xC ADD PUSH1 0x0 CALLER PUSH20 0xFFFFFFFFFFFFFFFFFFFFFFFFFFFFFFFFFFFFFFFF AND PUSH20 0xFFFFFFFFFFFFFFFFFFFFFFFFFFFFFFFFFFFFFFFF AND DUP2 MSTORE PUSH1 0x20 ADD SWAP1 DUP2 MSTORE PUSH1 0x20 ADD PUSH1 0x0 KECCAK256 PUSH1 0x0 SWAP1 SLOAD SWAP1 PUSH2 0x100 EXP SWAP1 DIV PUSH1 0xFF AND ISZERO PUSH2 0x1B69 JUMPI PUSH1 0x40 MLOAD PUSH32 0x8C379A000000000000000000000000000000000000000000000000000000000 DUP2 MSTORE PUSH1 0x4 ADD PUSH2 0x1B60 SWAP1 PUSH2 0x3F30 JUMP JUMPDEST PUSH1 0x40 MLOAD DUP1 SWAP2 SUB SWAP1 REVERT JUMPDEST PUSH1 0x2 DUP10 DUP2 SLOAD DUP2 LT PUSH2 0x1B7D JUMPI PUSH2 0x1B7C PUSH2 0x3188 JUMP JUMPDEST JUMPDEST SWAP1 PUSH1 0x0 MSTORE PUSH1 0x20 PUSH1 0x0 KECCAK256 SWAP1 PUSH1 0xE MUL ADD PUSH1 0x2 ADD SLOAD PUSH1 0x1 PUSH1 0x0 SWAP1 SLOAD SWAP1 PUSH2 0x100 EXP SWAP1 DIV PUSH20 0xFFFFFFFFFFFFFFFFFFFFFFFFFFFFFFFFFFFFFFFF AND PUSH20 0xFFFFFFFFFFFFFFFFFFFFFFFFFFFFFFFFFFFFFFFF AND PUSH4 0x70A08231 CALLER PUSH1 0x40 MLOAD DUP3 PUSH4 0xFFFFFFFF AND PUSH1 0xE0 SHL DUP2 MSTORE PUSH1 0x4 ADD PUSH2 0x1BEA SWAP2 SWAP1 PUSH2 0x3087 JUMP JUMPDEST PUSH1 0x20 PUSH1 0x40 MLOAD DUP1 DUP4 SUB DUP2 DUP7 GAS STATICCALL ISZERO DUP1 ISZERO PUSH2 0x1C07 JUMPI RETURNDATASIZE PUSH1 0x0 DUP1 RETURNDATACOPY RETURNDATASIZE PUSH1 0x0 REVERT JUMPDEST POP POP POP POP PUSH1 0x40 MLOAD RETURNDATASIZE PUSH1 0x1F NOT PUSH1 0x1F DUP3 ADD AND DUP3 ADD DUP1 PUSH1 0x40 MSTORE POP DUP2 ADD SWAP1 PUSH2 0x1C2B SWAP2 SWAP1 PUSH2 0x36DF JUMP JUMPDEST LT ISZERO PUSH2 0x1C6C JUMPI PUSH1 0x40 MLOAD PUSH32 0x8C379A000000000000000000000000000000000000000000000000000000000 DUP2 MSTORE PUSH1 0x4 ADD PUSH2 0x1C63 SWAP1 PUSH2 0x3F9C JUMP JUMPDEST PUSH1 0x40 MLOAD DUP1 SWAP2 SUB SWAP1 REVERT JUMPDEST PUSH1 0x2 DUP10 DUP2 SLOAD DUP2 LT PUSH2 0x1C80 JUMPI PUSH2 0x1C7F PUSH2 0x3188 JUMP JUMPDEST JUMPDEST SWAP1 PUSH1 0x0 MSTORE PUSH1 0x20 PUSH1 0x0 KECCAK256 SWAP1 PUSH1 0xE MUL ADD PUSH1 0x2 ADD SLOAD PUSH1 0x1 PUSH1 0x0 SWAP1 SLOAD SWAP1 PUSH2 0x100 EXP SWAP1 DIV PUSH20 0xFFFFFFFFFFFFFFFFFFFFFFFFFFFFFFFFFFFFFFFF AND PUSH20 0xFFFFFFFFFFFFFFFFFFFFFFFFFFFFFFFFFFFFFFFF AND PUSH4 0xDD62ED3E CALLER ADDRESS PUSH1 0x40 MLOAD DUP4 PUSH4 0xFFFFFFFF AND PUSH1 0xE0 SHL DUP2 MSTORE PUSH1 0x4 ADD PUSH2 0x1CEF SWAP3 SWAP2 SWAP1 PUSH2 0x36A1 JUMP JUMPDEST PUSH1 0x20 PUSH1 0x40 MLOAD DUP1 DUP4 SUB DUP2 DUP7 GAS STATICCALL ISZERO DUP1 ISZERO PUSH2 0x1D0C JUMPI RETURNDATASIZE PUSH1 0x0 DUP1 RETURNDATACOPY RETURNDATASIZE PUSH1 0x0 REVERT JUMPDEST POP POP POP POP PUSH1 0x40 MLOAD RETURNDATASIZE PUSH1 0x1F NOT PUSH1 0x1F DUP3 ADD AND DUP3 ADD DUP1 PUSH1 0x40 MSTORE POP DUP2 ADD SWAP1 PUSH2 0x1D30 SWAP2 SWAP1 PUSH2 0x36DF JUMP JUMPDEST LT ISZERO PUSH2 0x1D71 JUMPI PUSH1 0x40 MLOAD PUSH32 0x8C379A000000000000000000000000000000000000000000000000000000000 DUP2 MSTORE PUSH1 0x4 ADD PUSH2 0x1D68 SWAP1 PUSH2 0x3758 JUMP JUMPDEST PUSH1 0x40 MLOAD DUP1 SWAP2 SUB SWAP1 REVERT JUMPDEST PUSH1 0x1 PUSH1 0x0 SWAP1 SLOAD SWAP1 PUSH2 0x100 EXP SWAP1 DIV PUSH20 0xFFFFFFFFFFFFFFFFFFFFFFFFFFFFFFFFFFFFFFFF AND PUSH20 0xFFFFFFFFFFFFFFFFFFFFFFFFFFFFFFFFFFFFFFFF AND PUSH4 0x23B872DD CALLER ADDRESS PUSH1 0x2 DUP14 DUP2 SLOAD DUP2 LT PUSH2 0x1DC5 JUMPI PUSH2 0x1DC4 PUSH2 0x3188 JUMP JUMPDEST JUMPDEST SWAP1 PUSH1 0x0 MSTORE PUSH1 0x20 PUSH1 0x0 KECCAK256 SWAP1 PUSH1 0xE MUL ADD PUSH1 0x2 ADD SLOAD PUSH1 0x40 MLOAD DUP5 PUSH4 0xFFFFFFFF AND PUSH1 0xE0 SHL DUP2 MSTORE PUSH1 0x4 ADD PUSH2 0x1DF5 SWAP4 SWAP3 SWAP2 SWAP1 PUSH2 0x3778 JUMP JUMPDEST PUSH1 0x20 PUSH1 0x40 MLOAD DUP1 DUP4 SUB DUP2 PUSH1 0x0 DUP8 GAS CALL ISZERO DUP1 ISZERO PUSH2 0x1E14 JUMPI RETURNDATASIZE PUSH1 0x0 DUP1 RETURNDATACOPY RETURNDATASIZE PUSH1 0x0 REVERT JUMPDEST POP POP POP POP PUSH1 0x40 MLOAD RETURNDATASIZE PUSH1 0x1F NOT PUSH1 0x1F DUP3 ADD AND DUP3 ADD DUP1 PUSH1 0x40 MSTORE POP DUP2 ADD SWAP1 PUSH2 0x1E38 SWAP2 SWAP1 PUSH2 0x3471 JUMP JUMPDEST PUSH2 0x1E77 JUMPI PUSH1 0x40 MLOAD PUSH32 0x8C379A000000000000000000000000000000000000000000000000000000000 DUP2 MSTORE PUSH1 0x4 ADD PUSH2 0x1E6E SWAP1 PUSH2 0x37FB JUMP JUMPDEST PUSH1 0x40 MLOAD DUP1 SWAP2 SUB SWAP1 REVERT JUMPDEST PUSH32 0x690ECBABE96222B39728B512682860CC6460002A670FF94954038286BEA0BA69 DUP10 CALLER PUSH1 0x40 MLOAD PUSH2 0x1EA8 SWAP3 SWAP2 SWAP1 PUSH2 0x350A JUMP JUMPDEST PUSH1 0x40 MLOAD DUP1 SWAP2 SUB SWAP1 LOG1 PUSH1 0x1 PUSH1 0x2 DUP11 DUP2 SLOAD DUP2 LT PUSH2 0x1EC6 JUMPI PUSH2 0x1EC5 PUSH2 0x3188 JUMP JUMPDEST JUMPDEST SWAP1 PUSH1 0x0 MSTORE PUSH1 0x20 PUSH1 0x0 KECCAK256 SWAP1 PUSH1 0xE MUL ADD PUSH1 0xC ADD PUSH1 0x0 CALLER PUSH20 0xFFFFFFFFFFFFFFFFFFFFFFFFFFFFFFFFFFFFFFFF AND PUSH20 0xFFFFFFFFFFFFFFFFFFFFFFFFFFFFFFFFFFFFFFFF AND DUP2 MSTORE PUSH1 0x20 ADD SWAP1 DUP2 MSTORE PUSH1 0x20 ADD PUSH1 0x0 KECCAK256 PUSH1 0x0 PUSH2 0x100 EXP DUP2 SLOAD DUP2 PUSH1 0xFF MUL NOT AND SWAP1 DUP4 ISZERO ISZERO MUL OR SWAP1 SSTORE POP PUSH1 0x2 DUP10 DUP2 SLOAD DUP2 LT PUSH2 0x1F3F JUMPI PUSH2 0x1F3E PUSH2 0x3188 JUMP JUMPDEST JUMPDEST SWAP1 PUSH1 0x0 MSTORE PUSH1 0x20 PUSH1 0x0 KECCAK256 SWAP1 PUSH1 0xE MUL ADD PUSH1 0x2 ADD SLOAD PUSH1 0x2 DUP11 DUP2 SLOAD DUP2 LT PUSH2 0x1F65 JUMPI PUSH2 0x1F64 PUSH2 0x3188 JUMP JUMPDEST JUMPDEST SWAP1 PUSH1 0x0 MSTORE PUSH1 0x20 PUSH1 0x0 KECCAK256 SWAP1 PUSH1 0xE MUL ADD PUSH1 0x3 ADD PUSH1 0x0 DUP3 DUP3 SLOAD PUSH2 0x1F85 SWAP2 SWAP1 PUSH2 0x357B JUMP JUMPDEST SWAP3 POP POP DUP2 SWAP1 SSTORE POP POP POP POP POP POP POP POP POP POP JUMP JUMPDEST PUSH1 0x0 DUP1 SLOAD SWAP1 PUSH2 0x100 EXP SWAP1 DIV PUSH20 0xFFFFFFFFFFFFFFFFFFFFFFFFFFFFFFFFFFFFFFFF AND DUP2 JUMP JUMPDEST PUSH1 0x1 PUSH1 0x0 SWAP1 SLOAD SWAP1 PUSH2 0x100 EXP SWAP1 DIV PUSH20 0xFFFFFFFFFFFFFFFFFFFFFFFFFFFFFFFFFFFFFFFF AND DUP2 JUMP JUMPDEST PUSH1 0x0 DUP1 PUSH1 0x0 DUP1 PUSH1 0x0 DUP1 PUSH2 0x7E90 SWAP1 POP PUSH1 0x0 DUP2 DUP9 PUSH2 0x1FFD SWAP2 SWAP1 PUSH2 0x357B JUMP JUMPDEST SWAP1 POP PUSH1 0x0 PUSH3 0x15180 SWAP1 POP PUSH1 0x0 PUSH4 0x1E13380 SWAP1 POP PUSH1 0x0 PUSH4 0x1E28500 SWAP1 POP PUSH1 0x0 PUSH2 0x7B2 SWAP1 POP PUSH1 0x0 DUP1 JUMPDEST DUP7 DUP6 DUP4 PUSH2 0x2031 SWAP2 SWAP1 PUSH2 0x357B JUMP JUMPDEST GT PUSH2 0x20BF JUMPI PUSH1 0x0 PUSH1 0x4 DUP5 PUSH2 0x2045 SWAP2 SWAP1 PUSH2 0x3FBC JUMP JUMPDEST EQ DUP1 ISZERO PUSH2 0x2077 JUMPI POP PUSH1 0x0 PUSH1 0x64 DUP5 PUSH2 0x205C SWAP2 SWAP1 PUSH2 0x3FBC JUMP JUMPDEST EQ ISZERO DUP1 PUSH2 0x2076 JUMPI POP PUSH1 0x0 PUSH2 0x190 DUP5 PUSH2 0x2074 SWAP2 SWAP1 PUSH2 0x3FBC JUMP JUMPDEST EQ JUMPDEST JUMPDEST ISZERO PUSH2 0x209D JUMPI DUP4 DUP3 PUSH2 0x2088 SWAP2 SWAP1 PUSH2 0x357B JUMP JUMPDEST SWAP2 POP DUP1 DUP1 PUSH2 0x2095 SWAP1 PUSH2 0x3533 JUMP JUMPDEST SWAP2 POP POP PUSH2 0x20AC JUMP JUMPDEST DUP5 DUP3 PUSH2 0x20A9 SWAP2 SWAP1 PUSH2 0x357B JUMP JUMPDEST SWAP2 POP JUMPDEST DUP3 DUP1 PUSH2 0x20B7 SWAP1 PUSH2 0x3533 JUMP JUMPDEST SWAP4 POP POP PUSH2 0x2024 JUMP JUMPDEST DUP3 SWAP13 POP PUSH1 0x0 PUSH1 0x40 MLOAD DUP1 PUSH2 0x180 ADD PUSH1 0x40 MSTORE DUP1 PUSH1 0x1F PUSH1 0xFF AND PUSH1 0xFF AND DUP2 MSTORE PUSH1 0x20 ADD PUSH1 0x1C PUSH1 0xFF AND PUSH1 0xFF AND DUP2 MSTORE PUSH1 0x20 ADD PUSH1 0x1F PUSH1 0xFF AND PUSH1 0xFF AND DUP2 MSTORE PUSH1 0x20 ADD PUSH1 0x1E PUSH1 0xFF AND PUSH1 0xFF AND DUP2 MSTORE PUSH1 0x20 ADD PUSH1 0x1F PUSH1 0xFF AND PUSH1 0xFF AND DUP2 MSTORE PUSH1 0x20 ADD PUSH1 0x1E PUSH1 0xFF AND PUSH1 0xFF AND DUP2 MSTORE PUSH1 0x20 ADD PUSH1 0x1F PUSH1 0xFF AND PUSH1 0xFF AND DUP2 MSTORE PUSH1 0x20 ADD PUSH1 0x1F PUSH1 0xFF AND PUSH1 0xFF AND DUP2 MSTORE PUSH1 0x20 ADD PUSH1 0x1E PUSH1 0xFF AND PUSH1 0xFF AND DUP2 MSTORE PUSH1 0x20 ADD PUSH1 0x1F PUSH1 0xFF AND PUSH1 0xFF AND DUP2 MSTORE PUSH1 0x20 ADD PUSH1 0x1E PUSH1 0xFF AND PUSH1 0xFF AND DUP2 MSTORE PUSH1 0x20 ADD PUSH1 0x1F PUSH1 0xFF AND PUSH1 0xFF AND DUP2 MSTORE POP SWAP1 POP PUSH1 0x0 JUMPDEST PUSH1 0x1 ISZERO PUSH2 0x21F4 JUMPI PUSH1 0x0 PUSH1 0xC DUP3 SUB PUSH2 0x2186 JUMPI POP PUSH2 0x21F4 JUMP JUMPDEST DUP9 DUP4 DUP4 PUSH1 0xC DUP2 LT PUSH2 0x219A JUMPI PUSH2 0x2199 PUSH2 0x3188 JUMP JUMPDEST JUMPDEST PUSH1 0x20 MUL ADD MLOAD PUSH1 0xFF AND PUSH2 0x21AC SWAP2 SWAP1 PUSH2 0x3FED JUMP JUMPDEST DUP2 PUSH2 0x21B7 SWAP2 SWAP1 PUSH2 0x357B JUMP JUMPDEST SWAP1 POP DUP1 DUP6 PUSH2 0x21C5 SWAP2 SWAP1 PUSH2 0x357B JUMP JUMPDEST DUP11 LT ISZERO PUSH2 0x21D2 JUMPI POP PUSH2 0x21F4 JUMP JUMPDEST DUP1 DUP6 PUSH2 0x21DE SWAP2 SWAP1 PUSH2 0x357B JUMP JUMPDEST SWAP5 POP DUP2 DUP1 PUSH2 0x21EB SWAP1 PUSH2 0x3533 JUMP JUMPDEST SWAP3 POP POP POP PUSH2 0x216F JUMP JUMPDEST PUSH1 0x1 DUP2 PUSH2 0x2201 SWAP2 SWAP1 PUSH2 0x357B JUMP JUMPDEST SWAP14 POP PUSH1 0x1 DUP9 DUP6 DUP12 PUSH2 0x2212 SWAP2 SWAP1 PUSH2 0x381B JUMP JUMPDEST PUSH2 0x221C SWAP2 SWAP1 PUSH2 0x33EB JUMP JUMPDEST PUSH2 0x2226 SWAP2 SWAP1 PUSH2 0x357B JUMP JUMPDEST SWAP13 POP PUSH1 0x0 DUP9 DUP6 DUP12 PUSH2 0x2237 SWAP2 SWAP1 PUSH2 0x381B JUMP JUMPDEST PUSH2 0x2241 SWAP2 SWAP1 PUSH2 0x357B JUMP JUMPDEST SWAP1 POP PUSH2 0xE10 DUP10 DUP3 PUSH2 0x2252 SWAP2 SWAP1 PUSH2 0x3FBC JUMP JUMPDEST PUSH2 0x225C SWAP2 SWAP1 PUSH2 0x33EB JUMP JUMPDEST SWAP13 POP PUSH1 0x3C PUSH2 0xE10 DUP3 PUSH2 0x226E SWAP2 SWAP1 PUSH2 0x3FBC JUMP JUMPDEST PUSH2 0x2278 SWAP2 SWAP1 PUSH2 0x33EB JUMP JUMPDEST SWAP12 POP POP POP POP POP POP POP POP POP POP POP POP SWAP2 SWAP4 SWAP6 SWAP1 SWAP3 SWAP5 POP JUMP JUMPDEST PUSH1 0x0 PUSH20 0xE86FCF5213C785ACF9A8BFFEEDEFA9A2199F7DA6 SWAP1 POP PUSH1 0x0 PUSH20 0xE1EF78939F9D3340E63A7A1077D50999CC6B64F PUSH20 0x1F4AEF3A04372CF9D738D5459F31950A53969CA3 PUSH1 0x40 MLOAD PUSH1 0x20 ADD PUSH2 0x22E4 SWAP3 SWAP2 SWAP1 PUSH2 0x36A1 JUMP JUMPDEST PUSH1 0x40 MLOAD PUSH1 0x20 DUP2 DUP4 SUB SUB DUP2 MSTORE SWAP1 PUSH1 0x40 MSTORE SWAP1 POP PUSH1 0x0 PUSH20 0x68C1F9620AEC7F2913430AD6DAC1BB16D8444F00 PUSH20 0xFFFFFFFFFFFFFFFFFFFFFFFFFFFFFFFFFFFFFFFF AND DUP4 DUP6 DUP5 PUSH1 0x40 MLOAD PUSH1 0x24 ADD PUSH2 0x2337 SWAP4 SWAP3 SWAP2 SWAP1 PUSH2 0x4084 JUMP JUMPDEST PUSH1 0x40 MLOAD PUSH1 0x20 DUP2 DUP4 SUB SUB DUP2 MSTORE SWAP1 PUSH1 0x40 MSTORE PUSH32 0xD8146E7500000000000000000000000000000000000000000000000000000000 PUSH28 0xFFFFFFFFFFFFFFFFFFFFFFFFFFFFFFFFFFFFFFFFFFFFFFFFFFFFFFFF NOT AND PUSH1 0x20 DUP3 ADD DUP1 MLOAD PUSH28 0xFFFFFFFFFFFFFFFFFFFFFFFFFFFFFFFFFFFFFFFFFFFFFFFFFFFFFFFF DUP4 DUP2 DUP4 AND OR DUP4 MSTORE POP POP POP POP PUSH1 0x40 MLOAD PUSH2 0x23C1 SWAP2 SWAP1 PUSH2 0x40FE JUMP JUMPDEST PUSH1 0x0 PUSH1 0x40 MLOAD DUP1 DUP4 SUB DUP2 PUSH1 0x0 DUP7 GAS CALL SWAP2 POP POP RETURNDATASIZE DUP1 PUSH1 0x0 DUP2 EQ PUSH2 0x23FE JUMPI PUSH1 0x40 MLOAD SWAP2 POP PUSH1 0x1F NOT PUSH1 0x3F RETURNDATASIZE ADD AND DUP3 ADD PUSH1 0x40 MSTORE RETURNDATASIZE DUP3 MSTORE RETURNDATASIZE PUSH1 0x0 PUSH1 0x20 DUP5 ADD RETURNDATACOPY PUSH2 0x2403 JUMP JUMPDEST PUSH1 0x60 SWAP2 POP JUMPDEST POP POP SWAP1 POP DUP1 PUSH2 0x2447 JUMPI PUSH1 0x40 MLOAD PUSH32 0x8C379A000000000000000000000000000000000000000000000000000000000 DUP2 MSTORE PUSH1 0x4 ADD PUSH2 0x243E SWAP1 PUSH2 0x4161 JUMP JUMPDEST PUSH1 0x40 MLOAD DUP1 SWAP2 SUB SWAP1 REVERT JUMPDEST POP POP POP POP JUMP JUMPDEST PUSH1 0x0 PUSH20 0xE1EF78939F9D3340E63A7A1077D50999CC6B64F PUSH20 0xFFFFFFFFFFFFFFFFFFFFFFFFFFFFFFFFFFFFFFFF AND PUSH20 0x1F4AEF3A04372CF9D738D5459F31950A53969CA3 DUP4 PUSH1 0x1 PUSH1 0x40 MLOAD PUSH1 0x24 ADD PUSH2 0x24A4 SWAP4 SWAP3 SWAP2 SWAP1 PUSH2 0x4181 JUMP JUMPDEST PUSH1 0x40 MLOAD PUSH1 0x20 DUP2 DUP4 SUB SUB DUP2 MSTORE SWAP1 PUSH1 0x40 MSTORE PUSH32 0x53D3CE5F00000000000000000000000000000000000000000000000000000000 PUSH28 0xFFFFFFFFFFFFFFFFFFFFFFFFFFFFFFFFFFFFFFFFFFFFFFFFFFFFFFFF NOT AND PUSH1 0x20 DUP3 ADD DUP1 MLOAD PUSH28 0xFFFFFFFFFFFFFFFFFFFFFFFFFFFFFFFFFFFFFFFFFFFFFFFFFFFFFFFF DUP4 DUP2 DUP4 AND OR DUP4 MSTORE POP POP POP POP PUSH1 0x40 MLOAD PUSH2 0x252E SWAP2 SWAP1 PUSH2 0x40FE JUMP JUMPDEST PUSH1 0x0 PUSH1 0x40 MLOAD DUP1 DUP4 SUB DUP2 PUSH1 0x0 DUP7 GAS CALL SWAP2 POP POP RETURNDATASIZE DUP1 PUSH1 0x0 DUP2 EQ PUSH2 0x256B JUMPI PUSH1 0x40 MLOAD SWAP2 POP PUSH1 0x1F NOT PUSH1 0x3F RETURNDATASIZE ADD AND DUP3 ADD PUSH1 0x40 MSTORE RETURNDATASIZE DUP3 MSTORE RETURNDATASIZE PUSH1 0x0 PUSH1 0x20 DUP5 ADD RETURNDATACOPY PUSH2 0x2570 JUMP JUMPDEST PUSH1 0x60 SWAP2 POP JUMPDEST POP POP SWAP1 POP DUP1 PUSH2 0x25B4 JUMPI PUSH1 0x40 MLOAD PUSH32 0x8C379A000000000000000000000000000000000000000000000000000000000 DUP2 MSTORE PUSH1 0x4 ADD PUSH2 0x25AB SWAP1 PUSH2 0x4161 JUMP JUMPDEST PUSH1 0x40 MLOAD DUP1 SWAP2 SUB SWAP1 REVERT JUMPDEST POP POP JUMP JUMPDEST DUP1 PUSH1 0x2 DUP1 SLOAD SWAP1 POP DUP2 LT PUSH2 0x2600 JUMPI PUSH1 0x40 MLOAD PUSH32 0x8C379A000000000000000000000000000000000000000000000000000000000 DUP2 MSTORE PUSH1 0x4 ADD PUSH2 0x25F7 SWAP1 PUSH2 0x3168 JUMP JUMPDEST PUSH1 0x40 MLOAD DUP1 SWAP2 SUB SWAP1 REVERT JUMPDEST PUSH1 0x2 DUP2 DUP2 SLOAD DUP2 LT PUSH2 0x2614 JUMPI PUSH2 0x2613 PUSH2 0x3188 JUMP JUMPDEST JUMPDEST SWAP1 PUSH1 0x0 MSTORE PUSH1 0x20 PUSH1 0x0 KECCAK256 SWAP1 PUSH1 0xE MUL ADD PUSH1 0x7 ADD PUSH1 0x1 SWAP1 SLOAD SWAP1 PUSH2 0x100 EXP SWAP1 DIV PUSH1 0xFF AND ISZERO PUSH2 0x2673 JUMPI PUSH1 0x40 MLOAD PUSH32 0x8C379A000000000000000000000000000000000000000000000000000000000 DUP2 MSTORE PUSH1 0x4 ADD PUSH2 0x266A SWAP1 PUSH2 0x3C82 JUMP JUMPDEST PUSH1 0x40 MLOAD DUP1 SWAP2 SUB SWAP1 REVERT JUMPDEST PUSH1 0x0 PUSH1 0x2 DUP4 DUP2 SLOAD DUP2 LT PUSH2 0x2689 JUMPI PUSH2 0x2688 PUSH2 0x3188 JUMP JUMPDEST JUMPDEST SWAP1 PUSH1 0x0 MSTORE PUSH1 0x20 PUSH1 0x0 KECCAK256 SWAP1 PUSH1 0xE MUL ADD PUSH1 0x6 ADD SLOAD PUSH1 0x2 DUP5 DUP2 SLOAD DUP2 LT PUSH2 0x26AF JUMPI PUSH2 0x26AE PUSH2 0x3188 JUMP JUMPDEST JUMPDEST SWAP1 PUSH1 0x0 MSTORE PUSH1 0x20 PUSH1 0x0 KECCAK256 SWAP1 PUSH1 0xE MUL ADD PUSH1 0x5 ADD SLOAD PUSH2 0x26CB SWAP2 SWAP1 PUSH2 0x357B JUMP JUMPDEST SWAP1 POP PUSH1 0x0 DUP1 PUSH1 0x0 DUP1 PUSH2 0x26DC TIMESTAMP PUSH2 0x1FE1 JUMP JUMPDEST POP SWAP4 POP SWAP4 POP SWAP4 POP SWAP4 POP PUSH1 0x0 DUP1 PUSH1 0x0 PUSH2 0x26F3 DUP9 PUSH2 0x1FE1 JUMP JUMPDEST POP POP SWAP3 POP SWAP3 POP SWAP3 POP DUP3 DUP8 GT DUP1 PUSH2 0x2708 JUMPI POP DUP2 DUP7 GT JUMPDEST DUP1 PUSH2 0x2712 JUMPI POP DUP1 DUP6 GT JUMPDEST DUP1 PUSH2 0x271E JUMPI POP PUSH1 0x15 DUP5 LT ISZERO JUMPDEST PUSH2 0x275D JUMPI PUSH1 0x40 MLOAD PUSH32 0x8C379A000000000000000000000000000000000000000000000000000000000 DUP2 MSTORE PUSH1 0x4 ADD PUSH2 0x2754 SWAP1 PUSH2 0x4204 JUMP JUMPDEST PUSH1 0x40 MLOAD DUP1 SWAP2 SUB SWAP1 REVERT JUMPDEST PUSH2 0x279A PUSH4 0x3B9ACA00 PUSH1 0x2 DUP13 DUP2 SLOAD DUP2 LT PUSH2 0x2779 JUMPI PUSH2 0x2778 PUSH2 0x3188 JUMP JUMPDEST JUMPDEST SWAP1 PUSH1 0x0 MSTORE PUSH1 0x20 PUSH1 0x0 KECCAK256 SWAP1 PUSH1 0xE MUL ADD PUSH1 0x3 ADD SLOAD PUSH2 0x2795 SWAP2 SWAP1 PUSH2 0x3FED JUMP JUMPDEST PUSH2 0x281B JUMP JUMPDEST PUSH1 0x1 PUSH1 0x2 DUP12 DUP2 SLOAD DUP2 LT PUSH2 0x27B0 JUMPI PUSH2 0x27AF PUSH2 0x3188 JUMP JUMPDEST JUMPDEST SWAP1 PUSH1 0x0 MSTORE PUSH1 0x20 PUSH1 0x0 KECCAK256 SWAP1 PUSH1 0xE MUL ADD PUSH1 0x7 ADD PUSH1 0x1 PUSH2 0x100 EXP DUP2 SLOAD DUP2 PUSH1 0xFF MUL NOT AND SWAP1 DUP4 ISZERO ISZERO MUL OR SWAP1 SSTORE POP PUSH32 0xC61EF8151923BBD8DC5F723BA25F26BB805EF4F9A52C5811DF7242872EDD2E0B DUP11 PUSH1 0x40 MLOAD PUSH2 0x2807 SWAP2 SWAP1 PUSH2 0x2A00 JUMP JUMPDEST PUSH1 0x40 MLOAD DUP1 SWAP2 SUB SWAP1 LOG1 POP POP POP POP POP POP POP POP POP POP JUMP JUMPDEST PUSH1 0x0 PUSH20 0xE1EF78939F9D3340E63A7A1077D50999CC6B64F PUSH20 0xFFFFFFFFFFFFFFFFFFFFFFFFFFFFFFFFFFFFFFFF AND PUSH20 0x1F4AEF3A04372CF9D738D5459F31950A53969CA3 DUP4 PUSH1 0x40 MLOAD PUSH1 0x24 ADD PUSH2 0x286F SWAP3 SWAP2 SWAP1 PUSH2 0x341C JUMP JUMPDEST PUSH1 0x40 MLOAD PUSH1 0x20 DUP2 DUP4 SUB SUB DUP2 MSTORE SWAP1 PUSH1 0x40 MSTORE PUSH32 0xD8B1182100000000000000000000000000000000000000000000000000000000 PUSH28 0xFFFFFFFFFFFFFFFFFFFFFFFFFFFFFFFFFFFFFFFFFFFFFFFFFFFFFFFF NOT AND PUSH1 0x20 DUP3 ADD DUP1 MLOAD PUSH28 0xFFFFFFFFFFFFFFFFFFFFFFFFFFFFFFFFFFFFFFFFFFFFFFFFFFFFFFFF DUP4 DUP2 DUP4 AND OR DUP4 MSTORE POP POP POP POP PUSH1 0x40 MLOAD PUSH2 0x28F9 SWAP2 SWAP1 PUSH2 0x40FE JUMP JUMPDEST PUSH1 0x0 PUSH1 0x40 MLOAD DUP1 DUP4 SUB DUP2 PUSH1 0x0 DUP7 GAS CALL SWAP2 POP POP RETURNDATASIZE DUP1 PUSH1 0x0 DUP2 EQ PUSH2 0x2936 JUMPI PUSH1 0x40 MLOAD SWAP2 POP PUSH1 0x1F NOT PUSH1 0x3F RETURNDATASIZE ADD AND DUP3 ADD PUSH1 0x40 MSTORE RETURNDATASIZE DUP3 MSTORE RETURNDATASIZE PUSH1 0x0 PUSH1 0x20 DUP5 ADD RETURNDATACOPY PUSH2 0x293B JUMP JUMPDEST PUSH1 0x60 SWAP2 POP JUMPDEST POP POP SWAP1 POP DUP1 PUSH2 0x297F JUMPI PUSH1 0x40 MLOAD PUSH32 0x8C379A000000000000000000000000000000000000000000000000000000000 DUP2 MSTORE PUSH1 0x4 ADD PUSH2 0x2976 SWAP1 PUSH2 0x4161 JUMP JUMPDEST PUSH1 0x40 MLOAD DUP1 SWAP2 SUB SWAP1 REVERT JUMPDEST POP POP JUMP JUMPDEST PUSH1 0x40 MLOAD DUP1 PUSH1 0xC0 ADD PUSH1 0x40 MSTORE DUP1 PUSH1 0x0 DUP2 MSTORE PUSH1 0x20 ADD PUSH1 0x60 DUP2 MSTORE PUSH1 0x20 ADD PUSH1 0x0 DUP2 MSTORE PUSH1 0x20 ADD PUSH1 0x0 DUP2 MSTORE PUSH1 0x20 ADD PUSH2 0x29B2 PUSH2 0x29C5 JUMP JUMPDEST DUP2 MSTORE PUSH1 0x20 ADD PUSH2 0x29BF PUSH2 0x29C5 JUMP JUMPDEST DUP2 MSTORE POP SWAP1 JUMP JUMPDEST PUSH1 0x40 MLOAD DUP1 PUSH1 0x80 ADD PUSH1 0x40 MSTORE DUP1 PUSH1 0x4 SWAP1 PUSH1 0x20 DUP3 MUL DUP1 CALLDATASIZE DUP4 CALLDATACOPY DUP1 DUP3 ADD SWAP2 POP POP SWAP1 POP POP SWAP1 JUMP JUMPDEST PUSH1 0x0 DUP2 SWAP1 POP SWAP2 SWAP1 POP JUMP JUMPDEST PUSH2 0x29FA DUP2 PUSH2 0x29E7 JUMP JUMPDEST DUP3 MSTORE POP POP JUMP JUMPDEST PUSH1 0x0 PUSH1 0x20 DUP3 ADD SWAP1 POP PUSH2 0x2A15 PUSH1 0x0 DUP4 ADD DUP5 PUSH2 0x29F1 JUMP JUMPDEST SWAP3 SWAP2 POP POP JUMP JUMPDEST PUSH1 0x0 PUSH1 0x40 MLOAD SWAP1 POP SWAP1 JUMP JUMPDEST PUSH1 0x0 DUP1 REVERT JUMPDEST PUSH1 0x0 DUP1 REVERT JUMPDEST PUSH2 0x2A38 DUP2 PUSH2 0x29E7 JUMP JUMPDEST DUP2 EQ PUSH2 0x2A43 JUMPI PUSH1 0x0 DUP1 REVERT JUMPDEST POP JUMP JUMPDEST PUSH1 0x0 DUP2 CALLDATALOAD SWAP1 POP PUSH2 0x2A55 DUP2 PUSH2 0x2A2F JUMP JUMPDEST SWAP3 SWAP2 POP POP JUMP JUMPDEST PUSH1 0x0 PUSH1 0x20 DUP3 DUP5 SUB SLT ISZERO PUSH2 0x2A71 JUMPI PUSH2 0x2A70 PUSH2 0x2A25 JUMP JUMPDEST JUMPDEST PUSH1 0x0 PUSH2 0x2A7F DUP5 DUP3 DUP6 ADD PUSH2 0x2A46 JUMP JUMPDEST SWAP2 POP POP SWAP3 SWAP2 POP POP JUMP JUMPDEST PUSH1 0x0 DUP2 MLOAD SWAP1 POP SWAP2 SWAP1 POP JUMP JUMPDEST PUSH1 0x0 DUP3 DUP3 MSTORE PUSH1 0x20 DUP3 ADD SWAP1 POP SWAP3 SWAP2 POP POP JUMP JUMPDEST PUSH1 0x0 DUP2 SWAP1 POP PUSH1 0x20 DUP3 ADD SWAP1 POP SWAP2 SWAP1 POP JUMP JUMPDEST PUSH2 0x2ABD DUP2 PUSH2 0x29E7 JUMP JUMPDEST DUP3 MSTORE POP POP JUMP JUMPDEST PUSH1 0x0 DUP2 MLOAD SWAP1 POP SWAP2 SWAP1 POP JUMP JUMPDEST PUSH1 0x0 DUP3 DUP3 MSTORE PUSH1 0x20 DUP3 ADD SWAP1 POP SWAP3 SWAP2 POP POP JUMP JUMPDEST PUSH1 0x0 JUMPDEST DUP4 DUP2 LT ISZERO PUSH2 0x2AFD JUMPI DUP1 DUP3 ADD MLOAD DUP2 DUP5 ADD MSTORE PUSH1 0x20 DUP2 ADD SWAP1 POP PUSH2 0x2AE2 JUMP JUMPDEST PUSH1 0x0 DUP5 DUP5 ADD MSTORE POP POP POP POP JUMP JUMPDEST PUSH1 0x0 PUSH1 0x1F NOT PUSH1 0x1F DUP4 ADD AND SWAP1 POP SWAP2 SWAP1 POP JUMP JUMPDEST PUSH1 0x0 PUSH2 0x2B25 DUP3 PUSH2 0x2AC3 JUMP JUMPDEST PUSH2 0x2B2F DUP2 DUP6 PUSH2 0x2ACE JUMP JUMPDEST SWAP4 POP PUSH2 0x2B3F DUP2 DUP6 PUSH1 0x20 DUP7 ADD PUSH2 0x2ADF JUMP JUMPDEST PUSH2 0x2B48 DUP2 PUSH2 0x2B09 JUMP JUMPDEST DUP5 ADD SWAP2 POP POP SWAP3 SWAP2 POP POP JUMP JUMPDEST PUSH1 0x0 PUSH1 0x4 SWAP1 POP SWAP2 SWAP1 POP JUMP JUMPDEST PUSH1 0x0 DUP2 SWAP1 POP SWAP3 SWAP2 POP POP JUMP JUMPDEST PUSH1 0x0 DUP2 SWAP1 POP SWAP2 SWAP1 POP JUMP JUMPDEST PUSH1 0x0 PUSH2 0x2B7F DUP4 DUP4 PUSH2 0x2AB4 JUMP JUMPDEST PUSH1 0x20 DUP4 ADD SWAP1 POP SWAP3 SWAP2 POP POP JUMP JUMPDEST PUSH1 0x0 PUSH1 0x20 DUP3 ADD SWAP1 POP SWAP2 SWAP1 POP JUMP JUMPDEST PUSH2 0x2BA1 DUP2 PUSH2 0x2B53 JUMP JUMPDEST PUSH2 0x2BAB DUP2 DUP5 PUSH2 0x2B5E JUMP JUMPDEST SWAP3 POP PUSH2 0x2BB6 DUP3 PUSH2 0x2B69 JUMP JUMPDEST DUP1 PUSH1 0x0 JUMPDEST DUP4 DUP2 LT ISZERO PUSH2 0x2BE7 JUMPI DUP2 MLOAD PUSH2 0x2BCE DUP8 DUP3 PUSH2 0x2B73 JUMP JUMPDEST SWAP7 POP PUSH2 0x2BD9 DUP4 PUSH2 0x2B8B JUMP JUMPDEST SWAP3 POP POP PUSH1 0x1 DUP2 ADD SWAP1 POP PUSH2 0x2BBA JUMP JUMPDEST POP POP POP POP POP POP JUMP JUMPDEST PUSH1 0x0 PUSH2 0x180 DUP4 ADD PUSH1 0x0 DUP4 ADD MLOAD PUSH2 0x2C08 PUSH1 0x0 DUP7 ADD DUP3 PUSH2 0x2AB4 JUMP JUMPDEST POP PUSH1 0x20 DUP4 ADD MLOAD DUP5 DUP3 SUB PUSH1 0x20 DUP7 ADD MSTORE PUSH2 0x2C20 DUP3 DUP3 PUSH2 0x2B1A JUMP JUMPDEST SWAP2 POP POP PUSH1 0x40 DUP4 ADD MLOAD PUSH2 0x2C35 PUSH1 0x40 DUP7 ADD DUP3 PUSH2 0x2AB4 JUMP JUMPDEST POP PUSH1 0x60 DUP4 ADD MLOAD PUSH2 0x2C48 PUSH1 0x60 DUP7 ADD DUP3 PUSH2 0x2AB4 JUMP JUMPDEST POP PUSH1 0x80 DUP4 ADD MLOAD PUSH2 0x2C5B PUSH1 0x80 DUP7 ADD DUP3 PUSH2 0x2B98 JUMP JUMPDEST POP PUSH1 0xA0 DUP4 ADD MLOAD PUSH2 0x2C6F PUSH2 0x100 DUP7 ADD DUP3 PUSH2 0x2B98 JUMP JUMPDEST POP DUP1 SWAP2 POP POP SWAP3 SWAP2 POP POP JUMP JUMPDEST PUSH1 0x0 PUSH2 0x2C86 DUP4 DUP4 PUSH2 0x2BEF JUMP JUMPDEST SWAP1 POP SWAP3 SWAP2 POP POP JUMP JUMPDEST PUSH1 0x0 PUSH1 0x20 DUP3 ADD SWAP1 POP SWAP2 SWAP1 POP JUMP JUMPDEST PUSH1 0x0 PUSH2 0x2CA6 DUP3 PUSH2 0x2A88 JUMP JUMPDEST PUSH2 0x2CB0 DUP2 DUP6 PUSH2 0x2A93 JUMP JUMPDEST SWAP4 POP DUP4 PUSH1 0x20 DUP3 MUL DUP6 ADD PUSH2 0x2CC2 DUP6 PUSH2 0x2AA4 JUMP JUMPDEST DUP1 PUSH1 0x0 JUMPDEST DUP6 DUP2 LT ISZERO PUSH2 0x2CFE JUMPI DUP5 DUP5 SUB DUP10 MSTORE DUP2 MLOAD PUSH2 0x2CDF DUP6 DUP3 PUSH2 0x2C7A JUMP JUMPDEST SWAP5 POP PUSH2 0x2CEA DUP4 PUSH2 0x2C8E JUMP JUMPDEST SWAP3 POP PUSH1 0x20 DUP11 ADD SWAP10 POP POP PUSH1 0x1 DUP2 ADD SWAP1 POP PUSH2 0x2CC6 JUMP JUMPDEST POP DUP3 SWAP8 POP DUP8 SWAP6 POP POP POP POP POP POP SWAP3 SWAP2 POP POP JUMP JUMPDEST PUSH1 0x0 PUSH1 0x20 DUP3 ADD SWAP1 POP DUP2 DUP2 SUB PUSH1 0x0 DUP4 ADD MSTORE PUSH2 0x2D2A DUP2 DUP5 PUSH2 0x2C9B JUMP JUMPDEST SWAP1 POP SWAP3 SWAP2 POP POP JUMP JUMPDEST PUSH1 0x0 DUP1 REVERT JUMPDEST PUSH1 0x0 DUP1 REVERT JUMPDEST PUSH32 0x4E487B7100000000000000000000000000000000000000000000000000000000 PUSH1 0x0 MSTORE PUSH1 0x41 PUSH1 0x4 MSTORE PUSH1 0x24 PUSH1 0x0 REVERT JUMPDEST PUSH2 0x2D74 DUP3 PUSH2 0x2B09 JUMP JUMPDEST DUP2 ADD DUP2 DUP2 LT PUSH8 0xFFFFFFFFFFFFFFFF DUP3 GT OR ISZERO PUSH2 0x2D93 JUMPI PUSH2 0x2D92 PUSH2 0x2D3C JUMP JUMPDEST JUMPDEST DUP1 PUSH1 0x40 MSTORE POP POP POP JUMP JUMPDEST PUSH1 0x0 PUSH2 0x2DA6 PUSH2 0x2A1B JUMP JUMPDEST SWAP1 POP PUSH2 0x2DB2 DUP3 DUP3 PUSH2 0x2D6B JUMP JUMPDEST SWAP2 SWAP1 POP JUMP JUMPDEST PUSH1 0x0 PUSH8 0xFFFFFFFFFFFFFFFF DUP3 GT ISZERO PUSH2 0x2DD2 JUMPI PUSH2 0x2DD1 PUSH2 0x2D3C JUMP JUMPDEST JUMPDEST PUSH2 0x2DDB DUP3 PUSH2 0x2B09 JUMP JUMPDEST SWAP1 POP PUSH1 0x20 DUP2 ADD SWAP1 POP SWAP2 SWAP1 POP JUMP JUMPDEST DUP3 DUP2 DUP4 CALLDATACOPY PUSH1 0x0 DUP4 DUP4 ADD MSTORE POP POP POP JUMP JUMPDEST PUSH1 0x0 PUSH2 0x2E0A PUSH2 0x2E05 DUP5 PUSH2 0x2DB7 JUMP JUMPDEST PUSH2 0x2D9C JUMP JUMPDEST SWAP1 POP DUP3 DUP2 MSTORE PUSH1 0x20 DUP2 ADD DUP5 DUP5 DUP5 ADD GT ISZERO PUSH2 0x2E26 JUMPI PUSH2 0x2E25 PUSH2 0x2D37 JUMP JUMPDEST JUMPDEST PUSH2 0x2E31 DUP5 DUP3 DUP6 PUSH2 0x2DE8 JUMP JUMPDEST POP SWAP4 SWAP3 POP POP POP JUMP JUMPDEST PUSH1 0x0 DUP3 PUSH1 0x1F DUP4 ADD SLT PUSH2 0x2E4E JUMPI PUSH2 0x2E4D PUSH2 0x2D32 JUMP JUMPDEST JUMPDEST DUP2 CALLDATALOAD PUSH2 0x2E5E DUP5 DUP3 PUSH1 0x20 DUP7 ADD PUSH2 0x2DF7 JUMP JUMPDEST SWAP2 POP POP SWAP3 SWAP2 POP POP JUMP JUMPDEST PUSH1 0x0 DUP1 PUSH1 0x0 PUSH1 0x60 DUP5 DUP7 SUB SLT ISZERO PUSH2 0x2E80 JUMPI PUSH2 0x2E7F PUSH2 0x2A25 JUMP JUMPDEST JUMPDEST PUSH1 0x0 DUP5 ADD CALLDATALOAD PUSH8 0xFFFFFFFFFFFFFFFF DUP2 GT ISZERO PUSH2 0x2E9E JUMPI PUSH2 0x2E9D PUSH2 0x2A2A JUMP JUMPDEST JUMPDEST PUSH2 0x2EAA DUP7 DUP3 DUP8 ADD PUSH2 0x2E39 JUMP JUMPDEST SWAP4 POP POP PUSH1 0x20 PUSH2 0x2EBB DUP7 DUP3 DUP8 ADD PUSH2 0x2A46 JUMP JUMPDEST SWAP3 POP POP PUSH1 0x40 PUSH2 0x2ECC DUP7 DUP3 DUP8 ADD PUSH2 0x2A46 JUMP JUMPDEST SWAP2 POP POP SWAP3 POP SWAP3 POP SWAP3 JUMP JUMPDEST PUSH1 0x0 PUSH20 0xFFFFFFFFFFFFFFFFFFFFFFFFFFFFFFFFFFFFFFFF DUP3 AND SWAP1 POP SWAP2 SWAP1 POP JUMP JUMPDEST PUSH1 0x0 PUSH2 0x2F01 DUP3 PUSH2 0x2ED6 JUMP JUMPDEST SWAP1 POP SWAP2 SWAP1 POP JUMP JUMPDEST PUSH2 0x2F11 DUP2 PUSH2 0x2EF6 JUMP JUMPDEST DUP2 EQ PUSH2 0x2F1C JUMPI PUSH1 0x0 DUP1 REVERT JUMPDEST POP JUMP JUMPDEST PUSH1 0x0 DUP2 CALLDATALOAD SWAP1 POP PUSH2 0x2F2E DUP2 PUSH2 0x2F08 JUMP JUMPDEST SWAP3 SWAP2 POP POP JUMP JUMPDEST PUSH1 0x0 PUSH1 0x20 DUP3 DUP5 SUB SLT ISZERO PUSH2 0x2F4A JUMPI PUSH2 0x2F49 PUSH2 0x2A25 JUMP JUMPDEST JUMPDEST PUSH1 0x0 PUSH2 0x2F58 DUP5 DUP3 DUP6 ADD PUSH2 0x2F1F JUMP JUMPDEST SWAP2 POP POP SWAP3 SWAP2 POP POP JUMP JUMPDEST PUSH2 0x2F6A DUP2 PUSH2 0x2EF6 JUMP JUMPDEST DUP3 MSTORE POP POP JUMP JUMPDEST PUSH1 0x0 DUP3 DUP3 MSTORE PUSH1 0x20 DUP3 ADD SWAP1 POP SWAP3 SWAP2 POP POP JUMP JUMPDEST PUSH1 0x0 PUSH2 0x2F8C DUP3 PUSH2 0x2AC3 JUMP JUMPDEST PUSH2 0x2F96 DUP2 DUP6 PUSH2 0x2F70 JUMP JUMPDEST SWAP4 POP PUSH2 0x2FA6 DUP2 DUP6 PUSH1 0x20 DUP7 ADD PUSH2 0x2ADF JUMP JUMPDEST PUSH2 0x2FAF DUP2 PUSH2 0x2B09 JUMP JUMPDEST DUP5 ADD SWAP2 POP POP SWAP3 SWAP2 POP POP JUMP JUMPDEST PUSH1 0x0 DUP2 ISZERO ISZERO SWAP1 POP SWAP2 SWAP1 POP JUMP JUMPDEST PUSH2 0x2FCF DUP2 PUSH2 0x2FBA JUMP JUMPDEST DUP3 MSTORE POP POP JUMP JUMPDEST PUSH1 0x0 PUSH2 0x160 DUP3 ADD SWAP1 POP PUSH2 0x2FEB PUSH1 0x0 DUP4 ADD DUP15 PUSH2 0x2F61 JUMP JUMPDEST DUP2 DUP2 SUB PUSH1 0x20 DUP4 ADD MSTORE PUSH2 0x2FFD DUP2 DUP14 PUSH2 0x2F81 JUMP JUMPDEST SWAP1 POP PUSH2 0x300C PUSH1 0x40 DUP4 ADD DUP13 PUSH2 0x29F1 JUMP JUMPDEST PUSH2 0x3019 PUSH1 0x60 DUP4 ADD DUP12 PUSH2 0x29F1 JUMP JUMPDEST PUSH2 0x3026 PUSH1 0x80 DUP4 ADD DUP11 PUSH2 0x29F1 JUMP JUMPDEST PUSH2 0x3033 PUSH1 0xA0 DUP4 ADD DUP10 PUSH2 0x29F1 JUMP JUMPDEST PUSH2 0x3040 PUSH1 0xC0 DUP4 ADD DUP9 PUSH2 0x29F1 JUMP JUMPDEST PUSH2 0x304D PUSH1 0xE0 DUP4 ADD DUP8 PUSH2 0x2FC6 JUMP JUMPDEST PUSH2 0x305B PUSH2 0x100 DUP4 ADD DUP7 PUSH2 0x2FC6 JUMP JUMPDEST PUSH2 0x3069 PUSH2 0x120 DUP4 ADD DUP6 PUSH2 0x29F1 JUMP JUMPDEST PUSH2 0x3077 PUSH2 0x140 DUP4 ADD DUP5 PUSH2 0x29F1 JUMP JUMPDEST SWAP13 SWAP12 POP POP POP POP POP POP POP POP POP POP POP POP JUMP JUMPDEST PUSH1 0x0 PUSH1 0x20 DUP3 ADD SWAP1 POP PUSH2 0x309C PUSH1 0x0 DUP4 ADD DUP5 PUSH2 0x2F61 JUMP JUMPDEST SWAP3 SWAP2 POP POP JUMP JUMPDEST PUSH1 0x0 DUP2 SWAP1 POP SWAP2 SWAP1 POP JUMP JUMPDEST PUSH1 0x0 PUSH2 0x30C7 PUSH2 0x30C2 PUSH2 0x30BD DUP5 PUSH2 0x2ED6 JUMP JUMPDEST PUSH2 0x30A2 JUMP JUMPDEST PUSH2 0x2ED6 JUMP JUMPDEST SWAP1 POP SWAP2 SWAP1 POP JUMP JUMPDEST PUSH1 0x0 PUSH2 0x30D9 DUP3 PUSH2 0x30AC JUMP JUMPDEST SWAP1 POP SWAP2 SWAP1 POP JUMP JUMPDEST PUSH1 0x0 PUSH2 0x30EB DUP3 PUSH2 0x30CE JUMP JUMPDEST SWAP1 POP SWAP2 SWAP1 POP JUMP JUMPDEST PUSH2 0x30FB DUP2 PUSH2 0x30E0 JUMP JUMPDEST DUP3 MSTORE POP POP JUMP JUMPDEST PUSH1 0x0 PUSH1 0x20 DUP3 ADD SWAP1 POP PUSH2 0x3116 PUSH1 0x0 DUP4 ADD DUP5 PUSH2 0x30F2 JUMP JUMPDEST SWAP3 SWAP2 POP POP JUMP JUMPDEST PUSH32 0x496E76616C6964206368616C6C656E6765204944000000000000000000000000 PUSH1 0x0 DUP3 ADD MSTORE POP JUMP JUMPDEST PUSH1 0x0 PUSH2 0x3152 PUSH1 0x14 DUP4 PUSH2 0x2F70 JUMP JUMPDEST SWAP2 POP PUSH2 0x315D DUP3 PUSH2 0x311C JUMP JUMPDEST PUSH1 0x20 DUP3 ADD SWAP1 POP SWAP2 SWAP1 POP JUMP JUMPDEST PUSH1 0x0 PUSH1 0x20 DUP3 ADD SWAP1 POP DUP2 DUP2 SUB PUSH1 0x0 DUP4 ADD MSTORE PUSH2 0x3181 DUP2 PUSH2 0x3145 JUMP JUMPDEST SWAP1 POP SWAP2 SWAP1 POP JUMP JUMPDEST PUSH32 0x4E487B7100000000000000000000000000000000000000000000000000000000 PUSH1 0x0 MSTORE PUSH1 0x32 PUSH1 0x4 MSTORE PUSH1 0x24 PUSH1 0x0 REVERT JUMPDEST PUSH32 0x4368616C6C656E67652069736E277420636F6D706C65746564207965742E0000 PUSH1 0x0 DUP3 ADD MSTORE POP JUMP JUMPDEST PUSH1 0x0 PUSH2 0x31ED PUSH1 0x1E DUP4 PUSH2 0x2F70 JUMP JUMPDEST SWAP2 POP PUSH2 0x31F8 DUP3 PUSH2 0x31B7 JUMP JUMPDEST PUSH1 0x20 DUP3 ADD SWAP1 POP SWAP2 SWAP1 POP JUMP JUMPDEST PUSH1 0x0 PUSH1 0x20 DUP3 ADD SWAP1 POP DUP2 DUP2 SUB PUSH1 0x0 DUP4 ADD MSTORE PUSH2 0x321C DUP2 PUSH2 0x31E0 JUMP JUMPDEST SWAP1 POP SWAP2 SWAP1 POP JUMP JUMPDEST PUSH32 0x596F75277265206E6F742061207061727469636970616E74206F662074686973 PUSH1 0x0 DUP3 ADD MSTORE PUSH32 0x206368616C6C656E67652E000000000000000000000000000000000000000000 PUSH1 0x20 DUP3 ADD MSTORE POP JUMP JUMPDEST PUSH1 0x0 PUSH2 0x327F PUSH1 0x2B DUP4 PUSH2 0x2F70 JUMP JUMPDEST SWAP2 POP PUSH2 0x328A DUP3 PUSH2 0x3223 JUMP JUMPDEST PUSH1 0x40 DUP3 ADD SWAP1 POP SWAP2 SWAP1 POP JUMP JUMPDEST PUSH1 0x0 PUSH1 0x20 DUP3 ADD SWAP1 POP DUP2 DUP2 SUB PUSH1 0x0 DUP4 ADD MSTORE PUSH2 0x32AE DUP2 PUSH2 0x3272 JUMP JUMPDEST SWAP1 POP SWAP2 SWAP1 POP JUMP JUMPDEST PUSH32 0x416C726561647920636C61696D65640000000000000000000000000000000000 PUSH1 0x0 DUP3 ADD MSTORE POP JUMP JUMPDEST PUSH1 0x0 PUSH2 0x32EB PUSH1 0xF DUP4 PUSH2 0x2F70 JUMP JUMPDEST SWAP2 POP PUSH2 0x32F6 DUP3 PUSH2 0x32B5 JUMP JUMPDEST PUSH1 0x20 DUP3 ADD SWAP1 POP SWAP2 SWAP1 POP JUMP JUMPDEST PUSH1 0x0 PUSH1 0x20 DUP3 ADD SWAP1 POP DUP2 DUP2 SUB PUSH1 0x0 DUP4 ADD MSTORE PUSH2 0x331A DUP2 PUSH2 0x32DE JUMP JUMPDEST SWAP1 POP SWAP2 SWAP1 POP JUMP JUMPDEST PUSH32 0x596F75206469646E27742077696E2074686973206368616C6C656E67652E0000 PUSH1 0x0 DUP3 ADD MSTORE POP JUMP JUMPDEST PUSH1 0x0 PUSH2 0x3357 PUSH1 0x1E DUP4 PUSH2 0x2F70 JUMP JUMPDEST SWAP2 POP PUSH2 0x3362 DUP3 PUSH2 0x3321 JUMP JUMPDEST PUSH1 0x20 DUP3 ADD SWAP1 POP SWAP2 SWAP1 POP JUMP JUMPDEST PUSH1 0x0 PUSH1 0x20 DUP3 ADD SWAP1 POP DUP2 DUP2 SUB PUSH1 0x0 DUP4 ADD MSTORE PUSH2 0x3386 DUP2 PUSH2 0x334A JUMP JUMPDEST SWAP1 POP SWAP2 SWAP1 POP JUMP JUMPDEST PUSH32 0x4E487B7100000000000000000000000000000000000000000000000000000000 PUSH1 0x0 MSTORE PUSH1 0x12 PUSH1 0x4 MSTORE PUSH1 0x24 PUSH1 0x0 REVERT JUMPDEST PUSH32 0x4E487B7100000000000000000000000000000000000000000000000000000000 PUSH1 0x0 MSTORE PUSH1 0x11 PUSH1 0x4 MSTORE PUSH1 0x24 PUSH1 0x0 REVERT JUMPDEST PUSH1 0x0 PUSH2 0x33F6 DUP3 PUSH2 0x29E7 JUMP JUMPDEST SWAP2 POP PUSH2 0x3401 DUP4 PUSH2 0x29E7 JUMP JUMPDEST SWAP3 POP DUP3 PUSH2 0x3411 JUMPI PUSH2 0x3410 PUSH2 0x338D JUMP JUMPDEST JUMPDEST DUP3 DUP3 DIV SWAP1 POP SWAP3 SWAP2 POP POP JUMP JUMPDEST PUSH1 0x0 PUSH1 0x40 DUP3 ADD SWAP1 POP PUSH2 0x3431 PUSH1 0x0 DUP4 ADD DUP6 PUSH2 0x2F61 JUMP JUMPDEST PUSH2 0x343E PUSH1 0x20 DUP4 ADD DUP5 PUSH2 0x29F1 JUMP JUMPDEST SWAP4 SWAP3 POP POP POP JUMP JUMPDEST PUSH2 0x344E DUP2 PUSH2 0x2FBA JUMP JUMPDEST DUP2 EQ PUSH2 0x3459 JUMPI PUSH1 0x0 DUP1 REVERT JUMPDEST POP JUMP JUMPDEST PUSH1 0x0 DUP2 MLOAD SWAP1 POP PUSH2 0x346B DUP2 PUSH2 0x3445 JUMP JUMPDEST SWAP3 SWAP2 POP POP JUMP JUMPDEST PUSH1 0x0 PUSH1 0x20 DUP3 DUP5 SUB SLT ISZERO PUSH2 0x3487 JUMPI PUSH2 0x3486 PUSH2 0x2A25 JUMP JUMPDEST JUMPDEST PUSH1 0x0 PUSH2 0x3495 DUP5 DUP3 DUP6 ADD PUSH2 0x345C JUMP JUMPDEST SWAP2 POP POP SWAP3 SWAP2 POP POP JUMP JUMPDEST PUSH32 0x52657761726420636C61696D206661696C65642E000000000000000000000000 PUSH1 0x0 DUP3 ADD MSTORE POP JUMP JUMPDEST PUSH1 0x0 PUSH2 0x34D4 PUSH1 0x14 DUP4 PUSH2 0x2F70 JUMP JUMPDEST SWAP2 POP PUSH2 0x34DF DUP3 PUSH2 0x349E JUMP JUMPDEST PUSH1 0x20 DUP3 ADD SWAP1 POP SWAP2 SWAP1 POP JUMP JUMPDEST PUSH1 0x0 PUSH1 0x20 DUP3 ADD SWAP1 POP DUP2 DUP2 SUB PUSH1 0x0 DUP4 ADD MSTORE PUSH2 0x3503 DUP2 PUSH2 0x34C7 JUMP JUMPDEST SWAP1 POP SWAP2 SWAP1 POP JUMP JUMPDEST PUSH1 0x0 PUSH1 0x40 DUP3 ADD SWAP1 POP PUSH2 0x351F PUSH1 0x0 DUP4 ADD DUP6 PUSH2 0x29F1 JUMP JUMPDEST PUSH2 0x352C PUSH1 0x20 DUP4 ADD DUP5 PUSH2 0x2F61 JUMP JUMPDEST SWAP4 SWAP3 POP POP POP JUMP JUMPDEST PUSH1 0x0 PUSH2 0x353E DUP3 PUSH2 0x29E7 JUMP JUMPDEST SWAP2 POP PUSH32 0xFFFFFFFFFFFFFFFFFFFFFFFFFFFFFFFFFFFFFFFFFFFFFFFFFFFFFFFFFFFFFFFF DUP3 SUB PUSH2 0x3570 JUMPI PUSH2 0x356F PUSH2 0x33BC JUMP JUMPDEST JUMPDEST PUSH1 0x1 DUP3 ADD SWAP1 POP SWAP2 SWAP1 POP JUMP JUMPDEST PUSH1 0x0 PUSH2 0x3586 DUP3 PUSH2 0x29E7 JUMP JUMPDEST SWAP2 POP PUSH2 0x3591 DUP4 PUSH2 0x29E7 JUMP JUMPDEST SWAP3 POP DUP3 DUP3 ADD SWAP1 POP DUP1 DUP3 GT ISZERO PUSH2 0x35A9 JUMPI PUSH2 0x35A8 PUSH2 0x33BC JUMP JUMPDEST JUMPDEST SWAP3 SWAP2 POP POP JUMP JUMPDEST PUSH32 0x4E487B7100000000000000000000000000000000000000000000000000000000 PUSH1 0x0 MSTORE PUSH1 0x22 PUSH1 0x4 MSTORE PUSH1 0x24 PUSH1 0x0 REVERT JUMPDEST PUSH1 0x0 PUSH1 0x2 DUP3 DIV SWAP1 POP PUSH1 0x1 DUP3 AND DUP1 PUSH2 0x35F6 JUMPI PUSH1 0x7F DUP3 AND SWAP2 POP JUMPDEST PUSH1 0x20 DUP3 LT DUP2 SUB PUSH2 0x3609 JUMPI PUSH2 0x3608 PUSH2 0x35AF JUMP JUMPDEST JUMPDEST POP SWAP2 SWAP1 POP JUMP JUMPDEST PUSH32 0x456E74727920616D6F756E742073686F756C6420626520677265617465722074 PUSH1 0x0 DUP3 ADD MSTORE PUSH32 0x68616E2030000000000000000000000000000000000000000000000000000000 PUSH1 0x20 DUP3 ADD MSTORE POP JUMP JUMPDEST PUSH1 0x0 PUSH2 0x366B PUSH1 0x25 DUP4 PUSH2 0x2F70 JUMP JUMPDEST SWAP2 POP PUSH2 0x3676 DUP3 PUSH2 0x360F JUMP JUMPDEST PUSH1 0x40 DUP3 ADD SWAP1 POP SWAP2 SWAP1 POP JUMP JUMPDEST PUSH1 0x0 PUSH1 0x20 DUP3 ADD SWAP1 POP DUP2 DUP2 SUB PUSH1 0x0 DUP4 ADD MSTORE PUSH2 0x369A DUP2 PUSH2 0x365E JUMP JUMPDEST SWAP1 POP SWAP2 SWAP1 POP JUMP JUMPDEST PUSH1 0x0 PUSH1 0x40 DUP3 ADD SWAP1 POP PUSH2 0x36B6 PUSH1 0x0 DUP4 ADD DUP6 PUSH2 0x2F61 JUMP JUMPDEST PUSH2 0x36C3 PUSH1 0x20 DUP4 ADD DUP5 PUSH2 0x2F61 JUMP JUMPDEST SWAP4 SWAP3 POP POP POP JUMP JUMPDEST PUSH1 0x0 DUP2 MLOAD SWAP1 POP PUSH2 0x36D9 DUP2 PUSH2 0x2A2F JUMP JUMPDEST SWAP3 SWAP2 POP POP JUMP JUMPDEST PUSH1 0x0 PUSH1 0x20 DUP3 DUP5 SUB SLT ISZERO PUSH2 0x36F5 JUMPI PUSH2 0x36F4 PUSH2 0x2A25 JUMP JUMPDEST JUMPDEST PUSH1 0x0 PUSH2 0x3703 DUP5 DUP3 DUP6 ADD PUSH2 0x36CA JUMP JUMPDEST SWAP2 POP POP SWAP3 SWAP2 POP POP JUMP JUMPDEST PUSH32 0x4E6F7420656E6F75676820746F6B656E20616C6C6F77616E6365000000000000 PUSH1 0x0 DUP3 ADD MSTORE POP JUMP JUMPDEST PUSH1 0x0 PUSH2 0x3742 PUSH1 0x1A DUP4 PUSH2 0x2F70 JUMP JUMPDEST SWAP2 POP PUSH2 0x374D DUP3 PUSH2 0x370C JUMP JUMPDEST PUSH1 0x20 DUP3 ADD SWAP1 POP SWAP2 SWAP1 POP JUMP JUMPDEST PUSH1 0x0 PUSH1 0x20 DUP3 ADD SWAP1 POP DUP2 DUP2 SUB PUSH1 0x0 DUP4 ADD MSTORE PUSH2 0x3771 DUP2 PUSH2 0x3735 JUMP JUMPDEST SWAP1 POP SWAP2 SWAP1 POP JUMP JUMPDEST PUSH1 0x0 PUSH1 0x60 DUP3 ADD SWAP1 POP PUSH2 0x378D PUSH1 0x0 DUP4 ADD DUP7 PUSH2 0x2F61 JUMP JUMPDEST PUSH2 0x379A PUSH1 0x20 DUP4 ADD DUP6 PUSH2 0x2F61 JUMP JUMPDEST PUSH2 0x37A7 PUSH1 0x40 DUP4 ADD DUP5 PUSH2 0x29F1 JUMP JUMPDEST SWAP5 SWAP4 POP POP POP POP JUMP JUMPDEST PUSH32 0x4661696C656420746F207472616E7366657220746F6B656E7300000000000000 PUSH1 0x0 DUP3 ADD MSTORE POP JUMP JUMPDEST PUSH1 0x0 PUSH2 0x37E5 PUSH1 0x19 DUP4 PUSH2 0x2F70 JUMP JUMPDEST SWAP2 POP PUSH2 0x37F0 DUP3 PUSH2 0x37AF JUMP JUMPDEST PUSH1 0x20 DUP3 ADD SWAP1 POP SWAP2 SWAP1 POP JUMP JUMPDEST PUSH1 0x0 PUSH1 0x20 DUP3 ADD SWAP1 POP DUP2 DUP2 SUB PUSH1 0x0 DUP4 ADD MSTORE PUSH2 0x3814 DUP2 PUSH2 0x37D8 JUMP JUMPDEST SWAP1 POP SWAP2 SWAP1 POP JUMP JUMPDEST PUSH1 0x0 PUSH2 0x3826 DUP3 PUSH2 0x29E7 JUMP JUMPDEST SWAP2 POP PUSH2 0x3831 DUP4 PUSH2 0x29E7 JUMP JUMPDEST SWAP3 POP DUP3 DUP3 SUB SWAP1 POP DUP2 DUP2 GT ISZERO PUSH2 0x3849 JUMPI PUSH2 0x3848 PUSH2 0x33BC JUMP JUMPDEST JUMPDEST SWAP3 SWAP2 POP POP JUMP JUMPDEST PUSH1 0x0 DUP2 SWAP1 POP DUP2 PUSH1 0x0 MSTORE PUSH1 0x20 PUSH1 0x0 KECCAK256 SWAP1 POP SWAP2 SWAP1 POP JUMP JUMPDEST PUSH1 0x0 PUSH1 0x20 PUSH1 0x1F DUP4 ADD DIV SWAP1 POP SWAP2 SWAP1 POP JUMP JUMPDEST PUSH1 0x0 DUP3 DUP3 SHL SWAP1 POP SWAP3 SWAP2 POP POP JUMP JUMPDEST PUSH1 0x0 PUSH1 0x8 DUP4 MUL PUSH2 0x38B1 PUSH32 0xFFFFFFFFFFFFFFFFFFFFFFFFFFFFFFFFFFFFFFFFFFFFFFFFFFFFFFFFFFFFFFFF DUP3 PUSH2 0x3874 JUMP JUMPDEST PUSH2 0x38BB DUP7 DUP4 PUSH2 0x3874 JUMP JUMPDEST SWAP6 POP DUP1 NOT DUP5 AND SWAP4 POP DUP1 DUP7 AND DUP5 OR SWAP3 POP POP POP SWAP4 SWAP3 POP POP POP JUMP JUMPDEST PUSH1 0x0 PUSH2 0x38EE PUSH2 0x38E9 PUSH2 0x38E4 DUP5 PUSH2 0x29E7 JUMP JUMPDEST PUSH2 0x30A2 JUMP JUMPDEST PUSH2 0x29E7 JUMP JUMPDEST SWAP1 POP SWAP2 SWAP1 POP JUMP JUMPDEST PUSH1 0x0 DUP2 SWAP1 POP SWAP2 SWAP1 POP JUMP JUMPDEST PUSH2 0x3908 DUP4 PUSH2 0x38D3 JUMP JUMPDEST PUSH2 0x391C PUSH2 0x3914 DUP3 PUSH2 0x38F5 JUMP JUMPDEST DUP5 DUP5 SLOAD PUSH2 0x3881 JUMP JUMPDEST DUP3 SSTORE POP POP POP POP JUMP JUMPDEST PUSH1 0x0 SWAP1 JUMP JUMPDEST PUSH2 0x3931 PUSH2 0x3924 JUMP JUMPDEST PUSH2 0x393C DUP2 DUP5 DUP5 PUSH2 0x38FF JUMP JUMPDEST POP POP POP JUMP JUMPDEST JUMPDEST DUP2 DUP2 LT ISZERO PUSH2 0x3960 JUMPI PUSH2 0x3955 PUSH1 0x0 DUP3 PUSH2 0x3929 JUMP JUMPDEST PUSH1 0x1 DUP2 ADD SWAP1 POP PUSH2 0x3942 JUMP JUMPDEST POP POP JUMP JUMPDEST PUSH1 0x1F DUP3 GT ISZERO PUSH2 0x39A5 JUMPI PUSH2 0x3976 DUP2 PUSH2 0x384F JUMP JUMPDEST PUSH2 0x397F DUP5 PUSH2 0x3864 JUMP JUMPDEST DUP2 ADD PUSH1 0x20 DUP6 LT ISZERO PUSH2 0x398E JUMPI DUP2 SWAP1 POP JUMPDEST PUSH2 0x39A2 PUSH2 0x399A DUP6 PUSH2 0x3864 JUMP JUMPDEST DUP4 ADD DUP3 PUSH2 0x3941 JUMP JUMPDEST POP POP JUMPDEST POP POP POP JUMP JUMPDEST PUSH1 0x0 DUP3 DUP3 SHR SWAP1 POP SWAP3 SWAP2 POP POP JUMP JUMPDEST PUSH1 0x0 PUSH2 0x39C8 PUSH1 0x0 NOT DUP5 PUSH1 0x8 MUL PUSH2 0x39AA JUMP JUMPDEST NOT DUP1 DUP4 AND SWAP2 POP POP SWAP3 SWAP2 POP POP JUMP JUMPDEST PUSH1 0x0 PUSH2 0x39E1 DUP4 DUP4 PUSH2 0x39B7 JUMP JUMPDEST SWAP2 POP DUP3 PUSH1 0x2 MUL DUP3 OR SWAP1 POP SWAP3 SWAP2 POP POP JUMP JUMPDEST PUSH2 0x39FA DUP3 PUSH2 0x2AC3 JUMP JUMPDEST PUSH8 0xFFFFFFFFFFFFFFFF DUP2 GT ISZERO PUSH2 0x3A13 JUMPI PUSH2 0x3A12 PUSH2 0x2D3C JUMP JUMPDEST JUMPDEST PUSH2 0x3A1D DUP3 SLOAD PUSH2 0x35DE JUMP JUMPDEST PUSH2 0x3A28 DUP3 DUP3 DUP6 PUSH2 0x3964 JUMP JUMPDEST PUSH1 0x0 PUSH1 0x20 SWAP1 POP PUSH1 0x1F DUP4 GT PUSH1 0x1 DUP2 EQ PUSH2 0x3A5B JUMPI PUSH1 0x0 DUP5 ISZERO PUSH2 0x3A49 JUMPI DUP3 DUP8 ADD MLOAD SWAP1 POP JUMPDEST PUSH2 0x3A53 DUP6 DUP3 PUSH2 0x39D5 JUMP JUMPDEST DUP7 SSTORE POP PUSH2 0x3ABB JUMP JUMPDEST PUSH1 0x1F NOT DUP5 AND PUSH2 0x3A69 DUP7 PUSH2 0x384F JUMP JUMPDEST PUSH1 0x0 JUMPDEST DUP3 DUP2 LT ISZERO PUSH2 0x3A91 JUMPI DUP5 DUP10 ADD MLOAD DUP3 SSTORE PUSH1 0x1 DUP3 ADD SWAP2 POP PUSH1 0x20 DUP6 ADD SWAP5 POP PUSH1 0x20 DUP2 ADD SWAP1 POP PUSH2 0x3A6C JUMP JUMPDEST DUP7 DUP4 LT ISZERO PUSH2 0x3AAE JUMPI DUP5 DUP10 ADD MLOAD PUSH2 0x3AAA PUSH1 0x1F DUP10 AND DUP3 PUSH2 0x39B7 JUMP JUMPDEST DUP4 SSTORE POP JUMPDEST PUSH1 0x1 PUSH1 0x2 DUP9 MUL ADD DUP9 SSTORE POP POP POP JUMPDEST POP POP POP POP POP POP JUMP JUMPDEST PUSH1 0x0 PUSH1 0x80 DUP3 ADD SWAP1 POP PUSH2 0x3AD8 PUSH1 0x0 DUP4 ADD DUP8 PUSH2 0x29F1 JUMP JUMPDEST DUP2 DUP2 SUB PUSH1 0x20 DUP4 ADD MSTORE PUSH2 0x3AEA DUP2 DUP7 PUSH2 0x2F81 JUMP JUMPDEST SWAP1 POP PUSH2 0x3AF9 PUSH1 0x40 DUP4 ADD DUP6 PUSH2 0x29F1 JUMP JUMPDEST PUSH2 0x3B06 PUSH1 0x60 DUP4 ADD DUP5 PUSH2 0x2F61 JUMP JUMPDEST SWAP6 SWAP5 POP POP POP POP POP JUMP JUMPDEST PUSH1 0x0 PUSH1 0x40 DUP3 ADD SWAP1 POP PUSH2 0x3B24 PUSH1 0x0 DUP4 ADD DUP6 PUSH2 0x29F1 JUMP JUMPDEST PUSH2 0x3B31 PUSH1 0x20 DUP4 ADD DUP5 PUSH2 0x29F1 JUMP JUMPDEST SWAP4 SWAP3 POP POP POP JUMP JUMPDEST PUSH32 0x4F6E6C79207468652061646D696E2063616E2063616C6C20746869732066756E PUSH1 0x0 DUP3 ADD MSTORE PUSH32 0x6374696F6E2E0000000000000000000000000000000000000000000000000000 PUSH1 0x20 DUP3 ADD MSTORE POP JUMP JUMPDEST PUSH1 0x0 PUSH2 0x3B94 PUSH1 0x26 DUP4 PUSH2 0x2F70 JUMP JUMPDEST SWAP2 POP PUSH2 0x3B9F DUP3 PUSH2 0x3B38 JUMP JUMPDEST PUSH1 0x40 DUP3 ADD SWAP1 POP SWAP2 SWAP1 POP JUMP JUMPDEST PUSH1 0x0 PUSH1 0x20 DUP3 ADD SWAP1 POP DUP2 DUP2 SUB PUSH1 0x0 DUP4 ADD MSTORE PUSH2 0x3BC3 DUP2 PUSH2 0x3B87 JUMP JUMPDEST SWAP1 POP SWAP2 SWAP1 POP JUMP JUMPDEST PUSH32 0x496E76616C696420616464726573732E00000000000000000000000000000000 PUSH1 0x0 DUP3 ADD MSTORE POP JUMP JUMPDEST PUSH1 0x0 PUSH2 0x3C00 PUSH1 0x10 DUP4 PUSH2 0x2F70 JUMP JUMPDEST SWAP2 POP PUSH2 0x3C0B DUP3 PUSH2 0x3BCA JUMP JUMPDEST PUSH1 0x20 DUP3 ADD SWAP1 POP SWAP2 SWAP1 POP JUMP JUMPDEST PUSH1 0x0 PUSH1 0x20 DUP3 ADD SWAP1 POP DUP2 DUP2 SUB PUSH1 0x0 DUP4 ADD MSTORE PUSH2 0x3C2F DUP2 PUSH2 0x3BF3 JUMP JUMPDEST SWAP1 POP SWAP2 SWAP1 POP JUMP JUMPDEST PUSH32 0x4368616C6C656E676520616C726561647920636F6D706C657465640000000000 PUSH1 0x0 DUP3 ADD MSTORE POP JUMP JUMPDEST PUSH1 0x0 PUSH2 0x3C6C PUSH1 0x1B DUP4 PUSH2 0x2F70 JUMP JUMPDEST SWAP2 POP PUSH2 0x3C77 DUP3 PUSH2 0x3C36 JUMP JUMPDEST PUSH1 0x20 DUP3 ADD SWAP1 POP SWAP2 SWAP1 POP JUMP JUMPDEST PUSH1 0x0 PUSH1 0x20 DUP3 ADD SWAP1 POP DUP2 DUP2 SUB PUSH1 0x0 DUP4 ADD MSTORE PUSH2 0x3C9B DUP2 PUSH2 0x3C5F JUMP JUMPDEST SWAP1 POP SWAP2 SWAP1 POP JUMP JUMPDEST PUSH32 0x596F7527766520616C726561647920636865636B656420746F6461792E000000 PUSH1 0x0 DUP3 ADD MSTORE POP JUMP JUMPDEST PUSH1 0x0 PUSH2 0x3CD8 PUSH1 0x1D DUP4 PUSH2 0x2F70 JUMP JUMPDEST SWAP2 POP PUSH2 0x3CE3 DUP3 PUSH2 0x3CA2 JUMP JUMPDEST PUSH1 0x20 DUP3 ADD SWAP1 POP SWAP2 SWAP1 POP JUMP JUMPDEST PUSH1 0x0 PUSH1 0x20 DUP3 ADD SWAP1 POP DUP2 DUP2 SUB PUSH1 0x0 DUP4 ADD MSTORE PUSH2 0x3D07 DUP2 PUSH2 0x3CCB JUMP JUMPDEST SWAP1 POP SWAP2 SWAP1 POP JUMP JUMPDEST PUSH32 0x596F75277665206661696C656420746F6461792773206D697373696F6E2E0000 PUSH1 0x0 DUP3 ADD MSTORE POP JUMP JUMPDEST PUSH1 0x0 PUSH2 0x3D44 PUSH1 0x1E DUP4 PUSH2 0x2F70 JUMP JUMPDEST SWAP2 POP PUSH2 0x3D4F DUP3 PUSH2 0x3D0E JUMP JUMPDEST PUSH1 0x20 DUP3 ADD SWAP1 POP SWAP2 SWAP1 POP JUMP JUMPDEST PUSH1 0x0 PUSH1 0x20 DUP3 ADD SWAP1 POP DUP2 DUP2 SUB PUSH1 0x0 DUP4 ADD MSTORE PUSH2 0x3D73 DUP2 PUSH2 0x3D37 JUMP JUMPDEST SWAP1 POP SWAP2 SWAP1 POP JUMP JUMPDEST PUSH32 0x546865206170706C69636174696F6E20706572696F6420686173206578706972 PUSH1 0x0 DUP3 ADD MSTORE PUSH32 0x65642E0000000000000000000000000000000000000000000000000000000000 PUSH1 0x20 DUP3 ADD MSTORE POP JUMP JUMPDEST PUSH1 0x0 PUSH2 0x3DD6 PUSH1 0x23 DUP4 PUSH2 0x2F70 JUMP JUMPDEST SWAP2 POP PUSH2 0x3DE1 DUP3 PUSH2 0x3D7A JUMP JUMPDEST PUSH1 0x40 DUP3 ADD SWAP1 POP SWAP2 SWAP1 POP JUMP JUMPDEST PUSH1 0x0 PUSH1 0x20 DUP3 ADD SWAP1 POP DUP2 DUP2 SUB PUSH1 0x0 DUP4 ADD MSTORE PUSH2 0x3E05 DUP2 PUSH2 0x3DC9 JUMP JUMPDEST SWAP1 POP SWAP2 SWAP1 POP JUMP JUMPDEST PUSH32 0x6368616C6C656E67652069736E277420636F6D706C6574656400000000000000 PUSH1 0x0 DUP3 ADD MSTORE POP JUMP JUMPDEST PUSH1 0x0 PUSH2 0x3E42 PUSH1 0x19 DUP4 PUSH2 0x2F70 JUMP JUMPDEST SWAP2 POP PUSH2 0x3E4D DUP3 PUSH2 0x3E0C JUMP JUMPDEST PUSH1 0x20 DUP3 ADD SWAP1 POP SWAP2 SWAP1 POP JUMP JUMPDEST PUSH1 0x0 PUSH1 0x20 DUP3 ADD SWAP1 POP DUP2 DUP2 SUB PUSH1 0x0 DUP4 ADD MSTORE PUSH2 0x3E71 DUP2 PUSH2 0x3E35 JUMP JUMPDEST SWAP1 POP SWAP2 SWAP1 POP JUMP JUMPDEST PUSH32 0x4368616C6C656E6765206475726174696F6E206E6F74206F7665722079657400 PUSH1 0x0 DUP3 ADD MSTORE POP JUMP JUMPDEST PUSH1 0x0 PUSH2 0x3EAE PUSH1 0x1F DUP4 PUSH2 0x2F70 JUMP JUMPDEST SWAP2 POP PUSH2 0x3EB9 DUP3 PUSH2 0x3E78 JUMP JUMPDEST PUSH1 0x20 DUP3 ADD SWAP1 POP SWAP2 SWAP1 POP JUMP JUMPDEST PUSH1 0x0 PUSH1 0x20 DUP3 ADD SWAP1 POP DUP2 DUP2 SUB PUSH1 0x0 DUP4 ADD MSTORE PUSH2 0x3EDD DUP2 PUSH2 0x3EA1 JUMP JUMPDEST SWAP1 POP SWAP2 SWAP1 POP JUMP JUMPDEST PUSH32 0x596F7527766520616C7265616479206A6F696E65642E00000000000000000000 PUSH1 0x0 DUP3 ADD MSTORE POP JUMP JUMPDEST PUSH1 0x0 PUSH2 0x3F1A PUSH1 0x16 DUP4 PUSH2 0x2F70 JUMP JUMPDEST SWAP2 POP PUSH2 0x3F25 DUP3 PUSH2 0x3EE4 JUMP JUMPDEST PUSH1 0x20 DUP3 ADD SWAP1 POP SWAP2 SWAP1 POP JUMP JUMPDEST PUSH1 0x0 PUSH1 0x20 DUP3 ADD SWAP1 POP DUP2 DUP2 SUB PUSH1 0x0 DUP4 ADD MSTORE PUSH2 0x3F49 DUP2 PUSH2 0x3F0D JUMP JUMPDEST SWAP1 POP SWAP2 SWAP1 POP JUMP JUMPDEST PUSH32 0x496E73756666696369656E7420656E74727920616D6F756E7400000000000000 PUSH1 0x0 DUP3 ADD MSTORE POP JUMP JUMPDEST PUSH1 0x0 PUSH2 0x3F86 PUSH1 0x19 DUP4 PUSH2 0x2F70 JUMP JUMPDEST SWAP2 POP PUSH2 0x3F91 DUP3 PUSH2 0x3F50 JUMP JUMPDEST PUSH1 0x20 DUP3 ADD SWAP1 POP SWAP2 SWAP1 POP JUMP JUMPDEST PUSH1 0x0 PUSH1 0x20 DUP3 ADD SWAP1 POP DUP2 DUP2 SUB PUSH1 0x0 DUP4 ADD MSTORE PUSH2 0x3FB5 DUP2 PUSH2 0x3F79 JUMP JUMPDEST SWAP1 POP SWAP2 SWAP1 POP JUMP JUMPDEST PUSH1 0x0 PUSH2 0x3FC7 DUP3 PUSH2 0x29E7 JUMP JUMPDEST SWAP2 POP PUSH2 0x3FD2 DUP4 PUSH2 0x29E7 JUMP JUMPDEST SWAP3 POP DUP3 PUSH2 0x3FE2 JUMPI PUSH2 0x3FE1 PUSH2 0x338D JUMP JUMPDEST JUMPDEST DUP3 DUP3 MOD SWAP1 POP SWAP3 SWAP2 POP POP JUMP JUMPDEST PUSH1 0x0 PUSH2 0x3FF8 DUP3 PUSH2 0x29E7 JUMP JUMPDEST SWAP2 POP PUSH2 0x4003 DUP4 PUSH2 0x29E7 JUMP JUMPDEST SWAP3 POP DUP3 DUP3 MUL PUSH2 0x4011 DUP2 PUSH2 0x29E7 JUMP JUMPDEST SWAP2 POP DUP3 DUP3 DIV DUP5 EQ DUP4 ISZERO OR PUSH2 0x4028 JUMPI PUSH2 0x4027 PUSH2 0x33BC JUMP JUMPDEST JUMPDEST POP SWAP3 SWAP2 POP POP JUMP JUMPDEST PUSH1 0x0 DUP2 MLOAD SWAP1 POP SWAP2 SWAP1 POP JUMP JUMPDEST PUSH1 0x0 DUP3 DUP3 MSTORE PUSH1 0x20 DUP3 ADD SWAP1 POP SWAP3 SWAP2 POP POP JUMP JUMPDEST PUSH1 0x0 PUSH2 0x4056 DUP3 PUSH2 0x402F JUMP JUMPDEST PUSH2 0x4060 DUP2 DUP6 PUSH2 0x403A JUMP JUMPDEST SWAP4 POP PUSH2 0x4070 DUP2 DUP6 PUSH1 0x20 DUP7 ADD PUSH2 0x2ADF JUMP JUMPDEST PUSH2 0x4079 DUP2 PUSH2 0x2B09 JUMP JUMPDEST DUP5 ADD SWAP2 POP POP SWAP3 SWAP2 POP POP JUMP JUMPDEST PUSH1 0x0 PUSH1 0x60 DUP3 ADD SWAP1 POP PUSH2 0x4099 PUSH1 0x0 DUP4 ADD DUP7 PUSH2 0x2F61 JUMP JUMPDEST PUSH2 0x40A6 PUSH1 0x20 DUP4 ADD DUP6 PUSH2 0x29F1 JUMP JUMPDEST DUP2 DUP2 SUB PUSH1 0x40 DUP4 ADD MSTORE PUSH2 0x40B8 DUP2 DUP5 PUSH2 0x404B JUMP JUMPDEST SWAP1 POP SWAP5 SWAP4 POP POP POP POP JUMP JUMPDEST PUSH1 0x0 DUP2 SWAP1 POP SWAP3 SWAP2 POP POP JUMP JUMPDEST PUSH1 0x0 PUSH2 0x40D8 DUP3 PUSH2 0x402F JUMP JUMPDEST PUSH2 0x40E2 DUP2 DUP6 PUSH2 0x40C2 JUMP JUMPDEST SWAP4 POP PUSH2 0x40F2 DUP2 DUP6 PUSH1 0x20 DUP7 ADD PUSH2 0x2ADF JUMP JUMPDEST DUP1 DUP5 ADD SWAP2 POP POP SWAP3 SWAP2 POP POP JUMP JUMPDEST PUSH1 0x0 PUSH2 0x410A DUP3 DUP5 PUSH2 0x40CD JUMP JUMPDEST SWAP2 POP DUP2 SWAP1 POP SWAP3 SWAP2 POP POP JUMP JUMPDEST PUSH32 0x45787465726E616C2063616C6C206661696C6564000000000000000000000000 PUSH1 0x0 DUP3 ADD MSTORE POP JUMP JUMPDEST PUSH1 0x0 PUSH2 0x414B PUSH1 0x14 DUP4 PUSH2 0x2F70 JUMP JUMPDEST SWAP2 POP PUSH2 0x4156 DUP3 PUSH2 0x4115 JUMP JUMPDEST PUSH1 0x20 DUP3 ADD SWAP1 POP SWAP2 SWAP1 POP JUMP JUMPDEST PUSH1 0x0 PUSH1 0x20 DUP3 ADD SWAP1 POP DUP2 DUP2 SUB PUSH1 0x0 DUP4 ADD MSTORE PUSH2 0x417A DUP2 PUSH2 0x413E JUMP JUMPDEST SWAP1 POP SWAP2 SWAP1 POP JUMP JUMPDEST PUSH1 0x0 PUSH1 0x60 DUP3 ADD SWAP1 POP PUSH2 0x4196 PUSH1 0x0 DUP4 ADD DUP7 PUSH2 0x2F61 JUMP JUMPDEST PUSH2 0x41A3 PUSH1 0x20 DUP4 ADD DUP6 PUSH2 0x29F1 JUMP JUMPDEST PUSH2 0x41B0 PUSH1 0x40 DUP4 ADD DUP5 PUSH2 0x2FC6 JUMP JUMPDEST SWAP5 SWAP4 POP POP POP POP JUMP JUMPDEST PUSH32 0x4368616C6C656E6765206475726174696F6E206E6F74206F766572207965742E PUSH1 0x0 DUP3 ADD MSTORE POP JUMP JUMPDEST PUSH1 0x0 PUSH2 0x41EE PUSH1 0x20 DUP4 PUSH2 0x2F70 JUMP JUMPDEST SWAP2 POP PUSH2 0x41F9 DUP3 PUSH2 0x41B8 JUMP JUMPDEST PUSH1 0x20 DUP3 ADD SWAP1 POP SWAP2 SWAP1 POP JUMP JUMPDEST PUSH1 0x0 PUSH1 0x20 DUP3 ADD SWAP1 POP DUP2 DUP2 SUB PUSH1 0x0 DUP4 ADD MSTORE PUSH2 0x421D DUP2 PUSH2 0x41E1 JUMP JUMPDEST SWAP1 POP SWAP2 SWAP1 POP JUMP INVALID LOG2 PUSH5 0x6970667358 0x22 SLT KECCAK256 0xE3 0xAE 0xFB 0xC 0xBB SGT PREVRANDAO 0x29 0x5D 0xEC 0xB4 0x2D 0x4A PUSH27 0xF6950F9FD5B47890B2A39D58EAEF491ABF2564736F6C6343000814 STOP CALLER "},"methodIdentifiers":{"admin()":"f851a440","challenges(uint256)":"8f1d3776","claimRewards(uint256)":"0962ef79","closeChallenge(uint256)":"59808a97","createChallenge(string,uint256,uint256)":"1aaaac93","getChallengeCount()":"0933f467","getCurrentChallenges()":"18d95b76","joinChallenge(uint256)":"e448ee26","runChallenge(uint256)":"497ddc63","setTokenAddress(address)":"26a4e8d2","token()":"fc0c546a","wakeUpCheck(uint256)":"335eff3e","withdrawalReward(uint256)":"4a4ae32b"}}}}}