{
  "_format": "hh-sol-artifact-1",
  "contractName": "ChallengeContract",
  "sourceName": "contracts/ChallengeContract.sol",
  "abi": [
    {
      "inputs": [
        {
          "internalType": "address",
          "name": "_tokenAddress",
          "type": "address"
        }
      ],
      "stateMutability": "nonpayable",
      "type": "constructor"
    },
    {
      "anonymous": false,
      "inputs": [
        {
          "indexed": false,
          "internalType": "uint256",
          "name": "challengeId",
          "type": "uint256"
        },
        {
          "indexed": false,
          "internalType": "uint256",
          "name": "closureDate",
          "type": "uint256"
        }
      ],
      "name": "ChallengeClosureScheduled",
      "type": "event"
    },
    {
      "anonymous": false,
      "inputs": [
        {
          "indexed": false,
          "internalType": "uint256",
          "name": "challengeId",
          "type": "uint256"
        }
      ],
      "name": "ChallengeCompleted",
      "type": "event"
    },
    {
      "anonymous": false,
      "inputs": [
        {
          "indexed": false,
          "internalType": "uint256",
          "name": "challengeId",
          "type": "uint256"
        },
        {
          "indexed": false,
          "internalType": "string",
          "name": "challengeName",
          "type": "string"
        },
        {
          "indexed": false,
          "internalType": "uint256",
          "name": "entryAmount",
          "type": "uint256"
        },
        {
          "indexed": false,
          "internalType": "address",
          "name": "creator",
          "type": "address"
        }
      ],
      "name": "ChallengeCreated",
      "type": "event"
    },
    {
      "anonymous": false,
      "inputs": [
        {
          "indexed": false,
          "internalType": "uint256",
          "name": "challengeId",
          "type": "uint256"
        },
        {
          "indexed": false,
          "internalType": "address",
          "name": "participant",
          "type": "address"
        }
      ],
      "name": "ChallengeJoined",
      "type": "event"
    },
    {
      "anonymous": false,
      "inputs": [
        {
          "indexed": false,
          "internalType": "uint256",
          "name": "challengeId",
          "type": "uint256"
        },
        {
          "indexed": false,
          "internalType": "address",
          "name": "participant",
          "type": "address"
        }
      ],
      "name": "ChallengeRewardClaimed",
      "type": "event"
    },
    {
      "inputs": [],
      "name": "admin",
      "outputs": [
        {
          "internalType": "address",
          "name": "",
          "type": "address"
        }
      ],
      "stateMutability": "view",
      "type": "function"
    },
    {
      "inputs": [
        {
          "internalType": "uint256",
          "name": "",
          "type": "uint256"
        }
      ],
      "name": "challenges",
      "outputs": [
        {
          "internalType": "address",
          "name": "creator",
          "type": "address"
        },
        {
          "internalType": "string",
          "name": "challengeName",
          "type": "string"
        },
        {
          "internalType": "uint256",
          "name": "entryAmount",
          "type": "uint256"
        },
        {
          "internalType": "uint256",
          "name": "totalAmount",
          "type": "uint256"
        },
        {
          "internalType": "uint256",
          "name": "creationTime",
          "type": "uint256"
        },
        {
          "internalType": "uint256",
          "name": "applicationDeadline",
          "type": "uint256"
        },
        {
          "internalType": "uint256",
          "name": "duration",
          "type": "uint256"
        },
        {
          "internalType": "bool",
          "name": "canApplication",
          "type": "bool"
        },
        {
          "internalType": "bool",
          "name": "completed",
          "type": "bool"
        },
        {
          "internalType": "uint256",
          "name": "numOfWakeUpCheckToWin",
          "type": "uint256"
        },
        {
          "internalType": "uint256",
          "name": "numOfWinners",
          "type": "uint256"
        }
      ],
      "stateMutability": "view",
      "type": "function"
    },
    {
      "inputs": [
        {
          "internalType": "uint256",
          "name": "",
          "type": "uint256"
        },
        {
          "internalType": "address",
          "name": "",
          "type": "address"
        }
      ],
      "name": "check",
      "outputs": [
        {
          "internalType": "uint256",
          "name": "",
          "type": "uint256"
        }
      ],
      "stateMutability": "view",
      "type": "function"
    },
    {
      "inputs": [
        {
          "internalType": "uint256",
          "name": "_challengeId",
          "type": "uint256"
        }
      ],
      "name": "claimRewards",
      "outputs": [],
      "stateMutability": "nonpayable",
      "type": "function"
    },
    {
      "inputs": [
        {
          "internalType": "uint256",
          "name": "",
          "type": "uint256"
        },
        {
          "internalType": "address",
          "name": "",
          "type": "address"
        }
      ],
      "name": "claimed",
      "outputs": [
        {
          "internalType": "bool",
          "name": "",
          "type": "bool"
        }
      ],
      "stateMutability": "view",
      "type": "function"
    },
    {
      "inputs": [
        {
          "internalType": "uint256",
          "name": "_challengeId",
          "type": "uint256"
        }
      ],
      "name": "closeChallenge",
      "outputs": [],
      "stateMutability": "nonpayable",
      "type": "function"
    },
    {
      "inputs": [
        {
          "internalType": "string",
          "name": "_challengeName",
          "type": "string"
        },
        {
          "internalType": "uint256",
          "name": "_duration",
          "type": "uint256"
        },
        {
          "internalType": "uint256",
          "name": "_entryAmount",
          "type": "uint256"
        }
      ],
      "name": "createChallenge",
      "outputs": [],
      "stateMutability": "nonpayable",
      "type": "function"
    },
    {
      "inputs": [],
      "name": "getChallengeCount",
      "outputs": [
        {
          "internalType": "uint256",
          "name": "",
          "type": "uint256"
        }
      ],
      "stateMutability": "view",
      "type": "function"
    },
    {
      "inputs": [],
      "name": "getCurrentChallenges",
      "outputs": [
        {
          "components": [
            {
              "internalType": "uint256",
              "name": "id",
              "type": "uint256"
            },
            {
              "internalType": "string",
              "name": "challengeName",
              "type": "string"
            },
            {
              "internalType": "uint256",
              "name": "entryAmount",
              "type": "uint256"
            },
            {
              "internalType": "uint256",
              "name": "currentTotalAmount",
              "type": "uint256"
            },
            {
              "internalType": "uint256[4]",
              "name": "appDeadline",
              "type": "uint256[4]"
            },
            {
              "internalType": "uint256[4]",
              "name": "dueDate",
              "type": "uint256[4]"
            }
          ],
          "internalType": "struct ChallengeStorage.OngoingChallenge[]",
          "name": "",
          "type": "tuple[]"
        }
      ],
      "stateMutability": "view",
      "type": "function"
    },
    {
      "inputs": [
        {
          "internalType": "uint256",
          "name": "_challengeId",
          "type": "uint256"
        }
      ],
      "name": "joinChallenge",
      "outputs": [],
      "stateMutability": "nonpayable",
      "type": "function"
    },
    {
      "inputs": [
        {
          "internalType": "uint256",
          "name": "",
          "type": "uint256"
        },
        {
          "internalType": "address",
          "name": "",
          "type": "address"
        }
      ],
      "name": "lastCheck",
      "outputs": [
        {
          "internalType": "uint256",
          "name": "",
          "type": "uint256"
        }
      ],
      "stateMutability": "view",
      "type": "function"
    },
    {
      "inputs": [
        {
          "internalType": "uint256",
          "name": "",
          "type": "uint256"
        },
        {
          "internalType": "address",
          "name": "",
          "type": "address"
        }
      ],
      "name": "participate",
      "outputs": [
        {
          "internalType": "bool",
          "name": "",
          "type": "bool"
        }
      ],
      "stateMutability": "view",
      "type": "function"
    },
    {
      "inputs": [
        {
          "internalType": "uint256",
          "name": "_challengeId",
          "type": "uint256"
        }
      ],
      "name": "runChallenge",
      "outputs": [],
      "stateMutability": "nonpayable",
      "type": "function"
    },
    {
      "inputs": [
        {
          "internalType": "address",
          "name": "_newAdmin",
          "type": "address"
        }
      ],
      "name": "setAdmin",
      "outputs": [],
      "stateMutability": "nonpayable",
      "type": "function"
    },
    {
      "inputs": [
        {
          "internalType": "address",
          "name": "_newTokenAddress",
          "type": "address"
        }
      ],
      "name": "setTokenAddress",
      "outputs": [],
      "stateMutability": "nonpayable",
      "type": "function"
    },
    {
      "inputs": [],
      "name": "token",
      "outputs": [
        {
          "internalType": "contract IERC20",
          "name": "",
          "type": "address"
        }
      ],
      "stateMutability": "view",
      "type": "function"
    },
    {
      "inputs": [
        {
          "internalType": "uint256",
          "name": "_challengeId",
          "type": "uint256"
        }
      ],
      "name": "wakeUpCheck",
      "outputs": [],
      "stateMutability": "nonpayable",
      "type": "function"
    },
    {
      "inputs": [
        {
          "internalType": "uint256",
          "name": "_challengeId",
          "type": "uint256"
        }
      ],
      "name": "withdrawalReward",
      "outputs": [],
      "stateMutability": "nonpayable",
      "type": "function"
    }
  ],
  "bytecode": "0x60806040523480156200001157600080fd5b506040516200475e3803806200475e833981810160405281019062000037919062000129565b80600160006101000a81548173ffffffffffffffffffffffffffffffffffffffff021916908373ffffffffffffffffffffffffffffffffffffffff160217905550336000806101000a81548173ffffffffffffffffffffffffffffffffffffffff021916908373ffffffffffffffffffffffffffffffffffffffff160217905550506200015b565b600080fd5b600073ffffffffffffffffffffffffffffffffffffffff82169050919050565b6000620000f182620000c4565b9050919050565b6200010381620000e4565b81146200010f57600080fd5b50565b6000815190506200012381620000f8565b92915050565b600060208284031215620001425762000141620000bf565b5b6000620001528482850162000112565b91505092915050565b6145f3806200016b6000396000f3fe608060405234801561001057600080fd5b50600436106101155760003560e01c8063497ddc63116100a2578063704b6c0211610071578063704b6c02146102da5780638f1d3776146102f6578063e448ee2614610330578063f851a4401461034c578063fc0c546a1461036a57610115565b8063497ddc63146102565780634a4ae32b1461027257806359808a971461028e57806359a63916146102aa57610115565b806313b18640116100e957806313b18640146101b457806318d95b76146101e45780631aaaac931461020257806326a4e8d21461021e578063335eff3e1461023a57610115565b80627f1f881461011a5780630933f4671461014a5780630962ef7914610168578063120aa87714610184575b600080fd5b610134600480360381019061012f9190612d3b565b610388565b6040516101419190612d8a565b60405180910390f35b6101526103ad565b60405161015f9190612d8a565b60405180910390f35b610182600480360381019061017d9190612da5565b6103ba565b005b61019e60048036038101906101999190612d3b565b610846565b6040516101ab9190612ded565b60405180910390f35b6101ce60048036038101906101c99190612d3b565b610875565b6040516101db9190612ded565b60405180910390f35b6101ec6108a4565b6040516101f99190613090565b60405180910390f35b61021c600480360381019061021791906131e7565b610c0d565b005b61023860048036038101906102339190613256565b61112c565b005b610254600480360381019061024f9190612da5565b61126d565b005b610270600480360381019061026b9190612da5565b61166b565b005b61028c60048036038101906102879190612da5565b611823565b005b6102a860048036038101906102a39190612da5565b6118c6565b005b6102c460048036038101906102bf9190612d3b565b6119f8565b6040516102d19190612d8a565b60405180910390f35b6102f460048036038101906102ef9190613256565b611a1d565b005b610310600480360381019061030b9190612da5565b611aee565b6040516103279b9a999897969594939291906132dc565b60405180910390f35b61034a60048036038101906103459190612da5565b611c1a565b005b610354612243565b604051610361919061338e565b60405180910390f35b610372612267565b60405161037f9190613408565b60405180910390f35b6003602052816000526040600020602052806000526040600020600091509150505481565b6000600280549050905090565b806002805490508110610402576040517f08c379a00000000000000000000000000000000000000000000000000000000081526004016103f99061346f565b60405180910390fd5b600282815481106104165761041561348f565b5b90600052602060002090600a020160070160019054906101000a900460ff16610474576040517f08c379a000000000000000000000000000000000000000000000000000000000815260040161046b9061350a565b60405180910390fd5b6005600083815260200190815260200160002060003373ffffffffffffffffffffffffffffffffffffffff1673ffffffffffffffffffffffffffffffffffffffff16815260200190815260200160002060009054906101000a900460ff16610511576040517f08c379a00000000000000000000000000000000000000000000000000000000081526004016105089061359c565b60405180910390fd5b6006600083815260200190815260200160002060003373ffffffffffffffffffffffffffffffffffffffff1673ffffffffffffffffffffffffffffffffffffffff16815260200190815260200160002060009054906101000a900460ff16156105af576040517f08c379a00000000000000000000000000000000000000000000000000000000081526004016105a690613608565b60405180910390fd5b600282815481106105c3576105c261348f565b5b90600052602060002090600a0201600801546003600084815260200190815260200160002060003373ffffffffffffffffffffffffffffffffffffffff1673ffffffffffffffffffffffffffffffffffffffff1681526020019081526020016000205414610666576040517f08c379a000000000000000000000000000000000000000000000000000000000815260040161065d90613674565b60405180910390fd5b60006002838154811061067c5761067b61348f565b5b90600052602060002090600a020160090154600284815481106106a2576106a161348f565b5b90600052602060002090600a0201600301546106be91906136f2565b9050600160009054906101000a900473ffffffffffffffffffffffffffffffffffffffff1673ffffffffffffffffffffffffffffffffffffffff1663a9059cbb33836040518363ffffffff1660e01b815260040161071d929190613723565b6020604051808303816000875af115801561073c573d6000803e3d6000fd5b505050506040513d601f19601f820116820180604052508101906107609190613778565b61079f576040517f08c379a0000000000000000000000000000000000000000000000000000000008152600401610796906137f1565b60405180910390fd5b60016006600085815260200190815260200160002060003373ffffffffffffffffffffffffffffffffffffffff1673ffffffffffffffffffffffffffffffffffffffff16815260200190815260200160002060006101000a81548160ff0219169083151502179055507fcc543a67f8dfe04cfbe3cdcf9eacffa678f7b557e40f7d0051fcf17e8165d5e38333604051610839929190613811565b60405180910390a1505050565b60066020528160005260406000206020528060005260406000206000915091509054906101000a900460ff1681565b60056020528160005260406000206020528060005260406000206000915091509054906101000a900460ff1681565b60606000805b60028054905081101561091057600281815481106108cb576108ca61348f565b5b90600052602060002090600a020160070160019054906101000a900460ff166108fd5781806108f99061383a565b9250505b80806109089061383a565b9150506108aa565b5060008167ffffffffffffffff81111561092d5761092c6130bc565b5b60405190808252806020026020018201604052801561096657816020015b610953612c2f565b81526020019060019003908161094b5790505b5090506000805b600280549050811015610c03576002818154811061098e5761098d61348f565b5b90600052602060002090600a020160070160019054906101000a900460ff16610bf0576000806000610a14600285815481106109cd576109cc61348f565b5b90600052602060002090600a020160060154600286815481106109f3576109f261348f565b5b90600052602060002090600a020160050154610a0f9190613882565b61228d565b50509250925092506000806000610a4f60028881548110610a3857610a3761348f565b5b90600052602060002090600a02016005015461228d565b50509250925092506040518060c0016040528088815260200160028981548110610a7c57610a7b61348f565b5b90600052602060002090600a02016001018054610a98906138e5565b80601f0160208091040260200160405190810160405280929190818152602001828054610ac4906138e5565b8015610b115780601f10610ae657610100808354040283529160200191610b11565b820191906000526020600020905b815481529060010190602001808311610af457829003601f168201915b5050505050815260200160028981548110610b2f57610b2e61348f565b5b90600052602060002090600a020160020154815260200160028981548110610b5a57610b5961348f565b5b90600052602060002090600a020160030154815260200160405180608001604052808681526020018581526020018481526020016015815250815260200160405180608001604052808981526020018881526020018781526020016015815250815250898981518110610bd057610bcf61348f565b5b60200260200101819052508780610be69061383a565b9850505050505050505b8080610bfb9061383a565b91505061096d565b5081935050505090565b60008111610c50576040517f08c379a0000000000000000000000000000000000000000000000000000000008152600401610c4790613988565b60405180910390fd5b62015180821015610c96576040517f08c379a0000000000000000000000000000000000000000000000000000000008152600401610c8d90613a1a565b60405180910390fd5b80600160009054906101000a900473ffffffffffffffffffffffffffffffffffffffff1673ffffffffffffffffffffffffffffffffffffffff1663dd62ed3e33306040518363ffffffff1660e01b8152600401610cf4929190613a3a565b602060405180830381865afa158015610d11573d6000803e3d6000fd5b505050506040513d601f19601f82011682018060405250810190610d359190613a78565b1015610d76576040517f08c379a0000000000000000000000000000000000000000000000000000000008152600401610d6d90613af1565b60405180910390fd5b600160009054906101000a900473ffffffffffffffffffffffffffffffffffffffff1673ffffffffffffffffffffffffffffffffffffffff166323b872dd3330846040518463ffffffff1660e01b8152600401610dd593929190613b11565b6020604051808303816000875af1158015610df4573d6000803e3d6000fd5b505050506040513d601f19601f82011682018060405250810190610e189190613778565b610e57576040517f08c379a0000000000000000000000000000000000000000000000000000000008152600401610e4e90613b94565b60405180910390fd5b60006201518042610e689190613bb4565b905060008162015180610e7b9190613be5565b9050600062012750905060006040518061016001604052803373ffffffffffffffffffffffffffffffffffffffff168152602001888152602001868152602001868152602001428152602001838542610ed49190613882565b610ede9190613882565b81526020018781526020016001151581526020016000151581526020016201518088610f0a91906136f2565b8152602001600081525090506000600280549050905060028290806001815401808255809150506001900390600052602060002090600a020160009091909190915060008201518160000160006101000a81548173ffffffffffffffffffffffffffffffffffffffff021916908373ffffffffffffffffffffffffffffffffffffffff1602179055506020820151816001019081610fa89190613dbb565b5060408201518160020155606082015181600301556080820151816004015560a0820151816005015560c0820151816006015560e08201518160070160006101000a81548160ff0219169083151502179055506101008201518160070160016101000a81548160ff02191690831515021790555061012082015181600801556101408201518160090155505060016005600083815260200190815260200160002060003373ffffffffffffffffffffffffffffffffffffffff1673ffffffffffffffffffffffffffffffffffffffff16815260200190815260200160002060006101000a81548160ff0219169083151502179055507f46ea7ee0990cde33902e77e2d7200322990cb03186c32d68f2966739d28fb366818988336040516110d29493929190613e8d565b60405180910390a17f79db182af3410c60080d8e7c7ed50f1977b0df228f066bbea532e7d75af80d2c81888460a0015161110c9190613882565b60405161111a929190613ed9565b60405180910390a15050505050505050565b60008054906101000a900473ffffffffffffffffffffffffffffffffffffffff1673ffffffffffffffffffffffffffffffffffffffff163373ffffffffffffffffffffffffffffffffffffffff16146111ba576040517f08c379a00000000000000000000000000000000000000000000000000000000081526004016111b190613f74565b60405180910390fd5b600073ffffffffffffffffffffffffffffffffffffffff168173ffffffffffffffffffffffffffffffffffffffff1603611229576040517f08c379a000000000000000000000000000000000000000000000000000000000815260040161122090613fe0565b60405180910390fd5b80600160006101000a81548173ffffffffffffffffffffffffffffffffffffffff021916908373ffffffffffffffffffffffffffffffffffffffff16021790555050565b8060028054905081106112b5576040517f08c379a00000000000000000000000000000000000000000000000000000000081526004016112ac9061346f565b60405180910390fd5b600281815481106112c9576112c861348f565b5b90600052602060002090600a020160070160019054906101000a900460ff1615611328576040517f08c379a000000000000000000000000000000000000000000000000000000000815260040161131f9061404c565b60405180910390fd5b6005600083815260200190815260200160002060003373ffffffffffffffffffffffffffffffffffffffff1673ffffffffffffffffffffffffffffffffffffffff16815260200190815260200160002060009054906101000a900460ff166113c5576040517f08c379a00000000000000000000000000000000000000000000000000000000081526004016113bc9061359c565b60405180910390fd5b60008060006114236004600087815260200190815260200160002060003373ffffffffffffffffffffffffffffffffffffffff1673ffffffffffffffffffffffffffffffffffffffff1681526020019081526020016000205461228d565b5050925092509250600080600080600061143c4261228d565b945094509450945094508785118061145357508684115b8061145d57508583115b61149c576040517f08c379a0000000000000000000000000000000000000000000000000000000008152600401611493906140b8565b60405180910390fd5b6006821480156114ad575060058111155b6114ec576040517f08c379a00000000000000000000000000000000000000000000000000000000081526004016114e390614124565b60405180910390fd5b600360008b815260200190815260200160002060003373ffffffffffffffffffffffffffffffffffffffff1673ffffffffffffffffffffffffffffffffffffffff168152602001908152602001600020600081548092919061154d9061383a565b919050555042600460008c815260200190815260200160002060003373ffffffffffffffffffffffffffffffffffffffff1673ffffffffffffffffffffffffffffffffffffffff1681526020019081526020016000208190555060028a815481106115bb576115ba61348f565b5b90600052602060002090600a020160080154600360008c815260200190815260200160002060003373ffffffffffffffffffffffffffffffffffffffff1673ffffffffffffffffffffffffffffffffffffffff168152602001908152602001600020540361165f5760028a815481106116375761163661348f565b5b90600052602060002090600a020160090160008154809291906116599061383a565b91905055505b50505050505050505050565b60008054906101000a900473ffffffffffffffffffffffffffffffffffffffff1673ffffffffffffffffffffffffffffffffffffffff163373ffffffffffffffffffffffffffffffffffffffff16146116f9576040517f08c379a00000000000000000000000000000000000000000000000000000000081526004016116f090613f74565b60405180910390fd5b600080600061172c600285815481106117155761171461348f565b5b90600052602060002090600a02016005015461228d565b50509250925092506000806000806117434261228d565b5093509350935093508684118061175957508583115b8061176357508482115b8061176e5750601581115b6117ad576040517f08c379a00000000000000000000000000000000000000000000000000000000081526004016117a4906141b6565b60405180910390fd5b6000600289815481106117c3576117c261348f565b5b90600052602060002090600a020160070160006101000a81548160ff021916908315150217905550611819600289815481106118025761180161348f565b5b90600052602060002090600a02016003015461253a565b5050505050505050565b600281815481106118375761183661348f565b5b90600052602060002090600a020160070160019054906101000a900460ff16611895576040517f08c379a000000000000000000000000000000000000000000000000000000000815260040161188c90614222565b60405180910390fd5b6118c3600282815481106118ac576118ab61348f565b5b90600052602060002090600a0201600301546126f9565b50565b60008054906101000a900473ffffffffffffffffffffffffffffffffffffffff1673ffffffffffffffffffffffffffffffffffffffff163373ffffffffffffffffffffffffffffffffffffffff1614611954576040517f08c379a000000000000000000000000000000000000000000000000000000000815260040161194b90613f74565b60405180910390fd5b600281815481106119685761196761348f565b5b90600052602060002090600a0201600601546002828154811061198e5761198d61348f565b5b90600052602060002090600a0201600501546119aa9190613882565b4210156119ec576040517f08c379a00000000000000000000000000000000000000000000000000000000081526004016119e39061428e565b60405180910390fd5b6119f581612864565b50565b6004602052816000526040600020602052806000526040600020600091509150505481565b60008054906101000a900473ffffffffffffffffffffffffffffffffffffffff1673ffffffffffffffffffffffffffffffffffffffff163373ffffffffffffffffffffffffffffffffffffffff1614611aab576040517f08c379a0000000000000000000000000000000000000000000000000000000008152600401611aa290613f74565b60405180910390fd5b806000806101000a81548173ffffffffffffffffffffffffffffffffffffffff021916908373ffffffffffffffffffffffffffffffffffffffff16021790555050565b60028181548110611afe57600080fd5b90600052602060002090600a02016000915090508060000160009054906101000a900473ffffffffffffffffffffffffffffffffffffffff1690806001018054611b47906138e5565b80601f0160208091040260200160405190810160405280929190818152602001828054611b73906138e5565b8015611bc05780601f10611b9557610100808354040283529160200191611bc0565b820191906000526020600020905b815481529060010190602001808311611ba357829003601f168201915b5050505050908060020154908060030154908060040154908060050154908060060154908060070160009054906101000a900460ff16908060070160019054906101000a900460ff1690806008015490806009015490508b565b806002805490508110611c62576040517f08c379a0000000000000000000000000000000000000000000000000000000008152600401611c599061346f565b60405180910390fd5b60028181548110611c7657611c7561348f565b5b90600052602060002090600a020160070160019054906101000a900460ff1615611cd5576040517f08c379a0000000000000000000000000000000000000000000000000000000008152600401611ccc9061404c565b60405180910390fd5b6000806000611d0860028681548110611cf157611cf061348f565b5b90600052602060002090600a02016005015461228d565b5050925092509250600080600080611d1f4261228d565b50935093509350935086841080611d3557508583105b80611d3f57508482105b80611d4a5750601581105b611d89576040517f08c379a0000000000000000000000000000000000000000000000000000000008152600401611d80906141b6565b60405180910390fd5b600560008a815260200190815260200160002060003373ffffffffffffffffffffffffffffffffffffffff1673ffffffffffffffffffffffffffffffffffffffff16815260200190815260200160002060009054906101000a900460ff1615611e27576040517f08c379a0000000000000000000000000000000000000000000000000000000008152600401611e1e906142fa565b60405180910390fd5b60028981548110611e3b57611e3a61348f565b5b90600052602060002090600a020160020154600160009054906101000a900473ffffffffffffffffffffffffffffffffffffffff1673ffffffffffffffffffffffffffffffffffffffff166370a08231336040518263ffffffff1660e01b8152600401611ea8919061338e565b602060405180830381865afa158015611ec5573d6000803e3d6000fd5b505050506040513d601f19601f82011682018060405250810190611ee99190613a78565b1015611f2a576040517f08c379a0000000000000000000000000000000000000000000000000000000008152600401611f2190614366565b60405180910390fd5b60028981548110611f3e57611f3d61348f565b5b90600052602060002090600a020160020154600160009054906101000a900473ffffffffffffffffffffffffffffffffffffffff1673ffffffffffffffffffffffffffffffffffffffff1663dd62ed3e33306040518363ffffffff1660e01b8152600401611fad929190613a3a565b602060405180830381865afa158015611fca573d6000803e3d6000fd5b505050506040513d601f19601f82011682018060405250810190611fee9190613a78565b101561202f576040517f08c379a000000000000000000000000000000000000000000000000000000000815260040161202690613af1565b60405180910390fd5b600160009054906101000a900473ffffffffffffffffffffffffffffffffffffffff1673ffffffffffffffffffffffffffffffffffffffff166323b872dd333060028d815481106120835761208261348f565b5b90600052602060002090600a0201600201546040518463ffffffff1660e01b81526004016120b393929190613b11565b6020604051808303816000875af11580156120d2573d6000803e3d6000fd5b505050506040513d601f19601f820116820180604052508101906120f69190613778565b612135576040517f08c379a000000000000000000000000000000000000000000000000000000000815260040161212c90613b94565b60405180910390fd5b7f690ecbabe96222b39728b512682860cc6460002a670ff94954038286bea0ba698933604051612166929190613811565b60405180910390a16001600560008b815260200190815260200160002060003373ffffffffffffffffffffffffffffffffffffffff1673ffffffffffffffffffffffffffffffffffffffff16815260200190815260200160002060006101000a81548160ff021916908315150217905550600289815481106121eb576121ea61348f565b5b90600052602060002090600a02016002015460028a815481106122115761221061348f565b5b90600052602060002090600a020160030160008282546122319190613882565b92505081905550505050505050505050565b60008054906101000a900473ffffffffffffffffffffffffffffffffffffffff1681565b600160009054906101000a900473ffffffffffffffffffffffffffffffffffffffff1681565b600080600080600080617e909050600081886122a99190613882565b9050600062015180905060006301e13380905060006301e28500905060006107b290506000805b8685836122dd9190613882565b1161236b5760006004846122f19190613bb4565b148015612323575060006064846123089190613bb4565b14158061232257506000610190846123209190613bb4565b145b5b156123495783826123349190613882565b915080806123419061383a565b915050612358565b84826123559190613882565b91505b82806123639061383a565b9350506122d0565b829c506000604051806101800160405280601f60ff1660ff168152602001601c60ff1660ff168152602001601f60ff1660ff168152602001601e60ff1660ff168152602001601f60ff1660ff168152602001601e60ff1660ff168152602001601f60ff1660ff168152602001601f60ff1660ff168152602001601e60ff1660ff168152602001601f60ff1660ff168152602001601e60ff1660ff168152602001601f60ff1660ff16815250905060005b6001156124a0576000600c820361243257506124a0565b888383600c81106124465761244561348f565b5b602002015160ff166124589190614386565b816124639190613882565b905080856124719190613882565b8a101561247e57506124a0565b808561248a9190613882565b945081806124979061383a565b9250505061241b565b6001816124ad9190613882565b9d50600188858b6124be9190613be5565b6124c891906136f2565b6124d29190613882565b9c50600088858b6124e39190613be5565b6124ed9190613882565b9050610e1089826124fe9190613bb4565b61250891906136f2565b9c50603c610e108261251a9190613bb4565b61252491906136f2565b9b50505050505050505050505091939590929450565b600073e86fcf5213c785acf9a8bffeedefa9a2199f7da690506000730e1ef78939f9d3340e63a7a1077d50999cc6b64f731f4aef3a04372cf9d738d5459f31950a53969ca3604051602001612590929190613a3a565b604051602081830303815290604052905060007368c1f9620aec7f2913430ad6dac1bb16d8444f0073ffffffffffffffffffffffffffffffffffffffff168385846040516024016125e39392919061441d565b6040516020818303038152906040527fd8146e75000000000000000000000000000000000000000000000000000000007bffffffffffffffffffffffffffffffffffffffffffffffffffffffff19166020820180517bffffffffffffffffffffffffffffffffffffffffffffffffffffffff838183161783525050505060405161266d9190614497565b6000604051808303816000865af19150503d80600081146126aa576040519150601f19603f3d011682016040523d82523d6000602084013e6126af565b606091505b50509050806126f3576040517f08c379a00000000000000000000000000000000000000000000000000000000081526004016126ea906144fa565b60405180910390fd5b50505050565b6000730e1ef78939f9d3340e63a7a1077d50999cc6b64f73ffffffffffffffffffffffffffffffffffffffff16731f4aef3a04372cf9d738d5459f31950a53969ca38360016040516024016127509392919061451a565b6040516020818303038152906040527f53d3ce5f000000000000000000000000000000000000000000000000000000007bffffffffffffffffffffffffffffffffffffffffffffffffffffffff19166020820180517bffffffffffffffffffffffffffffffffffffffffffffffffffffffff83818316178352505050506040516127da9190614497565b6000604051808303816000865af19150503d8060008114612817576040519150601f19603f3d011682016040523d82523d6000602084013e61281c565b606091505b5050905080612860576040517f08c379a0000000000000000000000000000000000000000000000000000000008152600401612857906144fa565b60405180910390fd5b5050565b8060028054905081106128ac576040517f08c379a00000000000000000000000000000000000000000000000000000000081526004016128a39061346f565b60405180910390fd5b600281815481106128c0576128bf61348f565b5b90600052602060002090600a020160070160019054906101000a900460ff161561291f576040517f08c379a00000000000000000000000000000000000000000000000000000000081526004016129169061404c565b60405180910390fd5b6000600283815481106129355761293461348f565b5b90600052602060002090600a0201600601546002848154811061295b5761295a61348f565b5b90600052602060002090600a0201600501546129779190613882565b90506000806000806129884261228d565b509350935093509350600080600061299f8861228d565b5050925092509250828711806129b457508186115b806129be57508085115b806129ca575060158410155b612a09576040517f08c379a0000000000000000000000000000000000000000000000000000000008152600401612a009061459d565b60405180910390fd5b612a46633b9aca0060028c81548110612a2557612a2461348f565b5b90600052602060002090600a020160030154612a419190614386565b612ac7565b600160028b81548110612a5c57612a5b61348f565b5b90600052602060002090600a020160070160016101000a81548160ff0219169083151502179055507fc61ef8151923bbd8dc5f723ba25f26bb805ef4f9a52c5811df7242872edd2e0b8a604051612ab39190612d8a565b60405180910390a150505050505050505050565b6000730e1ef78939f9d3340e63a7a1077d50999cc6b64f73ffffffffffffffffffffffffffffffffffffffff16731f4aef3a04372cf9d738d5459f31950a53969ca383604051602401612b1b929190613723565b6040516020818303038152906040527fd8b11821000000000000000000000000000000000000000000000000000000007bffffffffffffffffffffffffffffffffffffffffffffffffffffffff19166020820180517bffffffffffffffffffffffffffffffffffffffffffffffffffffffff8381831617835250505050604051612ba59190614497565b6000604051808303816000865af19150503d8060008114612be2576040519150601f19603f3d011682016040523d82523d6000602084013e612be7565b606091505b5050905080612c2b576040517f08c379a0000000000000000000000000000000000000000000000000000000008152600401612c22906144fa565b60405180910390fd5b5050565b6040518060c0016040528060008152602001606081526020016000815260200160008152602001612c5e612c71565b8152602001612c6b612c71565b81525090565b6040518060800160405280600490602082028036833780820191505090505090565b6000604051905090565b600080fd5b600080fd5b6000819050919050565b612cba81612ca7565b8114612cc557600080fd5b50565b600081359050612cd781612cb1565b92915050565b600073ffffffffffffffffffffffffffffffffffffffff82169050919050565b6000612d0882612cdd565b9050919050565b612d1881612cfd565b8114612d2357600080fd5b50565b600081359050612d3581612d0f565b92915050565b60008060408385031215612d5257612d51612c9d565b5b6000612d6085828601612cc8565b9250506020612d7185828601612d26565b9150509250929050565b612d8481612ca7565b82525050565b6000602082019050612d9f6000830184612d7b565b92915050565b600060208284031215612dbb57612dba612c9d565b5b6000612dc984828501612cc8565b91505092915050565b60008115159050919050565b612de781612dd2565b82525050565b6000602082019050612e026000830184612dde565b92915050565b600081519050919050565b600082825260208201905092915050565b6000819050602082019050919050565b612e3d81612ca7565b82525050565b600081519050919050565b600082825260208201905092915050565b60005b83811015612e7d578082015181840152602081019050612e62565b60008484015250505050565b6000601f19601f8301169050919050565b6000612ea582612e43565b612eaf8185612e4e565b9350612ebf818560208601612e5f565b612ec881612e89565b840191505092915050565b600060049050919050565b600081905092915050565b6000819050919050565b6000612eff8383612e34565b60208301905092915050565b6000602082019050919050565b612f2181612ed3565b612f2b8184612ede565b9250612f3682612ee9565b8060005b83811015612f67578151612f4e8782612ef3565b9650612f5983612f0b565b925050600181019050612f3a565b505050505050565b600061018083016000830151612f886000860182612e34565b5060208301518482036020860152612fa08282612e9a565b9150506040830151612fb56040860182612e34565b506060830151612fc86060860182612e34565b506080830151612fdb6080860182612f18565b5060a0830151612fef610100860182612f18565b508091505092915050565b60006130068383612f6f565b905092915050565b6000602082019050919050565b600061302682612e08565b6130308185612e13565b93508360208202850161304285612e24565b8060005b8581101561307e578484038952815161305f8582612ffa565b945061306a8361300e565b925060208a01995050600181019050613046565b50829750879550505050505092915050565b600060208201905081810360008301526130aa818461301b565b905092915050565b600080fd5b600080fd5b7f4e487b7100000000000000000000000000000000000000000000000000000000600052604160045260246000fd5b6130f482612e89565b810181811067ffffffffffffffff82111715613113576131126130bc565b5b80604052505050565b6000613126612c93565b905061313282826130eb565b919050565b600067ffffffffffffffff821115613152576131516130bc565b5b61315b82612e89565b9050602081019050919050565b82818337600083830152505050565b600061318a61318584613137565b61311c565b9050828152602081018484840111156131a6576131a56130b7565b5b6131b1848285613168565b509392505050565b600082601f8301126131ce576131cd6130b2565b5b81356131de848260208601613177565b91505092915050565b600080600060608486031215613200576131ff612c9d565b5b600084013567ffffffffffffffff81111561321e5761321d612ca2565b5b61322a868287016131b9565b935050602061323b86828701612cc8565b925050604061324c86828701612cc8565b9150509250925092565b60006020828403121561326c5761326b612c9d565b5b600061327a84828501612d26565b91505092915050565b61328c81612cfd565b82525050565b600082825260208201905092915050565b60006132ae82612e43565b6132b88185613292565b93506132c8818560208601612e5f565b6132d181612e89565b840191505092915050565b6000610160820190506132f2600083018e613283565b8181036020830152613304818d6132a3565b9050613313604083018c612d7b565b613320606083018b612d7b565b61332d608083018a612d7b565b61333a60a0830189612d7b565b61334760c0830188612d7b565b61335460e0830187612dde565b613362610100830186612dde565b613370610120830185612d7b565b61337e610140830184612d7b565b9c9b505050505050505050505050565b60006020820190506133a36000830184613283565b92915050565b6000819050919050565b60006133ce6133c96133c484612cdd565b6133a9565b612cdd565b9050919050565b60006133e0826133b3565b9050919050565b60006133f2826133d5565b9050919050565b613402816133e7565b82525050565b600060208201905061341d60008301846133f9565b92915050565b7f496e76616c6964206368616c6c656e6765204944000000000000000000000000600082015250565b6000613459601483613292565b915061346482613423565b602082019050919050565b600060208201905081810360008301526134888161344c565b9050919050565b7f4e487b7100000000000000000000000000000000000000000000000000000000600052603260045260246000fd5b7f4368616c6c656e67652069736e277420636f6d706c65746564207965742e0000600082015250565b60006134f4601e83613292565b91506134ff826134be565b602082019050919050565b60006020820190508181036000830152613523816134e7565b9050919050565b7f596f75277265206e6f742061207061727469636970616e74206f66207468697360008201527f206368616c6c656e67652e000000000000000000000000000000000000000000602082015250565b6000613586602b83613292565b91506135918261352a565b604082019050919050565b600060208201905081810360008301526135b581613579565b9050919050565b7f416c726561647920636c61696d65640000000000000000000000000000000000600082015250565b60006135f2600f83613292565b91506135fd826135bc565b602082019050919050565b60006020820190508181036000830152613621816135e5565b9050919050565b7f596f75206469646e27742077696e2074686973206368616c6c656e67652e0000600082015250565b600061365e601e83613292565b915061366982613628565b602082019050919050565b6000602082019050818103600083015261368d81613651565b9050919050565b7f4e487b7100000000000000000000000000000000000000000000000000000000600052601260045260246000fd5b7f4e487b7100000000000000000000000000000000000000000000000000000000600052601160045260246000fd5b60006136fd82612ca7565b915061370883612ca7565b92508261371857613717613694565b5b828204905092915050565b60006040820190506137386000830185613283565b6137456020830184612d7b565b9392505050565b61375581612dd2565b811461376057600080fd5b50565b6000815190506137728161374c565b92915050565b60006020828403121561378e5761378d612c9d565b5b600061379c84828501613763565b91505092915050565b7f52657761726420636c61696d206661696c65642e000000000000000000000000600082015250565b60006137db601483613292565b91506137e6826137a5565b602082019050919050565b6000602082019050818103600083015261380a816137ce565b9050919050565b60006040820190506138266000830185612d7b565b6138336020830184613283565b9392505050565b600061384582612ca7565b91507fffffffffffffffffffffffffffffffffffffffffffffffffffffffffffffffff8203613877576138766136c3565b5b600182019050919050565b600061388d82612ca7565b915061389883612ca7565b92508282019050808211156138b0576138af6136c3565b5b92915050565b7f4e487b7100000000000000000000000000000000000000000000000000000000600052602260045260246000fd5b600060028204905060018216806138fd57607f821691505b6020821081036139105761390f6138b6565b5b50919050565b7f456e74727920616d6f756e742073686f756c642062652067726561746572207460008201527f68616e2030000000000000000000000000000000000000000000000000000000602082015250565b6000613972602583613292565b915061397d82613916565b604082019050919050565b600060208201905081810360008301526139a181613965565b9050919050565b7f546865206475726174696f6e206d757374206265206174206c6561737420312060008201527f6461792e00000000000000000000000000000000000000000000000000000000602082015250565b6000613a04602483613292565b9150613a0f826139a8565b604082019050919050565b60006020820190508181036000830152613a33816139f7565b9050919050565b6000604082019050613a4f6000830185613283565b613a5c6020830184613283565b9392505050565b600081519050613a7281612cb1565b92915050565b600060208284031215613a8e57613a8d612c9d565b5b6000613a9c84828501613a63565b91505092915050565b7f4e6f7420656e6f75676820746f6b656e20616c6c6f77616e6365000000000000600082015250565b6000613adb601a83613292565b9150613ae682613aa5565b602082019050919050565b60006020820190508181036000830152613b0a81613ace565b9050919050565b6000606082019050613b266000830186613283565b613b336020830185613283565b613b406040830184612d7b565b949350505050565b7f4661696c656420746f207472616e7366657220746f6b656e7300000000000000600082015250565b6000613b7e601983613292565b9150613b8982613b48565b602082019050919050565b60006020820190508181036000830152613bad81613b71565b9050919050565b6000613bbf82612ca7565b9150613bca83612ca7565b925082613bda57613bd9613694565b5b828206905092915050565b6000613bf082612ca7565b9150613bfb83612ca7565b9250828203905081811115613c1357613c126136c3565b5b92915050565b60008190508160005260206000209050919050565b60006020601f8301049050919050565b600082821b905092915050565b600060088302613c7b7fffffffffffffffffffffffffffffffffffffffffffffffffffffffffffffffff82613c3e565b613c858683613c3e565b95508019841693508086168417925050509392505050565b6000613cb8613cb3613cae84612ca7565b6133a9565b612ca7565b9050919050565b6000819050919050565b613cd283613c9d565b613ce6613cde82613cbf565b848454613c4b565b825550505050565b600090565b613cfb613cee565b613d06818484613cc9565b505050565b5b81811015613d2a57613d1f600082613cf3565b600181019050613d0c565b5050565b601f821115613d6f57613d4081613c19565b613d4984613c2e565b81016020851015613d58578190505b613d6c613d6485613c2e565b830182613d0b565b50505b505050565b600082821c905092915050565b6000613d9260001984600802613d74565b1980831691505092915050565b6000613dab8383613d81565b9150826002028217905092915050565b613dc482612e43565b67ffffffffffffffff811115613ddd57613ddc6130bc565b5b613de782546138e5565b613df2828285613d2e565b600060209050601f831160018114613e255760008415613e13578287015190505b613e1d8582613d9f565b865550613e85565b601f198416613e3386613c19565b60005b82811015613e5b57848901518255600182019150602085019450602081019050613e36565b86831015613e785784890151613e74601f891682613d81565b8355505b6001600288020188555050505b505050505050565b6000608082019050613ea26000830187612d7b565b8181036020830152613eb481866132a3565b9050613ec36040830185612d7b565b613ed06060830184613283565b95945050505050565b6000604082019050613eee6000830185612d7b565b613efb6020830184612d7b565b9392505050565b7f4f6e6c79207468652061646d696e2063616e2063616c6c20746869732066756e60008201527f6374696f6e2e0000000000000000000000000000000000000000000000000000602082015250565b6000613f5e602683613292565b9150613f6982613f02565b604082019050919050565b60006020820190508181036000830152613f8d81613f51565b9050919050565b7f496e76616c696420616464726573732e00000000000000000000000000000000600082015250565b6000613fca601083613292565b9150613fd582613f94565b602082019050919050565b60006020820190508181036000830152613ff981613fbd565b9050919050565b7f4368616c6c656e676520616c726561647920636f6d706c657465640000000000600082015250565b6000614036601b83613292565b915061404182614000565b602082019050919050565b6000602082019050818103600083015261406581614029565b9050919050565b7f596f7527766520616c726561647920636865636b656420746f6461792e000000600082015250565b60006140a2601d83613292565b91506140ad8261406c565b602082019050919050565b600060208201905081810360008301526140d181614095565b9050919050565b7f596f75277665206661696c656420746f6461792773206d697373696f6e2e0000600082015250565b600061410e601e83613292565b9150614119826140d8565b602082019050919050565b6000602082019050818103600083015261413d81614101565b9050919050565b7f546865206170706c69636174696f6e20706572696f642068617320657870697260008201527f65642e0000000000000000000000000000000000000000000000000000000000602082015250565b60006141a0602383613292565b91506141ab82614144565b604082019050919050565b600060208201905081810360008301526141cf81614193565b9050919050565b7f6368616c6c656e67652069736e277420636f6d706c6574656400000000000000600082015250565b600061420c601983613292565b9150614217826141d6565b602082019050919050565b6000602082019050818103600083015261423b816141ff565b9050919050565b7f4368616c6c656e6765206475726174696f6e206e6f74206f7665722079657400600082015250565b6000614278601f83613292565b915061428382614242565b602082019050919050565b600060208201905081810360008301526142a78161426b565b9050919050565b7f596f7527766520616c7265616479206a6f696e65642e00000000000000000000600082015250565b60006142e4601683613292565b91506142ef826142ae565b602082019050919050565b60006020820190508181036000830152614313816142d7565b9050919050565b7f496e73756666696369656e7420656e74727920616d6f756e7400000000000000600082015250565b6000614350601983613292565b915061435b8261431a565b602082019050919050565b6000602082019050818103600083015261437f81614343565b9050919050565b600061439182612ca7565b915061439c83612ca7565b92508282026143aa81612ca7565b915082820484148315176143c1576143c06136c3565b5b5092915050565b600081519050919050565b600082825260208201905092915050565b60006143ef826143c8565b6143f981856143d3565b9350614409818560208601612e5f565b61441281612e89565b840191505092915050565b60006060820190506144326000830186613283565b61443f6020830185612d7b565b818103604083015261445181846143e4565b9050949350505050565b600081905092915050565b6000614471826143c8565b61447b818561445b565b935061448b818560208601612e5f565b80840191505092915050565b60006144a38284614466565b915081905092915050565b7f45787465726e616c2063616c6c206661696c6564000000000000000000000000600082015250565b60006144e4601483613292565b91506144ef826144ae565b602082019050919050565b60006020820190508181036000830152614513816144d7565b9050919050565b600060608201905061452f6000830186613283565b61453c6020830185612d7b565b6145496040830184612dde565b949350505050565b7f4368616c6c656e6765206475726174696f6e206e6f74206f766572207965742e600082015250565b6000614587602083613292565b915061459282614551565b602082019050919050565b600060208201905081810360008301526145b68161457a565b905091905056fea26469706673582212209be193c0c571de4fc6943bbdce92533fe011c0aa715b3085d0f72ef2e69f36dd64736f6c63430008140033",
  "linkReferences": {},
  "deployedLinkReferences": {}
}