{
  "_format": "hh-sol-artifact-1",
  "contractName": "ChallengeContract",
  "sourceName": "contracts/ChallengeContract.sol",
  "abi": [
    {
      "inputs": [
        {
          "internalType": "address",
          "name": "_tokenAddress",
          "type": "address"
        }
      ],
      "stateMutability": "nonpayable",
      "type": "constructor"
    },
    {
      "anonymous": false,
      "inputs": [
        {
          "indexed": false,
          "internalType": "uint256",
          "name": "challengeId",
          "type": "uint256"
        },
        {
          "indexed": false,
          "internalType": "uint256",
          "name": "closureDate",
          "type": "uint256"
        }
      ],
      "name": "ChallengeClosureScheduled",
      "type": "event"
    },
    {
      "anonymous": false,
      "inputs": [
        {
          "indexed": false,
          "internalType": "uint256",
          "name": "challengeId",
          "type": "uint256"
        }
      ],
      "name": "ChallengeCompleted",
      "type": "event"
    },
    {
      "anonymous": false,
      "inputs": [
        {
          "indexed": false,
          "internalType": "uint256",
          "name": "challengeId",
          "type": "uint256"
        },
        {
          "indexed": false,
          "internalType": "string",
          "name": "challengeName",
          "type": "string"
        },
        {
          "indexed": false,
          "internalType": "uint256",
          "name": "entryAmount",
          "type": "uint256"
        },
        {
          "indexed": false,
          "internalType": "address",
          "name": "creator",
          "type": "address"
        }
      ],
      "name": "ChallengeCreated",
      "type": "event"
    },
    {
      "anonymous": false,
      "inputs": [
        {
          "indexed": false,
          "internalType": "uint256",
          "name": "challengeId",
          "type": "uint256"
        },
        {
          "indexed": false,
          "internalType": "address",
          "name": "participant",
          "type": "address"
        }
      ],
      "name": "ChallengeJoined",
      "type": "event"
    },
    {
      "anonymous": false,
      "inputs": [
        {
          "indexed": false,
          "internalType": "uint256",
          "name": "challengeId",
          "type": "uint256"
        },
        {
          "indexed": false,
          "internalType": "address",
          "name": "participant",
          "type": "address"
        }
      ],
      "name": "ChallengeRewardClaimed",
      "type": "event"
    },
    {
      "inputs": [
        {
          "internalType": "uint256",
          "name": "_challengeId",
          "type": "uint256"
        }
      ],
      "name": "automaticallyCloseChallenge",
      "outputs": [],
      "stateMutability": "nonpayable",
      "type": "function"
    },
    {
      "inputs": [
        {
          "internalType": "uint256",
          "name": "",
          "type": "uint256"
        }
      ],
      "name": "challenges",
      "outputs": [
        {
          "internalType": "address",
          "name": "creator",
          "type": "address"
        },
        {
          "internalType": "string",
          "name": "challengeName",
          "type": "string"
        },
        {
          "internalType": "uint256",
          "name": "entryAmount",
          "type": "uint256"
        },
        {
          "internalType": "uint256",
          "name": "totalAmount",
          "type": "uint256"
        },
        {
          "internalType": "uint256",
          "name": "creationTime",
          "type": "uint256"
        },
        {
          "internalType": "uint256",
          "name": "applicationDeadline",
          "type": "uint256"
        },
        {
          "internalType": "uint256",
          "name": "duration",
          "type": "uint256"
        },
        {
          "internalType": "bool",
          "name": "completed",
          "type": "bool"
        },
        {
          "internalType": "uint256",
          "name": "numOfWakeUpCheckToWin",
          "type": "uint256"
        },
        {
          "internalType": "uint256",
          "name": "numOfWinners",
          "type": "uint256"
        }
      ],
      "stateMutability": "view",
      "type": "function"
    },
    {
      "inputs": [
        {
          "internalType": "uint256",
          "name": "_challengeId",
          "type": "uint256"
        }
      ],
      "name": "claimRewards",
      "outputs": [],
      "stateMutability": "nonpayable",
      "type": "function"
    },
    {
      "inputs": [
        {
          "internalType": "string",
          "name": "_challengeName",
          "type": "string"
        },
        {
          "internalType": "uint256",
          "name": "_duration",
          "type": "uint256"
        },
        {
          "internalType": "uint256",
          "name": "_entryAmount",
          "type": "uint256"
        }
      ],
      "name": "createChallenge",
      "outputs": [],
      "stateMutability": "nonpayable",
      "type": "function"
    },
    {
      "inputs": [],
      "name": "getChallengeCount",
      "outputs": [
        {
          "internalType": "uint256",
          "name": "",
          "type": "uint256"
        }
      ],
      "stateMutability": "view",
      "type": "function"
    },
    {
      "inputs": [],
      "name": "getCurrentChallenges",
      "outputs": [
        {
          "components": [
            {
              "internalType": "uint256",
              "name": "id",
              "type": "uint256"
            },
            {
              "internalType": "string",
              "name": "challengeName",
              "type": "string"
            },
            {
              "internalType": "uint256",
              "name": "entryAmount",
              "type": "uint256"
            },
            {
              "internalType": "uint256",
              "name": "currentTotalAmount",
              "type": "uint256"
            },
            {
              "internalType": "uint256[4]",
              "name": "appDeadline",
              "type": "uint256[4]"
            },
            {
              "internalType": "uint256[4]",
              "name": "dueDate",
              "type": "uint256[4]"
            }
          ],
          "internalType": "struct ChallengeContract.OngoingChallenge[]",
          "name": "",
          "type": "tuple[]"
        }
      ],
      "stateMutability": "view",
      "type": "function"
    },
    {
      "inputs": [
        {
          "internalType": "uint256",
          "name": "_challengeId",
          "type": "uint256"
        }
      ],
      "name": "joinChallenge",
      "outputs": [],
      "stateMutability": "nonpayable",
      "type": "function"
    },
    {
      "inputs": [
        {
          "internalType": "uint256",
          "name": "_challengeId",
          "type": "uint256"
        }
      ],
      "name": "startChallenge",
      "outputs": [],
      "stateMutability": "nonpayable",
      "type": "function"
    },
    {
      "inputs": [],
      "name": "token",
      "outputs": [
        {
          "internalType": "contract ERC20",
          "name": "",
          "type": "address"
        }
      ],
      "stateMutability": "view",
      "type": "function"
    },
    {
      "inputs": [
        {
          "internalType": "uint256",
          "name": "_challengeId",
          "type": "uint256"
        }
      ],
      "name": "wakeUpCheck",
      "outputs": [],
      "stateMutability": "nonpayable",
      "type": "function"
    },
    {
      "inputs": [
        {
          "internalType": "uint256",
          "name": "_challengeId",
          "type": "uint256"
        }
      ],
      "name": "withdrawalReward",
      "outputs": [],
      "stateMutability": "nonpayable",
      "type": "function"
    }
  ],
  "bytecode": "0x60806040523480156200001157600080fd5b5060405162003f6e38038062003f6e8339818101604052810190620000379190620000e8565b806000806101000a81548173ffffffffffffffffffffffffffffffffffffffff021916908373ffffffffffffffffffffffffffffffffffffffff160217905550506200011a565b600080fd5b600073ffffffffffffffffffffffffffffffffffffffff82169050919050565b6000620000b08262000083565b9050919050565b620000c281620000a3565b8114620000ce57600080fd5b50565b600081519050620000e281620000b7565b92915050565b6000602082840312156200010157620001006200007e565b5b60006200011184828501620000d1565b91505092915050565b613e44806200012a6000396000f3fe608060405234801561001057600080fd5b50600436106100a95760003560e01c80634a4ae32b116100715780634a4ae32b1461013e5780636ad4e87a1461015a5780638f1d377614610176578063b2990c36146101af578063e448ee26146101cb578063fc0c546a146101e7576100a9565b80630933f467146100ae5780630962ef79146100cc57806318d95b76146100e85780631aaaac9314610106578063335eff3e14610122575b600080fd5b6100b6610205565b6040516100c39190612704565b60405180910390f35b6100e660048036038101906100e1919061275f565b610212565b005b6100f06106e3565b6040516100fd9190612a14565b60405180910390f35b610120600480360381019061011b9190612b6b565b610a4c565b005b61013c6004803603810190610137919061275f565b610e6e565b005b6101586004803603810190610153919061275f565b6112c6565b005b610174600480360381019061016f919061275f565b6112f7565b005b610190600480360381019061018b919061275f565b6113e3565b6040516101a69a99989796959493929190612c80565b60405180910390f35b6101c960048036038101906101c4919061275f565b6114fc565b005b6101e560048036038101906101e0919061275f565b6115a0565b005b6101ef611be5565b6040516101fc9190612d82565b60405180910390f35b6000600180549050905090565b80600180549050811061025a576040517f08c379a000000000000000000000000000000000000000000000000000000000815260040161025190612de9565b60405180910390fd5b6001828154811061026e5761026d612e09565b5b90600052602060002090600e020160070160009054906101000a900460ff166102cc576040517f08c379a00000000000000000000000000000000000000000000000000000000081526004016102c390612e84565b60405180910390fd5b600182815481106102e0576102df612e09565b5b90600052602060002090600e0201600c0160003373ffffffffffffffffffffffffffffffffffffffff1673ffffffffffffffffffffffffffffffffffffffff16815260200190815260200160002060009054906101000a900460ff1661037b576040517f08c379a000000000000000000000000000000000000000000000000000000000815260040161037290612f16565b60405180910390fd5b6001828154811061038f5761038e612e09565b5b90600052602060002090600e0201600d0160003373ffffffffffffffffffffffffffffffffffffffff1673ffffffffffffffffffffffffffffffffffffffff16815260200190815260200160002060009054906101000a900460ff161561042b576040517f08c379a000000000000000000000000000000000000000000000000000000000815260040161042290612f82565b60405180910390fd5b6001828154811061043f5761043e612e09565b5b90600052602060002090600e0201600801546001838154811061046557610464612e09565b5b90600052602060002090600e0201600a0160003373ffffffffffffffffffffffffffffffffffffffff1673ffffffffffffffffffffffffffffffffffffffff16815260200190815260200160002054146104f4576040517f08c379a00000000000000000000000000000000000000000000000000000000081526004016104eb90612fee565b60405180910390fd5b60006001838154811061050a57610509612e09565b5b90600052602060002090600e020160090154600184815481106105305761052f612e09565b5b90600052602060002090600e02016003015461054c919061306c565b905060008054906101000a900473ffffffffffffffffffffffffffffffffffffffff1673ffffffffffffffffffffffffffffffffffffffff1663a9059cbb33836040518363ffffffff1660e01b81526004016105a992919061309d565b6020604051808303816000875af11580156105c8573d6000803e3d6000fd5b505050506040513d601f19601f820116820180604052508101906105ec91906130f2565b61062b576040517f08c379a00000000000000000000000000000000000000000000000000000000081526004016106229061316b565b60405180910390fd5b60018084815481106106405761063f612e09565b5b90600052602060002090600e0201600d0160003373ffffffffffffffffffffffffffffffffffffffff1673ffffffffffffffffffffffffffffffffffffffff16815260200190815260200160002060006101000a81548160ff0219169083151502179055507fcc543a67f8dfe04cfbe3cdcf9eacffa678f7b557e40f7d0051fcf17e8165d5e383336040516106d692919061318b565b60405180910390a1505050565b60606000805b60018054905081101561074f576001818154811061070a57610709612e09565b5b90600052602060002090600e020160070160009054906101000a900460ff1661073c578180610738906131b4565b9250505b8080610747906131b4565b9150506106e9565b5060008167ffffffffffffffff81111561076c5761076b612a40565b5b6040519080825280602002602001820160405280156107a557816020015b610792612687565b81526020019060019003908161078a5790505b5090506000805b600180549050811015610a4257600181815481106107cd576107cc612e09565b5b90600052602060002090600e020160070160009054906101000a900460ff16610a2f5760008060006108536001858154811061080c5761080b612e09565b5b90600052602060002090600e0201600601546001868154811061083257610831612e09565b5b90600052602060002090600e02016005015461084e91906131fc565b611c09565b5050925092509250600080600061088e6001888154811061087757610876612e09565b5b90600052602060002090600e020160050154611c09565b50509250925092506040518060c00160405280888152602001600189815481106108bb576108ba612e09565b5b90600052602060002090600e020160010180546108d79061325f565b80601f01602080910402602001604051908101604052809291908181526020018280546109039061325f565b80156109505780601f1061092557610100808354040283529160200191610950565b820191906000526020600020905b81548152906001019060200180831161093357829003601f168201915b505050505081526020016001898154811061096e5761096d612e09565b5b90600052602060002090600e02016002015481526020016001898154811061099957610998612e09565b5b90600052602060002090600e020160030154815260200160405180608001604052808681526020018581526020018481526020016015815250815260200160405180608001604052808981526020018881526020018781526020016015815250815250898981518110610a0f57610a0e612e09565b5b60200260200101819052508780610a25906131b4565b9850505050505050505b8080610a3a906131b4565b9150506107ac565b5081935050505090565b60008111610a8f576040517f08c379a0000000000000000000000000000000000000000000000000000000008152600401610a8690613302565b60405180910390fd5b60008054906101000a900473ffffffffffffffffffffffffffffffffffffffff1673ffffffffffffffffffffffffffffffffffffffff1663095ea7b330836040518363ffffffff1660e01b8152600401610aea92919061309d565b6020604051808303816000875af1158015610b09573d6000803e3d6000fd5b505050506040513d601f19601f82011682018060405250810190610b2d91906130f2565b610b6c576040517f08c379a0000000000000000000000000000000000000000000000000000000008152600401610b6390613394565b60405180910390fd5b60008054906101000a900473ffffffffffffffffffffffffffffffffffffffff1673ffffffffffffffffffffffffffffffffffffffff166323b872dd3330846040518463ffffffff1660e01b8152600401610bc9939291906133b4565b6020604051808303816000875af1158015610be8573d6000803e3d6000fd5b505050506040513d601f19601f82011682018060405250810190610c0c91906130f2565b610c4b576040517f08c379a0000000000000000000000000000000000000000000000000000000008152600401610c4290613437565b60405180910390fd5b600180816001815401808255809150500390600052602060002090505060006001808080549050610c7c9190613457565b81548110610c8d57610c8c612e09565b5b90600052602060002090600e02019050338160000160006101000a81548173ffffffffffffffffffffffffffffffffffffffff021916908373ffffffffffffffffffffffffffffffffffffffff16021790555083816001019081610cf1919061362d565b5081816002018190555081816003016000828254610d0f91906131fc565b925050819055504281600401819055506201518042610d2e91906131fc565b816005018190555082816006018190555060008160070160006101000a81548160ff0219169083151502179055506201518083610d6b919061306c565b8160080181905550600181600c0160003373ffffffffffffffffffffffffffffffffffffffff1673ffffffffffffffffffffffffffffffffffffffff16815260200190815260200160002060006101000a81548160ff021916908315150217905550600060018080549050610de09190613457565b90507f46ea7ee0990cde33902e77e2d7200322990cb03186c32d68f2966739d28fb36681868533604051610e1794939291906136ff565b60405180910390a17f79db182af3410c60080d8e7c7ed50f1977b0df228f066bbea532e7d75af80d2c81858460050154610e5191906131fc565b604051610e5f92919061374b565b60405180910390a15050505050565b806001805490508110610eb6576040517f08c379a0000000000000000000000000000000000000000000000000000000008152600401610ead90612de9565b60405180910390fd5b60018181548110610eca57610ec9612e09565b5b90600052602060002090600e020160070160009054906101000a900460ff1615610f29576040517f08c379a0000000000000000000000000000000000000000000000000000000008152600401610f20906137c0565b60405180910390fd5b60018281548110610f3d57610f3c612e09565b5b90600052602060002090600e0201600c0160003373ffffffffffffffffffffffffffffffffffffffff1673ffffffffffffffffffffffffffffffffffffffff16815260200190815260200160002060009054906101000a900460ff16610fd8576040517f08c379a0000000000000000000000000000000000000000000000000000000008152600401610fcf90612f16565b60405180910390fd5b600080600061104860018681548110610ff457610ff3612e09565b5b90600052602060002090600e0201600b0160003373ffffffffffffffffffffffffffffffffffffffff1673ffffffffffffffffffffffffffffffffffffffff16815260200190815260200160002054611c09565b5050925092509250600080600080600061106142611c09565b945094509450945094508785118061107857508684115b8061108257508583115b6110c1576040517f08c379a00000000000000000000000000000000000000000000000000000000081526004016110b89061382c565b60405180910390fd5b6006821480156110d2575060058111155b611111576040517f08c379a000000000000000000000000000000000000000000000000000000000815260040161110890613898565b60405180910390fd5b60018a8154811061112557611124612e09565b5b90600052602060002090600e0201600a0160003373ffffffffffffffffffffffffffffffffffffffff1673ffffffffffffffffffffffffffffffffffffffff1681526020019081526020016000206000815480929190611184906131b4565b91905055504260018b8154811061119e5761119d612e09565b5b90600052602060002090600e0201600b0160003373ffffffffffffffffffffffffffffffffffffffff1673ffffffffffffffffffffffffffffffffffffffff1681526020019081526020016000208190555060018a8154811061120457611203612e09565b5b90600052602060002090600e02016008015460018b8154811061122a57611229612e09565b5b90600052602060002090600e0201600a0160003373ffffffffffffffffffffffffffffffffffffffff1673ffffffffffffffffffffffffffffffffffffffff16815260200190815260200160002054036112ba5760018a8154811061129257611291612e09565b5b90600052602060002090600e020160090160008154809291906112b4906131b4565b91905055505b50505050505050505050565b6112f4600182815481106112dd576112dc612e09565b5b90600052602060002090600e020160030154611eb6565b50565b600080600061132a6001858154811061131357611312612e09565b5b90600052602060002090600e020160050154611c09565b505092509250925060008060008061134142611c09565b5093509350935093508684118061135757508583115b8061136157508482115b8061136c5750601581115b6113ab576040517f08c379a00000000000000000000000000000000000000000000000000000000081526004016113a29061392a565b60405180910390fd5b6113d9600189815481106113c2576113c1612e09565b5b90600052602060002090600e02016003015461202d565b5050505050505050565b600181815481106113f357600080fd5b90600052602060002090600e02016000915090508060000160009054906101000a900473ffffffffffffffffffffffffffffffffffffffff169080600101805461143c9061325f565b80601f01602080910402602001604051908101604052809291908181526020018280546114689061325f565b80156114b55780601f1061148a576101008083540402835291602001916114b5565b820191906000526020600020905b81548152906001019060200180831161149857829003601f168201915b5050505050908060020154908060030154908060040154908060050154908060060154908060070160009054906101000a900460ff1690806008015490806009015490508a565b600181815481106115105761150f612e09565b5b90600052602060002090600e0201600601546001828154811061153657611535612e09565b5b90600052602060002090600e02016005015461155291906131fc565b421015611594576040517f08c379a000000000000000000000000000000000000000000000000000000000815260040161158b90613996565b60405180910390fd5b61159d816121fe565b50565b8060018054905081106115e8576040517f08c379a00000000000000000000000000000000000000000000000000000000081526004016115df90612de9565b60405180910390fd5b600181815481106115fc576115fb612e09565b5b90600052602060002090600e020160070160009054906101000a900460ff161561165b576040517f08c379a0000000000000000000000000000000000000000000000000000000008152600401611652906137c0565b60405180910390fd5b600080600061168e6001868154811061167757611676612e09565b5b90600052602060002090600e020160050154611c09565b50509250925092506000806000806116a542611c09565b509350935093509350868410806116bb57508583105b806116c557508482105b806116d05750601581105b61170f576040517f08c379a00000000000000000000000000000000000000000000000000000000081526004016117069061392a565b60405180910390fd5b6001898154811061172357611722612e09565b5b90600052602060002090600e0201600c0160003373ffffffffffffffffffffffffffffffffffffffff1673ffffffffffffffffffffffffffffffffffffffff16815260200190815260200160002060009054906101000a900460ff16156117bf576040517f08c379a00000000000000000000000000000000000000000000000000000000081526004016117b690613a02565b60405180910390fd5b600189815481106117d3576117d2612e09565b5b90600052602060002090600e02016002015460008054906101000a900473ffffffffffffffffffffffffffffffffffffffff1673ffffffffffffffffffffffffffffffffffffffff166370a08231336040518263ffffffff1660e01b815260040161183e9190613a22565b602060405180830381865afa15801561185b573d6000803e3d6000fd5b505050506040513d601f19601f8201168201806040525081019061187f9190613a52565b10156118c0576040517f08c379a00000000000000000000000000000000000000000000000000000000081526004016118b790613acb565b60405180910390fd5b60008054906101000a900473ffffffffffffffffffffffffffffffffffffffff1673ffffffffffffffffffffffffffffffffffffffff1663095ea7b33060018c8154811061191157611910612e09565b5b90600052602060002090600e0201600201546040518363ffffffff1660e01b815260040161194092919061309d565b6020604051808303816000875af115801561195f573d6000803e3d6000fd5b505050506040513d601f19601f8201168201806040525081019061198391906130f2565b6119c2576040517f08c379a00000000000000000000000000000000000000000000000000000000081526004016119b990613394565b60405180910390fd5b60008054906101000a900473ffffffffffffffffffffffffffffffffffffffff1673ffffffffffffffffffffffffffffffffffffffff166323b872dd333060018d81548110611a1457611a13612e09565b5b90600052602060002090600e0201600201546040518463ffffffff1660e01b8152600401611a44939291906133b4565b6020604051808303816000875af1158015611a63573d6000803e3d6000fd5b505050506040513d601f19601f82011682018060405250810190611a8791906130f2565b611ac6576040517f08c379a0000000000000000000000000000000000000000000000000000000008152600401611abd90613437565b60405180910390fd5b7f690ecbabe96222b39728b512682860cc6460002a670ff94954038286bea0ba698933604051611af792919061318b565b60405180910390a16001808a81548110611b1457611b13612e09565b5b90600052602060002090600e0201600c0160003373ffffffffffffffffffffffffffffffffffffffff1673ffffffffffffffffffffffffffffffffffffffff16815260200190815260200160002060006101000a81548160ff02191690831515021790555060018981548110611b8d57611b8c612e09565b5b90600052602060002090600e02016002015460018a81548110611bb357611bb2612e09565b5b90600052602060002090600e02016003016000828254611bd391906131fc565b92505081905550505050505050505050565b60008054906101000a900473ffffffffffffffffffffffffffffffffffffffff1681565b600080600080600080617e90905060008188611c2591906131fc565b9050600062015180905060006301e13380905060006301e28500905060006107b290506000805b868583611c5991906131fc565b11611ce7576000600484611c6d9190613aeb565b148015611c9f57506000606484611c849190613aeb565b141580611c9e5750600061019084611c9c9190613aeb565b145b5b15611cc5578382611cb091906131fc565b91508080611cbd906131b4565b915050611cd4565b8482611cd191906131fc565b91505b8280611cdf906131b4565b935050611c4c565b829c506000604051806101800160405280601f60ff1660ff168152602001601c60ff1660ff168152602001601f60ff1660ff168152602001601e60ff1660ff168152602001601f60ff1660ff168152602001601e60ff1660ff168152602001601f60ff1660ff168152602001601f60ff1660ff168152602001601e60ff1660ff168152602001601f60ff1660ff168152602001601e60ff1660ff168152602001601f60ff1660ff16815250905060005b600115611e1c576000600c8203611dae5750611e1c565b888383600c8110611dc257611dc1612e09565b5b602002015160ff16611dd49190613b1c565b81611ddf91906131fc565b90508085611ded91906131fc565b8a1015611dfa5750611e1c565b8085611e0691906131fc565b94508180611e13906131b4565b92505050611d97565b600181611e2991906131fc565b9d50600188858b611e3a9190613457565b611e44919061306c565b611e4e91906131fc565b9c50600088858b611e5f9190613457565b611e6991906131fc565b9050610e108982611e7a9190613aeb565b611e84919061306c565b9c50603c610e1082611e969190613aeb565b611ea0919061306c565b9b50505050505050505050505091939590929450565b6000730e1ef78939f9d3340e63a7a1077d50999cc6b64f90506000731f4aef3a04372cf9d738d5459f31950a53969ca3905060008273ffffffffffffffffffffffffffffffffffffffff1682856001604051602401611f1793929190613b5e565b6040516020818303038152906040527f53d3ce5f000000000000000000000000000000000000000000000000000000007bffffffffffffffffffffffffffffffffffffffffffffffffffffffff19166020820180517bffffffffffffffffffffffffffffffffffffffffffffffffffffffff8381831617835250505050604051611fa19190613bdc565b6000604051808303816000865af19150503d8060008114611fde576040519150601f19603f3d011682016040523d82523d6000602084013e611fe3565b606091505b5050905080612027576040517f08c379a000000000000000000000000000000000000000000000000000000000815260040161201e90613c3f565b60405180910390fd5b50505050565b60007368c1f9620aec7f2913430ad6dac1bb16d8444f009050600073e86fcf5213c785acf9a8bffeedefa9a2199f7da690506000730e1ef78939f9d3340e63a7a1077d50999cc6b64f90506000731f4aef3a04372cf9d738d5459f31950a53969ca39050600082826040516020016120a6929190613c5f565b604051602081830303815290604052905060008573ffffffffffffffffffffffffffffffffffffffff168588846040516024016120e593929190613cd2565b6040516020818303038152906040527fd8146e75000000000000000000000000000000000000000000000000000000007bffffffffffffffffffffffffffffffffffffffffffffffffffffffff19166020820180517bffffffffffffffffffffffffffffffffffffffffffffffffffffffff838183161783525050505060405161216f9190613bdc565b6000604051808303816000865af19150503d80600081146121ac576040519150601f19603f3d011682016040523d82523d6000602084013e6121b1565b606091505b50509050806121f5576040517f08c379a00000000000000000000000000000000000000000000000000000000081526004016121ec90613c3f565b60405180910390fd5b50505050505050565b806001805490508110612246576040517f08c379a000000000000000000000000000000000000000000000000000000000815260040161223d90612de9565b60405180910390fd5b6001818154811061225a57612259612e09565b5b90600052602060002090600e020160070160009054906101000a900460ff16156122b9576040517f08c379a00000000000000000000000000000000000000000000000000000000081526004016122b0906137c0565b60405180910390fd5b3373ffffffffffffffffffffffffffffffffffffffff16600183815481106122e4576122e3612e09565b5b90600052602060002090600e020160000160009054906101000a900473ffffffffffffffffffffffffffffffffffffffff1673ffffffffffffffffffffffffffffffffffffffff161461236c576040517f08c379a000000000000000000000000000000000000000000000000000000000815260040161236390613d82565b60405180910390fd5b60006001838154811061238257612381612e09565b5b90600052602060002090600e020160060154600184815481106123a8576123a7612e09565b5b90600052602060002090600e0201600501546123c491906131fc565b90506000806000806123d542611c09565b50935093509350935060008060006123ec88611c09565b50509250925092508287118061240157508186115b8061240b57508085115b80612417575060158410155b612456576040517f08c379a000000000000000000000000000000000000000000000000000000000815260040161244d90613dee565b60405180910390fd5b612493633b9aca0060018c8154811061247257612471612e09565b5b90600052602060002090600e02016003015461248e9190613b1c565b612513565b6001808b815481106124a8576124a7612e09565b5b90600052602060002090600e020160070160006101000a81548160ff0219169083151502179055507fc61ef8151923bbd8dc5f723ba25f26bb805ef4f9a52c5811df7242872edd2e0b8a6040516124ff9190612704565b60405180910390a150505050505050505050565b6000730e1ef78939f9d3340e63a7a1077d50999cc6b64f90506000731f4aef3a04372cf9d738d5459f31950a53969ca3905060008273ffffffffffffffffffffffffffffffffffffffff16828560405160240161257192919061309d565b6040516020818303038152906040527fd8b11821000000000000000000000000000000000000000000000000000000007bffffffffffffffffffffffffffffffffffffffffffffffffffffffff19166020820180517bffffffffffffffffffffffffffffffffffffffffffffffffffffffff83818316178352505050506040516125fb9190613bdc565b6000604051808303816000865af19150503d8060008114612638576040519150601f19603f3d011682016040523d82523d6000602084013e61263d565b606091505b5050905080612681576040517f08c379a000000000000000000000000000000000000000000000000000000000815260040161267890613c3f565b60405180910390fd5b50505050565b6040518060c00160405280600081526020016060815260200160008152602001600081526020016126b66126c9565b81526020016126c36126c9565b81525090565b6040518060800160405280600490602082028036833780820191505090505090565b6000819050919050565b6126fe816126eb565b82525050565b600060208201905061271960008301846126f5565b92915050565b6000604051905090565b600080fd5b600080fd5b61273c816126eb565b811461274757600080fd5b50565b60008135905061275981612733565b92915050565b60006020828403121561277557612774612729565b5b60006127838482850161274a565b91505092915050565b600081519050919050565b600082825260208201905092915050565b6000819050602082019050919050565b6127c1816126eb565b82525050565b600081519050919050565b600082825260208201905092915050565b60005b838110156128015780820151818401526020810190506127e6565b60008484015250505050565b6000601f19601f8301169050919050565b6000612829826127c7565b61283381856127d2565b93506128438185602086016127e3565b61284c8161280d565b840191505092915050565b600060049050919050565b600081905092915050565b6000819050919050565b600061288383836127b8565b60208301905092915050565b6000602082019050919050565b6128a581612857565b6128af8184612862565b92506128ba8261286d565b8060005b838110156128eb5781516128d28782612877565b96506128dd8361288f565b9250506001810190506128be565b505050505050565b60006101808301600083015161290c60008601826127b8565b5060208301518482036020860152612924828261281e565b915050604083015161293960408601826127b8565b50606083015161294c60608601826127b8565b50608083015161295f608086018261289c565b5060a083015161297361010086018261289c565b508091505092915050565b600061298a83836128f3565b905092915050565b6000602082019050919050565b60006129aa8261278c565b6129b48185612797565b9350836020820285016129c6856127a8565b8060005b85811015612a0257848403895281516129e3858261297e565b94506129ee83612992565b925060208a019950506001810190506129ca565b50829750879550505050505092915050565b60006020820190508181036000830152612a2e818461299f565b905092915050565b600080fd5b600080fd5b7f4e487b7100000000000000000000000000000000000000000000000000000000600052604160045260246000fd5b612a788261280d565b810181811067ffffffffffffffff82111715612a9757612a96612a40565b5b80604052505050565b6000612aaa61271f565b9050612ab68282612a6f565b919050565b600067ffffffffffffffff821115612ad657612ad5612a40565b5b612adf8261280d565b9050602081019050919050565b82818337600083830152505050565b6000612b0e612b0984612abb565b612aa0565b905082815260208101848484011115612b2a57612b29612a3b565b5b612b35848285612aec565b509392505050565b600082601f830112612b5257612b51612a36565b5b8135612b62848260208601612afb565b91505092915050565b600080600060608486031215612b8457612b83612729565b5b600084013567ffffffffffffffff811115612ba257612ba161272e565b5b612bae86828701612b3d565b9350506020612bbf8682870161274a565b9250506040612bd08682870161274a565b9150509250925092565b600073ffffffffffffffffffffffffffffffffffffffff82169050919050565b6000612c0582612bda565b9050919050565b612c1581612bfa565b82525050565b600082825260208201905092915050565b6000612c37826127c7565b612c418185612c1b565b9350612c518185602086016127e3565b612c5a8161280d565b840191505092915050565b60008115159050919050565b612c7a81612c65565b82525050565b600061014082019050612c96600083018d612c0c565b8181036020830152612ca8818c612c2c565b9050612cb7604083018b6126f5565b612cc4606083018a6126f5565b612cd160808301896126f5565b612cde60a08301886126f5565b612ceb60c08301876126f5565b612cf860e0830186612c71565b612d066101008301856126f5565b612d146101208301846126f5565b9b9a5050505050505050505050565b6000819050919050565b6000612d48612d43612d3e84612bda565b612d23565b612bda565b9050919050565b6000612d5a82612d2d565b9050919050565b6000612d6c82612d4f565b9050919050565b612d7c81612d61565b82525050565b6000602082019050612d976000830184612d73565b92915050565b7f496e76616c6964206368616c6c656e6765204944000000000000000000000000600082015250565b6000612dd3601483612c1b565b9150612dde82612d9d565b602082019050919050565b60006020820190508181036000830152612e0281612dc6565b9050919050565b7f4e487b7100000000000000000000000000000000000000000000000000000000600052603260045260246000fd5b7f4368616c6c656e67652069736e277420636f6d706c65746564207965742e0000600082015250565b6000612e6e601e83612c1b565b9150612e7982612e38565b602082019050919050565b60006020820190508181036000830152612e9d81612e61565b9050919050565b7f596f75277265206e6f742061207061727469636970616e74206f66207468697360008201527f206368616c6c656e67652e000000000000000000000000000000000000000000602082015250565b6000612f00602b83612c1b565b9150612f0b82612ea4565b604082019050919050565b60006020820190508181036000830152612f2f81612ef3565b9050919050565b7f416c726561647920636c61696d65640000000000000000000000000000000000600082015250565b6000612f6c600f83612c1b565b9150612f7782612f36565b602082019050919050565b60006020820190508181036000830152612f9b81612f5f565b9050919050565b7f596f75206469646e27742077696e2074686973206368616c6c656e67652e0000600082015250565b6000612fd8601e83612c1b565b9150612fe382612fa2565b602082019050919050565b6000602082019050818103600083015261300781612fcb565b9050919050565b7f4e487b7100000000000000000000000000000000000000000000000000000000600052601260045260246000fd5b7f4e487b7100000000000000000000000000000000000000000000000000000000600052601160045260246000fd5b6000613077826126eb565b9150613082836126eb565b9250826130925761309161300e565b5b828204905092915050565b60006040820190506130b26000830185612c0c565b6130bf60208301846126f5565b9392505050565b6130cf81612c65565b81146130da57600080fd5b50565b6000815190506130ec816130c6565b92915050565b60006020828403121561310857613107612729565b5b6000613116848285016130dd565b91505092915050565b7f52657761726420636c61696d206661696c65642e000000000000000000000000600082015250565b6000613155601483612c1b565b91506131608261311f565b602082019050919050565b6000602082019050818103600083015261318481613148565b9050919050565b60006040820190506131a060008301856126f5565b6131ad6020830184612c0c565b9392505050565b60006131bf826126eb565b91507fffffffffffffffffffffffffffffffffffffffffffffffffffffffffffffffff82036131f1576131f061303d565b5b600182019050919050565b6000613207826126eb565b9150613212836126eb565b925082820190508082111561322a5761322961303d565b5b92915050565b7f4e487b7100000000000000000000000000000000000000000000000000000000600052602260045260246000fd5b6000600282049050600182168061327757607f821691505b60208210810361328a57613289613230565b5b50919050565b7f456e74727920616d6f756e742073686f756c642062652067726561746572207460008201527f68616e2030000000000000000000000000000000000000000000000000000000602082015250565b60006132ec602583612c1b565b91506132f782613290565b604082019050919050565b6000602082019050818103600083015261331b816132df565b9050919050565b7f4661696c656420746f20617070726f766520746f6b656e7320666f722074726160008201527f6e73666572000000000000000000000000000000000000000000000000000000602082015250565b600061337e602583612c1b565b915061338982613322565b604082019050919050565b600060208201905081810360008301526133ad81613371565b9050919050565b60006060820190506133c96000830186612c0c565b6133d66020830185612c0c565b6133e360408301846126f5565b949350505050565b7f4661696c656420746f207472616e7366657220746f6b656e7300000000000000600082015250565b6000613421601983612c1b565b915061342c826133eb565b602082019050919050565b6000602082019050818103600083015261345081613414565b9050919050565b6000613462826126eb565b915061346d836126eb565b92508282039050818111156134855761348461303d565b5b92915050565b60008190508160005260206000209050919050565b60006020601f8301049050919050565b600082821b905092915050565b6000600883026134ed7fffffffffffffffffffffffffffffffffffffffffffffffffffffffffffffffff826134b0565b6134f786836134b0565b95508019841693508086168417925050509392505050565b600061352a613525613520846126eb565b612d23565b6126eb565b9050919050565b6000819050919050565b6135448361350f565b61355861355082613531565b8484546134bd565b825550505050565b600090565b61356d613560565b61357881848461353b565b505050565b5b8181101561359c57613591600082613565565b60018101905061357e565b5050565b601f8211156135e1576135b28161348b565b6135bb846134a0565b810160208510156135ca578190505b6135de6135d6856134a0565b83018261357d565b50505b505050565b600082821c905092915050565b6000613604600019846008026135e6565b1980831691505092915050565b600061361d83836135f3565b9150826002028217905092915050565b613636826127c7565b67ffffffffffffffff81111561364f5761364e612a40565b5b613659825461325f565b6136648282856135a0565b600060209050601f8311600181146136975760008415613685578287015190505b61368f8582613611565b8655506136f7565b601f1984166136a58661348b565b60005b828110156136cd578489015182556001820191506020850194506020810190506136a8565b868310156136ea57848901516136e6601f8916826135f3565b8355505b6001600288020188555050505b505050505050565b600060808201905061371460008301876126f5565b81810360208301526137268186612c2c565b905061373560408301856126f5565b6137426060830184612c0c565b95945050505050565b600060408201905061376060008301856126f5565b61376d60208301846126f5565b9392505050565b7f4368616c6c656e676520616c726561647920636f6d706c657465640000000000600082015250565b60006137aa601b83612c1b565b91506137b582613774565b602082019050919050565b600060208201905081810360008301526137d98161379d565b9050919050565b7f596f7527766520616c726561647920636865636b656420746f6461792e000000600082015250565b6000613816601d83612c1b565b9150613821826137e0565b602082019050919050565b6000602082019050818103600083015261384581613809565b9050919050565b7f596f75277665206661696c656420746f6461792773206d697373696f6e2e0000600082015250565b6000613882601e83612c1b565b915061388d8261384c565b602082019050919050565b600060208201905081810360008301526138b181613875565b9050919050565b7f546865206170706c69636174696f6e20706572696f642068617320657870697260008201527f65642e0000000000000000000000000000000000000000000000000000000000602082015250565b6000613914602383612c1b565b915061391f826138b8565b604082019050919050565b6000602082019050818103600083015261394381613907565b9050919050565b7f4368616c6c656e6765206475726174696f6e206e6f74206f7665722079657400600082015250565b6000613980601f83612c1b565b915061398b8261394a565b602082019050919050565b600060208201905081810360008301526139af81613973565b9050919050565b7f596f7527766520616c7265616479206a6f696e65642e00000000000000000000600082015250565b60006139ec601683612c1b565b91506139f7826139b6565b602082019050919050565b60006020820190508181036000830152613a1b816139df565b9050919050565b6000602082019050613a376000830184612c0c565b92915050565b600081519050613a4c81612733565b92915050565b600060208284031215613a6857613a67612729565b5b6000613a7684828501613a3d565b91505092915050565b7f496e73756666696369656e7420656e74727920616d6f756e7400000000000000600082015250565b6000613ab5601983612c1b565b9150613ac082613a7f565b602082019050919050565b60006020820190508181036000830152613ae481613aa8565b9050919050565b6000613af6826126eb565b9150613b01836126eb565b925082613b1157613b1061300e565b5b828206905092915050565b6000613b27826126eb565b9150613b32836126eb565b9250828202613b40816126eb565b91508282048414831517613b5757613b5661303d565b5b5092915050565b6000606082019050613b736000830186612c0c565b613b8060208301856126f5565b613b8d6040830184612c71565b949350505050565b600081519050919050565b600081905092915050565b6000613bb682613b95565b613bc08185613ba0565b9350613bd08185602086016127e3565b80840191505092915050565b6000613be88284613bab565b915081905092915050565b7f45787465726e616c2063616c6c206661696c6564000000000000000000000000600082015250565b6000613c29601483612c1b565b9150613c3482613bf3565b602082019050919050565b60006020820190508181036000830152613c5881613c1c565b9050919050565b6000604082019050613c746000830185612c0c565b613c816020830184612c0c565b9392505050565b600082825260208201905092915050565b6000613ca482613b95565b613cae8185613c88565b9350613cbe8185602086016127e3565b613cc78161280d565b840191505092915050565b6000606082019050613ce76000830186612c0c565b613cf460208301856126f5565b8181036040830152613d068184613c99565b9050949350505050565b7f4f6e6c7920746865206368616c6c656e67652063726561746f722063616e206360008201527f6c6f736520697400000000000000000000000000000000000000000000000000602082015250565b6000613d6c602783612c1b565b9150613d7782613d10565b604082019050919050565b60006020820190508181036000830152613d9b81613d5f565b9050919050565b7f4368616c6c656e6765206475726174696f6e206e6f74206f766572207965742e600082015250565b6000613dd8602083612c1b565b9150613de382613da2565b602082019050919050565b60006020820190508181036000830152613e0781613dcb565b905091905056fea26469706673582212200cf55129e61c4f923349c2da33132aabbdd144fad5b5aa6690d17a88e0d3a02564736f6c63430008130033",
  "linkReferences": {},
  "deployedLinkReferences": {}
}