{
  "_format": "hh-sol-artifact-1",
  "contractName": "ChallengeContract",
  "sourceName": "contracts/ChallengeContract.sol",
  "abi": [
    {
      "inputs": [
        {
          "internalType": "address",
          "name": "_tokenAddress",
          "type": "address"
        }
      ],
      "stateMutability": "nonpayable",
      "type": "constructor"
    },
    {
      "anonymous": false,
      "inputs": [
        {
          "indexed": false,
          "internalType": "uint256",
          "name": "challengeId",
          "type": "uint256"
        },
        {
          "indexed": false,
          "internalType": "uint256",
          "name": "closureDate",
          "type": "uint256"
        }
      ],
      "name": "ChallengeClosureScheduled",
      "type": "event"
    },
    {
      "anonymous": false,
      "inputs": [
        {
          "indexed": false,
          "internalType": "uint256",
          "name": "challengeId",
          "type": "uint256"
        }
      ],
      "name": "ChallengeCompleted",
      "type": "event"
    },
    {
      "anonymous": false,
      "inputs": [
        {
          "indexed": false,
          "internalType": "uint256",
          "name": "challengeId",
          "type": "uint256"
        },
        {
          "indexed": false,
          "internalType": "string",
          "name": "challengeName",
          "type": "string"
        },
        {
          "indexed": false,
          "internalType": "uint256",
          "name": "entryAmount",
          "type": "uint256"
        },
        {
          "indexed": false,
          "internalType": "address",
          "name": "creator",
          "type": "address"
        }
      ],
      "name": "ChallengeCreated",
      "type": "event"
    },
    {
      "anonymous": false,
      "inputs": [
        {
          "indexed": false,
          "internalType": "uint256",
          "name": "challengeId",
          "type": "uint256"
        },
        {
          "indexed": false,
          "internalType": "address",
          "name": "participant",
          "type": "address"
        }
      ],
      "name": "ChallengeJoined",
      "type": "event"
    },
    {
      "anonymous": false,
      "inputs": [
        {
          "indexed": false,
          "internalType": "uint256",
          "name": "challengeId",
          "type": "uint256"
        },
        {
          "indexed": false,
          "internalType": "address",
          "name": "participant",
          "type": "address"
        }
      ],
      "name": "ChallengeRewardClaimed",
      "type": "event"
    },
    {
      "inputs": [],
      "name": "admin",
      "outputs": [
        {
          "internalType": "address",
          "name": "",
          "type": "address"
        }
      ],
      "stateMutability": "view",
      "type": "function"
    },
    {
      "inputs": [
        {
          "internalType": "uint256",
          "name": "",
          "type": "uint256"
        }
      ],
      "name": "challenges",
      "outputs": [
        {
          "internalType": "address",
          "name": "creator",
          "type": "address"
        },
        {
          "internalType": "string",
          "name": "challengeName",
          "type": "string"
        },
        {
          "internalType": "uint256",
          "name": "entryAmount",
          "type": "uint256"
        },
        {
          "internalType": "uint256",
          "name": "totalAmount",
          "type": "uint256"
        },
        {
          "internalType": "uint256",
          "name": "creationTime",
          "type": "uint256"
        },
        {
          "internalType": "uint256",
          "name": "applicationDeadline",
          "type": "uint256"
        },
        {
          "internalType": "uint32",
          "name": "duration",
          "type": "uint32"
        },
        {
          "internalType": "bool",
          "name": "canApplication",
          "type": "bool"
        },
        {
          "internalType": "bool",
          "name": "completed",
          "type": "bool"
        },
        {
          "internalType": "uint32",
          "name": "numOfWakeUpCheckToWin",
          "type": "uint32"
        },
        {
          "internalType": "uint32",
          "name": "numOfWinners",
          "type": "uint32"
        }
      ],
      "stateMutability": "view",
      "type": "function"
    },
    {
      "inputs": [
        {
          "internalType": "uint256",
          "name": "",
          "type": "uint256"
        },
        {
          "internalType": "address",
          "name": "",
          "type": "address"
        }
      ],
      "name": "check",
      "outputs": [
        {
          "internalType": "uint256",
          "name": "",
          "type": "uint256"
        }
      ],
      "stateMutability": "view",
      "type": "function"
    },
    {
      "inputs": [
        {
          "internalType": "uint256",
          "name": "_challengeId",
          "type": "uint256"
        }
      ],
      "name": "claimRewards",
      "outputs": [],
      "stateMutability": "nonpayable",
      "type": "function"
    },
    {
      "inputs": [
        {
          "internalType": "uint256",
          "name": "",
          "type": "uint256"
        },
        {
          "internalType": "address",
          "name": "",
          "type": "address"
        }
      ],
      "name": "claimed",
      "outputs": [
        {
          "internalType": "bool",
          "name": "",
          "type": "bool"
        }
      ],
      "stateMutability": "view",
      "type": "function"
    },
    {
      "inputs": [
        {
          "internalType": "uint256",
          "name": "_challengeId",
          "type": "uint256"
        }
      ],
      "name": "closeChallenge",
      "outputs": [],
      "stateMutability": "nonpayable",
      "type": "function"
    },
    {
      "inputs": [
        {
          "internalType": "string",
          "name": "_challengeName",
          "type": "string"
        },
        {
          "internalType": "uint32",
          "name": "_duration",
          "type": "uint32"
        },
        {
          "internalType": "uint256",
          "name": "_entryAmount",
          "type": "uint256"
        }
      ],
      "name": "createChallenge",
      "outputs": [],
      "stateMutability": "nonpayable",
      "type": "function"
    },
    {
      "inputs": [],
      "name": "getChallengeCount",
      "outputs": [
        {
          "internalType": "uint256",
          "name": "",
          "type": "uint256"
        }
      ],
      "stateMutability": "view",
      "type": "function"
    },
    {
      "inputs": [],
      "name": "getCurrentChallenges",
      "outputs": [
        {
          "components": [
            {
              "internalType": "uint256",
              "name": "id",
              "type": "uint256"
            },
            {
              "internalType": "string",
              "name": "challengeName",
              "type": "string"
            },
            {
              "internalType": "uint256",
              "name": "entryAmount",
              "type": "uint256"
            },
            {
              "internalType": "uint256",
              "name": "currentTotalAmount",
              "type": "uint256"
            },
            {
              "internalType": "uint256[4]",
              "name": "appDeadline",
              "type": "uint256[4]"
            },
            {
              "internalType": "uint256[4]",
              "name": "dueDate",
              "type": "uint256[4]"
            }
          ],
          "internalType": "struct ChallengeStorage.OngoingChallenge[]",
          "name": "",
          "type": "tuple[]"
        }
      ],
      "stateMutability": "view",
      "type": "function"
    },
    {
      "inputs": [
        {
          "internalType": "uint256",
          "name": "_challengeId",
          "type": "uint256"
        }
      ],
      "name": "joinChallenge",
      "outputs": [],
      "stateMutability": "nonpayable",
      "type": "function"
    },
    {
      "inputs": [
        {
          "internalType": "uint256",
          "name": "",
          "type": "uint256"
        },
        {
          "internalType": "address",
          "name": "",
          "type": "address"
        }
      ],
      "name": "lastCheck",
      "outputs": [
        {
          "internalType": "uint256",
          "name": "",
          "type": "uint256"
        }
      ],
      "stateMutability": "view",
      "type": "function"
    },
    {
      "inputs": [
        {
          "internalType": "uint256",
          "name": "",
          "type": "uint256"
        },
        {
          "internalType": "address",
          "name": "",
          "type": "address"
        }
      ],
      "name": "participate",
      "outputs": [
        {
          "internalType": "bool",
          "name": "",
          "type": "bool"
        }
      ],
      "stateMutability": "view",
      "type": "function"
    },
    {
      "inputs": [
        {
          "internalType": "uint256",
          "name": "_challengeId",
          "type": "uint256"
        }
      ],
      "name": "runChallenge",
      "outputs": [],
      "stateMutability": "nonpayable",
      "type": "function"
    },
    {
      "inputs": [
        {
          "internalType": "address",
          "name": "_newAdmin",
          "type": "address"
        }
      ],
      "name": "setAdmin",
      "outputs": [],
      "stateMutability": "nonpayable",
      "type": "function"
    },
    {
      "inputs": [
        {
          "internalType": "address",
          "name": "_newTokenAddress",
          "type": "address"
        }
      ],
      "name": "setTokenAddress",
      "outputs": [],
      "stateMutability": "nonpayable",
      "type": "function"
    },
    {
      "inputs": [],
      "name": "token",
      "outputs": [
        {
          "internalType": "contract IERC20",
          "name": "",
          "type": "address"
        }
      ],
      "stateMutability": "view",
      "type": "function"
    },
    {
      "inputs": [
        {
          "internalType": "uint256",
          "name": "_challengeId",
          "type": "uint256"
        }
      ],
      "name": "wakeUpCheck",
      "outputs": [],
      "stateMutability": "nonpayable",
      "type": "function"
    },
    {
      "inputs": [
        {
          "internalType": "uint256",
          "name": "_challengeId",
          "type": "uint256"
        }
      ],
      "name": "withdrawalReward",
      "outputs": [],
      "stateMutability": "nonpayable",
      "type": "function"
    }
  ],
  "bytecode": "0x60806040523480156200001157600080fd5b506040516200495838038062004958833981810160405281019062000037919062000129565b80600160006101000a81548173ffffffffffffffffffffffffffffffffffffffff021916908373ffffffffffffffffffffffffffffffffffffffff160217905550336000806101000a81548173ffffffffffffffffffffffffffffffffffffffff021916908373ffffffffffffffffffffffffffffffffffffffff160217905550506200015b565b600080fd5b600073ffffffffffffffffffffffffffffffffffffffff82169050919050565b6000620000f182620000c4565b9050919050565b6200010381620000e4565b81146200010f57600080fd5b50565b6000815190506200012381620000f8565b92915050565b600060208284031215620001425762000141620000bf565b5b6000620001528482850162000112565b91505092915050565b6147ed806200016b6000396000f3fe608060405234801561001057600080fd5b50600436106101155760003560e01c80634a4ae32b116100a2578063704b6c0211610071578063704b6c02146102da5780638f1d3776146102f6578063e448ee2614610330578063f851a4401461034c578063fc0c546a1461036a57610115565b80634a4ae32b1461025657806359808a971461027257806359a639161461028e5780635d22b6fb146102be57610115565b806313b18640116100e957806313b18640146101b457806318d95b76146101e457806326a4e8d214610202578063335eff3e1461021e578063497ddc631461023a57610115565b80627f1f881461011a5780630933f4671461014a5780630962ef7914610168578063120aa87714610184575b600080fd5b610134600480360381019061012f9190612e8d565b610388565b6040516101419190612edc565b60405180910390f35b6101526103ad565b60405161015f9190612edc565b60405180910390f35b610182600480360381019061017d9190612ef7565b6103ba565b005b61019e60048036038101906101999190612e8d565b610872565b6040516101ab9190612f3f565b60405180910390f35b6101ce60048036038101906101c99190612e8d565b6108a1565b6040516101db9190612f3f565b60405180910390f35b6101ec6108d0565b6040516101f991906131e2565b60405180910390f35b61021c60048036038101906102179190613204565b610c4f565b005b61023860048036038101906102339190612ef7565b610d90565b005b610254600480360381019061024f9190612ef7565b6111cd565b005b610270600480360381019061026b9190612ef7565b611385565b005b61028c60048036038101906102879190612ef7565b611428565b005b6102a860048036038101906102a39190612e8d565b611570565b6040516102b59190612edc565b60405180910390f35b6102d860048036038101906102d391906133a2565b611595565b005b6102f460048036038101906102ef9190613204565b611b29565b005b610310600480360381019061030b9190612ef7565b611bfa565b6040516103279b9a99989796959493929190613479565b60405180910390f35b61034a60048036038101906103459190612ef7565b611d56565b005b61035461237f565b604051610361919061352b565b60405180910390f35b6103726123a3565b60405161037f91906135a5565b60405180910390f35b6003602052816000526040600020602052806000526040600020600091509150505481565b6000600280549050905090565b806002805490508110610402576040517f08c379a00000000000000000000000000000000000000000000000000000000081526004016103f99061360c565b60405180910390fd5b600282815481106104165761041561362c565b5b906000526020600020906007020160060160059054906101000a900460ff16610474576040517f08c379a000000000000000000000000000000000000000000000000000000000815260040161046b906136a7565b60405180910390fd5b6005600083815260200190815260200160002060003373ffffffffffffffffffffffffffffffffffffffff1673ffffffffffffffffffffffffffffffffffffffff16815260200190815260200160002060009054906101000a900460ff16610511576040517f08c379a000000000000000000000000000000000000000000000000000000000815260040161050890613739565b60405180910390fd5b6006600083815260200190815260200160002060003373ffffffffffffffffffffffffffffffffffffffff1673ffffffffffffffffffffffffffffffffffffffff16815260200190815260200160002060009054906101000a900460ff16156105af576040517f08c379a00000000000000000000000000000000000000000000000000000000081526004016105a6906137a5565b60405180910390fd5b600282815481106105c3576105c261362c565b5b906000526020600020906007020160060160069054906101000a900463ffffffff1663ffffffff166003600084815260200190815260200160002060003373ffffffffffffffffffffffffffffffffffffffff1673ffffffffffffffffffffffffffffffffffffffff168152602001908152602001600020541461067c576040517f08c379a000000000000000000000000000000000000000000000000000000000815260040161067390613811565b60405180910390fd5b6000600283815481106106925761069161362c565b5b9060005260206000209060070201600601600a9054906101000a900463ffffffff1663ffffffff16600284815481106106ce576106cd61362c565b5b9060005260206000209060070201600301546106ea919061388f565b9050600160009054906101000a900473ffffffffffffffffffffffffffffffffffffffff1673ffffffffffffffffffffffffffffffffffffffff1663a9059cbb33836040518363ffffffff1660e01b81526004016107499291906138c0565b6020604051808303816000875af1158015610768573d6000803e3d6000fd5b505050506040513d601f19601f8201168201806040525081019061078c9190613915565b6107cb576040517f08c379a00000000000000000000000000000000000000000000000000000000081526004016107c29061398e565b60405180910390fd5b60016006600085815260200190815260200160002060003373ffffffffffffffffffffffffffffffffffffffff1673ffffffffffffffffffffffffffffffffffffffff16815260200190815260200160002060006101000a81548160ff0219169083151502179055507fcc543a67f8dfe04cfbe3cdcf9eacffa678f7b557e40f7d0051fcf17e8165d5e383336040516108659291906139ae565b60405180910390a1505050565b60066020528160005260406000206020528060005260406000206000915091509054906101000a900460ff1681565b60056020528160005260406000206020528060005260406000206000915091509054906101000a900460ff1681565b60606000805b60028054905081101561093c57600281815481106108f7576108f661362c565b5b906000526020600020906007020160060160059054906101000a900460ff16610929578180610925906139d7565b9250505b8080610934906139d7565b9150506108d6565b5060008167ffffffffffffffff8111156109595761095861323b565b5b60405190808252806020026020018201604052801561099257816020015b61097f612d81565b8152602001906001900390816109775790505b5090506000805b600280549050811015610c4557600281815481106109ba576109b961362c565b5b906000526020600020906007020160060160059054906101000a900460ff16610c32576000806000610a56600285815481106109f9576109f861362c565b5b906000526020600020906007020160060160009054906101000a900463ffffffff1663ffffffff1660028681548110610a3557610a3461362c565b5b906000526020600020906007020160050154610a519190613a1f565b6123c9565b50509250925092506000806000610a9160028881548110610a7a57610a7961362c565b5b9060005260206000209060070201600501546123c9565b50509250925092506040518060c0016040528088815260200160028981548110610abe57610abd61362c565b5b90600052602060002090600702016001018054610ada90613a82565b80601f0160208091040260200160405190810160405280929190818152602001828054610b0690613a82565b8015610b535780601f10610b2857610100808354040283529160200191610b53565b820191906000526020600020905b815481529060010190602001808311610b3657829003601f168201915b5050505050815260200160028981548110610b7157610b7061362c565b5b906000526020600020906007020160020154815260200160028981548110610b9c57610b9b61362c565b5b906000526020600020906007020160030154815260200160405180608001604052808681526020018581526020018481526020016015815250815260200160405180608001604052808981526020018881526020018781526020016015815250815250898981518110610c1257610c1161362c565b5b60200260200101819052508780610c28906139d7565b9850505050505050505b8080610c3d906139d7565b915050610999565b5081935050505090565b60008054906101000a900473ffffffffffffffffffffffffffffffffffffffff1673ffffffffffffffffffffffffffffffffffffffff163373ffffffffffffffffffffffffffffffffffffffff1614610cdd576040517f08c379a0000000000000000000000000000000000000000000000000000000008152600401610cd490613b25565b60405180910390fd5b600073ffffffffffffffffffffffffffffffffffffffff168173ffffffffffffffffffffffffffffffffffffffff1603610d4c576040517f08c379a0000000000000000000000000000000000000000000000000000000008152600401610d4390613b91565b60405180910390fd5b80600160006101000a81548173ffffffffffffffffffffffffffffffffffffffff021916908373ffffffffffffffffffffffffffffffffffffffff16021790555050565b806002805490508110610dd8576040517f08c379a0000000000000000000000000000000000000000000000000000000008152600401610dcf9061360c565b60405180910390fd5b60028181548110610dec57610deb61362c565b5b906000526020600020906007020160060160059054906101000a900460ff1615610e4b576040517f08c379a0000000000000000000000000000000000000000000000000000000008152600401610e4290613bfd565b60405180910390fd5b6005600083815260200190815260200160002060003373ffffffffffffffffffffffffffffffffffffffff1673ffffffffffffffffffffffffffffffffffffffff16815260200190815260200160002060009054906101000a900460ff16610ee8576040517f08c379a0000000000000000000000000000000000000000000000000000000008152600401610edf90613739565b60405180910390fd5b6000806000610f466004600087815260200190815260200160002060003373ffffffffffffffffffffffffffffffffffffffff1673ffffffffffffffffffffffffffffffffffffffff168152602001908152602001600020546123c9565b50509250925092506000806000806000610f5f426123c9565b9450945094509450945087851180610f7657508684115b80610f8057508583115b610fbf576040517f08c379a0000000000000000000000000000000000000000000000000000000008152600401610fb690613c69565b60405180910390fd5b600682148015610fd0575060058111155b61100f576040517f08c379a000000000000000000000000000000000000000000000000000000000815260040161100690613cd5565b60405180910390fd5b600360008b815260200190815260200160002060003373ffffffffffffffffffffffffffffffffffffffff1673ffffffffffffffffffffffffffffffffffffffff1681526020019081526020016000206000815480929190611070906139d7565b919050555042600460008c815260200190815260200160002060003373ffffffffffffffffffffffffffffffffffffffff1673ffffffffffffffffffffffffffffffffffffffff1681526020019081526020016000208190555060028a815481106110de576110dd61362c565b5b906000526020600020906007020160060160069054906101000a900463ffffffff1663ffffffff16600360008c815260200190815260200160002060003373ffffffffffffffffffffffffffffffffffffffff1673ffffffffffffffffffffffffffffffffffffffff16815260200190815260200160002054036111c15760028a815481106111705761116f61362c565b5b9060005260206000209060070201600601600a81819054906101000a900463ffffffff16809291906111a190613cf5565b91906101000a81548163ffffffff021916908363ffffffff160217905550505b50505050505050505050565b60008054906101000a900473ffffffffffffffffffffffffffffffffffffffff1673ffffffffffffffffffffffffffffffffffffffff163373ffffffffffffffffffffffffffffffffffffffff161461125b576040517f08c379a000000000000000000000000000000000000000000000000000000000815260040161125290613b25565b60405180910390fd5b600080600061128e600285815481106112775761127661362c565b5b9060005260206000209060070201600501546123c9565b50509250925092506000806000806112a5426123c9565b509350935093509350868411806112bb57508583115b806112c557508482115b806112d05750601581115b61130f576040517f08c379a000000000000000000000000000000000000000000000000000000000815260040161130690613d93565b60405180910390fd5b6000600289815481106113255761132461362c565b5b906000526020600020906007020160060160046101000a81548160ff02191690831515021790555061137b600289815481106113645761136361362c565b5b906000526020600020906007020160030154612676565b5050505050505050565b600281815481106113995761139861362c565b5b906000526020600020906007020160060160059054906101000a900460ff166113f7576040517f08c379a00000000000000000000000000000000000000000000000000000000081526004016113ee90613dff565b60405180910390fd5b6114256002828154811061140e5761140d61362c565b5b906000526020600020906007020160030154612835565b50565b60008054906101000a900473ffffffffffffffffffffffffffffffffffffffff1673ffffffffffffffffffffffffffffffffffffffff163373ffffffffffffffffffffffffffffffffffffffff16146114b6576040517f08c379a00000000000000000000000000000000000000000000000000000000081526004016114ad90613b25565b60405180910390fd5b600281815481106114ca576114c961362c565b5b906000526020600020906007020160060160009054906101000a900463ffffffff1663ffffffff16600282815481106115065761150561362c565b5b9060005260206000209060070201600501546115229190613a1f565b421015611564576040517f08c379a000000000000000000000000000000000000000000000000000000000815260040161155b90613e6b565b60405180910390fd5b61156d816129a0565b50565b6004602052816000526040600020602052806000526040600020600091509150505481565b600081116115d8576040517f08c379a00000000000000000000000000000000000000000000000000000000081526004016115cf90613efd565b60405180910390fd5b620151808263ffffffff161015611624576040517f08c379a000000000000000000000000000000000000000000000000000000000815260040161161b90613f8f565b60405180910390fd5b80600160009054906101000a900473ffffffffffffffffffffffffffffffffffffffff1673ffffffffffffffffffffffffffffffffffffffff1663dd62ed3e33306040518363ffffffff1660e01b8152600401611682929190613faf565b602060405180830381865afa15801561169f573d6000803e3d6000fd5b505050506040513d601f19601f820116820180604052508101906116c39190613fed565b1015611704576040517f08c379a00000000000000000000000000000000000000000000000000000000081526004016116fb90614066565b60405180910390fd5b600160009054906101000a900473ffffffffffffffffffffffffffffffffffffffff1673ffffffffffffffffffffffffffffffffffffffff166323b872dd3330846040518463ffffffff1660e01b815260040161176393929190614086565b6020604051808303816000875af1158015611782573d6000803e3d6000fd5b505050506040513d601f19601f820116820180604052508101906117a69190613915565b6117e5576040517f08c379a00000000000000000000000000000000000000000000000000000000081526004016117dc90614109565b60405180910390fd5b600062015180426117f69190614129565b905060008162015180611809919061415a565b9050600062012750905060006040518061016001604052803373ffffffffffffffffffffffffffffffffffffffff1681526020018881526020018681526020018681526020014281526020018385426118629190613a1f565b61186c9190613a1f565b81526020018763ffffffff168152602001600115158152602001600015158152602001620151808861189e919061418e565b63ffffffff168152602001600063ffffffff16815250905060006002805490509050600282908060018154018082558091505060019003906000526020600020906007020160009091909190915060008201518160000160006101000a81548173ffffffffffffffffffffffffffffffffffffffff021916908373ffffffffffffffffffffffffffffffffffffffff16021790555060208201518160010190816119489190614361565b5060408201518160020155606082015181600301556080820151816004015560a0820151816005015560c08201518160060160006101000a81548163ffffffff021916908363ffffffff16021790555060e08201518160060160046101000a81548160ff0219169083151502179055506101008201518160060160056101000a81548160ff0219169083151502179055506101208201518160060160066101000a81548163ffffffff021916908363ffffffff16021790555061014082015181600601600a6101000a81548163ffffffff021916908363ffffffff160217905550505060016005600083815260200190815260200160002060003373ffffffffffffffffffffffffffffffffffffffff1673ffffffffffffffffffffffffffffffffffffffff16815260200190815260200160002060006101000a81548160ff0219169083151502179055507f46ea7ee0990cde33902e77e2d7200322990cb03186c32d68f2966739d28fb36681898833604051611ac99493929190614433565b60405180910390a17f79db182af3410c60080d8e7c7ed50f1977b0df228f066bbea532e7d75af80d2c818863ffffffff168460a00151611b099190613a1f565b604051611b1792919061447f565b60405180910390a15050505050505050565b60008054906101000a900473ffffffffffffffffffffffffffffffffffffffff1673ffffffffffffffffffffffffffffffffffffffff163373ffffffffffffffffffffffffffffffffffffffff1614611bb7576040517f08c379a0000000000000000000000000000000000000000000000000000000008152600401611bae90613b25565b60405180910390fd5b806000806101000a81548173ffffffffffffffffffffffffffffffffffffffff021916908373ffffffffffffffffffffffffffffffffffffffff16021790555050565b60028181548110611c0a57600080fd5b90600052602060002090600702016000915090508060000160009054906101000a900473ffffffffffffffffffffffffffffffffffffffff1690806001018054611c5390613a82565b80601f0160208091040260200160405190810160405280929190818152602001828054611c7f90613a82565b8015611ccc5780601f10611ca157610100808354040283529160200191611ccc565b820191906000526020600020905b815481529060010190602001808311611caf57829003601f168201915b5050505050908060020154908060030154908060040154908060050154908060060160009054906101000a900463ffffffff16908060060160049054906101000a900460ff16908060060160059054906101000a900460ff16908060060160069054906101000a900463ffffffff169080600601600a9054906101000a900463ffffffff1690508b565b806002805490508110611d9e576040517f08c379a0000000000000000000000000000000000000000000000000000000008152600401611d959061360c565b60405180910390fd5b60028181548110611db257611db161362c565b5b906000526020600020906007020160060160059054906101000a900460ff1615611e11576040517f08c379a0000000000000000000000000000000000000000000000000000000008152600401611e0890613bfd565b60405180910390fd5b6000806000611e4460028681548110611e2d57611e2c61362c565b5b9060005260206000209060070201600501546123c9565b5050925092509250600080600080611e5b426123c9565b50935093509350935086841080611e7157508583105b80611e7b57508482105b80611e865750601581105b611ec5576040517f08c379a0000000000000000000000000000000000000000000000000000000008152600401611ebc90613d93565b60405180910390fd5b600560008a815260200190815260200160002060003373ffffffffffffffffffffffffffffffffffffffff1673ffffffffffffffffffffffffffffffffffffffff16815260200190815260200160002060009054906101000a900460ff1615611f63576040517f08c379a0000000000000000000000000000000000000000000000000000000008152600401611f5a906144f4565b60405180910390fd5b60028981548110611f7757611f7661362c565b5b906000526020600020906007020160020154600160009054906101000a900473ffffffffffffffffffffffffffffffffffffffff1673ffffffffffffffffffffffffffffffffffffffff166370a08231336040518263ffffffff1660e01b8152600401611fe4919061352b565b602060405180830381865afa158015612001573d6000803e3d6000fd5b505050506040513d601f19601f820116820180604052508101906120259190613fed565b1015612066576040517f08c379a000000000000000000000000000000000000000000000000000000000815260040161205d90614560565b60405180910390fd5b6002898154811061207a5761207961362c565b5b906000526020600020906007020160020154600160009054906101000a900473ffffffffffffffffffffffffffffffffffffffff1673ffffffffffffffffffffffffffffffffffffffff1663dd62ed3e33306040518363ffffffff1660e01b81526004016120e9929190613faf565b602060405180830381865afa158015612106573d6000803e3d6000fd5b505050506040513d601f19601f8201168201806040525081019061212a9190613fed565b101561216b576040517f08c379a000000000000000000000000000000000000000000000000000000000815260040161216290614066565b60405180910390fd5b600160009054906101000a900473ffffffffffffffffffffffffffffffffffffffff1673ffffffffffffffffffffffffffffffffffffffff166323b872dd333060028d815481106121bf576121be61362c565b5b9060005260206000209060070201600201546040518463ffffffff1660e01b81526004016121ef93929190614086565b6020604051808303816000875af115801561220e573d6000803e3d6000fd5b505050506040513d601f19601f820116820180604052508101906122329190613915565b612271576040517f08c379a000000000000000000000000000000000000000000000000000000000815260040161226890614109565b60405180910390fd5b7f690ecbabe96222b39728b512682860cc6460002a670ff94954038286bea0ba6989336040516122a29291906139ae565b60405180910390a16001600560008b815260200190815260200160002060003373ffffffffffffffffffffffffffffffffffffffff1673ffffffffffffffffffffffffffffffffffffffff16815260200190815260200160002060006101000a81548160ff021916908315150217905550600289815481106123275761232661362c565b5b90600052602060002090600702016002015460028a8154811061234d5761234c61362c565b5b9060005260206000209060070201600301600082825461236d9190613a1f565b92505081905550505050505050505050565b60008054906101000a900473ffffffffffffffffffffffffffffffffffffffff1681565b600160009054906101000a900473ffffffffffffffffffffffffffffffffffffffff1681565b600080600080600080617e909050600081886123e59190613a1f565b9050600062015180905060006301e13380905060006301e28500905060006107b290506000805b8685836124199190613a1f565b116124a757600060048461242d9190614129565b14801561245f575060006064846124449190614129565b14158061245e575060006101908461245c9190614129565b145b5b156124855783826124709190613a1f565b9150808061247d906139d7565b915050612494565b84826124919190613a1f565b91505b828061249f906139d7565b93505061240c565b829c506000604051806101800160405280601f60ff1660ff168152602001601c60ff1660ff168152602001601f60ff1660ff168152602001601e60ff1660ff168152602001601f60ff1660ff168152602001601e60ff1660ff168152602001601f60ff1660ff168152602001601f60ff1660ff168152602001601e60ff1660ff168152602001601f60ff1660ff168152602001601e60ff1660ff168152602001601f60ff1660ff16815250905060005b6001156125dc576000600c820361256e57506125dc565b888383600c81106125825761258161362c565b5b602002015160ff166125949190614580565b8161259f9190613a1f565b905080856125ad9190613a1f565b8a10156125ba57506125dc565b80856125c69190613a1f565b945081806125d3906139d7565b92505050612557565b6001816125e99190613a1f565b9d50600188858b6125fa919061415a565b612604919061388f565b61260e9190613a1f565b9c50600088858b61261f919061415a565b6126299190613a1f565b9050610e10898261263a9190614129565b612644919061388f565b9c50603c610e10826126569190614129565b612660919061388f565b9b50505050505050505050505091939590929450565b600073e86fcf5213c785acf9a8bffeedefa9a2199f7da690506000730e1ef78939f9d3340e63a7a1077d50999cc6b64f731f4aef3a04372cf9d738d5459f31950a53969ca36040516020016126cc929190613faf565b604051602081830303815290604052905060007368c1f9620aec7f2913430ad6dac1bb16d8444f0073ffffffffffffffffffffffffffffffffffffffff1683858460405160240161271f93929190614617565b6040516020818303038152906040527fd8146e75000000000000000000000000000000000000000000000000000000007bffffffffffffffffffffffffffffffffffffffffffffffffffffffff19166020820180517bffffffffffffffffffffffffffffffffffffffffffffffffffffffff83818316178352505050506040516127a99190614691565b6000604051808303816000865af19150503d80600081146127e6576040519150601f19603f3d011682016040523d82523d6000602084013e6127eb565b606091505b505090508061282f576040517f08c379a0000000000000000000000000000000000000000000000000000000008152600401612826906146f4565b60405180910390fd5b50505050565b6000730e1ef78939f9d3340e63a7a1077d50999cc6b64f73ffffffffffffffffffffffffffffffffffffffff16731f4aef3a04372cf9d738d5459f31950a53969ca383600160405160240161288c93929190614714565b6040516020818303038152906040527f53d3ce5f000000000000000000000000000000000000000000000000000000007bffffffffffffffffffffffffffffffffffffffffffffffffffffffff19166020820180517bffffffffffffffffffffffffffffffffffffffffffffffffffffffff83818316178352505050506040516129169190614691565b6000604051808303816000865af19150503d8060008114612953576040519150601f19603f3d011682016040523d82523d6000602084013e612958565b606091505b505090508061299c576040517f08c379a0000000000000000000000000000000000000000000000000000000008152600401612993906146f4565b60405180910390fd5b5050565b8060028054905081106129e8576040517f08c379a00000000000000000000000000000000000000000000000000000000081526004016129df9061360c565b60405180910390fd5b600281815481106129fc576129fb61362c565b5b906000526020600020906007020160060160059054906101000a900460ff1615612a5b576040517f08c379a0000000000000000000000000000000000000000000000000000000008152600401612a5290613bfd565b60405180910390fd5b600060028381548110612a7157612a7061362c565b5b906000526020600020906007020160060160009054906101000a900463ffffffff1663ffffffff1660028481548110612aad57612aac61362c565b5b906000526020600020906007020160050154612ac99190613a1f565b9050600080600080612ada426123c9565b5093509350935093506000806000612af1886123c9565b505092509250925082871180612b0657508186115b80612b1057508085115b80612b1c575060158410155b612b5b576040517f08c379a0000000000000000000000000000000000000000000000000000000008152600401612b5290614797565b60405180910390fd5b612b98633b9aca0060028c81548110612b7757612b7661362c565b5b906000526020600020906007020160030154612b939190614580565b612c19565b600160028b81548110612bae57612bad61362c565b5b906000526020600020906007020160060160056101000a81548160ff0219169083151502179055507fc61ef8151923bbd8dc5f723ba25f26bb805ef4f9a52c5811df7242872edd2e0b8a604051612c059190612edc565b60405180910390a150505050505050505050565b6000730e1ef78939f9d3340e63a7a1077d50999cc6b64f73ffffffffffffffffffffffffffffffffffffffff16731f4aef3a04372cf9d738d5459f31950a53969ca383604051602401612c6d9291906138c0565b6040516020818303038152906040527fd8b11821000000000000000000000000000000000000000000000000000000007bffffffffffffffffffffffffffffffffffffffffffffffffffffffff19166020820180517bffffffffffffffffffffffffffffffffffffffffffffffffffffffff8381831617835250505050604051612cf79190614691565b6000604051808303816000865af19150503d8060008114612d34576040519150601f19603f3d011682016040523d82523d6000602084013e612d39565b606091505b5050905080612d7d576040517f08c379a0000000000000000000000000000000000000000000000000000000008152600401612d74906146f4565b60405180910390fd5b5050565b6040518060c0016040528060008152602001606081526020016000815260200160008152602001612db0612dc3565b8152602001612dbd612dc3565b81525090565b6040518060800160405280600490602082028036833780820191505090505090565b6000604051905090565b600080fd5b600080fd5b6000819050919050565b612e0c81612df9565b8114612e1757600080fd5b50565b600081359050612e2981612e03565b92915050565b600073ffffffffffffffffffffffffffffffffffffffff82169050919050565b6000612e5a82612e2f565b9050919050565b612e6a81612e4f565b8114612e7557600080fd5b50565b600081359050612e8781612e61565b92915050565b60008060408385031215612ea457612ea3612def565b5b6000612eb285828601612e1a565b9250506020612ec385828601612e78565b9150509250929050565b612ed681612df9565b82525050565b6000602082019050612ef16000830184612ecd565b92915050565b600060208284031215612f0d57612f0c612def565b5b6000612f1b84828501612e1a565b91505092915050565b60008115159050919050565b612f3981612f24565b82525050565b6000602082019050612f546000830184612f30565b92915050565b600081519050919050565b600082825260208201905092915050565b6000819050602082019050919050565b612f8f81612df9565b82525050565b600081519050919050565b600082825260208201905092915050565b60005b83811015612fcf578082015181840152602081019050612fb4565b60008484015250505050565b6000601f19601f8301169050919050565b6000612ff782612f95565b6130018185612fa0565b9350613011818560208601612fb1565b61301a81612fdb565b840191505092915050565b600060049050919050565b600081905092915050565b6000819050919050565b60006130518383612f86565b60208301905092915050565b6000602082019050919050565b61307381613025565b61307d8184613030565b92506130888261303b565b8060005b838110156130b95781516130a08782613045565b96506130ab8361305d565b92505060018101905061308c565b505050505050565b6000610180830160008301516130da6000860182612f86565b50602083015184820360208601526130f28282612fec565b91505060408301516131076040860182612f86565b50606083015161311a6060860182612f86565b50608083015161312d608086018261306a565b5060a083015161314161010086018261306a565b508091505092915050565b600061315883836130c1565b905092915050565b6000602082019050919050565b600061317882612f5a565b6131828185612f65565b93508360208202850161319485612f76565b8060005b858110156131d057848403895281516131b1858261314c565b94506131bc83613160565b925060208a01995050600181019050613198565b50829750879550505050505092915050565b600060208201905081810360008301526131fc818461316d565b905092915050565b60006020828403121561321a57613219612def565b5b600061322884828501612e78565b91505092915050565b600080fd5b600080fd5b7f4e487b7100000000000000000000000000000000000000000000000000000000600052604160045260246000fd5b61327382612fdb565b810181811067ffffffffffffffff821117156132925761329161323b565b5b80604052505050565b60006132a5612de5565b90506132b1828261326a565b919050565b600067ffffffffffffffff8211156132d1576132d061323b565b5b6132da82612fdb565b9050602081019050919050565b82818337600083830152505050565b6000613309613304846132b6565b61329b565b90508281526020810184848401111561332557613324613236565b5b6133308482856132e7565b509392505050565b600082601f83011261334d5761334c613231565b5b813561335d8482602086016132f6565b91505092915050565b600063ffffffff82169050919050565b61337f81613366565b811461338a57600080fd5b50565b60008135905061339c81613376565b92915050565b6000806000606084860312156133bb576133ba612def565b5b600084013567ffffffffffffffff8111156133d9576133d8612df4565b5b6133e586828701613338565b93505060206133f68682870161338d565b925050604061340786828701612e1a565b9150509250925092565b61341a81612e4f565b82525050565b600082825260208201905092915050565b600061343c82612f95565b6134468185613420565b9350613456818560208601612fb1565b61345f81612fdb565b840191505092915050565b61347381613366565b82525050565b60006101608201905061348f600083018e613411565b81810360208301526134a1818d613431565b90506134b0604083018c612ecd565b6134bd606083018b612ecd565b6134ca608083018a612ecd565b6134d760a0830189612ecd565b6134e460c083018861346a565b6134f160e0830187612f30565b6134ff610100830186612f30565b61350d61012083018561346a565b61351b61014083018461346a565b9c9b505050505050505050505050565b60006020820190506135406000830184613411565b92915050565b6000819050919050565b600061356b61356661356184612e2f565b613546565b612e2f565b9050919050565b600061357d82613550565b9050919050565b600061358f82613572565b9050919050565b61359f81613584565b82525050565b60006020820190506135ba6000830184613596565b92915050565b7f496e76616c6964206368616c6c656e6765204944000000000000000000000000600082015250565b60006135f6601483613420565b9150613601826135c0565b602082019050919050565b60006020820190508181036000830152613625816135e9565b9050919050565b7f4e487b7100000000000000000000000000000000000000000000000000000000600052603260045260246000fd5b7f4368616c6c656e67652069736e277420636f6d706c65746564207965742e0000600082015250565b6000613691601e83613420565b915061369c8261365b565b602082019050919050565b600060208201905081810360008301526136c081613684565b9050919050565b7f596f75277265206e6f742061207061727469636970616e74206f66207468697360008201527f206368616c6c656e67652e000000000000000000000000000000000000000000602082015250565b6000613723602b83613420565b915061372e826136c7565b604082019050919050565b6000602082019050818103600083015261375281613716565b9050919050565b7f416c726561647920636c61696d65640000000000000000000000000000000000600082015250565b600061378f600f83613420565b915061379a82613759565b602082019050919050565b600060208201905081810360008301526137be81613782565b9050919050565b7f596f75206469646e27742077696e2074686973206368616c6c656e67652e0000600082015250565b60006137fb601e83613420565b9150613806826137c5565b602082019050919050565b6000602082019050818103600083015261382a816137ee565b9050919050565b7f4e487b7100000000000000000000000000000000000000000000000000000000600052601260045260246000fd5b7f4e487b7100000000000000000000000000000000000000000000000000000000600052601160045260246000fd5b600061389a82612df9565b91506138a583612df9565b9250826138b5576138b4613831565b5b828204905092915050565b60006040820190506138d56000830185613411565b6138e26020830184612ecd565b9392505050565b6138f281612f24565b81146138fd57600080fd5b50565b60008151905061390f816138e9565b92915050565b60006020828403121561392b5761392a612def565b5b600061393984828501613900565b91505092915050565b7f52657761726420636c61696d206661696c65642e000000000000000000000000600082015250565b6000613978601483613420565b915061398382613942565b602082019050919050565b600060208201905081810360008301526139a78161396b565b9050919050565b60006040820190506139c36000830185612ecd565b6139d06020830184613411565b9392505050565b60006139e282612df9565b91507fffffffffffffffffffffffffffffffffffffffffffffffffffffffffffffffff8203613a1457613a13613860565b5b600182019050919050565b6000613a2a82612df9565b9150613a3583612df9565b9250828201905080821115613a4d57613a4c613860565b5b92915050565b7f4e487b7100000000000000000000000000000000000000000000000000000000600052602260045260246000fd5b60006002820490506001821680613a9a57607f821691505b602082108103613aad57613aac613a53565b5b50919050565b7f4f6e6c79207468652061646d696e2063616e2063616c6c20746869732066756e60008201527f6374696f6e2e0000000000000000000000000000000000000000000000000000602082015250565b6000613b0f602683613420565b9150613b1a82613ab3565b604082019050919050565b60006020820190508181036000830152613b3e81613b02565b9050919050565b7f496e76616c696420616464726573732e00000000000000000000000000000000600082015250565b6000613b7b601083613420565b9150613b8682613b45565b602082019050919050565b60006020820190508181036000830152613baa81613b6e565b9050919050565b7f4368616c6c656e676520616c726561647920636f6d706c657465640000000000600082015250565b6000613be7601b83613420565b9150613bf282613bb1565b602082019050919050565b60006020820190508181036000830152613c1681613bda565b9050919050565b7f596f7527766520616c726561647920636865636b656420746f6461792e000000600082015250565b6000613c53601d83613420565b9150613c5e82613c1d565b602082019050919050565b60006020820190508181036000830152613c8281613c46565b9050919050565b7f596f75277665206661696c656420746f6461792773206d697373696f6e2e0000600082015250565b6000613cbf601e83613420565b9150613cca82613c89565b602082019050919050565b60006020820190508181036000830152613cee81613cb2565b9050919050565b6000613d0082613366565b915063ffffffff8203613d1657613d15613860565b5b600182019050919050565b7f546865206170706c69636174696f6e20706572696f642068617320657870697260008201527f65642e0000000000000000000000000000000000000000000000000000000000602082015250565b6000613d7d602383613420565b9150613d8882613d21565b604082019050919050565b60006020820190508181036000830152613dac81613d70565b9050919050565b7f6368616c6c656e67652069736e277420636f6d706c6574656400000000000000600082015250565b6000613de9601983613420565b9150613df482613db3565b602082019050919050565b60006020820190508181036000830152613e1881613ddc565b9050919050565b7f4368616c6c656e6765206475726174696f6e206e6f74206f7665722079657400600082015250565b6000613e55601f83613420565b9150613e6082613e1f565b602082019050919050565b60006020820190508181036000830152613e8481613e48565b9050919050565b7f456e74727920616d6f756e742073686f756c642062652067726561746572207460008201527f68616e2030000000000000000000000000000000000000000000000000000000602082015250565b6000613ee7602583613420565b9150613ef282613e8b565b604082019050919050565b60006020820190508181036000830152613f1681613eda565b9050919050565b7f546865206475726174696f6e206d757374206265206174206c6561737420312060008201527f6461792e00000000000000000000000000000000000000000000000000000000602082015250565b6000613f79602483613420565b9150613f8482613f1d565b604082019050919050565b60006020820190508181036000830152613fa881613f6c565b9050919050565b6000604082019050613fc46000830185613411565b613fd16020830184613411565b9392505050565b600081519050613fe781612e03565b92915050565b60006020828403121561400357614002612def565b5b600061401184828501613fd8565b91505092915050565b7f4e6f7420656e6f75676820746f6b656e20616c6c6f77616e6365000000000000600082015250565b6000614050601a83613420565b915061405b8261401a565b602082019050919050565b6000602082019050818103600083015261407f81614043565b9050919050565b600060608201905061409b6000830186613411565b6140a86020830185613411565b6140b56040830184612ecd565b949350505050565b7f4661696c656420746f207472616e7366657220746f6b656e7300000000000000600082015250565b60006140f3601983613420565b91506140fe826140bd565b602082019050919050565b60006020820190508181036000830152614122816140e6565b9050919050565b600061413482612df9565b915061413f83612df9565b92508261414f5761414e613831565b5b828206905092915050565b600061416582612df9565b915061417083612df9565b925082820390508181111561418857614187613860565b5b92915050565b600061419982613366565b91506141a483613366565b9250826141b4576141b3613831565b5b828204905092915050565b60008190508160005260206000209050919050565b60006020601f8301049050919050565b600082821b905092915050565b6000600883026142217fffffffffffffffffffffffffffffffffffffffffffffffffffffffffffffffff826141e4565b61422b86836141e4565b95508019841693508086168417925050509392505050565b600061425e61425961425484612df9565b613546565b612df9565b9050919050565b6000819050919050565b61427883614243565b61428c61428482614265565b8484546141f1565b825550505050565b600090565b6142a1614294565b6142ac81848461426f565b505050565b5b818110156142d0576142c5600082614299565b6001810190506142b2565b5050565b601f821115614315576142e6816141bf565b6142ef846141d4565b810160208510156142fe578190505b61431261430a856141d4565b8301826142b1565b50505b505050565b600082821c905092915050565b60006143386000198460080261431a565b1980831691505092915050565b60006143518383614327565b9150826002028217905092915050565b61436a82612f95565b67ffffffffffffffff8111156143835761438261323b565b5b61438d8254613a82565b6143988282856142d4565b600060209050601f8311600181146143cb57600084156143b9578287015190505b6143c38582614345565b86555061442b565b601f1984166143d9866141bf565b60005b82811015614401578489015182556001820191506020850194506020810190506143dc565b8683101561441e578489015161441a601f891682614327565b8355505b6001600288020188555050505b505050505050565b60006080820190506144486000830187612ecd565b818103602083015261445a8186613431565b90506144696040830185612ecd565b6144766060830184613411565b95945050505050565b60006040820190506144946000830185612ecd565b6144a16020830184612ecd565b9392505050565b7f596f7527766520616c7265616479206a6f696e65642e00000000000000000000600082015250565b60006144de601683613420565b91506144e9826144a8565b602082019050919050565b6000602082019050818103600083015261450d816144d1565b9050919050565b7f496e73756666696369656e7420656e74727920616d6f756e7400000000000000600082015250565b600061454a601983613420565b915061455582614514565b602082019050919050565b600060208201905081810360008301526145798161453d565b9050919050565b600061458b82612df9565b915061459683612df9565b92508282026145a481612df9565b915082820484148315176145bb576145ba613860565b5b5092915050565b600081519050919050565b600082825260208201905092915050565b60006145e9826145c2565b6145f381856145cd565b9350614603818560208601612fb1565b61460c81612fdb565b840191505092915050565b600060608201905061462c6000830186613411565b6146396020830185612ecd565b818103604083015261464b81846145de565b9050949350505050565b600081905092915050565b600061466b826145c2565b6146758185614655565b9350614685818560208601612fb1565b80840191505092915050565b600061469d8284614660565b915081905092915050565b7f45787465726e616c2063616c6c206661696c6564000000000000000000000000600082015250565b60006146de601483613420565b91506146e9826146a8565b602082019050919050565b6000602082019050818103600083015261470d816146d1565b9050919050565b60006060820190506147296000830186613411565b6147366020830185612ecd565b6147436040830184612f30565b949350505050565b7f4368616c6c656e6765206475726174696f6e206e6f74206f766572207965742e600082015250565b6000614781602083613420565b915061478c8261474b565b602082019050919050565b600060208201905081810360008301526147b081614774565b905091905056fea2646970667358221220116ed913d10df877f6011f16a828e8b06c7515eec4980855c54734f1684a46b764736f6c63430008140033",
  "linkReferences": {},
  "deployedLinkReferences": {}
}