{
  "_format": "hh-sol-artifact-1",
  "contractName": "ChallengeContract",
  "sourceName": "contracts/ChallengeContract.sol",
  "abi": [
    {
      "inputs": [
        {
          "internalType": "address",
          "name": "_tokenAddress",
          "type": "address"
        }
      ],
      "stateMutability": "nonpayable",
      "type": "constructor"
    },
    {
      "anonymous": false,
      "inputs": [
        {
          "indexed": false,
          "internalType": "uint256",
          "name": "challengeId",
          "type": "uint256"
        },
        {
          "indexed": false,
          "internalType": "uint256",
          "name": "closureDate",
          "type": "uint256"
        }
      ],
      "name": "ChallengeClosureScheduled",
      "type": "event"
    },
    {
      "anonymous": false,
      "inputs": [
        {
          "indexed": false,
          "internalType": "uint256",
          "name": "challengeId",
          "type": "uint256"
        }
      ],
      "name": "ChallengeCompleted",
      "type": "event"
    },
    {
      "anonymous": false,
      "inputs": [
        {
          "indexed": false,
          "internalType": "uint256",
          "name": "challengeId",
          "type": "uint256"
        },
        {
          "indexed": false,
          "internalType": "string",
          "name": "challengeName",
          "type": "string"
        },
        {
          "indexed": false,
          "internalType": "uint256",
          "name": "entryAmount",
          "type": "uint256"
        },
        {
          "indexed": false,
          "internalType": "address",
          "name": "creator",
          "type": "address"
        }
      ],
      "name": "ChallengeCreated",
      "type": "event"
    },
    {
      "anonymous": false,
      "inputs": [
        {
          "indexed": false,
          "internalType": "uint256",
          "name": "challengeId",
          "type": "uint256"
        },
        {
          "indexed": false,
          "internalType": "address",
          "name": "participant",
          "type": "address"
        }
      ],
      "name": "ChallengeJoined",
      "type": "event"
    },
    {
      "anonymous": false,
      "inputs": [
        {
          "indexed": false,
          "internalType": "uint256",
          "name": "challengeId",
          "type": "uint256"
        },
        {
          "indexed": false,
          "internalType": "address",
          "name": "participant",
          "type": "address"
        }
      ],
      "name": "ChallengeRewardClaimed",
      "type": "event"
    },
    {
      "inputs": [],
      "name": "admin",
      "outputs": [
        {
          "internalType": "address",
          "name": "",
          "type": "address"
        }
      ],
      "stateMutability": "view",
      "type": "function"
    },
    {
      "inputs": [
        {
          "internalType": "uint256",
          "name": "",
          "type": "uint256"
        }
      ],
      "name": "challenges",
      "outputs": [
        {
          "internalType": "address",
          "name": "creator",
          "type": "address"
        },
        {
          "internalType": "string",
          "name": "challengeName",
          "type": "string"
        },
        {
          "internalType": "uint256",
          "name": "entryAmount",
          "type": "uint256"
        },
        {
          "internalType": "uint256",
          "name": "totalAmount",
          "type": "uint256"
        },
        {
          "internalType": "uint256",
          "name": "creationTime",
          "type": "uint256"
        },
        {
          "internalType": "uint256",
          "name": "applicationDeadline",
          "type": "uint256"
        },
        {
          "internalType": "uint256",
          "name": "duration",
          "type": "uint256"
        },
        {
          "internalType": "bool",
          "name": "canApplication",
          "type": "bool"
        },
        {
          "internalType": "bool",
          "name": "completed",
          "type": "bool"
        },
        {
          "internalType": "uint256",
          "name": "numOfWakeUpCheckToWin",
          "type": "uint256"
        },
        {
          "internalType": "uint256",
          "name": "numOfWinners",
          "type": "uint256"
        }
      ],
      "stateMutability": "view",
      "type": "function"
    },
    {
      "inputs": [
        {
          "internalType": "uint256",
          "name": "_challengeId",
          "type": "uint256"
        }
      ],
      "name": "claimRewards",
      "outputs": [],
      "stateMutability": "nonpayable",
      "type": "function"
    },
    {
      "inputs": [
        {
          "internalType": "uint256",
          "name": "_challengeId",
          "type": "uint256"
        }
      ],
      "name": "closeChallenge",
      "outputs": [],
      "stateMutability": "nonpayable",
      "type": "function"
    },
    {
      "inputs": [
        {
          "internalType": "string",
          "name": "_challengeName",
          "type": "string"
        },
        {
          "internalType": "uint256",
          "name": "_duration",
          "type": "uint256"
        },
        {
          "internalType": "uint256",
          "name": "_entryAmount",
          "type": "uint256"
        }
      ],
      "name": "createChallenge",
      "outputs": [],
      "stateMutability": "nonpayable",
      "type": "function"
    },
    {
      "inputs": [],
      "name": "getChallengeCount",
      "outputs": [
        {
          "internalType": "uint256",
          "name": "",
          "type": "uint256"
        }
      ],
      "stateMutability": "view",
      "type": "function"
    },
    {
      "inputs": [],
      "name": "getCurrentChallenges",
      "outputs": [
        {
          "components": [
            {
              "internalType": "uint256",
              "name": "id",
              "type": "uint256"
            },
            {
              "internalType": "string",
              "name": "challengeName",
              "type": "string"
            },
            {
              "internalType": "uint256",
              "name": "entryAmount",
              "type": "uint256"
            },
            {
              "internalType": "uint256",
              "name": "currentTotalAmount",
              "type": "uint256"
            },
            {
              "internalType": "uint256[4]",
              "name": "appDeadline",
              "type": "uint256[4]"
            },
            {
              "internalType": "uint256[4]",
              "name": "dueDate",
              "type": "uint256[4]"
            }
          ],
          "internalType": "struct ChallengeStorage.OngoingChallenge[]",
          "name": "",
          "type": "tuple[]"
        }
      ],
      "stateMutability": "view",
      "type": "function"
    },
    {
      "inputs": [
        {
          "internalType": "uint256",
          "name": "_challengeId",
          "type": "uint256"
        }
      ],
      "name": "joinChallenge",
      "outputs": [],
      "stateMutability": "nonpayable",
      "type": "function"
    },
    {
      "inputs": [
        {
          "internalType": "uint256",
          "name": "_challengeId",
          "type": "uint256"
        }
      ],
      "name": "runChallenge",
      "outputs": [],
      "stateMutability": "nonpayable",
      "type": "function"
    },
    {
      "inputs": [
        {
          "internalType": "address",
          "name": "_newTokenAddress",
          "type": "address"
        }
      ],
      "name": "setTokenAddress",
      "outputs": [],
      "stateMutability": "nonpayable",
      "type": "function"
    },
    {
      "inputs": [],
      "name": "token",
      "outputs": [
        {
          "internalType": "contract IERC20",
          "name": "",
          "type": "address"
        }
      ],
      "stateMutability": "view",
      "type": "function"
    },
    {
      "inputs": [
        {
          "internalType": "uint256",
          "name": "_challengeId",
          "type": "uint256"
        }
      ],
      "name": "wakeUpCheck",
      "outputs": [],
      "stateMutability": "nonpayable",
      "type": "function"
    },
    {
      "inputs": [
        {
          "internalType": "uint256",
          "name": "_challengeId",
          "type": "uint256"
        }
      ],
      "name": "withdrawalReward",
      "outputs": [],
      "stateMutability": "nonpayable",
      "type": "function"
    }
  ],
  "bytecode": "0x60806040523480156200001157600080fd5b50604051620043c5380380620043c5833981810160405281019062000037919062000129565b80600160006101000a81548173ffffffffffffffffffffffffffffffffffffffff021916908373ffffffffffffffffffffffffffffffffffffffff160217905550336000806101000a81548173ffffffffffffffffffffffffffffffffffffffff021916908373ffffffffffffffffffffffffffffffffffffffff160217905550506200015b565b600080fd5b600073ffffffffffffffffffffffffffffffffffffffff82169050919050565b6000620000f182620000c4565b9050919050565b6200010381620000e4565b81146200010f57600080fd5b50565b6000815190506200012381620000f8565b92915050565b600060208284031215620001425762000141620000bf565b5b6000620001528482850162000112565b91505092915050565b61425a806200016b6000396000f3fe608060405234801561001057600080fd5b50600436106100cf5760003560e01c8063497ddc631161008c5780638f1d3776116100665780638f1d3776146101d4578063e448ee261461020e578063f851a4401461022a578063fc0c546a14610248576100cf565b8063497ddc63146101805780634a4ae32b1461019c57806359808a97146101b8576100cf565b80630933f467146100d45780630962ef79146100f257806318d95b761461010e5780631aaaac931461012c57806326a4e8d214610148578063335eff3e14610164575b600080fd5b6100dc610266565b6040516100e99190612a00565b60405180910390f35b61010c60048036038101906101079190612a5b565b610273565b005b610116610747565b6040516101239190612d10565b60405180910390f35b61014660048036038101906101419190612e67565b610ab0565b005b610162600480360381019061015d9190612f34565b610ef8565b005b61017e60048036038101906101799190612a5b565b611039565b005b61019a60048036038101906101959190612a5b565b611491565b005b6101b660048036038101906101b19190612a5b565b611649565b005b6101d260048036038101906101cd9190612a5b565b6116ec565b005b6101ee60048036038101906101e99190612a5b565b61181e565b6040516102059b9a99989796959493929190612fd5565b60405180910390f35b61022860048036038101906102239190612a5b565b61194a565b005b610232611f97565b60405161023f9190613087565b60405180910390f35b610250611fbb565b60405161025d9190613101565b60405180910390f35b6000600280549050905090565b8060028054905081106102bb576040517f08c379a00000000000000000000000000000000000000000000000000000000081526004016102b290613168565b60405180910390fd5b600282815481106102cf576102ce613188565b5b90600052602060002090600e020160070160019054906101000a900460ff1661032d576040517f08c379a000000000000000000000000000000000000000000000000000000000815260040161032490613203565b60405180910390fd5b6002828154811061034157610340613188565b5b90600052602060002090600e0201600c0160003373ffffffffffffffffffffffffffffffffffffffff1673ffffffffffffffffffffffffffffffffffffffff16815260200190815260200160002060009054906101000a900460ff166103dc576040517f08c379a00000000000000000000000000000000000000000000000000000000081526004016103d390613295565b60405180910390fd5b600282815481106103f0576103ef613188565b5b90600052602060002090600e0201600d0160003373ffffffffffffffffffffffffffffffffffffffff1673ffffffffffffffffffffffffffffffffffffffff16815260200190815260200160002060009054906101000a900460ff161561048c576040517f08c379a000000000000000000000000000000000000000000000000000000000815260040161048390613301565b60405180910390fd5b600282815481106104a05761049f613188565b5b90600052602060002090600e020160080154600283815481106104c6576104c5613188565b5b90600052602060002090600e0201600a0160003373ffffffffffffffffffffffffffffffffffffffff1673ffffffffffffffffffffffffffffffffffffffff1681526020019081526020016000205414610555576040517f08c379a000000000000000000000000000000000000000000000000000000000815260040161054c9061336d565b60405180910390fd5b60006002838154811061056b5761056a613188565b5b90600052602060002090600e0201600901546002848154811061059157610590613188565b5b90600052602060002090600e0201600301546105ad91906133eb565b9050600160009054906101000a900473ffffffffffffffffffffffffffffffffffffffff1673ffffffffffffffffffffffffffffffffffffffff1663a9059cbb33836040518363ffffffff1660e01b815260040161060c92919061341c565b6020604051808303816000875af115801561062b573d6000803e3d6000fd5b505050506040513d601f19601f8201168201806040525081019061064f9190613471565b61068e576040517f08c379a0000000000000000000000000000000000000000000000000000000008152600401610685906134ea565b60405180910390fd5b6001600284815481106106a4576106a3613188565b5b90600052602060002090600e0201600d0160003373ffffffffffffffffffffffffffffffffffffffff1673ffffffffffffffffffffffffffffffffffffffff16815260200190815260200160002060006101000a81548160ff0219169083151502179055507fcc543a67f8dfe04cfbe3cdcf9eacffa678f7b557e40f7d0051fcf17e8165d5e3833360405161073a92919061350a565b60405180910390a1505050565b60606000805b6002805490508110156107b3576002818154811061076e5761076d613188565b5b90600052602060002090600e020160070160019054906101000a900460ff166107a057818061079c90613533565b9250505b80806107ab90613533565b91505061074d565b5060008167ffffffffffffffff8111156107d0576107cf612d3c565b5b60405190808252806020026020018201604052801561080957816020015b6107f6612983565b8152602001906001900390816107ee5790505b5090506000805b600280549050811015610aa6576002818154811061083157610830613188565b5b90600052602060002090600e020160070160019054906101000a900460ff16610a935760008060006108b7600285815481106108705761086f613188565b5b90600052602060002090600e0201600601546002868154811061089657610895613188565b5b90600052602060002090600e0201600501546108b2919061357b565b611fe1565b505092509250925060008060006108f2600288815481106108db576108da613188565b5b90600052602060002090600e020160050154611fe1565b50509250925092506040518060c001604052808881526020016002898154811061091f5761091e613188565b5b90600052602060002090600e0201600101805461093b906135de565b80601f0160208091040260200160405190810160405280929190818152602001828054610967906135de565b80156109b45780601f10610989576101008083540402835291602001916109b4565b820191906000526020600020905b81548152906001019060200180831161099757829003601f168201915b50505050508152602001600289815481106109d2576109d1613188565b5b90600052602060002090600e0201600201548152602001600289815481106109fd576109fc613188565b5b90600052602060002090600e020160030154815260200160405180608001604052808681526020018581526020018481526020016015815250815260200160405180608001604052808981526020018881526020018781526020016015815250815250898981518110610a7357610a72613188565b5b60200260200101819052508780610a8990613533565b9850505050505050505b8080610a9e90613533565b915050610810565b5081935050505090565b60008111610af3576040517f08c379a0000000000000000000000000000000000000000000000000000000008152600401610aea90613681565b60405180910390fd5b80600160009054906101000a900473ffffffffffffffffffffffffffffffffffffffff1673ffffffffffffffffffffffffffffffffffffffff1663dd62ed3e33306040518363ffffffff1660e01b8152600401610b519291906136a1565b602060405180830381865afa158015610b6e573d6000803e3d6000fd5b505050506040513d601f19601f82011682018060405250810190610b9291906136df565b1015610bd3576040517f08c379a0000000000000000000000000000000000000000000000000000000008152600401610bca90613758565b60405180910390fd5b600160009054906101000a900473ffffffffffffffffffffffffffffffffffffffff1673ffffffffffffffffffffffffffffffffffffffff166323b872dd3330846040518463ffffffff1660e01b8152600401610c3293929190613778565b6020604051808303816000875af1158015610c51573d6000803e3d6000fd5b505050506040513d601f19601f82011682018060405250810190610c759190613471565b610cb4576040517f08c379a0000000000000000000000000000000000000000000000000000000008152600401610cab906137fb565b60405180910390fd5b600260018160018154018082558091505003906000526020600020905050600060026001600280549050610ce8919061381b565b81548110610cf957610cf8613188565b5b90600052602060002090600e02019050338160000160006101000a81548173ffffffffffffffffffffffffffffffffffffffff021916908373ffffffffffffffffffffffffffffffffffffffff16021790555083816001019081610d5d91906139f1565b5081816002018190555081816003016000828254610d7b919061357b565b925050819055504281600401819055506201518042610d9a919061357b565b816005018190555082816006018190555060018160070160006101000a81548160ff02191690831515021790555060008160070160016101000a81548160ff0219169083151502179055506201518083610df491906133eb565b8160080181905550600181600c0160003373ffffffffffffffffffffffffffffffffffffffff1673ffffffffffffffffffffffffffffffffffffffff16815260200190815260200160002060006101000a81548160ff02191690831515021790555060006001600280549050610e6a919061381b565b90507f46ea7ee0990cde33902e77e2d7200322990cb03186c32d68f2966739d28fb36681868533604051610ea19493929190613ac3565b60405180910390a17f79db182af3410c60080d8e7c7ed50f1977b0df228f066bbea532e7d75af80d2c81858460050154610edb919061357b565b604051610ee9929190613b0f565b60405180910390a15050505050565b60008054906101000a900473ffffffffffffffffffffffffffffffffffffffff1673ffffffffffffffffffffffffffffffffffffffff163373ffffffffffffffffffffffffffffffffffffffff1614610f86576040517f08c379a0000000000000000000000000000000000000000000000000000000008152600401610f7d90613baa565b60405180910390fd5b600073ffffffffffffffffffffffffffffffffffffffff168173ffffffffffffffffffffffffffffffffffffffff1603610ff5576040517f08c379a0000000000000000000000000000000000000000000000000000000008152600401610fec90613c16565b60405180910390fd5b80600160006101000a81548173ffffffffffffffffffffffffffffffffffffffff021916908373ffffffffffffffffffffffffffffffffffffffff16021790555050565b806002805490508110611081576040517f08c379a000000000000000000000000000000000000000000000000000000000815260040161107890613168565b60405180910390fd5b6002818154811061109557611094613188565b5b90600052602060002090600e020160070160019054906101000a900460ff16156110f4576040517f08c379a00000000000000000000000000000000000000000000000000000000081526004016110eb90613c82565b60405180910390fd5b6002828154811061110857611107613188565b5b90600052602060002090600e0201600c0160003373ffffffffffffffffffffffffffffffffffffffff1673ffffffffffffffffffffffffffffffffffffffff16815260200190815260200160002060009054906101000a900460ff166111a3576040517f08c379a000000000000000000000000000000000000000000000000000000000815260040161119a90613295565b60405180910390fd5b6000806000611213600286815481106111bf576111be613188565b5b90600052602060002090600e0201600b0160003373ffffffffffffffffffffffffffffffffffffffff1673ffffffffffffffffffffffffffffffffffffffff16815260200190815260200160002054611fe1565b5050925092509250600080600080600061122c42611fe1565b945094509450945094508785118061124357508684115b8061124d57508583115b61128c576040517f08c379a000000000000000000000000000000000000000000000000000000000815260040161128390613cee565b60405180910390fd5b60068214801561129d575060058111155b6112dc576040517f08c379a00000000000000000000000000000000000000000000000000000000081526004016112d390613d5a565b60405180910390fd5b60028a815481106112f0576112ef613188565b5b90600052602060002090600e0201600a0160003373ffffffffffffffffffffffffffffffffffffffff1673ffffffffffffffffffffffffffffffffffffffff168152602001908152602001600020600081548092919061134f90613533565b91905055504260028b8154811061136957611368613188565b5b90600052602060002090600e0201600b0160003373ffffffffffffffffffffffffffffffffffffffff1673ffffffffffffffffffffffffffffffffffffffff1681526020019081526020016000208190555060028a815481106113cf576113ce613188565b5b90600052602060002090600e02016008015460028b815481106113f5576113f4613188565b5b90600052602060002090600e0201600a0160003373ffffffffffffffffffffffffffffffffffffffff1673ffffffffffffffffffffffffffffffffffffffff16815260200190815260200160002054036114855760028a8154811061145d5761145c613188565b5b90600052602060002090600e0201600901600081548092919061147f90613533565b91905055505b50505050505050505050565b60008054906101000a900473ffffffffffffffffffffffffffffffffffffffff1673ffffffffffffffffffffffffffffffffffffffff163373ffffffffffffffffffffffffffffffffffffffff161461151f576040517f08c379a000000000000000000000000000000000000000000000000000000000815260040161151690613baa565b60405180910390fd5b60008060006115526002858154811061153b5761153a613188565b5b90600052602060002090600e020160050154611fe1565b505092509250925060008060008061156942611fe1565b5093509350935093508684118061157f57508583115b8061158957508482115b806115945750601581115b6115d3576040517f08c379a00000000000000000000000000000000000000000000000000000000081526004016115ca90613dec565b60405180910390fd5b6000600289815481106115e9576115e8613188565b5b90600052602060002090600e020160070160006101000a81548160ff02191690831515021790555061163f6002898154811061162857611627613188565b5b90600052602060002090600e02016003015461228e565b5050505050505050565b6002818154811061165d5761165c613188565b5b90600052602060002090600e020160070160019054906101000a900460ff166116bb576040517f08c379a00000000000000000000000000000000000000000000000000000000081526004016116b290613e58565b60405180910390fd5b6116e9600282815481106116d2576116d1613188565b5b90600052602060002090600e02016003015461244d565b50565b60008054906101000a900473ffffffffffffffffffffffffffffffffffffffff1673ffffffffffffffffffffffffffffffffffffffff163373ffffffffffffffffffffffffffffffffffffffff161461177a576040517f08c379a000000000000000000000000000000000000000000000000000000000815260040161177190613baa565b60405180910390fd5b6002818154811061178e5761178d613188565b5b90600052602060002090600e020160060154600282815481106117b4576117b3613188565b5b90600052602060002090600e0201600501546117d0919061357b565b421015611812576040517f08c379a000000000000000000000000000000000000000000000000000000000815260040161180990613ec4565b60405180910390fd5b61181b816125b8565b50565b6002818154811061182e57600080fd5b90600052602060002090600e02016000915090508060000160009054906101000a900473ffffffffffffffffffffffffffffffffffffffff1690806001018054611877906135de565b80601f01602080910402602001604051908101604052809291908181526020018280546118a3906135de565b80156118f05780601f106118c5576101008083540402835291602001916118f0565b820191906000526020600020905b8154815290600101906020018083116118d357829003601f168201915b5050505050908060020154908060030154908060040154908060050154908060060154908060070160009054906101000a900460ff16908060070160019054906101000a900460ff1690806008015490806009015490508b565b806002805490508110611992576040517f08c379a000000000000000000000000000000000000000000000000000000000815260040161198990613168565b60405180910390fd5b600281815481106119a6576119a5613188565b5b90600052602060002090600e020160070160019054906101000a900460ff1615611a05576040517f08c379a00000000000000000000000000000000000000000000000000000000081526004016119fc90613c82565b60405180910390fd5b6000806000611a3860028681548110611a2157611a20613188565b5b90600052602060002090600e020160050154611fe1565b5050925092509250600080600080611a4f42611fe1565b50935093509350935086841080611a6557508583105b80611a6f57508482105b80611a7a5750601581105b611ab9576040517f08c379a0000000000000000000000000000000000000000000000000000000008152600401611ab090613dec565b60405180910390fd5b60028981548110611acd57611acc613188565b5b90600052602060002090600e0201600c0160003373ffffffffffffffffffffffffffffffffffffffff1673ffffffffffffffffffffffffffffffffffffffff16815260200190815260200160002060009054906101000a900460ff1615611b69576040517f08c379a0000000000000000000000000000000000000000000000000000000008152600401611b6090613f30565b60405180910390fd5b60028981548110611b7d57611b7c613188565b5b90600052602060002090600e020160020154600160009054906101000a900473ffffffffffffffffffffffffffffffffffffffff1673ffffffffffffffffffffffffffffffffffffffff166370a08231336040518263ffffffff1660e01b8152600401611bea9190613087565b602060405180830381865afa158015611c07573d6000803e3d6000fd5b505050506040513d601f19601f82011682018060405250810190611c2b91906136df565b1015611c6c576040517f08c379a0000000000000000000000000000000000000000000000000000000008152600401611c6390613f9c565b60405180910390fd5b60028981548110611c8057611c7f613188565b5b90600052602060002090600e020160020154600160009054906101000a900473ffffffffffffffffffffffffffffffffffffffff1673ffffffffffffffffffffffffffffffffffffffff1663dd62ed3e33306040518363ffffffff1660e01b8152600401611cef9291906136a1565b602060405180830381865afa158015611d0c573d6000803e3d6000fd5b505050506040513d601f19601f82011682018060405250810190611d3091906136df565b1015611d71576040517f08c379a0000000000000000000000000000000000000000000000000000000008152600401611d6890613758565b60405180910390fd5b600160009054906101000a900473ffffffffffffffffffffffffffffffffffffffff1673ffffffffffffffffffffffffffffffffffffffff166323b872dd333060028d81548110611dc557611dc4613188565b5b90600052602060002090600e0201600201546040518463ffffffff1660e01b8152600401611df593929190613778565b6020604051808303816000875af1158015611e14573d6000803e3d6000fd5b505050506040513d601f19601f82011682018060405250810190611e389190613471565b611e77576040517f08c379a0000000000000000000000000000000000000000000000000000000008152600401611e6e906137fb565b60405180910390fd5b7f690ecbabe96222b39728b512682860cc6460002a670ff94954038286bea0ba698933604051611ea892919061350a565b60405180910390a1600160028a81548110611ec657611ec5613188565b5b90600052602060002090600e0201600c0160003373ffffffffffffffffffffffffffffffffffffffff1673ffffffffffffffffffffffffffffffffffffffff16815260200190815260200160002060006101000a81548160ff02191690831515021790555060028981548110611f3f57611f3e613188565b5b90600052602060002090600e02016002015460028a81548110611f6557611f64613188565b5b90600052602060002090600e02016003016000828254611f85919061357b565b92505081905550505050505050505050565b60008054906101000a900473ffffffffffffffffffffffffffffffffffffffff1681565b600160009054906101000a900473ffffffffffffffffffffffffffffffffffffffff1681565b600080600080600080617e90905060008188611ffd919061357b565b9050600062015180905060006301e13380905060006301e28500905060006107b290506000805b868583612031919061357b565b116120bf5760006004846120459190613fbc565b1480156120775750600060648461205c9190613fbc565b14158061207657506000610190846120749190613fbc565b145b5b1561209d578382612088919061357b565b9150808061209590613533565b9150506120ac565b84826120a9919061357b565b91505b82806120b790613533565b935050612024565b829c506000604051806101800160405280601f60ff1660ff168152602001601c60ff1660ff168152602001601f60ff1660ff168152602001601e60ff1660ff168152602001601f60ff1660ff168152602001601e60ff1660ff168152602001601f60ff1660ff168152602001601f60ff1660ff168152602001601e60ff1660ff168152602001601f60ff1660ff168152602001601e60ff1660ff168152602001601f60ff1660ff16815250905060005b6001156121f4576000600c820361218657506121f4565b888383600c811061219a57612199613188565b5b602002015160ff166121ac9190613fed565b816121b7919061357b565b905080856121c5919061357b565b8a10156121d257506121f4565b80856121de919061357b565b945081806121eb90613533565b9250505061216f565b600181612201919061357b565b9d50600188858b612212919061381b565b61221c91906133eb565b612226919061357b565b9c50600088858b612237919061381b565b612241919061357b565b9050610e1089826122529190613fbc565b61225c91906133eb565b9c50603c610e108261226e9190613fbc565b61227891906133eb565b9b50505050505050505050505091939590929450565b600073e86fcf5213c785acf9a8bffeedefa9a2199f7da690506000730e1ef78939f9d3340e63a7a1077d50999cc6b64f731f4aef3a04372cf9d738d5459f31950a53969ca36040516020016122e49291906136a1565b604051602081830303815290604052905060007368c1f9620aec7f2913430ad6dac1bb16d8444f0073ffffffffffffffffffffffffffffffffffffffff1683858460405160240161233793929190614084565b6040516020818303038152906040527fd8146e75000000000000000000000000000000000000000000000000000000007bffffffffffffffffffffffffffffffffffffffffffffffffffffffff19166020820180517bffffffffffffffffffffffffffffffffffffffffffffffffffffffff83818316178352505050506040516123c191906140fe565b6000604051808303816000865af19150503d80600081146123fe576040519150601f19603f3d011682016040523d82523d6000602084013e612403565b606091505b5050905080612447576040517f08c379a000000000000000000000000000000000000000000000000000000000815260040161243e90614161565b60405180910390fd5b50505050565b6000730e1ef78939f9d3340e63a7a1077d50999cc6b64f73ffffffffffffffffffffffffffffffffffffffff16731f4aef3a04372cf9d738d5459f31950a53969ca38360016040516024016124a493929190614181565b6040516020818303038152906040527f53d3ce5f000000000000000000000000000000000000000000000000000000007bffffffffffffffffffffffffffffffffffffffffffffffffffffffff19166020820180517bffffffffffffffffffffffffffffffffffffffffffffffffffffffff838183161783525050505060405161252e91906140fe565b6000604051808303816000865af19150503d806000811461256b576040519150601f19603f3d011682016040523d82523d6000602084013e612570565b606091505b50509050806125b4576040517f08c379a00000000000000000000000000000000000000000000000000000000081526004016125ab90614161565b60405180910390fd5b5050565b806002805490508110612600576040517f08c379a00000000000000000000000000000000000000000000000000000000081526004016125f790613168565b60405180910390fd5b6002818154811061261457612613613188565b5b90600052602060002090600e020160070160019054906101000a900460ff1615612673576040517f08c379a000000000000000000000000000000000000000000000000000000000815260040161266a90613c82565b60405180910390fd5b60006002838154811061268957612688613188565b5b90600052602060002090600e020160060154600284815481106126af576126ae613188565b5b90600052602060002090600e0201600501546126cb919061357b565b90506000806000806126dc42611fe1565b50935093509350935060008060006126f388611fe1565b50509250925092508287118061270857508186115b8061271257508085115b8061271e575060158410155b61275d576040517f08c379a000000000000000000000000000000000000000000000000000000000815260040161275490614204565b60405180910390fd5b61279a633b9aca0060028c8154811061277957612778613188565b5b90600052602060002090600e0201600301546127959190613fed565b61281b565b600160028b815481106127b0576127af613188565b5b90600052602060002090600e020160070160016101000a81548160ff0219169083151502179055507fc61ef8151923bbd8dc5f723ba25f26bb805ef4f9a52c5811df7242872edd2e0b8a6040516128079190612a00565b60405180910390a150505050505050505050565b6000730e1ef78939f9d3340e63a7a1077d50999cc6b64f73ffffffffffffffffffffffffffffffffffffffff16731f4aef3a04372cf9d738d5459f31950a53969ca38360405160240161286f92919061341c565b6040516020818303038152906040527fd8b11821000000000000000000000000000000000000000000000000000000007bffffffffffffffffffffffffffffffffffffffffffffffffffffffff19166020820180517bffffffffffffffffffffffffffffffffffffffffffffffffffffffff83818316178352505050506040516128f991906140fe565b6000604051808303816000865af19150503d8060008114612936576040519150601f19603f3d011682016040523d82523d6000602084013e61293b565b606091505b505090508061297f576040517f08c379a000000000000000000000000000000000000000000000000000000000815260040161297690614161565b60405180910390fd5b5050565b6040518060c00160405280600081526020016060815260200160008152602001600081526020016129b26129c5565b81526020016129bf6129c5565b81525090565b6040518060800160405280600490602082028036833780820191505090505090565b6000819050919050565b6129fa816129e7565b82525050565b6000602082019050612a1560008301846129f1565b92915050565b6000604051905090565b600080fd5b600080fd5b612a38816129e7565b8114612a4357600080fd5b50565b600081359050612a5581612a2f565b92915050565b600060208284031215612a7157612a70612a25565b5b6000612a7f84828501612a46565b91505092915050565b600081519050919050565b600082825260208201905092915050565b6000819050602082019050919050565b612abd816129e7565b82525050565b600081519050919050565b600082825260208201905092915050565b60005b83811015612afd578082015181840152602081019050612ae2565b60008484015250505050565b6000601f19601f8301169050919050565b6000612b2582612ac3565b612b2f8185612ace565b9350612b3f818560208601612adf565b612b4881612b09565b840191505092915050565b600060049050919050565b600081905092915050565b6000819050919050565b6000612b7f8383612ab4565b60208301905092915050565b6000602082019050919050565b612ba181612b53565b612bab8184612b5e565b9250612bb682612b69565b8060005b83811015612be7578151612bce8782612b73565b9650612bd983612b8b565b925050600181019050612bba565b505050505050565b600061018083016000830151612c086000860182612ab4565b5060208301518482036020860152612c208282612b1a565b9150506040830151612c356040860182612ab4565b506060830151612c486060860182612ab4565b506080830151612c5b6080860182612b98565b5060a0830151612c6f610100860182612b98565b508091505092915050565b6000612c868383612bef565b905092915050565b6000602082019050919050565b6000612ca682612a88565b612cb08185612a93565b935083602082028501612cc285612aa4565b8060005b85811015612cfe5784840389528151612cdf8582612c7a565b9450612cea83612c8e565b925060208a01995050600181019050612cc6565b50829750879550505050505092915050565b60006020820190508181036000830152612d2a8184612c9b565b905092915050565b600080fd5b600080fd5b7f4e487b7100000000000000000000000000000000000000000000000000000000600052604160045260246000fd5b612d7482612b09565b810181811067ffffffffffffffff82111715612d9357612d92612d3c565b5b80604052505050565b6000612da6612a1b565b9050612db28282612d6b565b919050565b600067ffffffffffffffff821115612dd257612dd1612d3c565b5b612ddb82612b09565b9050602081019050919050565b82818337600083830152505050565b6000612e0a612e0584612db7565b612d9c565b905082815260208101848484011115612e2657612e25612d37565b5b612e31848285612de8565b509392505050565b600082601f830112612e4e57612e4d612d32565b5b8135612e5e848260208601612df7565b91505092915050565b600080600060608486031215612e8057612e7f612a25565b5b600084013567ffffffffffffffff811115612e9e57612e9d612a2a565b5b612eaa86828701612e39565b9350506020612ebb86828701612a46565b9250506040612ecc86828701612a46565b9150509250925092565b600073ffffffffffffffffffffffffffffffffffffffff82169050919050565b6000612f0182612ed6565b9050919050565b612f1181612ef6565b8114612f1c57600080fd5b50565b600081359050612f2e81612f08565b92915050565b600060208284031215612f4a57612f49612a25565b5b6000612f5884828501612f1f565b91505092915050565b612f6a81612ef6565b82525050565b600082825260208201905092915050565b6000612f8c82612ac3565b612f968185612f70565b9350612fa6818560208601612adf565b612faf81612b09565b840191505092915050565b60008115159050919050565b612fcf81612fba565b82525050565b600061016082019050612feb600083018e612f61565b8181036020830152612ffd818d612f81565b905061300c604083018c6129f1565b613019606083018b6129f1565b613026608083018a6129f1565b61303360a08301896129f1565b61304060c08301886129f1565b61304d60e0830187612fc6565b61305b610100830186612fc6565b6130696101208301856129f1565b6130776101408301846129f1565b9c9b505050505050505050505050565b600060208201905061309c6000830184612f61565b92915050565b6000819050919050565b60006130c76130c26130bd84612ed6565b6130a2565b612ed6565b9050919050565b60006130d9826130ac565b9050919050565b60006130eb826130ce565b9050919050565b6130fb816130e0565b82525050565b600060208201905061311660008301846130f2565b92915050565b7f496e76616c6964206368616c6c656e6765204944000000000000000000000000600082015250565b6000613152601483612f70565b915061315d8261311c565b602082019050919050565b6000602082019050818103600083015261318181613145565b9050919050565b7f4e487b7100000000000000000000000000000000000000000000000000000000600052603260045260246000fd5b7f4368616c6c656e67652069736e277420636f6d706c65746564207965742e0000600082015250565b60006131ed601e83612f70565b91506131f8826131b7565b602082019050919050565b6000602082019050818103600083015261321c816131e0565b9050919050565b7f596f75277265206e6f742061207061727469636970616e74206f66207468697360008201527f206368616c6c656e67652e000000000000000000000000000000000000000000602082015250565b600061327f602b83612f70565b915061328a82613223565b604082019050919050565b600060208201905081810360008301526132ae81613272565b9050919050565b7f416c726561647920636c61696d65640000000000000000000000000000000000600082015250565b60006132eb600f83612f70565b91506132f6826132b5565b602082019050919050565b6000602082019050818103600083015261331a816132de565b9050919050565b7f596f75206469646e27742077696e2074686973206368616c6c656e67652e0000600082015250565b6000613357601e83612f70565b915061336282613321565b602082019050919050565b600060208201905081810360008301526133868161334a565b9050919050565b7f4e487b7100000000000000000000000000000000000000000000000000000000600052601260045260246000fd5b7f4e487b7100000000000000000000000000000000000000000000000000000000600052601160045260246000fd5b60006133f6826129e7565b9150613401836129e7565b9250826134115761341061338d565b5b828204905092915050565b60006040820190506134316000830185612f61565b61343e60208301846129f1565b9392505050565b61344e81612fba565b811461345957600080fd5b50565b60008151905061346b81613445565b92915050565b60006020828403121561348757613486612a25565b5b60006134958482850161345c565b91505092915050565b7f52657761726420636c61696d206661696c65642e000000000000000000000000600082015250565b60006134d4601483612f70565b91506134df8261349e565b602082019050919050565b60006020820190508181036000830152613503816134c7565b9050919050565b600060408201905061351f60008301856129f1565b61352c6020830184612f61565b9392505050565b600061353e826129e7565b91507fffffffffffffffffffffffffffffffffffffffffffffffffffffffffffffffff82036135705761356f6133bc565b5b600182019050919050565b6000613586826129e7565b9150613591836129e7565b92508282019050808211156135a9576135a86133bc565b5b92915050565b7f4e487b7100000000000000000000000000000000000000000000000000000000600052602260045260246000fd5b600060028204905060018216806135f657607f821691505b602082108103613609576136086135af565b5b50919050565b7f456e74727920616d6f756e742073686f756c642062652067726561746572207460008201527f68616e2030000000000000000000000000000000000000000000000000000000602082015250565b600061366b602583612f70565b91506136768261360f565b604082019050919050565b6000602082019050818103600083015261369a8161365e565b9050919050565b60006040820190506136b66000830185612f61565b6136c36020830184612f61565b9392505050565b6000815190506136d981612a2f565b92915050565b6000602082840312156136f5576136f4612a25565b5b6000613703848285016136ca565b91505092915050565b7f4e6f7420656e6f75676820746f6b656e20616c6c6f77616e6365000000000000600082015250565b6000613742601a83612f70565b915061374d8261370c565b602082019050919050565b6000602082019050818103600083015261377181613735565b9050919050565b600060608201905061378d6000830186612f61565b61379a6020830185612f61565b6137a760408301846129f1565b949350505050565b7f4661696c656420746f207472616e7366657220746f6b656e7300000000000000600082015250565b60006137e5601983612f70565b91506137f0826137af565b602082019050919050565b60006020820190508181036000830152613814816137d8565b9050919050565b6000613826826129e7565b9150613831836129e7565b9250828203905081811115613849576138486133bc565b5b92915050565b60008190508160005260206000209050919050565b60006020601f8301049050919050565b600082821b905092915050565b6000600883026138b17fffffffffffffffffffffffffffffffffffffffffffffffffffffffffffffffff82613874565b6138bb8683613874565b95508019841693508086168417925050509392505050565b60006138ee6138e96138e4846129e7565b6130a2565b6129e7565b9050919050565b6000819050919050565b613908836138d3565b61391c613914826138f5565b848454613881565b825550505050565b600090565b613931613924565b61393c8184846138ff565b505050565b5b8181101561396057613955600082613929565b600181019050613942565b5050565b601f8211156139a5576139768161384f565b61397f84613864565b8101602085101561398e578190505b6139a261399a85613864565b830182613941565b50505b505050565b600082821c905092915050565b60006139c8600019846008026139aa565b1980831691505092915050565b60006139e183836139b7565b9150826002028217905092915050565b6139fa82612ac3565b67ffffffffffffffff811115613a1357613a12612d3c565b5b613a1d82546135de565b613a28828285613964565b600060209050601f831160018114613a5b5760008415613a49578287015190505b613a5385826139d5565b865550613abb565b601f198416613a698661384f565b60005b82811015613a9157848901518255600182019150602085019450602081019050613a6c565b86831015613aae5784890151613aaa601f8916826139b7565b8355505b6001600288020188555050505b505050505050565b6000608082019050613ad860008301876129f1565b8181036020830152613aea8186612f81565b9050613af960408301856129f1565b613b066060830184612f61565b95945050505050565b6000604082019050613b2460008301856129f1565b613b3160208301846129f1565b9392505050565b7f4f6e6c79207468652061646d696e2063616e2063616c6c20746869732066756e60008201527f6374696f6e2e0000000000000000000000000000000000000000000000000000602082015250565b6000613b94602683612f70565b9150613b9f82613b38565b604082019050919050565b60006020820190508181036000830152613bc381613b87565b9050919050565b7f496e76616c696420616464726573732e00000000000000000000000000000000600082015250565b6000613c00601083612f70565b9150613c0b82613bca565b602082019050919050565b60006020820190508181036000830152613c2f81613bf3565b9050919050565b7f4368616c6c656e676520616c726561647920636f6d706c657465640000000000600082015250565b6000613c6c601b83612f70565b9150613c7782613c36565b602082019050919050565b60006020820190508181036000830152613c9b81613c5f565b9050919050565b7f596f7527766520616c726561647920636865636b656420746f6461792e000000600082015250565b6000613cd8601d83612f70565b9150613ce382613ca2565b602082019050919050565b60006020820190508181036000830152613d0781613ccb565b9050919050565b7f596f75277665206661696c656420746f6461792773206d697373696f6e2e0000600082015250565b6000613d44601e83612f70565b9150613d4f82613d0e565b602082019050919050565b60006020820190508181036000830152613d7381613d37565b9050919050565b7f546865206170706c69636174696f6e20706572696f642068617320657870697260008201527f65642e0000000000000000000000000000000000000000000000000000000000602082015250565b6000613dd6602383612f70565b9150613de182613d7a565b604082019050919050565b60006020820190508181036000830152613e0581613dc9565b9050919050565b7f6368616c6c656e67652069736e277420636f6d706c6574656400000000000000600082015250565b6000613e42601983612f70565b9150613e4d82613e0c565b602082019050919050565b60006020820190508181036000830152613e7181613e35565b9050919050565b7f4368616c6c656e6765206475726174696f6e206e6f74206f7665722079657400600082015250565b6000613eae601f83612f70565b9150613eb982613e78565b602082019050919050565b60006020820190508181036000830152613edd81613ea1565b9050919050565b7f596f7527766520616c7265616479206a6f696e65642e00000000000000000000600082015250565b6000613f1a601683612f70565b9150613f2582613ee4565b602082019050919050565b60006020820190508181036000830152613f4981613f0d565b9050919050565b7f496e73756666696369656e7420656e74727920616d6f756e7400000000000000600082015250565b6000613f86601983612f70565b9150613f9182613f50565b602082019050919050565b60006020820190508181036000830152613fb581613f79565b9050919050565b6000613fc7826129e7565b9150613fd2836129e7565b925082613fe257613fe161338d565b5b828206905092915050565b6000613ff8826129e7565b9150614003836129e7565b9250828202614011816129e7565b91508282048414831517614028576140276133bc565b5b5092915050565b600081519050919050565b600082825260208201905092915050565b60006140568261402f565b614060818561403a565b9350614070818560208601612adf565b61407981612b09565b840191505092915050565b60006060820190506140996000830186612f61565b6140a660208301856129f1565b81810360408301526140b8818461404b565b9050949350505050565b600081905092915050565b60006140d88261402f565b6140e281856140c2565b93506140f2818560208601612adf565b80840191505092915050565b600061410a82846140cd565b915081905092915050565b7f45787465726e616c2063616c6c206661696c6564000000000000000000000000600082015250565b600061414b601483612f70565b915061415682614115565b602082019050919050565b6000602082019050818103600083015261417a8161413e565b9050919050565b60006060820190506141966000830186612f61565b6141a360208301856129f1565b6141b06040830184612fc6565b949350505050565b7f4368616c6c656e6765206475726174696f6e206e6f74206f766572207965742e600082015250565b60006141ee602083612f70565b91506141f9826141b8565b602082019050919050565b6000602082019050818103600083015261421d816141e1565b905091905056fea2646970667358221220e3aefb0cbb1344295decb42d4a7af6950f9fd5b47890b2a39d58eaef491abf2564736f6c63430008140033",
  "linkReferences": {},
  "deployedLinkReferences": {}
}