{
  "_format": "hh-sol-artifact-1",
  "contractName": "ChallengeStorage",
  "sourceName": "contracts/ChallengeStorage.sol",
  "abi": [
    {
      "inputs": [],
      "name": "admin",
      "outputs": [
        {
          "internalType": "address",
          "name": "",
          "type": "address"
        }
      ],
      "stateMutability": "view",
      "type": "function"
    },
    {
      "inputs": [
        {
          "internalType": "uint256",
          "name": "",
          "type": "uint256"
        }
      ],
      "name": "challenges",
      "outputs": [
        {
          "internalType": "address",
          "name": "creator",
          "type": "address"
        },
        {
          "internalType": "string",
          "name": "challengeName",
          "type": "string"
        },
        {
          "internalType": "uint256",
          "name": "entryAmount",
          "type": "uint256"
        },
        {
          "internalType": "uint256",
          "name": "totalAmount",
          "type": "uint256"
        },
        {
          "internalType": "uint256",
          "name": "creationTime",
          "type": "uint256"
        },
        {
          "internalType": "uint256",
          "name": "applicationDeadline",
          "type": "uint256"
        },
        {
          "internalType": "uint256",
          "name": "duration",
          "type": "uint256"
        },
        {
          "internalType": "bool",
          "name": "canApplication",
          "type": "bool"
        },
        {
          "internalType": "bool",
          "name": "completed",
          "type": "bool"
        },
        {
          "internalType": "uint256",
          "name": "numOfWakeUpCheckToWin",
          "type": "uint256"
        },
        {
          "internalType": "uint256",
          "name": "numOfWinners",
          "type": "uint256"
        }
      ],
      "stateMutability": "view",
      "type": "function"
    },
    {
      "inputs": [],
      "name": "token",
      "outputs": [
        {
          "internalType": "contract IERC20",
          "name": "",
          "type": "address"
        }
      ],
      "stateMutability": "view",
      "type": "function"
    }
  ],
  "bytecode": "0x608060405234801561001057600080fd5b50610572806100206000396000f3fe608060405234801561001057600080fd5b50600436106100415760003560e01c80638f1d377614610046578063f851a44014610080578063fc0c546a1461009e575b600080fd5b610060600480360381019061005b919061026d565b6100bc565b6040516100779b9a99989796959493929190610395565b60405180910390f35b6100886101e8565b6040516100959190610447565b60405180910390f35b6100a661020c565b6040516100b391906104c1565b60405180910390f35b600281815481106100cc57600080fd5b90600052602060002090600a02016000915090508060000160009054906101000a900473ffffffffffffffffffffffffffffffffffffffff16908060010180546101159061050b565b80601f01602080910402602001604051908101604052809291908181526020018280546101419061050b565b801561018e5780601f106101635761010080835404028352916020019161018e565b820191906000526020600020905b81548152906001019060200180831161017157829003601f168201915b5050505050908060020154908060030154908060040154908060050154908060060154908060070160009054906101000a900460ff16908060070160019054906101000a900460ff1690806008015490806009015490508b565b60008054906101000a900473ffffffffffffffffffffffffffffffffffffffff1681565b600160009054906101000a900473ffffffffffffffffffffffffffffffffffffffff1681565b600080fd5b6000819050919050565b61024a81610237565b811461025557600080fd5b50565b60008135905061026781610241565b92915050565b60006020828403121561028357610282610232565b5b600061029184828501610258565b91505092915050565b600073ffffffffffffffffffffffffffffffffffffffff82169050919050565b60006102c58261029a565b9050919050565b6102d5816102ba565b82525050565b600081519050919050565b600082825260208201905092915050565b60005b838110156103155780820151818401526020810190506102fa565b60008484015250505050565b6000601f19601f8301169050919050565b600061033d826102db565b61034781856102e6565b93506103578185602086016102f7565b61036081610321565b840191505092915050565b61037481610237565b82525050565b60008115159050919050565b61038f8161037a565b82525050565b6000610160820190506103ab600083018e6102cc565b81810360208301526103bd818d610332565b90506103cc604083018c61036b565b6103d9606083018b61036b565b6103e6608083018a61036b565b6103f360a083018961036b565b61040060c083018861036b565b61040d60e0830187610386565b61041b610100830186610386565b61042961012083018561036b565b61043761014083018461036b565b9c9b505050505050505050505050565b600060208201905061045c60008301846102cc565b92915050565b6000819050919050565b600061048761048261047d8461029a565b610462565b61029a565b9050919050565b60006104998261046c565b9050919050565b60006104ab8261048e565b9050919050565b6104bb816104a0565b82525050565b60006020820190506104d660008301846104b2565b92915050565b7f4e487b7100000000000000000000000000000000000000000000000000000000600052602260045260246000fd5b6000600282049050600182168061052357607f821691505b602082108103610536576105356104dc565b5b5091905056fea2646970667358221220e2e33eea64e58783de9a310f9723a18d2e6663b5cf41d89064705dcb1489034c64736f6c63430008140033",
  "linkReferences": {},
  "deployedLinkReferences": {}
}